{
  "_format": "hh-sol-artifact-1",
  "contractName": "ProfitableSaucerSwap",
  "sourceName": "contracts/ProfitableSaucerSwap.sol",
  "abi": [
    {
      "inputs": [
        {
          "internalType": "address",
          "name": "_swapRouter",
          "type": "address"
        },
        {
          "internalType": "address",
          "name": "_quoter",
          "type": "address"
        },
        {
          "internalType": "address",
          "name": "_whbar",
          "type": "address"
        },
        {
          "internalType": "address",
          "name": "_lotteryPool",
          "type": "address"
        }
      ],
      "stateMutability": "nonpayable",
      "type": "constructor"
    },
    {
      "anonymous": false,
      "inputs": [
        {
          "indexed": true,
          "internalType": "address",
          "name": "token",
          "type": "address"
        },
        {
          "indexed": false,
          "internalType": "uint256",
          "name": "amount",
          "type": "uint256"
        },
        {
          "indexed": true,
          "internalType": "address",
          "name": "to",
          "type": "address"
        }
      ],
      "name": "EmergencyWithdraw",
      "type": "event"
    },
    {
      "anonymous": false,
      "inputs": [
        {
          "indexed": true,
          "internalType": "address",
          "name": "newLotteryContract",
          "type": "address"
        }
      ],
      "name": "LotteryContractUpdated",
      "type": "event"
    },
    {
      "anonymous": false,
      "inputs": [
        {
          "indexed": true,
          "internalType": "address",
          "name": "newLotteryPool",
          "type": "address"
        }
      ],
      "name": "LotteryPoolUpdated",
      "type": "event"
    },
    {
      "anonymous": false,
      "inputs": [
        {
          "indexed": true,
          "internalType": "address",
          "name": "previousOwner",
          "type": "address"
        },
        {
          "indexed": true,
          "internalType": "address",
          "name": "newOwner",
          "type": "address"
        }
      ],
      "name": "OwnershipTransferred",
      "type": "event"
    },
    {
      "anonymous": false,
      "inputs": [
        {
          "indexed": true,
          "internalType": "address",
          "name": "user",
          "type": "address"
        },
        {
          "indexed": false,
          "internalType": "uint256",
          "name": "profit",
          "type": "uint256"
        },
        {
          "indexed": false,
          "internalType": "uint256",
          "name": "lotteryContribution",
          "type": "uint256"
        }
      ],
      "name": "RoundTripCompleted",
      "type": "event"
    },
    {
      "anonymous": false,
      "inputs": [
        {
          "indexed": true,
          "internalType": "address",
          "name": "user",
          "type": "address"
        },
        {
          "indexed": true,
          "internalType": "address",
          "name": "tokenIn",
          "type": "address"
        },
        {
          "indexed": true,
          "internalType": "address",
          "name": "tokenOut",
          "type": "address"
        },
        {
          "indexed": false,
          "internalType": "uint256",
          "name": "amountIn",
          "type": "uint256"
        },
        {
          "indexed": false,
          "internalType": "uint256",
          "name": "amountOut",
          "type": "uint256"
        },
        {
          "indexed": false,
          "internalType": "uint256",
          "name": "profit",
          "type": "uint256"
        },
        {
          "indexed": false,
          "internalType": "uint256",
          "name": "lotteryContribution",
          "type": "uint256"
        }
      ],
      "name": "SwapExecuted",
      "type": "event"
    },
    {
      "inputs": [],
      "name": "WHBAR",
      "outputs": [
        {
          "internalType": "address",
          "name": "",
          "type": "address"
        }
      ],
      "stateMutability": "view",
      "type": "function"
    },
    {
      "inputs": [
        {
          "internalType": "address",
          "name": "token",
          "type": "address"
        },
        {
          "internalType": "uint256",
          "name": "amount",
          "type": "uint256"
        }
      ],
      "name": "emergencyWithdraw",
      "outputs": [],
      "stateMutability": "nonpayable",
      "type": "function"
    },
    {
      "inputs": [],
      "name": "getContractInfo",
      "outputs": [
        {
          "internalType": "address",
          "name": "_swapRouter",
          "type": "address"
        },
        {
          "internalType": "address",
          "name": "_quoter",
          "type": "address"
        },
        {
          "internalType": "address",
          "name": "_whbar",
          "type": "address"
        },
        {
          "internalType": "address",
          "name": "_owner",
          "type": "address"
        },
        {
          "internalType": "address",
          "name": "_lotteryPool",
          "type": "address"
        },
        {
          "internalType": "address",
          "name": "_lotteryContract",
          "type": "address"
        }
      ],
      "stateMutability": "view",
      "type": "function"
    },
    {
      "inputs": [
        {
          "internalType": "bytes",
          "name": "path",
          "type": "bytes"
        },
        {
          "internalType": "uint256",
          "name": "amountIn",
          "type": "uint256"
        }
      ],
      "name": "getQuoteExactInput",
      "outputs": [
        {
          "internalType": "uint256",
          "name": "amountOut",
          "type": "uint256"
        },
        {
          "internalType": "uint160[]",
          "name": "sqrtPriceX96AfterList",
          "type": "uint160[]"
        },
        {
          "internalType": "uint32[]",
          "name": "initializedTicksCrossedList",
          "type": "uint32[]"
        },
        {
          "internalType": "uint256",
          "name": "gasEstimate",
          "type": "uint256"
        }
      ],
      "stateMutability": "nonpayable",
      "type": "function"
    },
    {
      "inputs": [
        {
          "internalType": "address",
          "name": "token",
          "type": "address"
        }
      ],
      "name": "getTokenBalance",
      "outputs": [
        {
          "internalType": "uint256",
          "name": "",
          "type": "uint256"
        }
      ],
      "stateMutability": "view",
      "type": "function"
    },
    {
      "inputs": [
        {
          "internalType": "address",
          "name": "user",
          "type": "address"
        }
      ],
      "name": "getUserStats",
      "outputs": [
        {
          "internalType": "uint256",
          "name": "totalProfits",
          "type": "uint256"
        },
        {
          "internalType": "uint256",
          "name": "lotteryContributions",
          "type": "uint256"
        },
        {
          "internalType": "uint256",
          "name": "totalSwaps",
          "type": "uint256"
        }
      ],
      "stateMutability": "view",
      "type": "function"
    },
    {
      "inputs": [
        {
          "internalType": "address",
          "name": "user",
          "type": "address"
        }
      ],
      "name": "getUserSwapHistoryLength",
      "outputs": [
        {
          "internalType": "uint256",
          "name": "",
          "type": "uint256"
        }
      ],
      "stateMutability": "view",
      "type": "function"
    },
    {
      "inputs": [
        {
          "internalType": "address",
          "name": "user",
          "type": "address"
        },
        {
          "internalType": "uint256",
          "name": "index",
          "type": "uint256"
        }
      ],
      "name": "getUserSwapRecord",
      "outputs": [
        {
          "internalType": "address",
          "name": "tokenIn",
          "type": "address"
        },
        {
          "internalType": "address",
          "name": "tokenOut",
          "type": "address"
        },
        {
          "internalType": "uint256",
          "name": "amountIn",
          "type": "uint256"
        },
        {
          "internalType": "uint256",
          "name": "amountOut",
          "type": "uint256"
        },
        {
          "internalType": "uint256",
          "name": "timestamp",
          "type": "uint256"
        },
        {
          "internalType": "bool",
          "name": "isRoundTripStart",
          "type": "bool"
        }
      ],
      "stateMutability": "view",
      "type": "function"
    },
    {
      "inputs": [],
      "name": "lotteryContract",
      "outputs": [
        {
          "internalType": "contract ISwapLottery",
          "name": "",
          "type": "address"
        }
      ],
      "stateMutability": "view",
      "type": "function"
    },
    {
      "inputs": [],
      "name": "lotteryPool",
      "outputs": [
        {
          "internalType": "address",
          "name": "",
          "type": "address"
        }
      ],
      "stateMutability": "view",
      "type": "function"
    },
    {
      "inputs": [],
      "name": "owner",
      "outputs": [
        {
          "internalType": "address",
          "name": "",
          "type": "address"
        }
      ],
      "stateMutability": "view",
      "type": "function"
    },
    {
      "inputs": [],
      "name": "quoter",
      "outputs": [
        {
          "internalType": "contract IQuoterV2",
          "name": "",
          "type": "address"
        }
      ],
      "stateMutability": "view",
      "type": "function"
    },
    {
      "inputs": [
        {
          "internalType": "address",
          "name": "_lotteryContract",
          "type": "address"
        }
      ],
      "name": "setLotteryContract",
      "outputs": [],
      "stateMutability": "nonpayable",
      "type": "function"
    },
    {
      "inputs": [
        {
          "internalType": "address",
          "name": "_lotteryPool",
          "type": "address"
        }
      ],
      "name": "setLotteryPool",
      "outputs": [],
      "stateMutability": "nonpayable",
      "type": "function"
    },
    {
      "inputs": [
        {
          "internalType": "address",
          "name": "tokenOut",
          "type": "address"
        },
        {
          "internalType": "uint24",
          "name": "fee",
          "type": "uint24"
        },
        {
          "internalType": "uint256",
          "name": "amountOutMinimum",
          "type": "uint256"
        },
        {
          "internalType": "uint256",
          "name": "deadline",
          "type": "uint256"
        }
      ],
      "name": "swapExactHBARForTokens",
      "outputs": [
        {
          "internalType": "uint256",
          "name": "amountOut",
          "type": "uint256"
        }
      ],
      "stateMutability": "payable",
      "type": "function"
    },
    {
      "inputs": [
        {
          "internalType": "address",
          "name": "tokenIn",
          "type": "address"
        },
        {
          "internalType": "uint24",
          "name": "fee",
          "type": "uint24"
        },
        {
          "internalType": "uint256",
          "name": "amountIn",
          "type": "uint256"
        },
        {
          "internalType": "uint256",
          "name": "amountOutMinimum",
          "type": "uint256"
        },
        {
          "internalType": "uint256",
          "name": "deadline",
          "type": "uint256"
        }
      ],
      "name": "swapExactTokensForHBAR",
      "outputs": [
        {
          "internalType": "uint256",
          "name": "amountOut",
          "type": "uint256"
        }
      ],
      "stateMutability": "nonpayable",
      "type": "function"
    },
    {
      "inputs": [
        {
          "internalType": "address",
          "name": "tokenIn",
          "type": "address"
        },
        {
          "internalType": "address",
          "name": "tokenOut",
          "type": "address"
        },
        {
          "internalType": "uint24",
          "name": "fee",
          "type": "uint24"
        },
        {
          "internalType": "uint256",
          "name": "amountIn",
          "type": "uint256"
        },
        {
          "internalType": "uint256",
          "name": "amountOutMinimum",
          "type": "uint256"
        },
        {
          "internalType": "uint256",
          "name": "deadline",
          "type": "uint256"
        }
      ],
      "name": "swapExactTokensForTokens",
      "outputs": [
        {
          "internalType": "uint256",
          "name": "amountOut",
          "type": "uint256"
        }
      ],
      "stateMutability": "nonpayable",
      "type": "function"
    },
    {
      "inputs": [],
      "name": "swapRouter",
      "outputs": [
        {
          "internalType": "contract ISwapRouter",
          "name": "",
          "type": "address"
        }
      ],
      "stateMutability": "view",
      "type": "function"
    },
    {
      "inputs": [
        {
          "internalType": "address",
          "name": "newOwner",
          "type": "address"
        }
      ],
      "name": "transferOwnership",
      "outputs": [],
      "stateMutability": "nonpayable",
      "type": "function"
    },
    {
      "inputs": [
        {
          "internalType": "address",
          "name": "",
          "type": "address"
        }
      ],
      "name": "userLotteryContributions",
      "outputs": [
        {
          "internalType": "uint256",
          "name": "",
          "type": "uint256"
        }
      ],
      "stateMutability": "view",
      "type": "function"
    },
    {
      "inputs": [
        {
          "internalType": "address",
          "name": "",
          "type": "address"
        },
        {
          "internalType": "uint256",
          "name": "",
          "type": "uint256"
        }
      ],
      "name": "userSwapHistory",
      "outputs": [
        {
          "internalType": "address",
          "name": "tokenIn",
          "type": "address"
        },
        {
          "internalType": "address",
          "name": "tokenOut",
          "type": "address"
        },
        {
          "internalType": "uint256",
          "name": "amountIn",
          "type": "uint256"
        },
        {
          "internalType": "uint256",
          "name": "amountOut",
          "type": "uint256"
        },
        {
          "internalType": "uint256",
          "name": "timestamp",
          "type": "uint256"
        },
        {
          "internalType": "bool",
          "name": "isRoundTripStart",
          "type": "bool"
        }
      ],
      "stateMutability": "view",
      "type": "function"
    },
    {
      "inputs": [
        {
          "internalType": "address",
          "name": "",
          "type": "address"
        }
      ],
      "name": "userTotalProfits",
      "outputs": [
        {
          "internalType": "uint256",
          "name": "",
          "type": "uint256"
        }
      ],
      "stateMutability": "view",
      "type": "function"
    },
    {
      "stateMutability": "payable",
      "type": "receive"
    }
  ],
  "bytecode": "0x60e06040523480156200001157600080fd5b5060405162002f6c38038062002f6c833981016040819052620000349162000093565b6001600160a01b0393841660805291831660a052821660c05260028054919092166001600160a01b0319918216179091556001805490911633179055620000f0565b80516001600160a01b03811681146200008e57600080fd5b919050565b60008060008060808587031215620000aa57600080fd5b620000b58562000076565b9350620000c56020860162000076565b9250620000d56040860162000076565b9150620000e56060860162000076565b905092959194509250565b60805160a05160c051612dd5620001976000396000818161040801528181610568015281816110200152818161118a0152818161127f01528181611aaa01528181611dbb01528181611e4e01526122170152600081816103e001528181610534015261205b0152600081816103bb01528181610500015281816108da01528181610a17015281816110ff015281816119ce01528181611b2b0152611d160152612dd56000f3fe6080604052600436106101795760003560e01c80638da5cb5b116100cb578063c31c9c071161007f578063e669693611610059578063e66969361461058a578063f2fde38b146105aa578063f53a46e5146105ca57600080fd5b8063c31c9c07146104ee578063c6bbd5a714610522578063d07e5b281461055657600080fd5b806399abf7dd116100b057806399abf7dd1461048e578063b0a8ac9b146104ae578063b29c662a146104ce57600080fd5b80638da5cb5b1461044e57806395ccea671461046e57600080fd5b80633b8477021161012d57806355ccd2841161010757806355ccd2841461032a57806362b1a43b146103845780637cc1f8671461039757600080fd5b80633b8477021461025f5780634cd7b167146102955780634e43603a146102c257600080fd5b80631afd86fd1161015e5780631afd86fd146101da5780632c831633146102075780633aecd0e31461023f57600080fd5b80630eafa7ce146101855780631590a04f146101b857600080fd5b3661018057005b600080fd5b34801561019157600080fd5b506101a56101a036600461259c565b6105fa565b6040519081526020015b60405180910390f35b3480156101c457600080fd5b506101d86101d33660046125ff565b610bdf565b005b3480156101e657600080fd5b506101a56101f53660046125ff565b60046020526000908152604090205481565b34801561021357600080fd5b50600254610227906001600160a01b031681565b6040516001600160a01b0390911681526020016101af565b34801561024b57600080fd5b506101a561025a3660046125ff565b610c99565b34801561026b57600080fd5b506101a561027a3660046125ff565b6001600160a01b031660009081526003602052604090205490565b3480156102a157600080fd5b506101a56102b03660046125ff565b60056020526000908152604090205481565b3480156102ce57600080fd5b5061030f6102dd3660046125ff565b6001600160a01b0316600090815260046020908152604080832054600583528184205460039093529220549192909190565b604080519384526020840192909252908201526060016101af565b34801561033657600080fd5b5061034a610345366004612623565b610d37565b604080516001600160a01b0397881681529690951660208701529385019290925260608401526080830152151560a082015260c0016101af565b6101a561039236600461264f565b610e5a565b3480156103a357600080fd5b50600154600254600054604080516001600160a01b037f0000000000000000000000000000000000000000000000000000000000000000811682527f0000000000000000000000000000000000000000000000000000000000000000811660208301527f0000000000000000000000000000000000000000000000000000000000000000811692820192909252938116606085015291821660808401521660a082015260c0016101af565b34801561045a57600080fd5b50600154610227906001600160a01b031681565b34801561047a57600080fd5b506101d8610489366004612623565b611306565b34801561049a57600080fd5b506101d86104a93660046125ff565b61164b565b3480156104ba57600080fd5b5061034a6104c9366004612623565b611707565b3480156104da57600080fd5b50600054610227906001600160a01b031681565b3480156104fa57600080fd5b506102277f000000000000000000000000000000000000000000000000000000000000000081565b34801561052e57600080fd5b506102277f000000000000000000000000000000000000000000000000000000000000000081565b34801561056257600080fd5b506102277f000000000000000000000000000000000000000000000000000000000000000081565b34801561059657600080fd5b506101a56105a5366004612693565b61176a565b3480156105b657600080fd5b506101d86105c53660046125ff565b611eda565b3480156105d657600080fd5b506105ea6105e53660046127a6565b612052565b6040516101af9493929190612828565b60025460009074010000000000000000000000000000000000000000900460ff161561066d5760405162461bcd60e51b815260206004820152600e60248201527f5265656e7472616e742063616c6c00000000000000000000000000000000000060448201526064015b60405180910390fd5b600280547fffffffffffffffffffffff00ffffffffffffffffffffffffffffffffffffffff16740100000000000000000000000000000000000000001790556001600160a01b038716158015906106cc57506001600160a01b03861615155b6107185760405162461bcd60e51b815260206004820152601560248201527f496e76616c696420746f6b656e206164647265737300000000000000000000006044820152606401610664565b856001600160a01b0316876001600160a01b0316036107795760405162461bcd60e51b815260206004820152601660248201527f43616e6e6f7420737761702073616d6520746f6b656e000000000000000000006044820152606401610664565b600084116107c95760405162461bcd60e51b815260206004820152601560248201527f416d6f756e7420696e206d757374206265203e203000000000000000000000006044820152606401610664565b428210156108195760405162461bcd60e51b815260206004820152601060248201527f446561646c696e652065787069726564000000000000000000000000000000006044820152606401610664565b6040517f23b872dd000000000000000000000000000000000000000000000000000000008152336004820152306024820152604481018590526001600160a01b038816906323b872dd906064016020604051808303816000875af1158015610885573d6000803e3d6000fd5b505050506040513d601f19601f820116820180604052508101906108a991906128c5565b506040517f095ea7b30000000000000000000000000000000000000000000000000000000081526001600160a01b037f0000000000000000000000000000000000000000000000000000000000000000811660048301526024820186905288169063095ea7b3906044016020604051808303816000875af1158015610932573d6000803e3d6000fd5b505050506040513d601f19601f8201168201806040525081019061095691906128c5565b50604080517fffffffffffffffffffffffffffffffffffffffff00000000000000000000000060608a811b821660208401527fffffff000000000000000000000000000000000000000000000000000000000060e88a901b16603484015289901b1660378201528151808203602b01815260eb82018352604b820181815230606b840152608b830186905260ab830188905260cb90920186905291517fc04b8d590000000000000000000000000000000000000000000000000000000081527f00000000000000000000000000000000000000000000000000000000000000006001600160a01b03169063c04b8d5990610a54908490600401612955565b6020604051808303816000875af1158015610a73573d6000803e3d6000fd5b505050506040513d601f19601f82011682018060405250810190610a9791906129ae565b9250600080610aa9338c8c8b8961211c565b90925090506000610aba82876129f6565b90508015610b4e576040517fa9059cbb000000000000000000000000000000000000000000000000000000008152336004820152602481018290526001600160a01b038c169063a9059cbb906044016020604051808303816000875af1158015610b28573d6000803e3d6000fd5b505050506040513d601f19601f82011682018060405250810190610b4c91906128c5565b505b604080518a815260208101889052908101849052606081018390526001600160a01b03808d1691908e169033907f43415e25edb52db0638ec44209302ce9df6ab6fa46a2233aee34f9c75471ea269060800160405180910390a45050505050600280547fffffffffffffffffffffff00ffffffffffffffffffffffffffffffffffffffff1690559695505050505050565b6001546001600160a01b03163314610c395760405162461bcd60e51b815260206004820152600960248201527f4e6f74206f776e657200000000000000000000000000000000000000000000006044820152606401610664565b600080547fffffffffffffffffffffffff0000000000000000000000000000000000000000166001600160a01b038316908117825560405190917f296d05c97447b6398d148c62eec657669c5a461e7648f9f5e79f349049ea99c891a250565b60006001600160a01b038216610cb0575047919050565b6040517f70a082310000000000000000000000000000000000000000000000000000000081523060048201526001600160a01b038316906370a0823190602401602060405180830381865afa158015610d0d573d6000803e3d6000fd5b505050506040513d601f19601f82011682018060405250810190610d3191906129ae565b92915050565b6001600160a01b038216600090815260036020526040812054819081908190819081908710610da85760405162461bcd60e51b815260206004820152601360248201527f496e646578206f7574206f6620626f756e6473000000000000000000000000006044820152606401610664565b6001600160a01b0388166000908152600360205260408120805489908110610dd257610dd2612a09565b60009182526020918290206040805160c08101825260069390930290910180546001600160a01b039081168085526001830154909116948401859052600282015492840183905260038201546060850181905260048301546080860181905260059093015460ff16151560a0909501859052909e949d50919b50909950975095509350505050565b60025460009074010000000000000000000000000000000000000000900460ff1615610ec85760405162461bcd60e51b815260206004820152600e60248201527f5265656e7472616e742063616c6c0000000000000000000000000000000000006044820152606401610664565b600280547fffffffffffffffffffffff00ffffffffffffffffffffffffffffffffffffffff167401000000000000000000000000000000000000000017905534610f545760405162461bcd60e51b815260206004820152600e60248201527f4d7573742073656e6420484241520000000000000000000000000000000000006044820152606401610664565b6001600160a01b038516610faa5760405162461bcd60e51b815260206004820152601560248201527f496e76616c696420746f6b656e206164647265737300000000000000000000006044820152606401610664565b42821015610ffa5760405162461bcd60e51b815260206004820152601060248201527f446561646c696e652065787069726564000000000000000000000000000000006044820152606401610664565b6040517fffffffffffffffffffffffffffffffffffffffff0000000000000000000000007f0000000000000000000000000000000000000000000000000000000000000000606090811b821660208401527fffffff000000000000000000000000000000000000000000000000000000000060e888901b16603484015287901b166037820152600090604b01604080517fffffffffffffffffffffffffffffffffffffffffffffffffffffffffffffffe081840301815260a08301825280835230602084015282820186905234606084018190526080840188905291517fc04b8d590000000000000000000000000000000000000000000000000000000081529093507f00000000000000000000000000000000000000000000000000000000000000006001600160a01b03169163c04b8d599161113c908590600401612955565b60206040518083038185885af115801561115a573d6000803e3d6000fd5b50505050506040513d601f19601f8201168201806040525081019061117f91906129ae565b92506000806111b1337f00000000000000000000000000000000000000000000000000000000000000008b348961211c565b909250905060006111c282876129f6565b90508015611256576040517fa9059cbb000000000000000000000000000000000000000000000000000000008152336004820152602481018290526001600160a01b038b169063a9059cbb906044016020604051808303816000875af1158015611230573d6000803e3d6000fd5b505050506040513d601f19601f8201168201806040525081019061125491906128c5565b505b6040805134815260208101889052908101849052606081018390526001600160a01b03808c16917f00000000000000000000000000000000000000000000000000000000000000009091169033907f43415e25edb52db0638ec44209302ce9df6ab6fa46a2233aee34f9c75471ea269060800160405180910390a45050505050600280547fffffffffffffffffffffff00ffffffffffffffffffffffffffffffffffffffff169055949350505050565b6001546001600160a01b031633146113605760405162461bcd60e51b815260206004820152600960248201527f4e6f74206f776e657200000000000000000000000000000000000000000000006044820152606401610664565b600081116113b05760405162461bcd60e51b815260206004820152601260248201527f416d6f756e74206d757374206265203e203000000000000000000000000000006044820152606401610664565b6001600160a01b03821661144e578047101561140e5760405162461bcd60e51b815260206004820152601960248201527f496e73756666696369656e7420484241522062616c616e6365000000000000006044820152606401610664565b6001546040516001600160a01b039091169082156108fc029083906000818181858888f19350505050158015611448573d6000803e3d6000fd5b50611602565b6040517f70a0823100000000000000000000000000000000000000000000000000000000815230600482015281906001600160a01b038416906370a0823190602401602060405180830381865afa1580156114ad573d6000803e3d6000fd5b505050506040513d601f19601f820116820180604052508101906114d191906129ae565b101561151f5760405162461bcd60e51b815260206004820152601a60248201527f496e73756666696369656e7420746f6b656e2062616c616e63650000000000006044820152606401610664565b6001546040517fa9059cbb0000000000000000000000000000000000000000000000000000000081526001600160a01b0391821660048201526024810183905260009184169063a9059cbb906044016020604051808303816000875af115801561158d573d6000803e3d6000fd5b505050506040513d601f19601f820116820180604052508101906115b191906128c5565b9050806116005760405162461bcd60e51b815260206004820152601560248201527f546f6b656e207472616e73666572206661696c656400000000000000000000006044820152606401610664565b505b6001546040518281526001600160a01b03918216918416907faaeda929aa102e867049528ec7cd2499e3a2f8846e736ae7935f234dfbf500d99060200160405180910390a35050565b6001546001600160a01b031633146116a55760405162461bcd60e51b815260206004820152600960248201527f4e6f74206f776e657200000000000000000000000000000000000000000000006044820152606401610664565b600280547fffffffffffffffffffffffff0000000000000000000000000000000000000000166001600160a01b0383169081179091556040517f428ad718f32348a3616ec223f89991da5f1e355a91b0a86e0da65942fafbd99b90600090a250565b6003602052816000526040600020818154811061172357600080fd5b60009182526020909120600690910201805460018201546002830154600384015460048501546005909501546001600160a01b039485169750929093169450929060ff1686565b60025460009074010000000000000000000000000000000000000000900460ff16156117d85760405162461bcd60e51b815260206004820152600e60248201527f5265656e7472616e742063616c6c0000000000000000000000000000000000006044820152606401610664565b600280547fffffffffffffffffffffff00ffffffffffffffffffffffffffffffffffffffff16740100000000000000000000000000000000000000001790556001600160a01b03861661186d5760405162461bcd60e51b815260206004820152601560248201527f496e76616c696420746f6b656e206164647265737300000000000000000000006044820152606401610664565b600084116118bd5760405162461bcd60e51b815260206004820152601560248201527f416d6f756e7420696e206d757374206265203e203000000000000000000000006044820152606401610664565b4282101561190d5760405162461bcd60e51b815260206004820152601060248201527f446561646c696e652065787069726564000000000000000000000000000000006044820152606401610664565b6040517f23b872dd000000000000000000000000000000000000000000000000000000008152336004820152306024820152604481018590526001600160a01b038716906323b872dd906064016020604051808303816000875af1158015611979573d6000803e3d6000fd5b505050506040513d601f19601f8201168201806040525081019061199d91906128c5565b506040517f095ea7b30000000000000000000000000000000000000000000000000000000081526001600160a01b037f0000000000000000000000000000000000000000000000000000000000000000811660048301526024820186905287169063095ea7b3906044016020604051808303816000875af1158015611a26573d6000803e3d6000fd5b505050506040513d601f19601f82011682018060405250810190611a4a91906128c5565b50604080517fffffffffffffffffffffffffffffffffffffffff000000000000000000000000606089811b821660208401527fffffff000000000000000000000000000000000000000000000000000000000060e88a901b1660348401527f0000000000000000000000000000000000000000000000000000000000000000901b1660378201528151808203602b01815260eb82018352604b820181815230606b840152608b830186905260ab830188905260cb90920186905291517fc04b8d590000000000000000000000000000000000000000000000000000000081527f00000000000000000000000000000000000000000000000000000000000000006001600160a01b03169063c04b8d5990611b68908490600401612955565b6020604051808303816000875af1158015611b87573d6000803e3d6000fd5b505050506040513d601f19601f82011682018060405250810190611bab91906129ae565b6040805160028082526060820190925291945060009190816020015b6060815260200190600190039081611bc75750506040805160248101879052306044808301919091528251808303909101815260649091019091526020810180517bffffffffffffffffffffffffffffffffffffffffffffffffffffffff167f49404b7c000000000000000000000000000000000000000000000000000000001790528151919250908290600090611c6157611c61612a09565b60209081029190910181019190915260408051600481526024810190915290810180517bffffffffffffffffffffffffffffffffffffffffffffffffffffffff167f12210e8a00000000000000000000000000000000000000000000000000000000179052815182906001908110611cdb57611cdb612a09565b60209081029190910101526040517fac9650d80000000000000000000000000000000000000000000000000000000081526001600160a01b037f0000000000000000000000000000000000000000000000000000000000000000169063ac9650d890611d4b908490600401612a38565b6000604051808303816000875af1158015611d6a573d6000803e3d6000fd5b505050506040513d6000823e601f3d9081017fffffffffffffffffffffffffffffffffffffffffffffffffffffffffffffffe0168201604052611db09190810190612adc565b50600080611de1338c7f00000000000000000000000000000000000000000000000000000000000000008c8a61211c565b90925090506000611df282886129f6565b90508015611e2957604051339082156108fc029083906000818181858888f19350505050158015611e27573d6000803e3d6000fd5b505b604080518b815260208101899052908101849052606081018390526001600160a01b037f0000000000000000000000000000000000000000000000000000000000000000811691908e169033907f43415e25edb52db0638ec44209302ce9df6ab6fa46a2233aee34f9c75471ea269060800160405180910390a4505050505050600280547fffffffffffffffffffffff00ffffffffffffffffffffffffffffffffffffffff16905595945050505050565b6001546001600160a01b03163314611f345760405162461bcd60e51b815260206004820152600960248201527f4e6f74206f776e657200000000000000000000000000000000000000000000006044820152606401610664565b6001600160a01b038116611f8a5760405162461bcd60e51b815260206004820152601160248201527f496e76616c6964206e6577206f776e65720000000000000000000000000000006044820152606401610664565b6001546001600160a01b0390811690821603611fe85760405162461bcd60e51b815260206004820152601b60248201527f4e6577206f776e6572206d75737420626520646966666572656e7400000000006044820152606401610664565b600180546001600160a01b038381167fffffffffffffffffffffffff0000000000000000000000000000000000000000831681179093556040519116919082907f8be0079c531659141344cd1fd0a4f28419497f9722a3daafe3b4186f6b6457e090600090a35050565b600060608060007f00000000000000000000000000000000000000000000000000000000000000006001600160a01b031663cdca175387876040518363ffffffff1660e01b81526004016120a7929190612bc9565b6000604051808303816000875af11580156120c6573d6000803e3d6000fd5b505050506040513d6000823e601f3d9081017fffffffffffffffffffffffffffffffffffffffffffffffffffffffffffffffe016820160405261210c9190810190612c64565b9299919850965090945092505050565b6001600160a01b03851660009081526003602052604081208054829190829081901561247e5782546000908490612155906001906129f6565b8154811061216557612165612a09565b60009182526020909120600690910201600581015490915060ff16801561219b575060018101546001600160a01b038b81169116145b80156121b3575080546001600160a01b038a81169116145b1561247c57600192508060020154915081871115612451576121d582886129f6565b955060006127106121e8886103e8612d3a565b6121f29190612d51565b905061271061220388610320612d3a565b61220d9190612d51565b955085156123de577f00000000000000000000000000000000000000000000000000000000000000006001600160a01b03168a6001600160a01b03160361228e576002546040516001600160a01b039091169087156108fc029088906000818181858888f19350505050158015612288573d6000803e3d6000fd5b50612320565b6002546040517fa9059cbb0000000000000000000000000000000000000000000000000000000081526001600160a01b03918216600482015260248101889052908b169063a9059cbb906044016020604051808303816000875af11580156122fa573d6000803e3d6000fd5b505050506040513d601f19601f8201168201806040525081019061231e91906128c5565b505b6001600160a01b038c1660009081526005602052604081208054889290612348908490612d8c565b90915550506000546001600160a01b0316156123de576000546040517f9abc1d660000000000000000000000000000000000000000000000000000000081526001600160a01b038e81166004830152602482018a905290911690639abc1d6690604401600060405180830381600087803b1580156123c557600080fd5b505af11580156123d9573d6000803e3d6000fd5b505050505b6001600160a01b038c1660009081526004602052604081208054899290612406908490612d8c565b909155505060408051888152602081018890526001600160a01b038e16917f6abef57437e59b60fba94094adeac3e61bd049336a18c6bb34f32d8e85354734910160405180910390a2505b6005810180547fffffffffffffffffffffffffffffffffffffffffffffffffffffffffffffff001690555b505b506040805160c0810182526001600160a01b03998a1681529789166020808a01918252918901978852606089019687524260808a01908152921560a08a01908152845460018181018755600096875293909520995160069095029099018054948b167fffffffffffffffffffffffff00000000000000000000000000000000000000009586161781559051918101805492909a1691909316179097559351600285015591516003840155935160048301559151600590910180549115157fffffffffffffffffffffffffffffffffffffffffffffffffffffffffffffff009092169190911790559092909150565b6001600160a01b038116811461258157600080fd5b50565b803562ffffff8116811461259757600080fd5b919050565b60008060008060008060c087890312156125b557600080fd5b86356125c08161256c565b955060208701356125d08161256c565b94506125de60408801612584565b9350606087013592506080870135915060a087013590509295509295509295565b60006020828403121561261157600080fd5b813561261c8161256c565b9392505050565b6000806040838503121561263657600080fd5b82356126418161256c565b946020939093013593505050565b6000806000806080858703121561266557600080fd5b84356126708161256c565b935061267e60208601612584565b93969395505050506040820135916060013590565b600080600080600060a086880312156126ab57600080fd5b85356126b68161256c565b94506126c460208701612584565b94979496505050506040830135926060810135926080909101359150565b7f4e487b7100000000000000000000000000000000000000000000000000000000600052604160045260246000fd5b604051601f82017fffffffffffffffffffffffffffffffffffffffffffffffffffffffffffffffe016810167ffffffffffffffff81118282101715612758576127586126e2565b604052919050565b600067ffffffffffffffff82111561277a5761277a6126e2565b50601f017fffffffffffffffffffffffffffffffffffffffffffffffffffffffffffffffe01660200190565b600080604083850312156127b957600080fd5b823567ffffffffffffffff8111156127d057600080fd5b8301601f810185136127e157600080fd5b80356127f46127ef82612760565b612711565b81815286602083850101111561280957600080fd5b8160208401602083013760006020928201830152969401359450505050565b600060808201868352602060808185015281875180845260a086019150828901935060005b818110156128725784516001600160a01b03168352938301939183019160010161284d565b50508481036040860152865180825290820192508187019060005b818110156128af57825163ffffffff168552938301939183019160010161288d565b5050505060609290920192909252949350505050565b6000602082840312156128d757600080fd5b8151801515811461261c57600080fd5b60005b838110156129025781810151838201526020016128ea565b50506000910152565b600081518084526129238160208601602086016128e7565b601f017fffffffffffffffffffffffffffffffffffffffffffffffffffffffffffffffe0169290920160200192915050565b602081526000825160a0602084015261297160c084018261290b565b90506001600160a01b0360208501511660408401526040840151606084015260608401516080840152608084015160a08401528091505092915050565b6000602082840312156129c057600080fd5b5051919050565b7f4e487b7100000000000000000000000000000000000000000000000000000000600052601160045260246000fd5b81810381811115610d3157610d316129c7565b7f4e487b7100000000000000000000000000000000000000000000000000000000600052603260045260246000fd5b6000602080830181845280855180835260408601915060408160051b870101925083870160005b82811015612aab577fffffffffffffffffffffffffffffffffffffffffffffffffffffffffffffffc0888603018452612a9985835161290b565b94509285019290850190600101612a5f565b5092979650505050505050565b600067ffffffffffffffff821115612ad257612ad26126e2565b5060051b60200190565b60006020808385031215612aef57600080fd5b825167ffffffffffffffff80821115612b0757600080fd5b818501915085601f830112612b1b57600080fd5b8151612b296127ef82612ab8565b81815260059190911b83018401908481019088831115612b4857600080fd5b8585015b83811015612bbc57805185811115612b645760008081fd5b8601603f81018b13612b765760008081fd5b878101516040612b886127ef83612760565b8281528d82848601011115612b9d5760008081fd5b612bac838c83018487016128e7565b8652505050918601918601612b4c565b5098975050505050505050565b604081526000612bdc604083018561290b565b90508260208301529392505050565b600082601f830112612bfc57600080fd5b81516020612c0c6127ef83612ab8565b82815260059290921b84018101918181019086841115612c2b57600080fd5b8286015b84811015612c5957805163ffffffff81168114612c4c5760008081fd5b8352918301918301612c2f565b509695505050505050565b60008060008060808587031215612c7a57600080fd5b8451935060208086015167ffffffffffffffff80821115612c9a57600080fd5b818801915088601f830112612cae57600080fd5b8151612cbc6127ef82612ab8565b81815260059190911b8301840190848101908b831115612cdb57600080fd5b938501935b82851015612d02578451612cf38161256c565b82529385019390850190612ce0565b60408b01519098509450505080831115612d1b57600080fd5b5050612d2987828801612beb565b606096909601519497939650505050565b8082028115828204841417610d3157610d316129c7565b600082612d87577f4e487b7100000000000000000000000000000000000000000000000000000000600052601260045260246000fd5b500490565b80820180821115610d3157610d316129c756fea2646970667358221220d56bf5636166d5921c23730578c26ef0b61739cd6485dde696e749fdb94fbde764736f6c63430008110033",
  "linkReferences": {},
  "deployedLinkReferences": {}
}