{
  "_format": "hh-sol-artifact-1",
  "contractName": "TopicV2",
  "sourceName": "contracts/TopicV2.sol",
  "abi": [
    {
      "anonymous": false,
      "inputs": [
        {
          "indexed": false,
          "internalType": "uint8",
          "name": "version",
          "type": "uint8"
        }
      ],
      "name": "Initialized",
      "type": "event"
    },
    {
      "inputs": [],
      "name": "getMessage",
      "outputs": [
        {
          "internalType": "string",
          "name": "",
          "type": "string"
        }
      ],
      "stateMutability": "view",
      "type": "function"
    },
    {
      "inputs": [],
      "name": "getTopicId",
      "outputs": [
        {
          "internalType": "string",
          "name": "",
          "type": "string"
        }
      ],
      "stateMutability": "view",
      "type": "function"
    },
    {
      "inputs": [
        {
          "internalType": "string",
          "name": "topicId",
          "type": "string"
        }
      ],
      "name": "initialize",
      "outputs": [],
      "stateMutability": "nonpayable",
      "type": "function"
    },
    {
      "inputs": [
        {
          "internalType": "string",
          "name": "message",
          "type": "string"
        }
      ],
      "name": "setMessage",
      "outputs": [],
      "stateMutability": "nonpayable",
      "type": "function"
    }
  ],
  "bytecode": "0x608060405234801561001057600080fd5b50610647806100206000396000f3fe608060405234801561001057600080fd5b506004361061004c5760003560e01c8063368b87721461005157806336a1f56914610066578063ce6d41de14610084578063f62d18881461008c575b600080fd5b61006461005f36600461031a565b61009f565b005b61006e6100af565b60405161007b91906103e9565b60405180910390f35b61006e610141565b61006461009a36600461031a565b610150565b60026100ab82826104f7565b5050565b6060600180546100be90610455565b80601f01602080910402602001604051908101604052809291908181526020018280546100ea90610455565b80156101375780601f1061010c57610100808354040283529160200191610137565b820191906000526020600020905b81548152906001019060200180831161011a57829003601f168201915b5050505050905090565b6060600280546100be90610455565b600054610100900460ff16158080156101705750600054600160ff909116105b8061018a5750303b15801561018a575060005460ff166001145b61021a576040517f08c379a000000000000000000000000000000000000000000000000000000000815260206004820152602e60248201527f496e697469616c697a61626c653a20636f6e747261637420697320616c72656160448201527f647920696e697469616c697a6564000000000000000000000000000000000000606482015260840160405180910390fd5b600080547fffffffffffffffffffffffffffffffffffffffffffffffffffffffffffffff00166001179055801561027857600080547fffffffffffffffffffffffffffffffffffffffffffffffffffffffffffff00ff166101001790555b600161028483826104f7565b5080156100ab57600080547fffffffffffffffffffffffffffffffffffffffffffffffffffffffffffff00ff169055604051600181527f7f26b83ff96e1f2b6a682f133852f6798a09c465da95921460cefb38474024989060200160405180910390a15050565b7f4e487b7100000000000000000000000000000000000000000000000000000000600052604160045260246000fd5b60006020828403121561032c57600080fd5b813567ffffffffffffffff8082111561034457600080fd5b818401915084601f83011261035857600080fd5b81358181111561036a5761036a6102eb565b604051601f82017fffffffffffffffffffffffffffffffffffffffffffffffffffffffffffffffe0908116603f011681019083821181831017156103b0576103b06102eb565b816040528281528760208487010111156103c957600080fd5b826020860160208301376000928101602001929092525095945050505050565b600060208083528351808285015260005b81811015610416578581018301518582016040015282016103fa565b5060006040828601015260407fffffffffffffffffffffffffffffffffffffffffffffffffffffffffffffffe0601f8301168501019250505092915050565b600181811c9082168061046957607f821691505b6020821081036104a2577f4e487b7100000000000000000000000000000000000000000000000000000000600052602260045260246000fd5b50919050565b601f8211156104f257600081815260208120601f850160051c810160208610156104cf5750805b601f850160051c820191505b818110156104ee578281556001016104db565b5050505b505050565b815167ffffffffffffffff811115610511576105116102eb565b6105258161051f8454610455565b846104a8565b602080601f83116001811461057857600084156105425750858301515b7fffffffffffffffffffffffffffffffffffffffffffffffffffffffffffffffff600386901b1c1916600185901b1785556104ee565b6000858152602081207fffffffffffffffffffffffffffffffffffffffffffffffffffffffffffffffe08616915b828110156105c5578886015182559484019460019091019084016105a6565b508582101561060157878501517fffffffffffffffffffffffffffffffffffffffffffffffffffffffffffffffff600388901b60f8161c191681555b5050505050600190811b0190555056fea26469706673582212202fde95c627434c8ffc031c753672f8597cd8cf290e74cb1a97d877d7945ebd4064736f6c63430008110033",
  "linkReferences": {},
  "deployedLinkReferences": {}
}