{"contracts/HbarPythSwap.sol":{"HbarPythSwap":{"abi":[{"inputs":[],"name":"InsufficientBalance","type":"error"},{"inputs":[],"name":"InvalidAmount","type":"error"},{"inputs":[],"name":"InvalidPriceData","type":"error"},{"inputs":[],"name":"PriceDataTooOld","type":"error"},{"inputs":[],"name":"SlippageExceeded","type":"error"},{"inputs":[],"name":"UnsupportedAsset","type":"error"},{"anonymous":false,"inputs":[{"indexed":false,"internalType":"address","name":"previousAdmin","type":"address"},{"indexed":false,"internalType":"address","name":"newAdmin","type":"address"}],"name":"AdminChanged","type":"event"},{"anonymous":false,"inputs":[{"indexed":true,"internalType":"address","name":"beacon","type":"address"}],"name":"BeaconUpgraded","type":"event"},{"anonymous":false,"inputs":[{"indexed":false,"internalType":"uint8","name":"version","type":"uint8"}],"name":"Initialized","type":"event"},{"anonymous":false,"inputs":[{"indexed":true,"internalType":"enum HbarPythSwap.Asset","name":"asset","type":"uint8"},{"indexed":false,"internalType":"uint256","name":"amount","type":"uint256"},{"indexed":true,"internalType":"address","name":"provider","type":"address"}],"name":"LiquidityAdded","type":"event"},{"anonymous":false,"inputs":[{"indexed":true,"internalType":"enum HbarPythSwap.Asset","name":"asset","type":"uint8"},{"indexed":false,"internalType":"uint256","name":"amount","type":"uint256"},{"indexed":true,"internalType":"address","name":"provider","type":"address"}],"name":"LiquidityRemoved","type":"event"},{"anonymous":false,"inputs":[{"indexed":true,"internalType":"address","name":"previousOwner","type":"address"},{"indexed":true,"internalType":"address","name":"newOwner","type":"address"}],"name":"OwnershipTransferred","type":"event"},{"anonymous":false,"inputs":[{"indexed":true,"internalType":"enum HbarPythSwap.Asset","name":"asset","type":"uint8"},{"indexed":false,"internalType":"uint256","name":"price","type":"uint256"},{"indexed":false,"internalType":"uint256","name":"timestamp","type":"uint256"}],"name":"PriceUpdated","type":"event"},{"anonymous":false,"inputs":[{"indexed":true,"internalType":"address","name":"user","type":"address"},{"indexed":true,"internalType":"enum HbarPythSwap.Asset","name":"fromAsset","type":"uint8"},{"indexed":true,"internalType":"enum HbarPythSwap.Asset","name":"toAsset","type":"uint8"},{"indexed":false,"internalType":"uint256","name":"amountIn","type":"uint256"},{"indexed":false,"internalType":"uint256","name":"amountOut","type":"uint256"},{"indexed":false,"internalType":"uint256","name":"price","type":"uint256"},{"indexed":false,"internalType":"uint256","name":"timestamp","type":"uint256"}],"name":"SwapExecuted","type":"event"},{"anonymous":false,"inputs":[{"indexed":true,"internalType":"address","name":"implementation","type":"address"}],"name":"Upgraded","type":"event"},{"inputs":[{"internalType":"enum HbarPythSwap.Asset","name":"asset","type":"uint8"},{"internalType":"uint256","name":"amount","type":"uint256"}],"name":"addAssetLiquidity","outputs":[],"stateMutability":"nonpayable","type":"function"},{"inputs":[],"name":"addHbarLiquidity","outputs":[],"stateMutability":"payable","type":"function"},{"inputs":[],"name":"btcToken","outputs":[{"internalType":"contract IERC20Upgradeable","name":"","type":"address"}],"stateMutability":"view","type":"function"},{"inputs":[],"name":"btcUsdPriceId","outputs":[{"internalType":"bytes32","name":"","type":"bytes32"}],"stateMutability":"view","type":"function"},{"inputs":[{"internalType":"enum HbarPythSwap.Asset","name":"fromAsset","type":"uint8"},{"internalType":"enum HbarPythSwap.Asset","name":"toAsset","type":"uint8"},{"internalType":"uint256","name":"amountIn","type":"uint256"}],"name":"calculateSwapOutput","outputs":[{"internalType":"uint256","name":"amountOut","type":"uint256"},{"internalType":"uint256","name":"fromPrice","type":"uint256"},{"internalType":"uint256","name":"toPrice","type":"uint256"}],"stateMutability":"view","type":"function"},{"inputs":[],"name":"ethToken","outputs":[{"internalType":"contract IERC20Upgradeable","name":"","type":"address"}],"stateMutability":"view","type":"function"},{"inputs":[],"name":"ethUsdPriceId","outputs":[{"internalType":"bytes32","name":"","type":"bytes32"}],"stateMutability":"view","type":"function"},{"inputs":[],"name":"getAllPriceIds","outputs":[{"internalType":"bytes32","name":"","type":"bytes32"},{"internalType":"bytes32","name":"","type":"bytes32"},{"internalType":"bytes32","name":"","type":"bytes32"},{"internalType":"bytes32","name":"","type":"bytes32"}],"stateMutability":"view","type":"function"},{"inputs":[],"name":"getAllReserves","outputs":[{"internalType":"uint256","name":"","type":"uint256"},{"internalType":"uint256","name":"","type":"uint256"},{"internalType":"uint256","name":"","type":"uint256"},{"internalType":"uint256","name":"","type":"uint256"}],"stateMutability":"view","type":"function"},{"inputs":[{"internalType":"enum HbarPythSwap.Asset","name":"asset","type":"uint8"}],"name":"getAssetPrice","outputs":[{"internalType":"uint256","name":"","type":"uint256"},{"internalType":"int32","name":"","type":"int32"}],"stateMutability":"view","type":"function"},{"inputs":[{"internalType":"enum HbarPythSwap.Asset","name":"asset","type":"uint8"}],"name":"getAssetPriceUnsafe","outputs":[{"internalType":"uint256","name":"","type":"uint256"},{"internalType":"int32","name":"","type":"int32"}],"stateMutability":"view","type":"function"},{"inputs":[{"internalType":"enum HbarPythSwap.Asset","name":"asset","type":"uint8"}],"name":"getReserve","outputs":[{"internalType":"uint256","name":"","type":"uint256"}],"stateMutability":"view","type":"function"},{"inputs":[],"name":"getSwapParameters","outputs":[{"internalType":"uint256","name":"","type":"uint256"},{"internalType":"uint256","name":"","type":"uint256"},{"internalType":"uint256","name":"","type":"uint256"}],"stateMutability":"view","type":"function"},{"inputs":[],"name":"getTokenAddresses","outputs":[{"internalType":"address","name":"","type":"address"},{"internalType":"address","name":"","type":"address"},{"internalType":"address","name":"","type":"address"}],"stateMutability":"view","type":"function"},{"inputs":[],"name":"hbarUsdPriceId","outputs":[{"internalType":"bytes32","name":"","type":"bytes32"}],"stateMutability":"view","type":"function"},{"inputs":[{"internalType":"address","name":"_pyth","type":"address"},{"internalType":"bytes32","name":"_ethUsdPriceId","type":"bytes32"},{"internalType":"bytes32","name":"_solUsdPriceId","type":"bytes32"},{"internalType":"bytes32","name":"_btcUsdPriceId","type":"bytes32"},{"internalType":"bytes32","name":"_hbarUsdPriceId","type":"bytes32"},{"internalType":"address","name":"_ethToken","type":"address"},{"internalType":"address","name":"_solToken","type":"address"},{"internalType":"address","name":"_btcToken","type":"address"}],"name":"initialize","outputs":[],"stateMutability":"nonpayable","type":"function"},{"inputs":[],"name":"maxPriceAge","outputs":[{"internalType":"uint256","name":"","type":"uint256"}],"stateMutability":"view","type":"function"},{"inputs":[],"name":"owner","outputs":[{"internalType":"address","name":"","type":"address"}],"stateMutability":"view","type":"function"},{"inputs":[],"name":"proxiableUUID","outputs":[{"internalType":"bytes32","name":"","type":"bytes32"}],"stateMutability":"view","type":"function"},{"inputs":[],"name":"pyth","outputs":[{"internalType":"contract IPyth","name":"","type":"address"}],"stateMutability":"view","type":"function"},{"inputs":[{"internalType":"enum HbarPythSwap.Asset","name":"asset","type":"uint8"},{"internalType":"uint256","name":"amount","type":"uint256"}],"name":"removeLiquidity","outputs":[],"stateMutability":"nonpayable","type":"function"},{"inputs":[],"name":"renounceOwnership","outputs":[],"stateMutability":"nonpayable","type":"function"},{"inputs":[{"internalType":"enum HbarPythSwap.Asset","name":"","type":"uint8"}],"name":"reserves","outputs":[{"internalType":"uint256","name":"","type":"uint256"}],"stateMutability":"view","type":"function"},{"inputs":[],"name":"slippageTolerance","outputs":[{"internalType":"uint256","name":"","type":"uint256"}],"stateMutability":"view","type":"function"},{"inputs":[],"name":"solToken","outputs":[{"internalType":"contract IERC20Upgradeable","name":"","type":"address"}],"stateMutability":"view","type":"function"},{"inputs":[],"name":"solUsdPriceId","outputs":[{"internalType":"bytes32","name":"","type":"bytes32"}],"stateMutability":"view","type":"function"},{"inputs":[{"internalType":"enum HbarPythSwap.Asset","name":"fromAsset","type":"uint8"},{"internalType":"uint256","name":"amountIn","type":"uint256"},{"internalType":"uint256","name":"minHbarOut","type":"uint256"}],"name":"swapAssetForHbar","outputs":[],"stateMutability":"nonpayable","type":"function"},{"inputs":[],"name":"swapFee","outputs":[{"internalType":"uint256","name":"","type":"uint256"}],"stateMutability":"view","type":"function"},{"inputs":[{"internalType":"enum HbarPythSwap.Asset","name":"toAsset","type":"uint8"}],"name":"swapHbarForAsset","outputs":[],"stateMutability":"payable","type":"function"},{"inputs":[{"internalType":"address","name":"newOwner","type":"address"}],"name":"transferOwnership","outputs":[],"stateMutability":"nonpayable","type":"function"},{"inputs":[{"internalType":"bytes[]","name":"priceUpdateData","type":"bytes[]"},{"internalType":"enum HbarPythSwap.Asset","name":"toAsset","type":"uint8"}],"name":"updateAndSwapHbarForAsset","outputs":[],"stateMutability":"payable","type":"function"},{"inputs":[{"internalType":"uint256","name":"_maxPriceAge","type":"uint256"}],"name":"updateMaxPriceAge","outputs":[],"stateMutability":"nonpayable","type":"function"},{"inputs":[{"internalType":"bytes[]","name":"priceUpdateData","type":"bytes[]"}],"name":"updatePriceFeeds","outputs":[],"stateMutability":"payable","type":"function"},{"inputs":[{"internalType":"enum HbarPythSwap.Asset","name":"asset","type":"uint8"},{"internalType":"bytes32","name":"newPriceId","type":"bytes32"}],"name":"updatePriceId","outputs":[],"stateMutability":"nonpayable","type":"function"},{"inputs":[{"internalType":"uint256","name":"_slippageTolerance","type":"uint256"}],"name":"updateSlippageTolerance","outputs":[],"stateMutability":"nonpayable","type":"function"},{"inputs":[{"internalType":"uint256","name":"_swapFee","type":"uint256"}],"name":"updateSwapFee","outputs":[],"stateMutability":"nonpayable","type":"function"},{"inputs":[{"internalType":"address","name":"newImplementation","type":"address"}],"name":"upgradeTo","outputs":[],"stateMutability":"nonpayable","type":"function"},{"inputs":[{"internalType":"address","name":"newImplementation","type":"address"},{"internalType":"bytes","name":"data","type":"bytes"}],"name":"upgradeToAndCall","outputs":[],"stateMutability":"payable","type":"function"},{"inputs":[],"name":"withdraw","outputs":[],"stateMutability":"nonpayable","type":"function"},{"stateMutability":"payable","type":"receive"}],"evm":{"bytecode":{"linkReferences":{},"object":"60a06040523060805234801561001457600080fd5b5060805161360861004c60003960008181610b1301528181610bae015281816110e20152818161117801526112a701526136086000f3fe6080604052600436106102a45760003560e01c80637bf1a6271161016e578063bf16f65a116100cb578063ef9e5e281161007f578063f2fde38b11610064578063f2fde38b1461080a578063f5114e151461082a578063f98d06f01461083d57600080fd5b8063ef9e5e28146107c9578063f241524e146107dc57600080fd5b8063d36bf645116100b0578063d36bf64514610739578063e5fca39614610759578063ee8c24b81461077957600080fd5b8063bf16f65a14610702578063d03153aa1461072257600080fd5b80639ff0e2f311610122578063b2a8450211610107578063b2a845021461069e578063b40f43f7146106b4578063b41275ed146106d457600080fd5b80639ff0e2f31461065e578063a8e636711461067e57600080fd5b8063820fd7db11610153578063820fd7db146105db5780638da5cb5b146106135780639410cf561461063e57600080fd5b80637bf1a6271461058f5780637ec76708146105bd57600080fd5b80634a9138c61161021c5780636a18ec49116101d05780636f927710116101b55780636f92771014610521578063715018a61461055c57806374ffa6931461057157600080fd5b80636a18ec491461044a5780636aa701bf1461046057600080fd5b80634f1ef286116102015780634f1ef2861461040b57806352d1902d1461041e57806354cf2aeb1461043357600080fd5b80634a9138c6146103d55780634c52f156146103eb57600080fd5b80631584410a116102735780633659cfe6116102585780633659cfe6146103805780633950a311146103a05780633ccfd60b146103c057600080fd5b80631584410a14610356578063197e426c1461036d57600080fd5b8063074bc101146102b05780630f9da74314610308578063114120e61461032a57806312526d0c1461033257600080fd5b366102ab57005b600080fd5b3480156102bc57600080fd5b50610102546102de9073ffffffffffffffffffffffffffffffffffffffff1681565b60405173ffffffffffffffffffffffffffffffffffffffff90911681526020015b60405180910390f35b34801561031457600080fd5b50610328610323366004612cfc565b61086a565b005b610328610878565b34801561033e57600080fd5b5061034860fd5481565b6040519081526020016102ff565b34801561036257600080fd5b506103486101045481565b61032861037b366004612d75565b6108fc565b34801561038c57600080fd5b5061032861039b366004612ded565b610afc565b3480156103ac57600080fd5b506103286103bb366004612e08565b610cd2565b3480156103cc57600080fd5b50610328610e5c565b3480156103e157600080fd5b5061034860ff5481565b3480156103f757600080fd5b50610328610406366004612e32565b610eaa565b610328610419366004612f0d565b6110cb565b34801561042a57600080fd5b5061034861128d565b34801561043f57600080fd5b506103486101065481565b34801561045657600080fd5b5061034860fc5481565b34801561046c57600080fd5b506101036020527ff167d7e9ac6011f0b837eaede5176b30419264c8a43ec5db1d59bf93c98c1f7f547f7429aea77fbbd36248989297e5cd26ad8449693bd601bedeb44733c4a6f62b49547f0e795269dfbed9d26c3aec45bae0e61251290765b5d19cc5b76a2a2e5e8e14415460036000527f47446b1fbf373e85b24abb536cb4db1b756b2ab79d6be181d89723b4020a3315545b6040805194855260208501939093529183015260608201526080016102ff565b34801561052d57600080fd5b5061054161053c366004612fb3565b61135f565b604080519384526020840192909252908201526060016102ff565b34801561056857600080fd5b5061032861142d565b34801561057d57600080fd5b5060fc5460fd5460fe5460ff54610501565b34801561059b57600080fd5b50610100546102de9073ffffffffffffffffffffffffffffffffffffffff1681565b3480156105c957600080fd5b50610104546101055461010654610541565b3480156105e757600080fd5b506105fb6105f6366004612fef565b611441565b6040805192835260039190910b6020830152016102ff565b34801561061f57600080fd5b5060655473ffffffffffffffffffffffffffffffffffffffff166102de565b34801561064a57600080fd5b50610328610659366004612e08565b6115fd565b34801561066a57600080fd5b50610328610679366004612e08565b611716565b34801561068a57600080fd5b506105fb610699366004612fef565b6117cc565b3480156106aa57600080fd5b5061034860fe5481565b3480156106c057600080fd5b506103286106cf366004612cfc565b611837565b3480156106e057600080fd5b506103486106ef366004612fef565b6101036020526000908152604090205481565b34801561070e57600080fd5b5061032861071d366004612cfc565b611845565b34801561072e57600080fd5b506103486101055481565b34801561074557600080fd5b5061032861075436600461300a565b611853565b34801561076557600080fd5b50610348610774366004612fef565b611aec565b34801561078557600080fd5b506101005461010154610102546040805173ffffffffffffffffffffffffffffffffffffffff948516815292841660208401529216918101919091526060016102ff565b6103286107d736600461303d565b611b2c565b3480156107e857600080fd5b50610101546102de9073ffffffffffffffffffffffffffffffffffffffff1681565b34801561081657600080fd5b50610328610825366004612ded565b611dcf565b610328610838366004612fef565b611e69565b34801561084957600080fd5b5060fb546102de9073ffffffffffffffffffffffffffffffffffffffff1681565b6108726120a5565b61010555565b6108806120a5565b600360009081526101036020527f47446b1fbf373e85b24abb536cb4db1b756b2ab79d6be181d89723b4020a331580543492906108be9084906130dd565b9091555033905060036040513481527f936b71fd472ecdbe5f69d6882d7f9a42319a4dfbca3c41856873605eb90fc2d89060200160405180910390a3565b61090461210c565b60fb546040517fd47eed4500000000000000000000000000000000000000000000000000000000815260009173ffffffffffffffffffffffffffffffffffffffff169063d47eed459061095d908790879060040161311b565b602060405180830381865afa15801561097a573d6000803e3d6000fd5b505050506040513d601f19601f8201168201806040525081019061099e91906131f2565b90508034116109d9576040517ff4d678b800000000000000000000000000000000000000000000000000000000815260040160405180910390fd5b60fb546040517fef9e5e2800000000000000000000000000000000000000000000000000000000815273ffffffffffffffffffffffffffffffffffffffff9091169063ef9e5e28908390610a33908890889060040161311b565b6000604051808303818588803b158015610a4c57600080fd5b505af1158015610a60573d6000803e3d6000fd5b505050505060008134610a73919061320b565b90506000806000610a866003878661135f565b925092509250856003811115610a9e57610a9e61307f565b6003604080518781526020810187905290810184905242606082015233907ff28daec9f1864f569f0cf46bdd560d184b5b2447ebcc195bf3f131802d38abb29060800160405180910390a45050505050610af760018055565b505050565b73ffffffffffffffffffffffffffffffffffffffff7f0000000000000000000000000000000000000000000000000000000000000000163003610bac5760405162461bcd60e51b815260206004820152602c60248201527f46756e6374696f6e206d7573742062652063616c6c6564207468726f7567682060448201527f64656c656761746563616c6c000000000000000000000000000000000000000060648201526084015b60405180910390fd5b7f000000000000000000000000000000000000000000000000000000000000000073ffffffffffffffffffffffffffffffffffffffff16610c217f360894a13ba1a3210667c828492db98dca3e2076cc3735a920a3ca505d382bbc5473ffffffffffffffffffffffffffffffffffffffff1690565b73ffffffffffffffffffffffffffffffffffffffff1614610caa5760405162461bcd60e51b815260206004820152602c60248201527f46756e6374696f6e206d7573742062652063616c6c6564207468726f7567682060448201527f6163746976652070726f787900000000000000000000000000000000000000006064820152608401610ba3565b610cb38161216b565b60408051600080825260208201909252610ccf91839190612173565b50565b610cda6120a5565b806101036000846003811115610cf257610cf261307f565b6003811115610d0357610d0361307f565b8152602001908152602001600020541015610d4a576040517ff4d678b800000000000000000000000000000000000000000000000000000000815260040160405180910390fd5b806101036000846003811115610d6257610d6261307f565b6003811115610d7357610d7361307f565b81526020019081526020016000206000828254610d90919061320b565b9091555060039050826003811115610daa57610daa61307f565b03610de257604051339082156108fc029083906000818181858888f19350505050158015610ddc573d6000803e3d6000fd5b50610e12565b6000610ded83612320565b9050610e1073ffffffffffffffffffffffffffffffffffffffff82163384612414565b505b33826003811115610e2557610e2561307f565b6040518381527f36c9ce7cee20a4824305c8c5b7711699320dbe9f94e4464736e12cf48851c01a9060200160405180910390a35050565b610e646120a5565b60655460405173ffffffffffffffffffffffffffffffffffffffff909116904780156108fc02916000818181858888f19350505050158015610ccf573d6000803e3d6000fd5b600054610100900460ff1615808015610eca5750600054600160ff909116105b80610ee45750303b158015610ee4575060005460ff166001145b610f565760405162461bcd60e51b815260206004820152602e60248201527f496e697469616c697a61626c653a20636f6e747261637420697320616c72656160448201527f647920696e697469616c697a65640000000000000000000000000000000000006064820152608401610ba3565b600080547fffffffffffffffffffffffffffffffffffffffffffffffffffffffffffffff001660011790558015610fb457600080547fffffffffffffffffffffffffffffffffffffffffffffffffffffffffffff00ff166101001790555b610fbc6124ca565b610fc461254f565b60fb805473ffffffffffffffffffffffffffffffffffffffff808c167fffffffffffffffffffffffff00000000000000000000000000000000000000009283161790925560fc8a905560fd89905560fe88905560ff87905561010080548784169083161790556101018054868416908316179055610102805492851692909116919091179055603c6101045561012c61010555601e6101065580156110c057600080547fffffffffffffffffffffffffffffffffffffffffffffffffffffffffffff00ff169055604051600181527f7f26b83ff96e1f2b6a682f133852f6798a09c465da95921460cefb38474024989060200160405180910390a15b505050505050505050565b73ffffffffffffffffffffffffffffffffffffffff7f00000000000000000000000000000000000000000000000000000000000000001630036111765760405162461bcd60e51b815260206004820152602c60248201527f46756e6374696f6e206d7573742062652063616c6c6564207468726f7567682060448201527f64656c656761746563616c6c00000000000000000000000000000000000000006064820152608401610ba3565b7f000000000000000000000000000000000000000000000000000000000000000073ffffffffffffffffffffffffffffffffffffffff166111eb7f360894a13ba1a3210667c828492db98dca3e2076cc3735a920a3ca505d382bbc5473ffffffffffffffffffffffffffffffffffffffff1690565b73ffffffffffffffffffffffffffffffffffffffff16146112745760405162461bcd60e51b815260206004820152602c60248201527f46756e6374696f6e206d7573742062652063616c6c6564207468726f7567682060448201527f6163746976652070726f787900000000000000000000000000000000000000006064820152608401610ba3565b61127d8261216b565b61128982826001612173565b5050565b60003073ffffffffffffffffffffffffffffffffffffffff7f0000000000000000000000000000000000000000000000000000000000000000161461133a5760405162461bcd60e51b815260206004820152603860248201527f555550535570677261646561626c653a206d757374206e6f742062652063616c60448201527f6c6564207468726f7567682064656c656761746563616c6c00000000000000006064820152608401610ba3565b507f360894a13ba1a3210667c828492db98dca3e2076cc3735a920a3ca505d382bbc90565b60008060008360000361139e576040517f2c5211c600000000000000000000000000000000000000000000000000000000815260040160405180910390fd5b6113a786611441565b5091506113b385611441565b5090506000670de0b6b3a76400006113cb848761321e565b6113d59190613235565b9050816113ea82670de0b6b3a764000061321e565b6113f49190613235565b93506000612710610106548661140a919061321e565b6114149190613235565b9050611420818661320b565b9450505093509350939050565b6114356120a5565b61143f60006125d4565b565b600080600061144f8461264b565b60fb54610104546040517fa4ae35e000000000000000000000000000000000000000000000000000000000815260048101849052602481019190915291925060009173ffffffffffffffffffffffffffffffffffffffff9091169063a4ae35e0906044015b608060405180830381865afa1580156114d1573d6000803e3d6000fd5b505050506040513d601f19601f820116820180604052508101906114f59190613282565b90506000816000015160070b13611538576040517ff45e167b00000000000000000000000000000000000000000000000000000000815260040160405180910390fd5b600080826040015160030b1261158757604082015161155890600a613431565b825161156e919067ffffffffffffffff1661321e565b61158090670de0b6b3a764000061321e565b90506115ec565b60408201516115b6907fffffffffffffffffffffffffffffffffffffffffffffffffffffffffffffffff613443565b6115c190600a613431565b82516115df9067ffffffffffffffff16670de0b6b3a764000061321e565b6115e99190613235565b90505b604090910151909590945092505050565b6116056120a5565b60038260038111156116195761161961307f565b03611650576040517f24a0114400000000000000000000000000000000000000000000000000000000815260040160405180910390fd5b600061165b83612320565b905061167f73ffffffffffffffffffffffffffffffffffffffff82163330856126d0565b8161010360008560038111156116975761169761307f565b60038111156116a8576116a861307f565b815260200190815260200160002060008282546116c591906130dd565b909155503390508360038111156116de576116de61307f565b6040518481527f936b71fd472ecdbe5f69d6882d7f9a42319a4dfbca3c41856873605eb90fc2d89060200160405180910390a3505050565b61171e6120a5565b60008260038111156117325761173261307f565b0361173d5760fc5550565b60018260038111156117515761175161307f565b0361175c5760fd5550565b60028260038111156117705761177061307f565b0361177b5760fe5550565b600382600381111561178f5761178f61307f565b0361179a5760ff5550565b6040517f24a0114400000000000000000000000000000000000000000000000000000000815260040160405180910390fd5b60008060006117da8461264b565b60fb546040517f31d98b3f0000000000000000000000000000000000000000000000000000000081526004810183905291925060009173ffffffffffffffffffffffffffffffffffffffff909116906331d98b3f906024016114b4565b61183f6120a5565b61010455565b61184d6120a5565b61010655565b61185b61210c565b81600003611895576040517f2c5211c600000000000000000000000000000000000000000000000000000000815260040160405180910390fd5b60038360038111156118a9576118a961307f565b036118e0576040517f24a0114400000000000000000000000000000000000000000000000000000000815260040160405180910390fd5b60008060006118f18660038761135f565b92509250925083831015611931576040517f8199f5f300000000000000000000000000000000000000000000000000000000815260040160405180910390fd5b60036000526101036020527f47446b1fbf373e85b24abb536cb4db1b756b2ab79d6be181d89723b4020a331554831115611997576040517ff4d678b800000000000000000000000000000000000000000000000000000000815260040160405180910390fd5b60006119a287612320565b90506119c673ffffffffffffffffffffffffffffffffffffffff82163330896126d0565b8561010360008960038111156119de576119de61307f565b60038111156119ef576119ef61307f565b81526020019081526020016000206000828254611a0c91906130dd565b9091555050600360009081526101036020527f47446b1fbf373e85b24abb536cb4db1b756b2ab79d6be181d89723b4020a33158054869290611a4f90849061320b565b9091555050604051339085156108fc029086906000818181858888f19350505050158015611a81573d6000803e3d6000fd5b506003876003811115611a9657611a9661307f565b604080518981526020810188905290810185905242606082015233907ff28daec9f1864f569f0cf46bdd560d184b5b2447ebcc195bf3f131802d38abb29060800160405180910390a450505050610af760018055565b60006101036000836003811115611b0557611b0561307f565b6003811115611b1657611b1661307f565b8152602001908152602001600020549050919050565b60fb546040517fd47eed4500000000000000000000000000000000000000000000000000000000815260009173ffffffffffffffffffffffffffffffffffffffff169063d47eed4590611b85908690869060040161311b565b602060405180830381865afa158015611ba2573d6000803e3d6000fd5b505050506040513d601f19601f82011682018060405250810190611bc691906131f2565b905080341015611c02576040517ff4d678b800000000000000000000000000000000000000000000000000000000815260040160405180910390fd5b60fb546040517fef9e5e2800000000000000000000000000000000000000000000000000000000815273ffffffffffffffffffffffffffffffffffffffff9091169063ef9e5e28908390611c5c908790879060040161311b565b6000604051808303818588803b158015611c7557600080fd5b505af1158015611c89573d6000803e3d6000fd5b505050505060005b6004811015611d8a576000816003811115611cae57611cae61307f565b6040517fa8e63671000000000000000000000000000000000000000000000000000000008152909150309063a8e6367190611ced90849060040161346a565b6040805180830381865afa925050508015611d25575060408051601f3d908101601f19168201909252611d22918101906134ab565b60015b15611d7757826003811115611d3c57611d3c61307f565b604080518481524260208201527f0632454824820b4b1fd6f29fdc288d3b437e7ae937523b584eed6967b39e7595910160405180910390a250505b5080611d82816134d7565b915050611c91565b5080341115610af757336108fc611da1833461320b565b6040518115909202916000818181858888f19350505050158015611dc9573d6000803e3d6000fd5b50505050565b611dd76120a5565b73ffffffffffffffffffffffffffffffffffffffff8116611e605760405162461bcd60e51b815260206004820152602660248201527f4f776e61626c653a206e6577206f776e657220697320746865207a65726f206160448201527f64647265737300000000000000000000000000000000000000000000000000006064820152608401610ba3565b610ccf816125d4565b611e7161210c565b34600003611eab576040517f2c5211c600000000000000000000000000000000000000000000000000000000815260040160405180910390fd5b6003816003811115611ebf57611ebf61307f565b03611ef6576040517f24a0114400000000000000000000000000000000000000000000000000000000815260040160405180910390fd5b6000806000611f076003853461135f565b925092509250826101036000866003811115611f2557611f2561307f565b6003811115611f3657611f3661307f565b8152602001908152602001600020541015611f7d576040517ff4d678b800000000000000000000000000000000000000000000000000000000815260040160405180910390fd5b600360009081526101036020527f47446b1fbf373e85b24abb536cb4db1b756b2ab79d6be181d89723b4020a33158054349290611fbb9084906130dd565b909155508390506101036000866003811115611fd957611fd961307f565b6003811115611fea57611fea61307f565b81526020019081526020016000206000828254612007919061320b565b909155506000905061201885612320565b905061203b73ffffffffffffffffffffffffffffffffffffffff82163386612414565b84600381111561204d5761204d61307f565b6003604080513481526020810188905290810185905242606082015233907ff28daec9f1864f569f0cf46bdd560d184b5b2447ebcc195bf3f131802d38abb29060800160405180910390a450505050610ccf60018055565b60655473ffffffffffffffffffffffffffffffffffffffff16331461143f5760405162461bcd60e51b815260206004820181905260248201527f4f776e61626c653a2063616c6c6572206973206e6f7420746865206f776e65726044820152606401610ba3565b60026001540361215e5760405162461bcd60e51b815260206004820152601f60248201527f5265656e7472616e637947756172643a207265656e7472616e742063616c6c006044820152606401610ba3565b6002600155565b60018055565b610ccf6120a5565b7f4910fdfa16fed3260ed0e7147f7cc6da11a60208b5b9406d12a635614ffd91435460ff16156121a657610af78361272e565b8273ffffffffffffffffffffffffffffffffffffffff166352d1902d6040518163ffffffff1660e01b8152600401602060405180830381865afa92505050801561220d575060408051601f3d908101601f1916820190925261220a918101906131f2565b60015b61227f5760405162461bcd60e51b815260206004820152602e60248201527f45524331393637557067726164653a206e657720696d706c656d656e7461746960448201527f6f6e206973206e6f7420555550530000000000000000000000000000000000006064820152608401610ba3565b7f360894a13ba1a3210667c828492db98dca3e2076cc3735a920a3ca505d382bbc81146123145760405162461bcd60e51b815260206004820152602960248201527f45524331393637557067726164653a20756e737570706f727465642070726f7860448201527f6961626c655555494400000000000000000000000000000000000000000000006064820152608401610ba3565b50610af783838361281e565b6000808260038111156123355761233561307f565b036123595750506101005473ffffffffffffffffffffffffffffffffffffffff1690565b600182600381111561236d5761236d61307f565b036123915750506101015473ffffffffffffffffffffffffffffffffffffffff1690565b60028260038111156123a5576123a561307f565b036123c95750506101025473ffffffffffffffffffffffffffffffffffffffff1690565b60038260038111156123dd576123dd61307f565b0361179a576040517f24a0114400000000000000000000000000000000000000000000000000000000815260040160405180910390fd5b60405173ffffffffffffffffffffffffffffffffffffffff8316602482015260448101829052610af79084907fa9059cbb00000000000000000000000000000000000000000000000000000000906064015b60408051601f198184030181529190526020810180517bffffffffffffffffffffffffffffffffffffffffffffffffffffffff167fffffffff0000000000000000000000000000000000000000000000000000000090931692909217909152612843565b600054610100900460ff166125475760405162461bcd60e51b815260206004820152602b60248201527f496e697469616c697a61626c653a20636f6e7472616374206973206e6f74206960448201527f6e697469616c697a696e670000000000000000000000000000000000000000006064820152608401610ba3565b61143f612938565b600054610100900460ff166125cc5760405162461bcd60e51b815260206004820152602b60248201527f496e697469616c697a61626c653a20636f6e7472616374206973206e6f74206960448201527f6e697469616c697a696e670000000000000000000000000000000000000000006064820152608401610ba3565b61143f6129b5565b6065805473ffffffffffffffffffffffffffffffffffffffff8381167fffffffffffffffffffffffff0000000000000000000000000000000000000000831681179093556040519116919082907f8be0079c531659141344cd1fd0a4f28419497f9722a3daafe3b4186f6b6457e090600090a35050565b6000808260038111156126605761266061307f565b0361266d57505060fc5490565b60018260038111156126815761268161307f565b0361268e57505060fd5490565b60028260038111156126a2576126a261307f565b036126af57505060fe5490565b60038260038111156126c3576126c361307f565b0361179a57505060ff5490565b60405173ffffffffffffffffffffffffffffffffffffffff80851660248301528316604482015260648101829052611dc99085907f23b872dd0000000000000000000000000000000000000000000000000000000090608401612466565b73ffffffffffffffffffffffffffffffffffffffff81163b6127b85760405162461bcd60e51b815260206004820152602d60248201527f455243313936373a206e657720696d706c656d656e746174696f6e206973206e60448201527f6f74206120636f6e7472616374000000000000000000000000000000000000006064820152608401610ba3565b7f360894a13ba1a3210667c828492db98dca3e2076cc3735a920a3ca505d382bbc80547fffffffffffffffffffffffff00000000000000000000000000000000000000001673ffffffffffffffffffffffffffffffffffffffff92909216919091179055565b61282783612a3b565b6000825111806128345750805b15610af757611dc98383612a88565b60006128a5826040518060400160405280602081526020017f5361666545524332303a206c6f772d6c6576656c2063616c6c206661696c65648152508573ffffffffffffffffffffffffffffffffffffffff16612ab69092919063ffffffff16565b90508051600014806128c65750808060200190518101906128c6919061350f565b610af75760405162461bcd60e51b815260206004820152602a60248201527f5361666545524332303a204552433230206f7065726174696f6e20646964206e60448201527f6f742073756363656564000000000000000000000000000000000000000000006064820152608401610ba3565b600054610100900460ff166121655760405162461bcd60e51b815260206004820152602b60248201527f496e697469616c697a61626c653a20636f6e7472616374206973206e6f74206960448201527f6e697469616c697a696e670000000000000000000000000000000000000000006064820152608401610ba3565b600054610100900460ff16612a325760405162461bcd60e51b815260206004820152602b60248201527f496e697469616c697a61626c653a20636f6e7472616374206973206e6f74206960448201527f6e697469616c697a696e670000000000000000000000000000000000000000006064820152608401610ba3565b61143f336125d4565b612a448161272e565b60405173ffffffffffffffffffffffffffffffffffffffff8216907fbc7cd75a20ee27fd9adebab32041f755214dbc6bffa90cc0225b39da2e5c2d3b90600090a250565b6060612aad83836040518060600160405280602781526020016135ac60279139612acd565b90505b92915050565b6060612ac58484600085612b52565b949350505050565b60606000808573ffffffffffffffffffffffffffffffffffffffff1685604051612af7919061355c565b600060405180830381855af49150503d8060008114612b32576040519150601f19603f3d011682016040523d82523d6000602084013e612b37565b606091505b5091509150612b4886838387612c51565b9695505050505050565b606082471015612bca5760405162461bcd60e51b815260206004820152602660248201527f416464726573733a20696e73756666696369656e742062616c616e636520666f60448201527f722063616c6c00000000000000000000000000000000000000000000000000006064820152608401610ba3565b6000808673ffffffffffffffffffffffffffffffffffffffff168587604051612bf3919061355c565b60006040518083038185875af1925050503d8060008114612c30576040519150601f19603f3d011682016040523d82523d6000602084013e612c35565b606091505b5091509150612c4687838387612c51565b979650505050505050565b60608315612ccd578251600003612cc65773ffffffffffffffffffffffffffffffffffffffff85163b612cc65760405162461bcd60e51b815260206004820152601d60248201527f416464726573733a2063616c6c20746f206e6f6e2d636f6e74726163740000006044820152606401610ba3565b5081612ac5565b612ac58383815115612ce25781518083602001fd5b8060405162461bcd60e51b8152600401610ba39190613578565b600060208284031215612d0e57600080fd5b5035919050565b60008083601f840112612d2757600080fd5b50813567ffffffffffffffff811115612d3f57600080fd5b6020830191508360208260051b8501011115612d5a57600080fd5b9250929050565b803560048110612d7057600080fd5b919050565b600080600060408486031215612d8a57600080fd5b833567ffffffffffffffff811115612da157600080fd5b612dad86828701612d15565b9094509250612dc0905060208501612d61565b90509250925092565b803573ffffffffffffffffffffffffffffffffffffffff81168114612d7057600080fd5b600060208284031215612dff57600080fd5b612aad82612dc9565b60008060408385031215612e1b57600080fd5b612e2483612d61565b946020939093013593505050565b600080600080600080600080610100898b031215612e4f57600080fd5b612e5889612dc9565b975060208901359650604089013595506060890135945060808901359350612e8260a08a01612dc9565b9250612e9060c08a01612dc9565b9150612e9e60e08a01612dc9565b90509295985092959890939650565b7f4e487b7100000000000000000000000000000000000000000000000000000000600052604160045260246000fd5b604051601f8201601f1916810167ffffffffffffffff81118282101715612f0557612f05612ead565b604052919050565b60008060408385031215612f2057600080fd5b612f2983612dc9565b915060208084013567ffffffffffffffff80821115612f4757600080fd5b818601915086601f830112612f5b57600080fd5b813581811115612f6d57612f6d612ead565b612f7f84601f19601f84011601612edc565b91508082528784828501011115612f9557600080fd5b80848401858401376000848284010152508093505050509250929050565b600080600060608486031215612fc857600080fd5b612fd184612d61565b9250612fdf60208501612d61565b9150604084013590509250925092565b60006020828403121561300157600080fd5b612aad82612d61565b60008060006060848603121561301f57600080fd5b61302884612d61565b95602085013595506040909401359392505050565b6000806020838503121561305057600080fd5b823567ffffffffffffffff81111561306757600080fd5b61307385828601612d15565b90969095509350505050565b7f4e487b7100000000000000000000000000000000000000000000000000000000600052602160045260246000fd5b7f4e487b7100000000000000000000000000000000000000000000000000000000600052601160045260246000fd5b80820180821115612ab057612ab06130ae565b818352818160208501375060006020828401015260006020601f19601f840116840101905092915050565b60208082528181018390526000906040600585901b8401810190840186845b878110156131e5577fffffffffffffffffffffffffffffffffffffffffffffffffffffffffffffffc087850301835281357fffffffffffffffffffffffffffffffffffffffffffffffffffffffffffffffe18a360301811261319b57600080fd5b8901858101903567ffffffffffffffff8111156131b757600080fd5b8036038213156131c657600080fd5b6131d18682846130f0565b95505050918401919084019060010161313a565b5091979650505050505050565b60006020828403121561320457600080fd5b5051919050565b81810381811115612ab057612ab06130ae565b8082028115828204841417612ab057612ab06130ae565b60008261326b577f4e487b7100000000000000000000000000000000000000000000000000000000600052601260045260246000fd5b500490565b8051600381900b8114612d7057600080fd5b60006080828403121561329457600080fd5b6040516080810167ffffffffffffffff82821081831117156132b8576132b8612ead565b81604052845191508160070b82146132cf57600080fd5b90825260208401519080821682146132e657600080fd5b5060208201526132f860408401613270565b6040820152606083015160608201528091505092915050565b600181815b8085111561336a57817fffffffffffffffffffffffffffffffffffffffffffffffffffffffffffffffff04821115613350576133506130ae565b8085161561335d57918102915b93841c9390800290613316565b509250929050565b60008261338157506001612ab0565b8161338e57506000612ab0565b81600181146133a457600281146133ae576133ca565b6001915050612ab0565b60ff8411156133bf576133bf6130ae565b50506001821b612ab0565b5060208310610133831016604e8410600b84101617156133ed575081810a612ab0565b6133f78383613311565b807fffffffffffffffffffffffffffffffffffffffffffffffffffffffffffffffff04821115613429576134296130ae565b029392505050565b6000612aad63ffffffff841683613372565b60008260030b8260030b028060030b9150808214613463576134636130ae565b5092915050565b60208101600483106134a5577f4e487b7100000000000000000000000000000000000000000000000000000000600052602160045260246000fd5b91905290565b600080604083850312156134be57600080fd5b825191506134ce60208401613270565b90509250929050565b60007fffffffffffffffffffffffffffffffffffffffffffffffffffffffffffffffff8203613508576135086130ae565b5060010190565b60006020828403121561352157600080fd5b8151801515811461353157600080fd5b9392505050565b60005b8381101561355357818101518382015260200161353b565b50506000910152565b6000825161356e818460208701613538565b9190910192915050565b6020815260008251806020840152613597816040850160208701613538565b601f01601f1916919091016040019291505056fe416464726573733a206c6f772d6c6576656c2064656c65676174652063616c6c206661696c6564a2646970667358221220b4d32a89286b0d10af17e318696f9e0887f85bde57d54432601e1a9a71a2706a64736f6c63430008110033","opcodes":"PUSH1 0xA0 PUSH1 0x40 MSTORE ADDRESS PUSH1 0x80 MSTORE CALLVALUE DUP1 ISZERO PUSH2 0x14 JUMPI PUSH1 0x0 DUP1 REVERT JUMPDEST POP PUSH1 0x80 MLOAD PUSH2 0x3608 PUSH2 0x4C PUSH1 0x0 CODECOPY PUSH1 0x0 DUP2 DUP2 PUSH2 0xB13 ADD MSTORE DUP2 DUP2 PUSH2 0xBAE ADD MSTORE DUP2 DUP2 PUSH2 0x10E2 ADD MSTORE DUP2 DUP2 PUSH2 0x1178 ADD MSTORE PUSH2 0x12A7 ADD MSTORE PUSH2 0x3608 PUSH1 0x0 RETURN INVALID PUSH1 0x80 PUSH1 0x40 MSTORE PUSH1 0x4 CALLDATASIZE LT PUSH2 0x2A4 JUMPI PUSH1 0x0 CALLDATALOAD PUSH1 0xE0 SHR DUP1 PUSH4 0x7BF1A627 GT PUSH2 0x16E JUMPI DUP1 PUSH4 0xBF16F65A GT PUSH2 0xCB JUMPI DUP1 PUSH4 0xEF9E5E28 GT PUSH2 0x7F JUMPI DUP1 PUSH4 0xF2FDE38B GT PUSH2 0x64 JUMPI DUP1 PUSH4 0xF2FDE38B EQ PUSH2 0x80A JUMPI DUP1 PUSH4 0xF5114E15 EQ PUSH2 0x82A JUMPI DUP1 PUSH4 0xF98D06F0 EQ PUSH2 0x83D JUMPI PUSH1 0x0 DUP1 REVERT JUMPDEST DUP1 PUSH4 0xEF9E5E28 EQ PUSH2 0x7C9 JUMPI DUP1 PUSH4 0xF241524E EQ PUSH2 0x7DC JUMPI PUSH1 0x0 DUP1 REVERT JUMPDEST DUP1 PUSH4 0xD36BF645 GT PUSH2 0xB0 JUMPI DUP1 PUSH4 0xD36BF645 EQ PUSH2 0x739 JUMPI DUP1 PUSH4 0xE5FCA396 EQ PUSH2 0x759 JUMPI DUP1 PUSH4 0xEE8C24B8 EQ PUSH2 0x779 JUMPI PUSH1 0x0 DUP1 REVERT JUMPDEST DUP1 PUSH4 0xBF16F65A EQ PUSH2 0x702 JUMPI DUP1 PUSH4 0xD03153AA EQ PUSH2 0x722 JUMPI PUSH1 0x0 DUP1 REVERT JUMPDEST DUP1 PUSH4 0x9FF0E2F3 GT PUSH2 0x122 JUMPI DUP1 PUSH4 0xB2A84502 GT PUSH2 0x107 JUMPI DUP1 PUSH4 0xB2A84502 EQ PUSH2 0x69E JUMPI DUP1 PUSH4 0xB40F43F7 EQ PUSH2 0x6B4 JUMPI DUP1 PUSH4 0xB41275ED EQ PUSH2 0x6D4 JUMPI PUSH1 0x0 DUP1 REVERT JUMPDEST DUP1 PUSH4 0x9FF0E2F3 EQ PUSH2 0x65E JUMPI DUP1 PUSH4 0xA8E63671 EQ PUSH2 0x67E JUMPI PUSH1 0x0 DUP1 REVERT JUMPDEST DUP1 PUSH4 0x820FD7DB GT PUSH2 0x153 JUMPI DUP1 PUSH4 0x820FD7DB EQ PUSH2 0x5DB JUMPI DUP1 PUSH4 0x8DA5CB5B EQ PUSH2 0x613 JUMPI DUP1 PUSH4 0x9410CF56 EQ PUSH2 0x63E JUMPI PUSH1 0x0 DUP1 REVERT JUMPDEST DUP1 PUSH4 0x7BF1A627 EQ PUSH2 0x58F JUMPI DUP1 PUSH4 0x7EC76708 EQ PUSH2 0x5BD JUMPI PUSH1 0x0 DUP1 REVERT JUMPDEST DUP1 PUSH4 0x4A9138C6 GT PUSH2 0x21C JUMPI DUP1 PUSH4 0x6A18EC49 GT PUSH2 0x1D0 JUMPI DUP1 PUSH4 0x6F927710 GT PUSH2 0x1B5 JUMPI DUP1 PUSH4 0x6F927710 EQ PUSH2 0x521 JUMPI DUP1 PUSH4 0x715018A6 EQ PUSH2 0x55C JUMPI DUP1 PUSH4 0x74FFA693 EQ PUSH2 0x571 JUMPI PUSH1 0x0 DUP1 REVERT JUMPDEST DUP1 PUSH4 0x6A18EC49 EQ PUSH2 0x44A JUMPI DUP1 PUSH4 0x6AA701BF EQ PUSH2 0x460 JUMPI PUSH1 0x0 DUP1 REVERT JUMPDEST DUP1 PUSH4 0x4F1EF286 GT PUSH2 0x201 JUMPI DUP1 PUSH4 0x4F1EF286 EQ PUSH2 0x40B JUMPI DUP1 PUSH4 0x52D1902D EQ PUSH2 0x41E JUMPI DUP1 PUSH4 0x54CF2AEB EQ PUSH2 0x433 JUMPI PUSH1 0x0 DUP1 REVERT JUMPDEST DUP1 PUSH4 0x4A9138C6 EQ PUSH2 0x3D5 JUMPI DUP1 PUSH4 0x4C52F156 EQ PUSH2 0x3EB JUMPI PUSH1 0x0 DUP1 REVERT JUMPDEST DUP1 PUSH4 0x1584410A GT PUSH2 0x273 JUMPI DUP1 PUSH4 0x3659CFE6 GT PUSH2 0x258 JUMPI DUP1 PUSH4 0x3659CFE6 EQ PUSH2 0x380 JUMPI DUP1 PUSH4 0x3950A311 EQ PUSH2 0x3A0 JUMPI DUP1 PUSH4 0x3CCFD60B EQ PUSH2 0x3C0 JUMPI PUSH1 0x0 DUP1 REVERT JUMPDEST DUP1 PUSH4 0x1584410A EQ PUSH2 0x356 JUMPI DUP1 PUSH4 0x197E426C EQ PUSH2 0x36D JUMPI PUSH1 0x0 DUP1 REVERT JUMPDEST DUP1 PUSH4 0x74BC101 EQ PUSH2 0x2B0 JUMPI DUP1 PUSH4 0xF9DA743 EQ PUSH2 0x308 JUMPI DUP1 PUSH4 0x114120E6 EQ PUSH2 0x32A JUMPI DUP1 PUSH4 0x12526D0C EQ PUSH2 0x332 JUMPI PUSH1 0x0 DUP1 REVERT JUMPDEST CALLDATASIZE PUSH2 0x2AB JUMPI STOP JUMPDEST PUSH1 0x0 DUP1 REVERT JUMPDEST CALLVALUE DUP1 ISZERO PUSH2 0x2BC JUMPI PUSH1 0x0 DUP1 REVERT JUMPDEST POP PUSH2 0x102 SLOAD PUSH2 0x2DE SWAP1 PUSH20 0xFFFFFFFFFFFFFFFFFFFFFFFFFFFFFFFFFFFFFFFF AND DUP2 JUMP JUMPDEST PUSH1 0x40 MLOAD PUSH20 0xFFFFFFFFFFFFFFFFFFFFFFFFFFFFFFFFFFFFFFFF SWAP1 SWAP2 AND DUP2 MSTORE PUSH1 0x20 ADD JUMPDEST PUSH1 0x40 MLOAD DUP1 SWAP2 SUB SWAP1 RETURN JUMPDEST CALLVALUE DUP1 ISZERO PUSH2 0x314 JUMPI PUSH1 0x0 DUP1 REVERT JUMPDEST POP PUSH2 0x328 PUSH2 0x323 CALLDATASIZE PUSH1 0x4 PUSH2 0x2CFC JUMP JUMPDEST PUSH2 0x86A JUMP JUMPDEST STOP JUMPDEST PUSH2 0x328 PUSH2 0x878 JUMP JUMPDEST CALLVALUE DUP1 ISZERO PUSH2 0x33E JUMPI PUSH1 0x0 DUP1 REVERT JUMPDEST POP PUSH2 0x348 PUSH1 0xFD SLOAD DUP2 JUMP JUMPDEST PUSH1 0x40 MLOAD SWAP1 DUP2 MSTORE PUSH1 0x20 ADD PUSH2 0x2FF JUMP JUMPDEST CALLVALUE DUP1 ISZERO PUSH2 0x362 JUMPI PUSH1 0x0 DUP1 REVERT JUMPDEST POP PUSH2 0x348 PUSH2 0x104 SLOAD DUP2 JUMP JUMPDEST PUSH2 0x328 PUSH2 0x37B CALLDATASIZE PUSH1 0x4 PUSH2 0x2D75 JUMP JUMPDEST PUSH2 0x8FC JUMP JUMPDEST CALLVALUE DUP1 ISZERO PUSH2 0x38C JUMPI PUSH1 0x0 DUP1 REVERT JUMPDEST POP PUSH2 0x328 PUSH2 0x39B CALLDATASIZE PUSH1 0x4 PUSH2 0x2DED JUMP JUMPDEST PUSH2 0xAFC JUMP JUMPDEST CALLVALUE DUP1 ISZERO PUSH2 0x3AC JUMPI PUSH1 0x0 DUP1 REVERT JUMPDEST POP PUSH2 0x328 PUSH2 0x3BB CALLDATASIZE PUSH1 0x4 PUSH2 0x2E08 JUMP JUMPDEST PUSH2 0xCD2 JUMP JUMPDEST CALLVALUE DUP1 ISZERO PUSH2 0x3CC JUMPI PUSH1 0x0 DUP1 REVERT JUMPDEST POP PUSH2 0x328 PUSH2 0xE5C JUMP JUMPDEST CALLVALUE DUP1 ISZERO PUSH2 0x3E1 JUMPI PUSH1 0x0 DUP1 REVERT JUMPDEST POP PUSH2 0x348 PUSH1 0xFF SLOAD DUP2 JUMP JUMPDEST CALLVALUE DUP1 ISZERO PUSH2 0x3F7 JUMPI PUSH1 0x0 DUP1 REVERT JUMPDEST POP PUSH2 0x328 PUSH2 0x406 CALLDATASIZE PUSH1 0x4 PUSH2 0x2E32 JUMP JUMPDEST PUSH2 0xEAA JUMP JUMPDEST PUSH2 0x328 PUSH2 0x419 CALLDATASIZE PUSH1 0x4 PUSH2 0x2F0D JUMP JUMPDEST PUSH2 0x10CB JUMP JUMPDEST CALLVALUE DUP1 ISZERO PUSH2 0x42A JUMPI PUSH1 0x0 DUP1 REVERT JUMPDEST POP PUSH2 0x348 PUSH2 0x128D JUMP JUMPDEST CALLVALUE DUP1 ISZERO PUSH2 0x43F JUMPI PUSH1 0x0 DUP1 REVERT JUMPDEST POP PUSH2 0x348 PUSH2 0x106 SLOAD DUP2 JUMP JUMPDEST CALLVALUE DUP1 ISZERO PUSH2 0x456 JUMPI PUSH1 0x0 DUP1 REVERT JUMPDEST POP PUSH2 0x348 PUSH1 0xFC SLOAD DUP2 JUMP JUMPDEST CALLVALUE DUP1 ISZERO PUSH2 0x46C JUMPI PUSH1 0x0 DUP1 REVERT JUMPDEST POP PUSH2 0x103 PUSH1 0x20 MSTORE PUSH32 0xF167D7E9AC6011F0B837EAEDE5176B30419264C8A43EC5DB1D59BF93C98C1F7F SLOAD PUSH32 0x7429AEA77FBBD36248989297E5CD26AD8449693BD601BEDEB44733C4A6F62B49 SLOAD PUSH32 0xE795269DFBED9D26C3AEC45BAE0E61251290765B5D19CC5B76A2A2E5E8E1441 SLOAD PUSH1 0x3 PUSH1 0x0 MSTORE PUSH32 0x47446B1FBF373E85B24ABB536CB4DB1B756B2AB79D6BE181D89723B4020A3315 SLOAD JUMPDEST PUSH1 0x40 DUP1 MLOAD SWAP5 DUP6 MSTORE PUSH1 0x20 DUP6 ADD SWAP4 SWAP1 SWAP4 MSTORE SWAP2 DUP4 ADD MSTORE PUSH1 0x60 DUP3 ADD MSTORE PUSH1 0x80 ADD PUSH2 0x2FF JUMP JUMPDEST CALLVALUE DUP1 ISZERO PUSH2 0x52D JUMPI PUSH1 0x0 DUP1 REVERT JUMPDEST POP PUSH2 0x541 PUSH2 0x53C CALLDATASIZE PUSH1 0x4 PUSH2 0x2FB3 JUMP JUMPDEST PUSH2 0x135F JUMP JUMPDEST PUSH1 0x40 DUP1 MLOAD SWAP4 DUP5 MSTORE PUSH1 0x20 DUP5 ADD SWAP3 SWAP1 SWAP3 MSTORE SWAP1 DUP3 ADD MSTORE PUSH1 0x60 ADD PUSH2 0x2FF JUMP JUMPDEST CALLVALUE DUP1 ISZERO PUSH2 0x568 JUMPI PUSH1 0x0 DUP1 REVERT JUMPDEST POP PUSH2 0x328 PUSH2 0x142D JUMP JUMPDEST CALLVALUE DUP1 ISZERO PUSH2 0x57D JUMPI PUSH1 0x0 DUP1 REVERT JUMPDEST POP PUSH1 0xFC SLOAD PUSH1 0xFD SLOAD PUSH1 0xFE SLOAD PUSH1 0xFF SLOAD PUSH2 0x501 JUMP JUMPDEST CALLVALUE DUP1 ISZERO PUSH2 0x59B JUMPI PUSH1 0x0 DUP1 REVERT JUMPDEST POP PUSH2 0x100 SLOAD PUSH2 0x2DE SWAP1 PUSH20 0xFFFFFFFFFFFFFFFFFFFFFFFFFFFFFFFFFFFFFFFF AND DUP2 JUMP JUMPDEST CALLVALUE DUP1 ISZERO PUSH2 0x5C9 JUMPI PUSH1 0x0 DUP1 REVERT JUMPDEST POP PUSH2 0x104 SLOAD PUSH2 0x105 SLOAD PUSH2 0x106 SLOAD PUSH2 0x541 JUMP JUMPDEST CALLVALUE DUP1 ISZERO PUSH2 0x5E7 JUMPI PUSH1 0x0 DUP1 REVERT JUMPDEST POP PUSH2 0x5FB PUSH2 0x5F6 CALLDATASIZE PUSH1 0x4 PUSH2 0x2FEF JUMP JUMPDEST PUSH2 0x1441 JUMP JUMPDEST PUSH1 0x40 DUP1 MLOAD SWAP3 DUP4 MSTORE PUSH1 0x3 SWAP2 SWAP1 SWAP2 SIGNEXTEND PUSH1 0x20 DUP4 ADD MSTORE ADD PUSH2 0x2FF JUMP JUMPDEST CALLVALUE DUP1 ISZERO PUSH2 0x61F JUMPI PUSH1 0x0 DUP1 REVERT JUMPDEST POP PUSH1 0x65 SLOAD PUSH20 0xFFFFFFFFFFFFFFFFFFFFFFFFFFFFFFFFFFFFFFFF AND PUSH2 0x2DE JUMP JUMPDEST CALLVALUE DUP1 ISZERO PUSH2 0x64A JUMPI PUSH1 0x0 DUP1 REVERT JUMPDEST POP PUSH2 0x328 PUSH2 0x659 CALLDATASIZE PUSH1 0x4 PUSH2 0x2E08 JUMP JUMPDEST PUSH2 0x15FD JUMP JUMPDEST CALLVALUE DUP1 ISZERO PUSH2 0x66A JUMPI PUSH1 0x0 DUP1 REVERT JUMPDEST POP PUSH2 0x328 PUSH2 0x679 CALLDATASIZE PUSH1 0x4 PUSH2 0x2E08 JUMP JUMPDEST PUSH2 0x1716 JUMP JUMPDEST CALLVALUE DUP1 ISZERO PUSH2 0x68A JUMPI PUSH1 0x0 DUP1 REVERT JUMPDEST POP PUSH2 0x5FB PUSH2 0x699 CALLDATASIZE PUSH1 0x4 PUSH2 0x2FEF JUMP JUMPDEST PUSH2 0x17CC JUMP JUMPDEST CALLVALUE DUP1 ISZERO PUSH2 0x6AA JUMPI PUSH1 0x0 DUP1 REVERT JUMPDEST POP PUSH2 0x348 PUSH1 0xFE SLOAD DUP2 JUMP JUMPDEST CALLVALUE DUP1 ISZERO PUSH2 0x6C0 JUMPI PUSH1 0x0 DUP1 REVERT JUMPDEST POP PUSH2 0x328 PUSH2 0x6CF CALLDATASIZE PUSH1 0x4 PUSH2 0x2CFC JUMP JUMPDEST PUSH2 0x1837 JUMP JUMPDEST CALLVALUE DUP1 ISZERO PUSH2 0x6E0 JUMPI PUSH1 0x0 DUP1 REVERT JUMPDEST POP PUSH2 0x348 PUSH2 0x6EF CALLDATASIZE PUSH1 0x4 PUSH2 0x2FEF JUMP JUMPDEST PUSH2 0x103 PUSH1 0x20 MSTORE PUSH1 0x0 SWAP1 DUP2 MSTORE PUSH1 0x40 SWAP1 KECCAK256 SLOAD DUP2 JUMP JUMPDEST CALLVALUE DUP1 ISZERO PUSH2 0x70E JUMPI PUSH1 0x0 DUP1 REVERT JUMPDEST POP PUSH2 0x328 PUSH2 0x71D CALLDATASIZE PUSH1 0x4 PUSH2 0x2CFC JUMP JUMPDEST PUSH2 0x1845 JUMP JUMPDEST CALLVALUE DUP1 ISZERO PUSH2 0x72E JUMPI PUSH1 0x0 DUP1 REVERT JUMPDEST POP PUSH2 0x348 PUSH2 0x105 SLOAD DUP2 JUMP JUMPDEST CALLVALUE DUP1 ISZERO PUSH2 0x745 JUMPI PUSH1 0x0 DUP1 REVERT JUMPDEST POP PUSH2 0x328 PUSH2 0x754 CALLDATASIZE PUSH1 0x4 PUSH2 0x300A JUMP JUMPDEST PUSH2 0x1853 JUMP JUMPDEST CALLVALUE DUP1 ISZERO PUSH2 0x765 JUMPI PUSH1 0x0 DUP1 REVERT JUMPDEST POP PUSH2 0x348 PUSH2 0x774 CALLDATASIZE PUSH1 0x4 PUSH2 0x2FEF JUMP JUMPDEST PUSH2 0x1AEC JUMP JUMPDEST CALLVALUE DUP1 ISZERO PUSH2 0x785 JUMPI PUSH1 0x0 DUP1 REVERT JUMPDEST POP PUSH2 0x100 SLOAD PUSH2 0x101 SLOAD PUSH2 0x102 SLOAD PUSH1 0x40 DUP1 MLOAD PUSH20 0xFFFFFFFFFFFFFFFFFFFFFFFFFFFFFFFFFFFFFFFF SWAP5 DUP6 AND DUP2 MSTORE SWAP3 DUP5 AND PUSH1 0x20 DUP5 ADD MSTORE SWAP3 AND SWAP2 DUP2 ADD SWAP2 SWAP1 SWAP2 MSTORE PUSH1 0x60 ADD PUSH2 0x2FF JUMP JUMPDEST PUSH2 0x328 PUSH2 0x7D7 CALLDATASIZE PUSH1 0x4 PUSH2 0x303D JUMP JUMPDEST PUSH2 0x1B2C JUMP JUMPDEST CALLVALUE DUP1 ISZERO PUSH2 0x7E8 JUMPI PUSH1 0x0 DUP1 REVERT JUMPDEST POP PUSH2 0x101 SLOAD PUSH2 0x2DE SWAP1 PUSH20 0xFFFFFFFFFFFFFFFFFFFFFFFFFFFFFFFFFFFFFFFF AND DUP2 JUMP JUMPDEST CALLVALUE DUP1 ISZERO PUSH2 0x816 JUMPI PUSH1 0x0 DUP1 REVERT JUMPDEST POP PUSH2 0x328 PUSH2 0x825 CALLDATASIZE PUSH1 0x4 PUSH2 0x2DED JUMP JUMPDEST PUSH2 0x1DCF JUMP JUMPDEST PUSH2 0x328 PUSH2 0x838 CALLDATASIZE PUSH1 0x4 PUSH2 0x2FEF JUMP JUMPDEST PUSH2 0x1E69 JUMP JUMPDEST CALLVALUE DUP1 ISZERO PUSH2 0x849 JUMPI PUSH1 0x0 DUP1 REVERT JUMPDEST POP PUSH1 0xFB SLOAD PUSH2 0x2DE SWAP1 PUSH20 0xFFFFFFFFFFFFFFFFFFFFFFFFFFFFFFFFFFFFFFFF AND DUP2 JUMP JUMPDEST PUSH2 0x872 PUSH2 0x20A5 JUMP JUMPDEST PUSH2 0x105 SSTORE JUMP JUMPDEST PUSH2 0x880 PUSH2 0x20A5 JUMP JUMPDEST PUSH1 0x3 PUSH1 0x0 SWAP1 DUP2 MSTORE PUSH2 0x103 PUSH1 0x20 MSTORE PUSH32 0x47446B1FBF373E85B24ABB536CB4DB1B756B2AB79D6BE181D89723B4020A3315 DUP1 SLOAD CALLVALUE SWAP3 SWAP1 PUSH2 0x8BE SWAP1 DUP5 SWAP1 PUSH2 0x30DD JUMP JUMPDEST SWAP1 SWAP2 SSTORE POP CALLER SWAP1 POP PUSH1 0x3 PUSH1 0x40 MLOAD CALLVALUE DUP2 MSTORE PUSH32 0x936B71FD472ECDBE5F69D6882D7F9A42319A4DFBCA3C41856873605EB90FC2D8 SWAP1 PUSH1 0x20 ADD PUSH1 0x40 MLOAD DUP1 SWAP2 SUB SWAP1 LOG3 JUMP JUMPDEST PUSH2 0x904 PUSH2 0x210C JUMP JUMPDEST PUSH1 0xFB SLOAD PUSH1 0x40 MLOAD PUSH32 0xD47EED4500000000000000000000000000000000000000000000000000000000 DUP2 MSTORE PUSH1 0x0 SWAP2 PUSH20 0xFFFFFFFFFFFFFFFFFFFFFFFFFFFFFFFFFFFFFFFF AND SWAP1 PUSH4 0xD47EED45 SWAP1 PUSH2 0x95D SWAP1 DUP8 SWAP1 DUP8 SWAP1 PUSH1 0x4 ADD PUSH2 0x311B JUMP JUMPDEST PUSH1 0x20 PUSH1 0x40 MLOAD DUP1 DUP4 SUB DUP2 DUP7 GAS STATICCALL ISZERO DUP1 ISZERO PUSH2 0x97A JUMPI RETURNDATASIZE PUSH1 0x0 DUP1 RETURNDATACOPY RETURNDATASIZE PUSH1 0x0 REVERT JUMPDEST POP POP POP POP PUSH1 0x40 MLOAD RETURNDATASIZE PUSH1 0x1F NOT PUSH1 0x1F DUP3 ADD AND DUP3 ADD DUP1 PUSH1 0x40 MSTORE POP DUP2 ADD SWAP1 PUSH2 0x99E SWAP2 SWAP1 PUSH2 0x31F2 JUMP JUMPDEST SWAP1 POP DUP1 CALLVALUE GT PUSH2 0x9D9 JUMPI PUSH1 0x40 MLOAD PUSH32 0xF4D678B800000000000000000000000000000000000000000000000000000000 DUP2 MSTORE PUSH1 0x4 ADD PUSH1 0x40 MLOAD DUP1 SWAP2 SUB SWAP1 REVERT JUMPDEST PUSH1 0xFB SLOAD PUSH1 0x40 MLOAD PUSH32 0xEF9E5E2800000000000000000000000000000000000000000000000000000000 DUP2 MSTORE PUSH20 0xFFFFFFFFFFFFFFFFFFFFFFFFFFFFFFFFFFFFFFFF SWAP1 SWAP2 AND SWAP1 PUSH4 0xEF9E5E28 SWAP1 DUP4 SWAP1 PUSH2 0xA33 SWAP1 DUP9 SWAP1 DUP9 SWAP1 PUSH1 0x4 ADD PUSH2 0x311B JUMP JUMPDEST PUSH1 0x0 PUSH1 0x40 MLOAD DUP1 DUP4 SUB DUP2 DUP6 DUP9 DUP1 EXTCODESIZE ISZERO DUP1 ISZERO PUSH2 0xA4C JUMPI PUSH1 0x0 DUP1 REVERT JUMPDEST POP GAS CALL ISZERO DUP1 ISZERO PUSH2 0xA60 JUMPI RETURNDATASIZE PUSH1 0x0 DUP1 RETURNDATACOPY RETURNDATASIZE PUSH1 0x0 REVERT JUMPDEST POP POP POP POP POP PUSH1 0x0 DUP2 CALLVALUE PUSH2 0xA73 SWAP2 SWAP1 PUSH2 0x320B JUMP JUMPDEST SWAP1 POP PUSH1 0x0 DUP1 PUSH1 0x0 PUSH2 0xA86 PUSH1 0x3 DUP8 DUP7 PUSH2 0x135F JUMP JUMPDEST SWAP3 POP SWAP3 POP SWAP3 POP DUP6 PUSH1 0x3 DUP2 GT ISZERO PUSH2 0xA9E JUMPI PUSH2 0xA9E PUSH2 0x307F JUMP JUMPDEST PUSH1 0x3 PUSH1 0x40 DUP1 MLOAD DUP8 DUP2 MSTORE PUSH1 0x20 DUP2 ADD DUP8 SWAP1 MSTORE SWAP1 DUP2 ADD DUP5 SWAP1 MSTORE TIMESTAMP PUSH1 0x60 DUP3 ADD MSTORE CALLER SWAP1 PUSH32 0xF28DAEC9F1864F569F0CF46BDD560D184B5B2447EBCC195BF3F131802D38ABB2 SWAP1 PUSH1 0x80 ADD PUSH1 0x40 MLOAD DUP1 SWAP2 SUB SWAP1 LOG4 POP POP POP POP POP PUSH2 0xAF7 PUSH1 0x1 DUP1 SSTORE JUMP JUMPDEST POP POP POP JUMP JUMPDEST PUSH20 0xFFFFFFFFFFFFFFFFFFFFFFFFFFFFFFFFFFFFFFFF PUSH32 0x0 AND ADDRESS SUB PUSH2 0xBAC JUMPI PUSH1 0x40 MLOAD PUSH3 0x461BCD PUSH1 0xE5 SHL DUP2 MSTORE PUSH1 0x20 PUSH1 0x4 DUP3 ADD MSTORE PUSH1 0x2C PUSH1 0x24 DUP3 ADD MSTORE PUSH32 0x46756E6374696F6E206D7573742062652063616C6C6564207468726F75676820 PUSH1 0x44 DUP3 ADD MSTORE PUSH32 0x64656C656761746563616C6C0000000000000000000000000000000000000000 PUSH1 0x64 DUP3 ADD MSTORE PUSH1 0x84 ADD JUMPDEST PUSH1 0x40 MLOAD DUP1 SWAP2 SUB SWAP1 REVERT JUMPDEST PUSH32 0x0 PUSH20 0xFFFFFFFFFFFFFFFFFFFFFFFFFFFFFFFFFFFFFFFF AND PUSH2 0xC21 PUSH32 0x360894A13BA1A3210667C828492DB98DCA3E2076CC3735A920A3CA505D382BBC SLOAD PUSH20 0xFFFFFFFFFFFFFFFFFFFFFFFFFFFFFFFFFFFFFFFF AND SWAP1 JUMP JUMPDEST PUSH20 0xFFFFFFFFFFFFFFFFFFFFFFFFFFFFFFFFFFFFFFFF AND EQ PUSH2 0xCAA JUMPI PUSH1 0x40 MLOAD PUSH3 0x461BCD PUSH1 0xE5 SHL DUP2 MSTORE PUSH1 0x20 PUSH1 0x4 DUP3 ADD MSTORE PUSH1 0x2C PUSH1 0x24 DUP3 ADD MSTORE PUSH32 0x46756E6374696F6E206D7573742062652063616C6C6564207468726F75676820 PUSH1 0x44 DUP3 ADD MSTORE PUSH32 0x6163746976652070726F78790000000000000000000000000000000000000000 PUSH1 0x64 DUP3 ADD MSTORE PUSH1 0x84 ADD PUSH2 0xBA3 JUMP JUMPDEST PUSH2 0xCB3 DUP2 PUSH2 0x216B JUMP JUMPDEST PUSH1 0x40 DUP1 MLOAD PUSH1 0x0 DUP1 DUP3 MSTORE PUSH1 0x20 DUP3 ADD SWAP1 SWAP3 MSTORE PUSH2 0xCCF SWAP2 DUP4 SWAP2 SWAP1 PUSH2 0x2173 JUMP JUMPDEST POP JUMP JUMPDEST PUSH2 0xCDA PUSH2 0x20A5 JUMP JUMPDEST DUP1 PUSH2 0x103 PUSH1 0x0 DUP5 PUSH1 0x3 DUP2 GT ISZERO PUSH2 0xCF2 JUMPI PUSH2 0xCF2 PUSH2 0x307F JUMP JUMPDEST PUSH1 0x3 DUP2 GT ISZERO PUSH2 0xD03 JUMPI PUSH2 0xD03 PUSH2 0x307F JUMP JUMPDEST DUP2 MSTORE PUSH1 0x20 ADD SWAP1 DUP2 MSTORE PUSH1 0x20 ADD PUSH1 0x0 KECCAK256 SLOAD LT ISZERO PUSH2 0xD4A JUMPI PUSH1 0x40 MLOAD PUSH32 0xF4D678B800000000000000000000000000000000000000000000000000000000 DUP2 MSTORE PUSH1 0x4 ADD PUSH1 0x40 MLOAD DUP1 SWAP2 SUB SWAP1 REVERT JUMPDEST DUP1 PUSH2 0x103 PUSH1 0x0 DUP5 PUSH1 0x3 DUP2 GT ISZERO PUSH2 0xD62 JUMPI PUSH2 0xD62 PUSH2 0x307F JUMP JUMPDEST PUSH1 0x3 DUP2 GT ISZERO PUSH2 0xD73 JUMPI PUSH2 0xD73 PUSH2 0x307F JUMP JUMPDEST DUP2 MSTORE PUSH1 0x20 ADD SWAP1 DUP2 MSTORE PUSH1 0x20 ADD PUSH1 0x0 KECCAK256 PUSH1 0x0 DUP3 DUP3 SLOAD PUSH2 0xD90 SWAP2 SWAP1 PUSH2 0x320B JUMP JUMPDEST SWAP1 SWAP2 SSTORE POP PUSH1 0x3 SWAP1 POP DUP3 PUSH1 0x3 DUP2 GT ISZERO PUSH2 0xDAA JUMPI PUSH2 0xDAA PUSH2 0x307F JUMP JUMPDEST SUB PUSH2 0xDE2 JUMPI PUSH1 0x40 MLOAD CALLER SWAP1 DUP3 ISZERO PUSH2 0x8FC MUL SWAP1 DUP4 SWAP1 PUSH1 0x0 DUP2 DUP2 DUP2 DUP6 DUP9 DUP9 CALL SWAP4 POP POP POP POP ISZERO DUP1 ISZERO PUSH2 0xDDC JUMPI RETURNDATASIZE PUSH1 0x0 DUP1 RETURNDATACOPY RETURNDATASIZE PUSH1 0x0 REVERT JUMPDEST POP PUSH2 0xE12 JUMP JUMPDEST PUSH1 0x0 PUSH2 0xDED DUP4 PUSH2 0x2320 JUMP JUMPDEST SWAP1 POP PUSH2 0xE10 PUSH20 0xFFFFFFFFFFFFFFFFFFFFFFFFFFFFFFFFFFFFFFFF DUP3 AND CALLER DUP5 PUSH2 0x2414 JUMP JUMPDEST POP JUMPDEST CALLER DUP3 PUSH1 0x3 DUP2 GT ISZERO PUSH2 0xE25 JUMPI PUSH2 0xE25 PUSH2 0x307F JUMP JUMPDEST PUSH1 0x40 MLOAD DUP4 DUP2 MSTORE PUSH32 0x36C9CE7CEE20A4824305C8C5B7711699320DBE9F94E4464736E12CF48851C01A SWAP1 PUSH1 0x20 ADD PUSH1 0x40 MLOAD DUP1 SWAP2 SUB SWAP1 LOG3 POP POP JUMP JUMPDEST PUSH2 0xE64 PUSH2 0x20A5 JUMP JUMPDEST PUSH1 0x65 SLOAD PUSH1 0x40 MLOAD PUSH20 0xFFFFFFFFFFFFFFFFFFFFFFFFFFFFFFFFFFFFFFFF SWAP1 SWAP2 AND SWAP1 SELFBALANCE DUP1 ISZERO PUSH2 0x8FC MUL SWAP2 PUSH1 0x0 DUP2 DUP2 DUP2 DUP6 DUP9 DUP9 CALL SWAP4 POP POP POP POP ISZERO DUP1 ISZERO PUSH2 0xCCF JUMPI RETURNDATASIZE PUSH1 0x0 DUP1 RETURNDATACOPY RETURNDATASIZE PUSH1 0x0 REVERT JUMPDEST PUSH1 0x0 SLOAD PUSH2 0x100 SWAP1 DIV PUSH1 0xFF AND ISZERO DUP1 DUP1 ISZERO PUSH2 0xECA JUMPI POP PUSH1 0x0 SLOAD PUSH1 0x1 PUSH1 0xFF SWAP1 SWAP2 AND LT JUMPDEST DUP1 PUSH2 0xEE4 JUMPI POP ADDRESS EXTCODESIZE ISZERO DUP1 ISZERO PUSH2 0xEE4 JUMPI POP PUSH1 0x0 SLOAD PUSH1 0xFF AND PUSH1 0x1 EQ JUMPDEST PUSH2 0xF56 JUMPI PUSH1 0x40 MLOAD PUSH3 0x461BCD PUSH1 0xE5 SHL DUP2 MSTORE PUSH1 0x20 PUSH1 0x4 DUP3 ADD MSTORE PUSH1 0x2E PUSH1 0x24 DUP3 ADD MSTORE PUSH32 0x496E697469616C697A61626C653A20636F6E747261637420697320616C726561 PUSH1 0x44 DUP3 ADD MSTORE PUSH32 0x647920696E697469616C697A6564000000000000000000000000000000000000 PUSH1 0x64 DUP3 ADD MSTORE PUSH1 0x84 ADD PUSH2 0xBA3 JUMP JUMPDEST PUSH1 0x0 DUP1 SLOAD PUSH32 0xFFFFFFFFFFFFFFFFFFFFFFFFFFFFFFFFFFFFFFFFFFFFFFFFFFFFFFFFFFFFFF00 AND PUSH1 0x1 OR SWAP1 SSTORE DUP1 ISZERO PUSH2 0xFB4 JUMPI PUSH1 0x0 DUP1 SLOAD PUSH32 0xFFFFFFFFFFFFFFFFFFFFFFFFFFFFFFFFFFFFFFFFFFFFFFFFFFFFFFFFFFFF00FF AND PUSH2 0x100 OR SWAP1 SSTORE JUMPDEST PUSH2 0xFBC PUSH2 0x24CA JUMP JUMPDEST PUSH2 0xFC4 PUSH2 0x254F JUMP JUMPDEST PUSH1 0xFB DUP1 SLOAD PUSH20 0xFFFFFFFFFFFFFFFFFFFFFFFFFFFFFFFFFFFFFFFF DUP1 DUP13 AND PUSH32 0xFFFFFFFFFFFFFFFFFFFFFFFF0000000000000000000000000000000000000000 SWAP3 DUP4 AND OR SWAP1 SWAP3 SSTORE PUSH1 0xFC DUP11 SWAP1 SSTORE PUSH1 0xFD DUP10 SWAP1 SSTORE PUSH1 0xFE DUP9 SWAP1 SSTORE PUSH1 0xFF DUP8 SWAP1 SSTORE PUSH2 0x100 DUP1 SLOAD DUP8 DUP5 AND SWAP1 DUP4 AND OR SWAP1 SSTORE PUSH2 0x101 DUP1 SLOAD DUP7 DUP5 AND SWAP1 DUP4 AND OR SWAP1 SSTORE PUSH2 0x102 DUP1 SLOAD SWAP3 DUP6 AND SWAP3 SWAP1 SWAP2 AND SWAP2 SWAP1 SWAP2 OR SWAP1 SSTORE PUSH1 0x3C PUSH2 0x104 SSTORE PUSH2 0x12C PUSH2 0x105 SSTORE PUSH1 0x1E PUSH2 0x106 SSTORE DUP1 ISZERO PUSH2 0x10C0 JUMPI PUSH1 0x0 DUP1 SLOAD PUSH32 0xFFFFFFFFFFFFFFFFFFFFFFFFFFFFFFFFFFFFFFFFFFFFFFFFFFFFFFFFFFFF00FF AND SWAP1 SSTORE PUSH1 0x40 MLOAD PUSH1 0x1 DUP2 MSTORE PUSH32 0x7F26B83FF96E1F2B6A682F133852F6798A09C465DA95921460CEFB3847402498 SWAP1 PUSH1 0x20 ADD PUSH1 0x40 MLOAD DUP1 SWAP2 SUB SWAP1 LOG1 JUMPDEST POP POP POP POP POP POP POP POP POP JUMP JUMPDEST PUSH20 0xFFFFFFFFFFFFFFFFFFFFFFFFFFFFFFFFFFFFFFFF PUSH32 0x0 AND ADDRESS SUB PUSH2 0x1176 JUMPI PUSH1 0x40 MLOAD PUSH3 0x461BCD PUSH1 0xE5 SHL DUP2 MSTORE PUSH1 0x20 PUSH1 0x4 DUP3 ADD MSTORE PUSH1 0x2C PUSH1 0x24 DUP3 ADD MSTORE PUSH32 0x46756E6374696F6E206D7573742062652063616C6C6564207468726F75676820 PUSH1 0x44 DUP3 ADD MSTORE PUSH32 0x64656C656761746563616C6C0000000000000000000000000000000000000000 PUSH1 0x64 DUP3 ADD MSTORE PUSH1 0x84 ADD PUSH2 0xBA3 JUMP JUMPDEST PUSH32 0x0 PUSH20 0xFFFFFFFFFFFFFFFFFFFFFFFFFFFFFFFFFFFFFFFF AND PUSH2 0x11EB PUSH32 0x360894A13BA1A3210667C828492DB98DCA3E2076CC3735A920A3CA505D382BBC SLOAD PUSH20 0xFFFFFFFFFFFFFFFFFFFFFFFFFFFFFFFFFFFFFFFF AND SWAP1 JUMP JUMPDEST PUSH20 0xFFFFFFFFFFFFFFFFFFFFFFFFFFFFFFFFFFFFFFFF AND EQ PUSH2 0x1274 JUMPI PUSH1 0x40 MLOAD PUSH3 0x461BCD PUSH1 0xE5 SHL DUP2 MSTORE PUSH1 0x20 PUSH1 0x4 DUP3 ADD MSTORE PUSH1 0x2C PUSH1 0x24 DUP3 ADD MSTORE PUSH32 0x46756E6374696F6E206D7573742062652063616C6C6564207468726F75676820 PUSH1 0x44 DUP3 ADD MSTORE PUSH32 0x6163746976652070726F78790000000000000000000000000000000000000000 PUSH1 0x64 DUP3 ADD MSTORE PUSH1 0x84 ADD PUSH2 0xBA3 JUMP JUMPDEST PUSH2 0x127D DUP3 PUSH2 0x216B JUMP JUMPDEST PUSH2 0x1289 DUP3 DUP3 PUSH1 0x1 PUSH2 0x2173 JUMP JUMPDEST POP POP JUMP JUMPDEST PUSH1 0x0 ADDRESS PUSH20 0xFFFFFFFFFFFFFFFFFFFFFFFFFFFFFFFFFFFFFFFF PUSH32 0x0 AND EQ PUSH2 0x133A JUMPI PUSH1 0x40 MLOAD PUSH3 0x461BCD PUSH1 0xE5 SHL DUP2 MSTORE PUSH1 0x20 PUSH1 0x4 DUP3 ADD MSTORE PUSH1 0x38 PUSH1 0x24 DUP3 ADD MSTORE PUSH32 0x555550535570677261646561626C653A206D757374206E6F742062652063616C PUSH1 0x44 DUP3 ADD MSTORE PUSH32 0x6C6564207468726F7567682064656C656761746563616C6C0000000000000000 PUSH1 0x64 DUP3 ADD MSTORE PUSH1 0x84 ADD PUSH2 0xBA3 JUMP JUMPDEST POP PUSH32 0x360894A13BA1A3210667C828492DB98DCA3E2076CC3735A920A3CA505D382BBC SWAP1 JUMP JUMPDEST PUSH1 0x0 DUP1 PUSH1 0x0 DUP4 PUSH1 0x0 SUB PUSH2 0x139E JUMPI PUSH1 0x40 MLOAD PUSH32 0x2C5211C600000000000000000000000000000000000000000000000000000000 DUP2 MSTORE PUSH1 0x4 ADD PUSH1 0x40 MLOAD DUP1 SWAP2 SUB SWAP1 REVERT JUMPDEST PUSH2 0x13A7 DUP7 PUSH2 0x1441 JUMP JUMPDEST POP SWAP2 POP PUSH2 0x13B3 DUP6 PUSH2 0x1441 JUMP JUMPDEST POP SWAP1 POP PUSH1 0x0 PUSH8 0xDE0B6B3A7640000 PUSH2 0x13CB DUP5 DUP8 PUSH2 0x321E JUMP JUMPDEST PUSH2 0x13D5 SWAP2 SWAP1 PUSH2 0x3235 JUMP JUMPDEST SWAP1 POP DUP2 PUSH2 0x13EA DUP3 PUSH8 0xDE0B6B3A7640000 PUSH2 0x321E JUMP JUMPDEST PUSH2 0x13F4 SWAP2 SWAP1 PUSH2 0x3235 JUMP JUMPDEST SWAP4 POP PUSH1 0x0 PUSH2 0x2710 PUSH2 0x106 SLOAD DUP7 PUSH2 0x140A SWAP2 SWAP1 PUSH2 0x321E JUMP JUMPDEST PUSH2 0x1414 SWAP2 SWAP1 PUSH2 0x3235 JUMP JUMPDEST SWAP1 POP PUSH2 0x1420 DUP2 DUP7 PUSH2 0x320B JUMP JUMPDEST SWAP5 POP POP POP SWAP4 POP SWAP4 POP SWAP4 SWAP1 POP JUMP JUMPDEST PUSH2 0x1435 PUSH2 0x20A5 JUMP JUMPDEST PUSH2 0x143F PUSH1 0x0 PUSH2 0x25D4 JUMP JUMPDEST JUMP JUMPDEST PUSH1 0x0 DUP1 PUSH1 0x0 PUSH2 0x144F DUP5 PUSH2 0x264B JUMP JUMPDEST PUSH1 0xFB SLOAD PUSH2 0x104 SLOAD PUSH1 0x40 MLOAD PUSH32 0xA4AE35E000000000000000000000000000000000000000000000000000000000 DUP2 MSTORE PUSH1 0x4 DUP2 ADD DUP5 SWAP1 MSTORE PUSH1 0x24 DUP2 ADD SWAP2 SWAP1 SWAP2 MSTORE SWAP2 SWAP3 POP PUSH1 0x0 SWAP2 PUSH20 0xFFFFFFFFFFFFFFFFFFFFFFFFFFFFFFFFFFFFFFFF SWAP1 SWAP2 AND SWAP1 PUSH4 0xA4AE35E0 SWAP1 PUSH1 0x44 ADD JUMPDEST PUSH1 0x80 PUSH1 0x40 MLOAD DUP1 DUP4 SUB DUP2 DUP7 GAS STATICCALL ISZERO DUP1 ISZERO PUSH2 0x14D1 JUMPI RETURNDATASIZE PUSH1 0x0 DUP1 RETURNDATACOPY RETURNDATASIZE PUSH1 0x0 REVERT JUMPDEST POP POP POP POP PUSH1 0x40 MLOAD RETURNDATASIZE PUSH1 0x1F NOT PUSH1 0x1F DUP3 ADD AND DUP3 ADD DUP1 PUSH1 0x40 MSTORE POP DUP2 ADD SWAP1 PUSH2 0x14F5 SWAP2 SWAP1 PUSH2 0x3282 JUMP JUMPDEST SWAP1 POP PUSH1 0x0 DUP2 PUSH1 0x0 ADD MLOAD PUSH1 0x7 SIGNEXTEND SGT PUSH2 0x1538 JUMPI PUSH1 0x40 MLOAD PUSH32 0xF45E167B00000000000000000000000000000000000000000000000000000000 DUP2 MSTORE PUSH1 0x4 ADD PUSH1 0x40 MLOAD DUP1 SWAP2 SUB SWAP1 REVERT JUMPDEST PUSH1 0x0 DUP1 DUP3 PUSH1 0x40 ADD MLOAD PUSH1 0x3 SIGNEXTEND SLT PUSH2 0x1587 JUMPI PUSH1 0x40 DUP3 ADD MLOAD PUSH2 0x1558 SWAP1 PUSH1 0xA PUSH2 0x3431 JUMP JUMPDEST DUP3 MLOAD PUSH2 0x156E SWAP2 SWAP1 PUSH8 0xFFFFFFFFFFFFFFFF AND PUSH2 0x321E JUMP JUMPDEST PUSH2 0x1580 SWAP1 PUSH8 0xDE0B6B3A7640000 PUSH2 0x321E JUMP JUMPDEST SWAP1 POP PUSH2 0x15EC JUMP JUMPDEST PUSH1 0x40 DUP3 ADD MLOAD PUSH2 0x15B6 SWAP1 PUSH32 0xFFFFFFFFFFFFFFFFFFFFFFFFFFFFFFFFFFFFFFFFFFFFFFFFFFFFFFFFFFFFFFFF PUSH2 0x3443 JUMP JUMPDEST PUSH2 0x15C1 SWAP1 PUSH1 0xA PUSH2 0x3431 JUMP JUMPDEST DUP3 MLOAD PUSH2 0x15DF SWAP1 PUSH8 0xFFFFFFFFFFFFFFFF AND PUSH8 0xDE0B6B3A7640000 PUSH2 0x321E JUMP JUMPDEST PUSH2 0x15E9 SWAP2 SWAP1 PUSH2 0x3235 JUMP JUMPDEST SWAP1 POP JUMPDEST PUSH1 0x40 SWAP1 SWAP2 ADD MLOAD SWAP1 SWAP6 SWAP1 SWAP5 POP SWAP3 POP POP POP JUMP JUMPDEST PUSH2 0x1605 PUSH2 0x20A5 JUMP JUMPDEST PUSH1 0x3 DUP3 PUSH1 0x3 DUP2 GT ISZERO PUSH2 0x1619 JUMPI PUSH2 0x1619 PUSH2 0x307F JUMP JUMPDEST SUB PUSH2 0x1650 JUMPI PUSH1 0x40 MLOAD PUSH32 0x24A0114400000000000000000000000000000000000000000000000000000000 DUP2 MSTORE PUSH1 0x4 ADD PUSH1 0x40 MLOAD DUP1 SWAP2 SUB SWAP1 REVERT JUMPDEST PUSH1 0x0 PUSH2 0x165B DUP4 PUSH2 0x2320 JUMP JUMPDEST SWAP1 POP PUSH2 0x167F PUSH20 0xFFFFFFFFFFFFFFFFFFFFFFFFFFFFFFFFFFFFFFFF DUP3 AND CALLER ADDRESS DUP6 PUSH2 0x26D0 JUMP JUMPDEST DUP2 PUSH2 0x103 PUSH1 0x0 DUP6 PUSH1 0x3 DUP2 GT ISZERO PUSH2 0x1697 JUMPI PUSH2 0x1697 PUSH2 0x307F JUMP JUMPDEST PUSH1 0x3 DUP2 GT ISZERO PUSH2 0x16A8 JUMPI PUSH2 0x16A8 PUSH2 0x307F JUMP JUMPDEST DUP2 MSTORE PUSH1 0x20 ADD SWAP1 DUP2 MSTORE PUSH1 0x20 ADD PUSH1 0x0 KECCAK256 PUSH1 0x0 DUP3 DUP3 SLOAD PUSH2 0x16C5 SWAP2 SWAP1 PUSH2 0x30DD JUMP JUMPDEST SWAP1 SWAP2 SSTORE POP CALLER SWAP1 POP DUP4 PUSH1 0x3 DUP2 GT ISZERO PUSH2 0x16DE JUMPI PUSH2 0x16DE PUSH2 0x307F JUMP JUMPDEST PUSH1 0x40 MLOAD DUP5 DUP2 MSTORE PUSH32 0x936B71FD472ECDBE5F69D6882D7F9A42319A4DFBCA3C41856873605EB90FC2D8 SWAP1 PUSH1 0x20 ADD PUSH1 0x40 MLOAD DUP1 SWAP2 SUB SWAP1 LOG3 POP POP POP JUMP JUMPDEST PUSH2 0x171E PUSH2 0x20A5 JUMP JUMPDEST PUSH1 0x0 DUP3 PUSH1 0x3 DUP2 GT ISZERO PUSH2 0x1732 JUMPI PUSH2 0x1732 PUSH2 0x307F JUMP JUMPDEST SUB PUSH2 0x173D JUMPI PUSH1 0xFC SSTORE POP JUMP JUMPDEST PUSH1 0x1 DUP3 PUSH1 0x3 DUP2 GT ISZERO PUSH2 0x1751 JUMPI PUSH2 0x1751 PUSH2 0x307F JUMP JUMPDEST SUB PUSH2 0x175C JUMPI PUSH1 0xFD SSTORE POP JUMP JUMPDEST PUSH1 0x2 DUP3 PUSH1 0x3 DUP2 GT ISZERO PUSH2 0x1770 JUMPI PUSH2 0x1770 PUSH2 0x307F JUMP JUMPDEST SUB PUSH2 0x177B JUMPI PUSH1 0xFE SSTORE POP JUMP JUMPDEST PUSH1 0x3 DUP3 PUSH1 0x3 DUP2 GT ISZERO PUSH2 0x178F JUMPI PUSH2 0x178F PUSH2 0x307F JUMP JUMPDEST SUB PUSH2 0x179A JUMPI PUSH1 0xFF SSTORE POP JUMP JUMPDEST PUSH1 0x40 MLOAD PUSH32 0x24A0114400000000000000000000000000000000000000000000000000000000 DUP2 MSTORE PUSH1 0x4 ADD PUSH1 0x40 MLOAD DUP1 SWAP2 SUB SWAP1 REVERT JUMPDEST PUSH1 0x0 DUP1 PUSH1 0x0 PUSH2 0x17DA DUP5 PUSH2 0x264B JUMP JUMPDEST PUSH1 0xFB SLOAD PUSH1 0x40 MLOAD PUSH32 0x31D98B3F00000000000000000000000000000000000000000000000000000000 DUP2 MSTORE PUSH1 0x4 DUP2 ADD DUP4 SWAP1 MSTORE SWAP2 SWAP3 POP PUSH1 0x0 SWAP2 PUSH20 0xFFFFFFFFFFFFFFFFFFFFFFFFFFFFFFFFFFFFFFFF SWAP1 SWAP2 AND SWAP1 PUSH4 0x31D98B3F SWAP1 PUSH1 0x24 ADD PUSH2 0x14B4 JUMP JUMPDEST PUSH2 0x183F PUSH2 0x20A5 JUMP JUMPDEST PUSH2 0x104 SSTORE JUMP JUMPDEST PUSH2 0x184D PUSH2 0x20A5 JUMP JUMPDEST PUSH2 0x106 SSTORE JUMP JUMPDEST PUSH2 0x185B PUSH2 0x210C JUMP JUMPDEST DUP2 PUSH1 0x0 SUB PUSH2 0x1895 JUMPI PUSH1 0x40 MLOAD PUSH32 0x2C5211C600000000000000000000000000000000000000000000000000000000 DUP2 MSTORE PUSH1 0x4 ADD PUSH1 0x40 MLOAD DUP1 SWAP2 SUB SWAP1 REVERT JUMPDEST PUSH1 0x3 DUP4 PUSH1 0x3 DUP2 GT ISZERO PUSH2 0x18A9 JUMPI PUSH2 0x18A9 PUSH2 0x307F JUMP JUMPDEST SUB PUSH2 0x18E0 JUMPI PUSH1 0x40 MLOAD PUSH32 0x24A0114400000000000000000000000000000000000000000000000000000000 DUP2 MSTORE PUSH1 0x4 ADD PUSH1 0x40 MLOAD DUP1 SWAP2 SUB SWAP1 REVERT JUMPDEST PUSH1 0x0 DUP1 PUSH1 0x0 PUSH2 0x18F1 DUP7 PUSH1 0x3 DUP8 PUSH2 0x135F JUMP JUMPDEST SWAP3 POP SWAP3 POP SWAP3 POP DUP4 DUP4 LT ISZERO PUSH2 0x1931 JUMPI PUSH1 0x40 MLOAD PUSH32 0x8199F5F300000000000000000000000000000000000000000000000000000000 DUP2 MSTORE PUSH1 0x4 ADD PUSH1 0x40 MLOAD DUP1 SWAP2 SUB SWAP1 REVERT JUMPDEST PUSH1 0x3 PUSH1 0x0 MSTORE PUSH2 0x103 PUSH1 0x20 MSTORE PUSH32 0x47446B1FBF373E85B24ABB536CB4DB1B756B2AB79D6BE181D89723B4020A3315 SLOAD DUP4 GT ISZERO PUSH2 0x1997 JUMPI PUSH1 0x40 MLOAD PUSH32 0xF4D678B800000000000000000000000000000000000000000000000000000000 DUP2 MSTORE PUSH1 0x4 ADD PUSH1 0x40 MLOAD DUP1 SWAP2 SUB SWAP1 REVERT JUMPDEST PUSH1 0x0 PUSH2 0x19A2 DUP8 PUSH2 0x2320 JUMP JUMPDEST SWAP1 POP PUSH2 0x19C6 PUSH20 0xFFFFFFFFFFFFFFFFFFFFFFFFFFFFFFFFFFFFFFFF DUP3 AND CALLER ADDRESS DUP10 PUSH2 0x26D0 JUMP JUMPDEST DUP6 PUSH2 0x103 PUSH1 0x0 DUP10 PUSH1 0x3 DUP2 GT ISZERO PUSH2 0x19DE JUMPI PUSH2 0x19DE PUSH2 0x307F JUMP JUMPDEST PUSH1 0x3 DUP2 GT ISZERO PUSH2 0x19EF JUMPI PUSH2 0x19EF PUSH2 0x307F JUMP JUMPDEST DUP2 MSTORE PUSH1 0x20 ADD SWAP1 DUP2 MSTORE PUSH1 0x20 ADD PUSH1 0x0 KECCAK256 PUSH1 0x0 DUP3 DUP3 SLOAD PUSH2 0x1A0C SWAP2 SWAP1 PUSH2 0x30DD JUMP JUMPDEST SWAP1 SWAP2 SSTORE POP POP PUSH1 0x3 PUSH1 0x0 SWAP1 DUP2 MSTORE PUSH2 0x103 PUSH1 0x20 MSTORE PUSH32 0x47446B1FBF373E85B24ABB536CB4DB1B756B2AB79D6BE181D89723B4020A3315 DUP1 SLOAD DUP7 SWAP3 SWAP1 PUSH2 0x1A4F SWAP1 DUP5 SWAP1 PUSH2 0x320B JUMP JUMPDEST SWAP1 SWAP2 SSTORE POP POP PUSH1 0x40 MLOAD CALLER SWAP1 DUP6 ISZERO PUSH2 0x8FC MUL SWAP1 DUP7 SWAP1 PUSH1 0x0 DUP2 DUP2 DUP2 DUP6 DUP9 DUP9 CALL SWAP4 POP POP POP POP ISZERO DUP1 ISZERO PUSH2 0x1A81 JUMPI RETURNDATASIZE PUSH1 0x0 DUP1 RETURNDATACOPY RETURNDATASIZE PUSH1 0x0 REVERT JUMPDEST POP PUSH1 0x3 DUP8 PUSH1 0x3 DUP2 GT ISZERO PUSH2 0x1A96 JUMPI PUSH2 0x1A96 PUSH2 0x307F JUMP JUMPDEST PUSH1 0x40 DUP1 MLOAD DUP10 DUP2 MSTORE PUSH1 0x20 DUP2 ADD DUP9 SWAP1 MSTORE SWAP1 DUP2 ADD DUP6 SWAP1 MSTORE TIMESTAMP PUSH1 0x60 DUP3 ADD MSTORE CALLER SWAP1 PUSH32 0xF28DAEC9F1864F569F0CF46BDD560D184B5B2447EBCC195BF3F131802D38ABB2 SWAP1 PUSH1 0x80 ADD PUSH1 0x40 MLOAD DUP1 SWAP2 SUB SWAP1 LOG4 POP POP POP POP PUSH2 0xAF7 PUSH1 0x1 DUP1 SSTORE JUMP JUMPDEST PUSH1 0x0 PUSH2 0x103 PUSH1 0x0 DUP4 PUSH1 0x3 DUP2 GT ISZERO PUSH2 0x1B05 JUMPI PUSH2 0x1B05 PUSH2 0x307F JUMP JUMPDEST PUSH1 0x3 DUP2 GT ISZERO PUSH2 0x1B16 JUMPI PUSH2 0x1B16 PUSH2 0x307F JUMP JUMPDEST DUP2 MSTORE PUSH1 0x20 ADD SWAP1 DUP2 MSTORE PUSH1 0x20 ADD PUSH1 0x0 KECCAK256 SLOAD SWAP1 POP SWAP2 SWAP1 POP JUMP JUMPDEST PUSH1 0xFB SLOAD PUSH1 0x40 MLOAD PUSH32 0xD47EED4500000000000000000000000000000000000000000000000000000000 DUP2 MSTORE PUSH1 0x0 SWAP2 PUSH20 0xFFFFFFFFFFFFFFFFFFFFFFFFFFFFFFFFFFFFFFFF AND SWAP1 PUSH4 0xD47EED45 SWAP1 PUSH2 0x1B85 SWAP1 DUP7 SWAP1 DUP7 SWAP1 PUSH1 0x4 ADD PUSH2 0x311B JUMP JUMPDEST PUSH1 0x20 PUSH1 0x40 MLOAD DUP1 DUP4 SUB DUP2 DUP7 GAS STATICCALL ISZERO DUP1 ISZERO PUSH2 0x1BA2 JUMPI RETURNDATASIZE PUSH1 0x0 DUP1 RETURNDATACOPY RETURNDATASIZE PUSH1 0x0 REVERT JUMPDEST POP POP POP POP PUSH1 0x40 MLOAD RETURNDATASIZE PUSH1 0x1F NOT PUSH1 0x1F DUP3 ADD AND DUP3 ADD DUP1 PUSH1 0x40 MSTORE POP DUP2 ADD SWAP1 PUSH2 0x1BC6 SWAP2 SWAP1 PUSH2 0x31F2 JUMP JUMPDEST SWAP1 POP DUP1 CALLVALUE LT ISZERO PUSH2 0x1C02 JUMPI PUSH1 0x40 MLOAD PUSH32 0xF4D678B800000000000000000000000000000000000000000000000000000000 DUP2 MSTORE PUSH1 0x4 ADD PUSH1 0x40 MLOAD DUP1 SWAP2 SUB SWAP1 REVERT JUMPDEST PUSH1 0xFB SLOAD PUSH1 0x40 MLOAD PUSH32 0xEF9E5E2800000000000000000000000000000000000000000000000000000000 DUP2 MSTORE PUSH20 0xFFFFFFFFFFFFFFFFFFFFFFFFFFFFFFFFFFFFFFFF SWAP1 SWAP2 AND SWAP1 PUSH4 0xEF9E5E28 SWAP1 DUP4 SWAP1 PUSH2 0x1C5C SWAP1 DUP8 SWAP1 DUP8 SWAP1 PUSH1 0x4 ADD PUSH2 0x311B JUMP JUMPDEST PUSH1 0x0 PUSH1 0x40 MLOAD DUP1 DUP4 SUB DUP2 DUP6 DUP9 DUP1 EXTCODESIZE ISZERO DUP1 ISZERO PUSH2 0x1C75 JUMPI PUSH1 0x0 DUP1 REVERT JUMPDEST POP GAS CALL ISZERO DUP1 ISZERO PUSH2 0x1C89 JUMPI RETURNDATASIZE PUSH1 0x0 DUP1 RETURNDATACOPY RETURNDATASIZE PUSH1 0x0 REVERT JUMPDEST POP POP POP POP POP PUSH1 0x0 JUMPDEST PUSH1 0x4 DUP2 LT ISZERO PUSH2 0x1D8A JUMPI PUSH1 0x0 DUP2 PUSH1 0x3 DUP2 GT ISZERO PUSH2 0x1CAE JUMPI PUSH2 0x1CAE PUSH2 0x307F JUMP JUMPDEST PUSH1 0x40 MLOAD PUSH32 0xA8E6367100000000000000000000000000000000000000000000000000000000 DUP2 MSTORE SWAP1 SWAP2 POP ADDRESS SWAP1 PUSH4 0xA8E63671 SWAP1 PUSH2 0x1CED SWAP1 DUP5 SWAP1 PUSH1 0x4 ADD PUSH2 0x346A JUMP JUMPDEST PUSH1 0x40 DUP1 MLOAD DUP1 DUP4 SUB DUP2 DUP7 GAS STATICCALL SWAP3 POP POP POP DUP1 ISZERO PUSH2 0x1D25 JUMPI POP PUSH1 0x40 DUP1 MLOAD PUSH1 0x1F RETURNDATASIZE SWAP1 DUP2 ADD PUSH1 0x1F NOT AND DUP3 ADD SWAP1 SWAP3 MSTORE PUSH2 0x1D22 SWAP2 DUP2 ADD SWAP1 PUSH2 0x34AB JUMP JUMPDEST PUSH1 0x1 JUMPDEST ISZERO PUSH2 0x1D77 JUMPI DUP3 PUSH1 0x3 DUP2 GT ISZERO PUSH2 0x1D3C JUMPI PUSH2 0x1D3C PUSH2 0x307F JUMP JUMPDEST PUSH1 0x40 DUP1 MLOAD DUP5 DUP2 MSTORE TIMESTAMP PUSH1 0x20 DUP3 ADD MSTORE PUSH32 0x632454824820B4B1FD6F29FDC288D3B437E7AE937523B584EED6967B39E7595 SWAP2 ADD PUSH1 0x40 MLOAD DUP1 SWAP2 SUB SWAP1 LOG2 POP POP JUMPDEST POP DUP1 PUSH2 0x1D82 DUP2 PUSH2 0x34D7 JUMP JUMPDEST SWAP2 POP POP PUSH2 0x1C91 JUMP JUMPDEST POP DUP1 CALLVALUE GT ISZERO PUSH2 0xAF7 JUMPI CALLER PUSH2 0x8FC PUSH2 0x1DA1 DUP4 CALLVALUE PUSH2 0x320B JUMP JUMPDEST PUSH1 0x40 MLOAD DUP2 ISZERO SWAP1 SWAP3 MUL SWAP2 PUSH1 0x0 DUP2 DUP2 DUP2 DUP6 DUP9 DUP9 CALL SWAP4 POP POP POP POP ISZERO DUP1 ISZERO PUSH2 0x1DC9 JUMPI RETURNDATASIZE PUSH1 0x0 DUP1 RETURNDATACOPY RETURNDATASIZE PUSH1 0x0 REVERT JUMPDEST POP POP POP POP JUMP JUMPDEST PUSH2 0x1DD7 PUSH2 0x20A5 JUMP JUMPDEST PUSH20 0xFFFFFFFFFFFFFFFFFFFFFFFFFFFFFFFFFFFFFFFF DUP2 AND PUSH2 0x1E60 JUMPI PUSH1 0x40 MLOAD PUSH3 0x461BCD PUSH1 0xE5 SHL DUP2 MSTORE PUSH1 0x20 PUSH1 0x4 DUP3 ADD MSTORE PUSH1 0x26 PUSH1 0x24 DUP3 ADD MSTORE PUSH32 0x4F776E61626C653A206E6577206F776E657220697320746865207A65726F2061 PUSH1 0x44 DUP3 ADD MSTORE PUSH32 0x6464726573730000000000000000000000000000000000000000000000000000 PUSH1 0x64 DUP3 ADD MSTORE PUSH1 0x84 ADD PUSH2 0xBA3 JUMP JUMPDEST PUSH2 0xCCF DUP2 PUSH2 0x25D4 JUMP JUMPDEST PUSH2 0x1E71 PUSH2 0x210C JUMP JUMPDEST CALLVALUE PUSH1 0x0 SUB PUSH2 0x1EAB JUMPI PUSH1 0x40 MLOAD PUSH32 0x2C5211C600000000000000000000000000000000000000000000000000000000 DUP2 MSTORE PUSH1 0x4 ADD PUSH1 0x40 MLOAD DUP1 SWAP2 SUB SWAP1 REVERT JUMPDEST PUSH1 0x3 DUP2 PUSH1 0x3 DUP2 GT ISZERO PUSH2 0x1EBF JUMPI PUSH2 0x1EBF PUSH2 0x307F JUMP JUMPDEST SUB PUSH2 0x1EF6 JUMPI PUSH1 0x40 MLOAD PUSH32 0x24A0114400000000000000000000000000000000000000000000000000000000 DUP2 MSTORE PUSH1 0x4 ADD PUSH1 0x40 MLOAD DUP1 SWAP2 SUB SWAP1 REVERT JUMPDEST PUSH1 0x0 DUP1 PUSH1 0x0 PUSH2 0x1F07 PUSH1 0x3 DUP6 CALLVALUE PUSH2 0x135F JUMP JUMPDEST SWAP3 POP SWAP3 POP SWAP3 POP DUP3 PUSH2 0x103 PUSH1 0x0 DUP7 PUSH1 0x3 DUP2 GT ISZERO PUSH2 0x1F25 JUMPI PUSH2 0x1F25 PUSH2 0x307F JUMP JUMPDEST PUSH1 0x3 DUP2 GT ISZERO PUSH2 0x1F36 JUMPI PUSH2 0x1F36 PUSH2 0x307F JUMP JUMPDEST DUP2 MSTORE PUSH1 0x20 ADD SWAP1 DUP2 MSTORE PUSH1 0x20 ADD PUSH1 0x0 KECCAK256 SLOAD LT ISZERO PUSH2 0x1F7D JUMPI PUSH1 0x40 MLOAD PUSH32 0xF4D678B800000000000000000000000000000000000000000000000000000000 DUP2 MSTORE PUSH1 0x4 ADD PUSH1 0x40 MLOAD DUP1 SWAP2 SUB SWAP1 REVERT JUMPDEST PUSH1 0x3 PUSH1 0x0 SWAP1 DUP2 MSTORE PUSH2 0x103 PUSH1 0x20 MSTORE PUSH32 0x47446B1FBF373E85B24ABB536CB4DB1B756B2AB79D6BE181D89723B4020A3315 DUP1 SLOAD CALLVALUE SWAP3 SWAP1 PUSH2 0x1FBB SWAP1 DUP5 SWAP1 PUSH2 0x30DD JUMP JUMPDEST SWAP1 SWAP2 SSTORE POP DUP4 SWAP1 POP PUSH2 0x103 PUSH1 0x0 DUP7 PUSH1 0x3 DUP2 GT ISZERO PUSH2 0x1FD9 JUMPI PUSH2 0x1FD9 PUSH2 0x307F JUMP JUMPDEST PUSH1 0x3 DUP2 GT ISZERO PUSH2 0x1FEA JUMPI PUSH2 0x1FEA PUSH2 0x307F JUMP JUMPDEST DUP2 MSTORE PUSH1 0x20 ADD SWAP1 DUP2 MSTORE PUSH1 0x20 ADD PUSH1 0x0 KECCAK256 PUSH1 0x0 DUP3 DUP3 SLOAD PUSH2 0x2007 SWAP2 SWAP1 PUSH2 0x320B JUMP JUMPDEST SWAP1 SWAP2 SSTORE POP PUSH1 0x0 SWAP1 POP PUSH2 0x2018 DUP6 PUSH2 0x2320 JUMP JUMPDEST SWAP1 POP PUSH2 0x203B PUSH20 0xFFFFFFFFFFFFFFFFFFFFFFFFFFFFFFFFFFFFFFFF DUP3 AND CALLER DUP7 PUSH2 0x2414 JUMP JUMPDEST DUP5 PUSH1 0x3 DUP2 GT ISZERO PUSH2 0x204D JUMPI PUSH2 0x204D PUSH2 0x307F JUMP JUMPDEST PUSH1 0x3 PUSH1 0x40 DUP1 MLOAD CALLVALUE DUP2 MSTORE PUSH1 0x20 DUP2 ADD DUP9 SWAP1 MSTORE SWAP1 DUP2 ADD DUP6 SWAP1 MSTORE TIMESTAMP PUSH1 0x60 DUP3 ADD MSTORE CALLER SWAP1 PUSH32 0xF28DAEC9F1864F569F0CF46BDD560D184B5B2447EBCC195BF3F131802D38ABB2 SWAP1 PUSH1 0x80 ADD PUSH1 0x40 MLOAD DUP1 SWAP2 SUB SWAP1 LOG4 POP POP POP POP PUSH2 0xCCF PUSH1 0x1 DUP1 SSTORE JUMP JUMPDEST PUSH1 0x65 SLOAD PUSH20 0xFFFFFFFFFFFFFFFFFFFFFFFFFFFFFFFFFFFFFFFF AND CALLER EQ PUSH2 0x143F JUMPI PUSH1 0x40 MLOAD PUSH3 0x461BCD PUSH1 0xE5 SHL DUP2 MSTORE PUSH1 0x20 PUSH1 0x4 DUP3 ADD DUP2 SWAP1 MSTORE PUSH1 0x24 DUP3 ADD MSTORE PUSH32 0x4F776E61626C653A2063616C6C6572206973206E6F7420746865206F776E6572 PUSH1 0x44 DUP3 ADD MSTORE PUSH1 0x64 ADD PUSH2 0xBA3 JUMP JUMPDEST PUSH1 0x2 PUSH1 0x1 SLOAD SUB PUSH2 0x215E JUMPI PUSH1 0x40 MLOAD PUSH3 0x461BCD PUSH1 0xE5 SHL DUP2 MSTORE PUSH1 0x20 PUSH1 0x4 DUP3 ADD MSTORE PUSH1 0x1F PUSH1 0x24 DUP3 ADD MSTORE PUSH32 0x5265656E7472616E637947756172643A207265656E7472616E742063616C6C00 PUSH1 0x44 DUP3 ADD MSTORE PUSH1 0x64 ADD PUSH2 0xBA3 JUMP JUMPDEST PUSH1 0x2 PUSH1 0x1 SSTORE JUMP JUMPDEST PUSH1 0x1 DUP1 SSTORE JUMP JUMPDEST PUSH2 0xCCF PUSH2 0x20A5 JUMP JUMPDEST PUSH32 0x4910FDFA16FED3260ED0E7147F7CC6DA11A60208B5B9406D12A635614FFD9143 SLOAD PUSH1 0xFF AND ISZERO PUSH2 0x21A6 JUMPI PUSH2 0xAF7 DUP4 PUSH2 0x272E JUMP JUMPDEST DUP3 PUSH20 0xFFFFFFFFFFFFFFFFFFFFFFFFFFFFFFFFFFFFFFFF AND PUSH4 0x52D1902D PUSH1 0x40 MLOAD DUP2 PUSH4 0xFFFFFFFF AND PUSH1 0xE0 SHL DUP2 MSTORE PUSH1 0x4 ADD PUSH1 0x20 PUSH1 0x40 MLOAD DUP1 DUP4 SUB DUP2 DUP7 GAS STATICCALL SWAP3 POP POP POP DUP1 ISZERO PUSH2 0x220D JUMPI POP PUSH1 0x40 DUP1 MLOAD PUSH1 0x1F RETURNDATASIZE SWAP1 DUP2 ADD PUSH1 0x1F NOT AND DUP3 ADD SWAP1 SWAP3 MSTORE PUSH2 0x220A SWAP2 DUP2 ADD SWAP1 PUSH2 0x31F2 JUMP JUMPDEST PUSH1 0x1 JUMPDEST PUSH2 0x227F JUMPI PUSH1 0x40 MLOAD PUSH3 0x461BCD PUSH1 0xE5 SHL DUP2 MSTORE PUSH1 0x20 PUSH1 0x4 DUP3 ADD MSTORE PUSH1 0x2E PUSH1 0x24 DUP3 ADD MSTORE PUSH32 0x45524331393637557067726164653A206E657720696D706C656D656E74617469 PUSH1 0x44 DUP3 ADD MSTORE PUSH32 0x6F6E206973206E6F742055555053000000000000000000000000000000000000 PUSH1 0x64 DUP3 ADD MSTORE PUSH1 0x84 ADD PUSH2 0xBA3 JUMP JUMPDEST PUSH32 0x360894A13BA1A3210667C828492DB98DCA3E2076CC3735A920A3CA505D382BBC DUP2 EQ PUSH2 0x2314 JUMPI PUSH1 0x40 MLOAD PUSH3 0x461BCD PUSH1 0xE5 SHL DUP2 MSTORE PUSH1 0x20 PUSH1 0x4 DUP3 ADD MSTORE PUSH1 0x29 PUSH1 0x24 DUP3 ADD MSTORE PUSH32 0x45524331393637557067726164653A20756E737570706F727465642070726F78 PUSH1 0x44 DUP3 ADD MSTORE PUSH32 0x6961626C65555549440000000000000000000000000000000000000000000000 PUSH1 0x64 DUP3 ADD MSTORE PUSH1 0x84 ADD PUSH2 0xBA3 JUMP JUMPDEST POP PUSH2 0xAF7 DUP4 DUP4 DUP4 PUSH2 0x281E JUMP JUMPDEST PUSH1 0x0 DUP1 DUP3 PUSH1 0x3 DUP2 GT ISZERO PUSH2 0x2335 JUMPI PUSH2 0x2335 PUSH2 0x307F JUMP JUMPDEST SUB PUSH2 0x2359 JUMPI POP POP PUSH2 0x100 SLOAD PUSH20 0xFFFFFFFFFFFFFFFFFFFFFFFFFFFFFFFFFFFFFFFF AND SWAP1 JUMP JUMPDEST PUSH1 0x1 DUP3 PUSH1 0x3 DUP2 GT ISZERO PUSH2 0x236D JUMPI PUSH2 0x236D PUSH2 0x307F JUMP JUMPDEST SUB PUSH2 0x2391 JUMPI POP POP PUSH2 0x101 SLOAD PUSH20 0xFFFFFFFFFFFFFFFFFFFFFFFFFFFFFFFFFFFFFFFF AND SWAP1 JUMP JUMPDEST PUSH1 0x2 DUP3 PUSH1 0x3 DUP2 GT ISZERO PUSH2 0x23A5 JUMPI PUSH2 0x23A5 PUSH2 0x307F JUMP JUMPDEST SUB PUSH2 0x23C9 JUMPI POP POP PUSH2 0x102 SLOAD PUSH20 0xFFFFFFFFFFFFFFFFFFFFFFFFFFFFFFFFFFFFFFFF AND SWAP1 JUMP JUMPDEST PUSH1 0x3 DUP3 PUSH1 0x3 DUP2 GT ISZERO PUSH2 0x23DD JUMPI PUSH2 0x23DD PUSH2 0x307F JUMP JUMPDEST SUB PUSH2 0x179A JUMPI PUSH1 0x40 MLOAD PUSH32 0x24A0114400000000000000000000000000000000000000000000000000000000 DUP2 MSTORE PUSH1 0x4 ADD PUSH1 0x40 MLOAD DUP1 SWAP2 SUB SWAP1 REVERT JUMPDEST PUSH1 0x40 MLOAD PUSH20 0xFFFFFFFFFFFFFFFFFFFFFFFFFFFFFFFFFFFFFFFF DUP4 AND PUSH1 0x24 DUP3 ADD MSTORE PUSH1 0x44 DUP2 ADD DUP3 SWAP1 MSTORE PUSH2 0xAF7 SWAP1 DUP5 SWAP1 PUSH32 0xA9059CBB00000000000000000000000000000000000000000000000000000000 SWAP1 PUSH1 0x64 ADD JUMPDEST PUSH1 0x40 DUP1 MLOAD PUSH1 0x1F NOT DUP2 DUP5 SUB ADD DUP2 MSTORE SWAP2 SWAP1 MSTORE PUSH1 0x20 DUP2 ADD DUP1 MLOAD PUSH28 0xFFFFFFFFFFFFFFFFFFFFFFFFFFFFFFFFFFFFFFFFFFFFFFFFFFFFFFFF AND PUSH32 0xFFFFFFFF00000000000000000000000000000000000000000000000000000000 SWAP1 SWAP4 AND SWAP3 SWAP1 SWAP3 OR SWAP1 SWAP2 MSTORE PUSH2 0x2843 JUMP JUMPDEST PUSH1 0x0 SLOAD PUSH2 0x100 SWAP1 DIV PUSH1 0xFF AND PUSH2 0x2547 JUMPI PUSH1 0x40 MLOAD PUSH3 0x461BCD PUSH1 0xE5 SHL DUP2 MSTORE PUSH1 0x20 PUSH1 0x4 DUP3 ADD MSTORE PUSH1 0x2B PUSH1 0x24 DUP3 ADD MSTORE PUSH32 0x496E697469616C697A61626C653A20636F6E7472616374206973206E6F742069 PUSH1 0x44 DUP3 ADD MSTORE PUSH32 0x6E697469616C697A696E67000000000000000000000000000000000000000000 PUSH1 0x64 DUP3 ADD MSTORE PUSH1 0x84 ADD PUSH2 0xBA3 JUMP JUMPDEST PUSH2 0x143F PUSH2 0x2938 JUMP JUMPDEST PUSH1 0x0 SLOAD PUSH2 0x100 SWAP1 DIV PUSH1 0xFF AND PUSH2 0x25CC JUMPI PUSH1 0x40 MLOAD PUSH3 0x461BCD PUSH1 0xE5 SHL DUP2 MSTORE PUSH1 0x20 PUSH1 0x4 DUP3 ADD MSTORE PUSH1 0x2B PUSH1 0x24 DUP3 ADD MSTORE PUSH32 0x496E697469616C697A61626C653A20636F6E7472616374206973206E6F742069 PUSH1 0x44 DUP3 ADD MSTORE PUSH32 0x6E697469616C697A696E67000000000000000000000000000000000000000000 PUSH1 0x64 DUP3 ADD MSTORE PUSH1 0x84 ADD PUSH2 0xBA3 JUMP JUMPDEST PUSH2 0x143F PUSH2 0x29B5 JUMP JUMPDEST PUSH1 0x65 DUP1 SLOAD PUSH20 0xFFFFFFFFFFFFFFFFFFFFFFFFFFFFFFFFFFFFFFFF DUP4 DUP2 AND PUSH32 0xFFFFFFFFFFFFFFFFFFFFFFFF0000000000000000000000000000000000000000 DUP4 AND DUP2 OR SWAP1 SWAP4 SSTORE PUSH1 0x40 MLOAD SWAP2 AND SWAP2 SWAP1 DUP3 SWAP1 PUSH32 0x8BE0079C531659141344CD1FD0A4F28419497F9722A3DAAFE3B4186F6B6457E0 SWAP1 PUSH1 0x0 SWAP1 LOG3 POP POP JUMP JUMPDEST PUSH1 0x0 DUP1 DUP3 PUSH1 0x3 DUP2 GT ISZERO PUSH2 0x2660 JUMPI PUSH2 0x2660 PUSH2 0x307F JUMP JUMPDEST SUB PUSH2 0x266D JUMPI POP POP PUSH1 0xFC SLOAD SWAP1 JUMP JUMPDEST PUSH1 0x1 DUP3 PUSH1 0x3 DUP2 GT ISZERO PUSH2 0x2681 JUMPI PUSH2 0x2681 PUSH2 0x307F JUMP JUMPDEST SUB PUSH2 0x268E JUMPI POP POP PUSH1 0xFD SLOAD SWAP1 JUMP JUMPDEST PUSH1 0x2 DUP3 PUSH1 0x3 DUP2 GT ISZERO PUSH2 0x26A2 JUMPI PUSH2 0x26A2 PUSH2 0x307F JUMP JUMPDEST SUB PUSH2 0x26AF JUMPI POP POP PUSH1 0xFE SLOAD SWAP1 JUMP JUMPDEST PUSH1 0x3 DUP3 PUSH1 0x3 DUP2 GT ISZERO PUSH2 0x26C3 JUMPI PUSH2 0x26C3 PUSH2 0x307F JUMP JUMPDEST SUB PUSH2 0x179A JUMPI POP POP PUSH1 0xFF SLOAD SWAP1 JUMP JUMPDEST PUSH1 0x40 MLOAD PUSH20 0xFFFFFFFFFFFFFFFFFFFFFFFFFFFFFFFFFFFFFFFF DUP1 DUP6 AND PUSH1 0x24 DUP4 ADD MSTORE DUP4 AND PUSH1 0x44 DUP3 ADD MSTORE PUSH1 0x64 DUP2 ADD DUP3 SWAP1 MSTORE PUSH2 0x1DC9 SWAP1 DUP6 SWAP1 PUSH32 0x23B872DD00000000000000000000000000000000000000000000000000000000 SWAP1 PUSH1 0x84 ADD PUSH2 0x2466 JUMP JUMPDEST PUSH20 0xFFFFFFFFFFFFFFFFFFFFFFFFFFFFFFFFFFFFFFFF DUP2 AND EXTCODESIZE PUSH2 0x27B8 JUMPI PUSH1 0x40 MLOAD PUSH3 0x461BCD PUSH1 0xE5 SHL DUP2 MSTORE PUSH1 0x20 PUSH1 0x4 DUP3 ADD MSTORE PUSH1 0x2D PUSH1 0x24 DUP3 ADD MSTORE PUSH32 0x455243313936373A206E657720696D706C656D656E746174696F6E206973206E PUSH1 0x44 DUP3 ADD MSTORE PUSH32 0x6F74206120636F6E747261637400000000000000000000000000000000000000 PUSH1 0x64 DUP3 ADD MSTORE PUSH1 0x84 ADD PUSH2 0xBA3 JUMP JUMPDEST PUSH32 0x360894A13BA1A3210667C828492DB98DCA3E2076CC3735A920A3CA505D382BBC DUP1 SLOAD PUSH32 0xFFFFFFFFFFFFFFFFFFFFFFFF0000000000000000000000000000000000000000 AND PUSH20 0xFFFFFFFFFFFFFFFFFFFFFFFFFFFFFFFFFFFFFFFF SWAP3 SWAP1 SWAP3 AND SWAP2 SWAP1 SWAP2 OR SWAP1 SSTORE JUMP JUMPDEST PUSH2 0x2827 DUP4 PUSH2 0x2A3B JUMP JUMPDEST PUSH1 0x0 DUP3 MLOAD GT DUP1 PUSH2 0x2834 JUMPI POP DUP1 JUMPDEST ISZERO PUSH2 0xAF7 JUMPI PUSH2 0x1DC9 DUP4 DUP4 PUSH2 0x2A88 JUMP JUMPDEST PUSH1 0x0 PUSH2 0x28A5 DUP3 PUSH1 0x40 MLOAD DUP1 PUSH1 0x40 ADD PUSH1 0x40 MSTORE DUP1 PUSH1 0x20 DUP2 MSTORE PUSH1 0x20 ADD PUSH32 0x5361666545524332303A206C6F772D6C6576656C2063616C6C206661696C6564 DUP2 MSTORE POP DUP6 PUSH20 0xFFFFFFFFFFFFFFFFFFFFFFFFFFFFFFFFFFFFFFFF AND PUSH2 0x2AB6 SWAP1 SWAP3 SWAP2 SWAP1 PUSH4 0xFFFFFFFF AND JUMP JUMPDEST SWAP1 POP DUP1 MLOAD PUSH1 0x0 EQ DUP1 PUSH2 0x28C6 JUMPI POP DUP1 DUP1 PUSH1 0x20 ADD SWAP1 MLOAD DUP2 ADD SWAP1 PUSH2 0x28C6 SWAP2 SWAP1 PUSH2 0x350F JUMP JUMPDEST PUSH2 0xAF7 JUMPI PUSH1 0x40 MLOAD PUSH3 0x461BCD PUSH1 0xE5 SHL DUP2 MSTORE PUSH1 0x20 PUSH1 0x4 DUP3 ADD MSTORE PUSH1 0x2A PUSH1 0x24 DUP3 ADD MSTORE PUSH32 0x5361666545524332303A204552433230206F7065726174696F6E20646964206E PUSH1 0x44 DUP3 ADD MSTORE PUSH32 0x6F74207375636365656400000000000000000000000000000000000000000000 PUSH1 0x64 DUP3 ADD MSTORE PUSH1 0x84 ADD PUSH2 0xBA3 JUMP JUMPDEST PUSH1 0x0 SLOAD PUSH2 0x100 SWAP1 DIV PUSH1 0xFF AND PUSH2 0x2165 JUMPI PUSH1 0x40 MLOAD PUSH3 0x461BCD PUSH1 0xE5 SHL DUP2 MSTORE PUSH1 0x20 PUSH1 0x4 DUP3 ADD MSTORE PUSH1 0x2B PUSH1 0x24 DUP3 ADD MSTORE PUSH32 0x496E697469616C697A61626C653A20636F6E7472616374206973206E6F742069 PUSH1 0x44 DUP3 ADD MSTORE PUSH32 0x6E697469616C697A696E67000000000000000000000000000000000000000000 PUSH1 0x64 DUP3 ADD MSTORE PUSH1 0x84 ADD PUSH2 0xBA3 JUMP JUMPDEST PUSH1 0x0 SLOAD PUSH2 0x100 SWAP1 DIV PUSH1 0xFF AND PUSH2 0x2A32 JUMPI PUSH1 0x40 MLOAD PUSH3 0x461BCD PUSH1 0xE5 SHL DUP2 MSTORE PUSH1 0x20 PUSH1 0x4 DUP3 ADD MSTORE PUSH1 0x2B PUSH1 0x24 DUP3 ADD MSTORE PUSH32 0x496E697469616C697A61626C653A20636F6E7472616374206973206E6F742069 PUSH1 0x44 DUP3 ADD MSTORE PUSH32 0x6E697469616C697A696E67000000000000000000000000000000000000000000 PUSH1 0x64 DUP3 ADD MSTORE PUSH1 0x84 ADD PUSH2 0xBA3 JUMP JUMPDEST PUSH2 0x143F CALLER PUSH2 0x25D4 JUMP JUMPDEST PUSH2 0x2A44 DUP2 PUSH2 0x272E JUMP JUMPDEST PUSH1 0x40 MLOAD PUSH20 0xFFFFFFFFFFFFFFFFFFFFFFFFFFFFFFFFFFFFFFFF DUP3 AND SWAP1 PUSH32 0xBC7CD75A20EE27FD9ADEBAB32041F755214DBC6BFFA90CC0225B39DA2E5C2D3B SWAP1 PUSH1 0x0 SWAP1 LOG2 POP JUMP JUMPDEST PUSH1 0x60 PUSH2 0x2AAD DUP4 DUP4 PUSH1 0x40 MLOAD DUP1 PUSH1 0x60 ADD PUSH1 0x40 MSTORE DUP1 PUSH1 0x27 DUP2 MSTORE PUSH1 0x20 ADD PUSH2 0x35AC PUSH1 0x27 SWAP2 CODECOPY PUSH2 0x2ACD JUMP JUMPDEST SWAP1 POP JUMPDEST SWAP3 SWAP2 POP POP JUMP JUMPDEST PUSH1 0x60 PUSH2 0x2AC5 DUP5 DUP5 PUSH1 0x0 DUP6 PUSH2 0x2B52 JUMP JUMPDEST SWAP5 SWAP4 POP POP POP POP JUMP JUMPDEST PUSH1 0x60 PUSH1 0x0 DUP1 DUP6 PUSH20 0xFFFFFFFFFFFFFFFFFFFFFFFFFFFFFFFFFFFFFFFF AND DUP6 PUSH1 0x40 MLOAD PUSH2 0x2AF7 SWAP2 SWAP1 PUSH2 0x355C JUMP JUMPDEST PUSH1 0x0 PUSH1 0x40 MLOAD DUP1 DUP4 SUB DUP2 DUP6 GAS DELEGATECALL SWAP2 POP POP RETURNDATASIZE DUP1 PUSH1 0x0 DUP2 EQ PUSH2 0x2B32 JUMPI PUSH1 0x40 MLOAD SWAP2 POP PUSH1 0x1F NOT PUSH1 0x3F RETURNDATASIZE ADD AND DUP3 ADD PUSH1 0x40 MSTORE RETURNDATASIZE DUP3 MSTORE RETURNDATASIZE PUSH1 0x0 PUSH1 0x20 DUP5 ADD RETURNDATACOPY PUSH2 0x2B37 JUMP JUMPDEST PUSH1 0x60 SWAP2 POP JUMPDEST POP SWAP2 POP SWAP2 POP PUSH2 0x2B48 DUP7 DUP4 DUP4 DUP8 PUSH2 0x2C51 JUMP JUMPDEST SWAP7 SWAP6 POP POP POP POP POP POP JUMP JUMPDEST PUSH1 0x60 DUP3 SELFBALANCE LT ISZERO PUSH2 0x2BCA JUMPI PUSH1 0x40 MLOAD PUSH3 0x461BCD PUSH1 0xE5 SHL DUP2 MSTORE PUSH1 0x20 PUSH1 0x4 DUP3 ADD MSTORE PUSH1 0x26 PUSH1 0x24 DUP3 ADD MSTORE PUSH32 0x416464726573733A20696E73756666696369656E742062616C616E636520666F PUSH1 0x44 DUP3 ADD MSTORE PUSH32 0x722063616C6C0000000000000000000000000000000000000000000000000000 PUSH1 0x64 DUP3 ADD MSTORE PUSH1 0x84 ADD PUSH2 0xBA3 JUMP JUMPDEST PUSH1 0x0 DUP1 DUP7 PUSH20 0xFFFFFFFFFFFFFFFFFFFFFFFFFFFFFFFFFFFFFFFF AND DUP6 DUP8 PUSH1 0x40 MLOAD PUSH2 0x2BF3 SWAP2 SWAP1 PUSH2 0x355C JUMP JUMPDEST PUSH1 0x0 PUSH1 0x40 MLOAD DUP1 DUP4 SUB DUP2 DUP6 DUP8 GAS CALL SWAP3 POP POP POP RETURNDATASIZE DUP1 PUSH1 0x0 DUP2 EQ PUSH2 0x2C30 JUMPI PUSH1 0x40 MLOAD SWAP2 POP PUSH1 0x1F NOT PUSH1 0x3F RETURNDATASIZE ADD AND DUP3 ADD PUSH1 0x40 MSTORE RETURNDATASIZE DUP3 MSTORE RETURNDATASIZE PUSH1 0x0 PUSH1 0x20 DUP5 ADD RETURNDATACOPY PUSH2 0x2C35 JUMP JUMPDEST PUSH1 0x60 SWAP2 POP JUMPDEST POP SWAP2 POP SWAP2 POP PUSH2 0x2C46 DUP8 DUP4 DUP4 DUP8 PUSH2 0x2C51 JUMP JUMPDEST SWAP8 SWAP7 POP POP POP POP POP POP POP JUMP JUMPDEST PUSH1 0x60 DUP4 ISZERO PUSH2 0x2CCD JUMPI DUP3 MLOAD PUSH1 0x0 SUB PUSH2 0x2CC6 JUMPI PUSH20 0xFFFFFFFFFFFFFFFFFFFFFFFFFFFFFFFFFFFFFFFF DUP6 AND EXTCODESIZE PUSH2 0x2CC6 JUMPI PUSH1 0x40 MLOAD PUSH3 0x461BCD PUSH1 0xE5 SHL DUP2 MSTORE PUSH1 0x20 PUSH1 0x4 DUP3 ADD MSTORE PUSH1 0x1D PUSH1 0x24 DUP3 ADD MSTORE PUSH32 0x416464726573733A2063616C6C20746F206E6F6E2D636F6E7472616374000000 PUSH1 0x44 DUP3 ADD MSTORE PUSH1 0x64 ADD PUSH2 0xBA3 JUMP JUMPDEST POP DUP2 PUSH2 0x2AC5 JUMP JUMPDEST PUSH2 0x2AC5 DUP4 DUP4 DUP2 MLOAD ISZERO PUSH2 0x2CE2 JUMPI DUP2 MLOAD DUP1 DUP4 PUSH1 0x20 ADD REVERT JUMPDEST DUP1 PUSH1 0x40 MLOAD PUSH3 0x461BCD PUSH1 0xE5 SHL DUP2 MSTORE PUSH1 0x4 ADD PUSH2 0xBA3 SWAP2 SWAP1 PUSH2 0x3578 JUMP JUMPDEST PUSH1 0x0 PUSH1 0x20 DUP3 DUP5 SUB SLT ISZERO PUSH2 0x2D0E JUMPI PUSH1 0x0 DUP1 REVERT JUMPDEST POP CALLDATALOAD SWAP2 SWAP1 POP JUMP JUMPDEST PUSH1 0x0 DUP1 DUP4 PUSH1 0x1F DUP5 ADD SLT PUSH2 0x2D27 JUMPI PUSH1 0x0 DUP1 REVERT JUMPDEST POP DUP2 CALLDATALOAD PUSH8 0xFFFFFFFFFFFFFFFF DUP2 GT ISZERO PUSH2 0x2D3F JUMPI PUSH1 0x0 DUP1 REVERT JUMPDEST PUSH1 0x20 DUP4 ADD SWAP2 POP DUP4 PUSH1 0x20 DUP3 PUSH1 0x5 SHL DUP6 ADD ADD GT ISZERO PUSH2 0x2D5A JUMPI PUSH1 0x0 DUP1 REVERT JUMPDEST SWAP3 POP SWAP3 SWAP1 POP JUMP JUMPDEST DUP1 CALLDATALOAD PUSH1 0x4 DUP2 LT PUSH2 0x2D70 JUMPI PUSH1 0x0 DUP1 REVERT JUMPDEST SWAP2 SWAP1 POP JUMP JUMPDEST PUSH1 0x0 DUP1 PUSH1 0x0 PUSH1 0x40 DUP5 DUP7 SUB SLT ISZERO PUSH2 0x2D8A JUMPI PUSH1 0x0 DUP1 REVERT JUMPDEST DUP4 CALLDATALOAD PUSH8 0xFFFFFFFFFFFFFFFF DUP2 GT ISZERO PUSH2 0x2DA1 JUMPI PUSH1 0x0 DUP1 REVERT JUMPDEST PUSH2 0x2DAD DUP7 DUP3 DUP8 ADD PUSH2 0x2D15 JUMP JUMPDEST SWAP1 SWAP5 POP SWAP3 POP PUSH2 0x2DC0 SWAP1 POP PUSH1 0x20 DUP6 ADD PUSH2 0x2D61 JUMP JUMPDEST SWAP1 POP SWAP3 POP SWAP3 POP SWAP3 JUMP JUMPDEST DUP1 CALLDATALOAD PUSH20 0xFFFFFFFFFFFFFFFFFFFFFFFFFFFFFFFFFFFFFFFF DUP2 AND DUP2 EQ PUSH2 0x2D70 JUMPI PUSH1 0x0 DUP1 REVERT JUMPDEST PUSH1 0x0 PUSH1 0x20 DUP3 DUP5 SUB SLT ISZERO PUSH2 0x2DFF JUMPI PUSH1 0x0 DUP1 REVERT JUMPDEST PUSH2 0x2AAD DUP3 PUSH2 0x2DC9 JUMP JUMPDEST PUSH1 0x0 DUP1 PUSH1 0x40 DUP4 DUP6 SUB SLT ISZERO PUSH2 0x2E1B JUMPI PUSH1 0x0 DUP1 REVERT JUMPDEST PUSH2 0x2E24 DUP4 PUSH2 0x2D61 JUMP JUMPDEST SWAP5 PUSH1 0x20 SWAP4 SWAP1 SWAP4 ADD CALLDATALOAD SWAP4 POP POP POP JUMP JUMPDEST PUSH1 0x0 DUP1 PUSH1 0x0 DUP1 PUSH1 0x0 DUP1 PUSH1 0x0 DUP1 PUSH2 0x100 DUP10 DUP12 SUB SLT ISZERO PUSH2 0x2E4F JUMPI PUSH1 0x0 DUP1 REVERT JUMPDEST PUSH2 0x2E58 DUP10 PUSH2 0x2DC9 JUMP JUMPDEST SWAP8 POP PUSH1 0x20 DUP10 ADD CALLDATALOAD SWAP7 POP PUSH1 0x40 DUP10 ADD CALLDATALOAD SWAP6 POP PUSH1 0x60 DUP10 ADD CALLDATALOAD SWAP5 POP PUSH1 0x80 DUP10 ADD CALLDATALOAD SWAP4 POP PUSH2 0x2E82 PUSH1 0xA0 DUP11 ADD PUSH2 0x2DC9 JUMP JUMPDEST SWAP3 POP PUSH2 0x2E90 PUSH1 0xC0 DUP11 ADD PUSH2 0x2DC9 JUMP JUMPDEST SWAP2 POP PUSH2 0x2E9E PUSH1 0xE0 DUP11 ADD PUSH2 0x2DC9 JUMP JUMPDEST SWAP1 POP SWAP3 SWAP6 SWAP9 POP SWAP3 SWAP6 SWAP9 SWAP1 SWAP4 SWAP7 POP JUMP JUMPDEST PUSH32 0x4E487B7100000000000000000000000000000000000000000000000000000000 PUSH1 0x0 MSTORE PUSH1 0x41 PUSH1 0x4 MSTORE PUSH1 0x24 PUSH1 0x0 REVERT JUMPDEST PUSH1 0x40 MLOAD PUSH1 0x1F DUP3 ADD PUSH1 0x1F NOT AND DUP2 ADD PUSH8 0xFFFFFFFFFFFFFFFF DUP2 GT DUP3 DUP3 LT OR ISZERO PUSH2 0x2F05 JUMPI PUSH2 0x2F05 PUSH2 0x2EAD JUMP JUMPDEST PUSH1 0x40 MSTORE SWAP2 SWAP1 POP JUMP JUMPDEST PUSH1 0x0 DUP1 PUSH1 0x40 DUP4 DUP6 SUB SLT ISZERO PUSH2 0x2F20 JUMPI PUSH1 0x0 DUP1 REVERT JUMPDEST PUSH2 0x2F29 DUP4 PUSH2 0x2DC9 JUMP JUMPDEST SWAP2 POP PUSH1 0x20 DUP1 DUP5 ADD CALLDATALOAD PUSH8 0xFFFFFFFFFFFFFFFF DUP1 DUP3 GT ISZERO PUSH2 0x2F47 JUMPI PUSH1 0x0 DUP1 REVERT JUMPDEST DUP2 DUP7 ADD SWAP2 POP DUP7 PUSH1 0x1F DUP4 ADD SLT PUSH2 0x2F5B JUMPI PUSH1 0x0 DUP1 REVERT JUMPDEST DUP2 CALLDATALOAD DUP2 DUP2 GT ISZERO PUSH2 0x2F6D JUMPI PUSH2 0x2F6D PUSH2 0x2EAD JUMP JUMPDEST PUSH2 0x2F7F DUP5 PUSH1 0x1F NOT PUSH1 0x1F DUP5 ADD AND ADD PUSH2 0x2EDC JUMP JUMPDEST SWAP2 POP DUP1 DUP3 MSTORE DUP8 DUP5 DUP3 DUP6 ADD ADD GT ISZERO PUSH2 0x2F95 JUMPI PUSH1 0x0 DUP1 REVERT JUMPDEST DUP1 DUP5 DUP5 ADD DUP6 DUP5 ADD CALLDATACOPY PUSH1 0x0 DUP5 DUP3 DUP5 ADD ADD MSTORE POP DUP1 SWAP4 POP POP POP POP SWAP3 POP SWAP3 SWAP1 POP JUMP JUMPDEST PUSH1 0x0 DUP1 PUSH1 0x0 PUSH1 0x60 DUP5 DUP7 SUB SLT ISZERO PUSH2 0x2FC8 JUMPI PUSH1 0x0 DUP1 REVERT JUMPDEST PUSH2 0x2FD1 DUP5 PUSH2 0x2D61 JUMP JUMPDEST SWAP3 POP PUSH2 0x2FDF PUSH1 0x20 DUP6 ADD PUSH2 0x2D61 JUMP JUMPDEST SWAP2 POP PUSH1 0x40 DUP5 ADD CALLDATALOAD SWAP1 POP SWAP3 POP SWAP3 POP SWAP3 JUMP JUMPDEST PUSH1 0x0 PUSH1 0x20 DUP3 DUP5 SUB SLT ISZERO PUSH2 0x3001 JUMPI PUSH1 0x0 DUP1 REVERT JUMPDEST PUSH2 0x2AAD DUP3 PUSH2 0x2D61 JUMP JUMPDEST PUSH1 0x0 DUP1 PUSH1 0x0 PUSH1 0x60 DUP5 DUP7 SUB SLT ISZERO PUSH2 0x301F JUMPI PUSH1 0x0 DUP1 REVERT JUMPDEST PUSH2 0x3028 DUP5 PUSH2 0x2D61 JUMP JUMPDEST SWAP6 PUSH1 0x20 DUP6 ADD CALLDATALOAD SWAP6 POP PUSH1 0x40 SWAP1 SWAP5 ADD CALLDATALOAD SWAP4 SWAP3 POP POP POP JUMP JUMPDEST PUSH1 0x0 DUP1 PUSH1 0x20 DUP4 DUP6 SUB SLT ISZERO PUSH2 0x3050 JUMPI PUSH1 0x0 DUP1 REVERT JUMPDEST DUP3 CALLDATALOAD PUSH8 0xFFFFFFFFFFFFFFFF DUP2 GT ISZERO PUSH2 0x3067 JUMPI PUSH1 0x0 DUP1 REVERT JUMPDEST PUSH2 0x3073 DUP6 DUP3 DUP7 ADD PUSH2 0x2D15 JUMP JUMPDEST SWAP1 SWAP7 SWAP1 SWAP6 POP SWAP4 POP POP POP POP JUMP JUMPDEST PUSH32 0x4E487B7100000000000000000000000000000000000000000000000000000000 PUSH1 0x0 MSTORE PUSH1 0x21 PUSH1 0x4 MSTORE PUSH1 0x24 PUSH1 0x0 REVERT JUMPDEST PUSH32 0x4E487B7100000000000000000000000000000000000000000000000000000000 PUSH1 0x0 MSTORE PUSH1 0x11 PUSH1 0x4 MSTORE PUSH1 0x24 PUSH1 0x0 REVERT JUMPDEST DUP1 DUP3 ADD DUP1 DUP3 GT ISZERO PUSH2 0x2AB0 JUMPI PUSH2 0x2AB0 PUSH2 0x30AE JUMP JUMPDEST DUP2 DUP4 MSTORE DUP2 DUP2 PUSH1 0x20 DUP6 ADD CALLDATACOPY POP PUSH1 0x0 PUSH1 0x20 DUP3 DUP5 ADD ADD MSTORE PUSH1 0x0 PUSH1 0x20 PUSH1 0x1F NOT PUSH1 0x1F DUP5 ADD AND DUP5 ADD ADD SWAP1 POP SWAP3 SWAP2 POP POP JUMP JUMPDEST PUSH1 0x20 DUP1 DUP3 MSTORE DUP2 DUP2 ADD DUP4 SWAP1 MSTORE PUSH1 0x0 SWAP1 PUSH1 0x40 PUSH1 0x5 DUP6 SWAP1 SHL DUP5 ADD DUP2 ADD SWAP1 DUP5 ADD DUP7 DUP5 JUMPDEST DUP8 DUP2 LT ISZERO PUSH2 0x31E5 JUMPI PUSH32 0xFFFFFFFFFFFFFFFFFFFFFFFFFFFFFFFFFFFFFFFFFFFFFFFFFFFFFFFFFFFFFFC0 DUP8 DUP6 SUB ADD DUP4 MSTORE DUP2 CALLDATALOAD PUSH32 0xFFFFFFFFFFFFFFFFFFFFFFFFFFFFFFFFFFFFFFFFFFFFFFFFFFFFFFFFFFFFFFE1 DUP11 CALLDATASIZE SUB ADD DUP2 SLT PUSH2 0x319B JUMPI PUSH1 0x0 DUP1 REVERT JUMPDEST DUP10 ADD DUP6 DUP2 ADD SWAP1 CALLDATALOAD PUSH8 0xFFFFFFFFFFFFFFFF DUP2 GT ISZERO PUSH2 0x31B7 JUMPI PUSH1 0x0 DUP1 REVERT JUMPDEST DUP1 CALLDATASIZE SUB DUP3 SGT ISZERO PUSH2 0x31C6 JUMPI PUSH1 0x0 DUP1 REVERT JUMPDEST PUSH2 0x31D1 DUP7 DUP3 DUP5 PUSH2 0x30F0 JUMP JUMPDEST SWAP6 POP POP POP SWAP2 DUP5 ADD SWAP2 SWAP1 DUP5 ADD SWAP1 PUSH1 0x1 ADD PUSH2 0x313A JUMP JUMPDEST POP SWAP2 SWAP8 SWAP7 POP POP POP POP POP POP POP JUMP JUMPDEST PUSH1 0x0 PUSH1 0x20 DUP3 DUP5 SUB SLT ISZERO PUSH2 0x3204 JUMPI PUSH1 0x0 DUP1 REVERT JUMPDEST POP MLOAD SWAP2 SWAP1 POP JUMP JUMPDEST DUP2 DUP2 SUB DUP2 DUP2 GT ISZERO PUSH2 0x2AB0 JUMPI PUSH2 0x2AB0 PUSH2 0x30AE JUMP JUMPDEST DUP1 DUP3 MUL DUP2 ISZERO DUP3 DUP3 DIV DUP5 EQ OR PUSH2 0x2AB0 JUMPI PUSH2 0x2AB0 PUSH2 0x30AE JUMP JUMPDEST PUSH1 0x0 DUP3 PUSH2 0x326B JUMPI PUSH32 0x4E487B7100000000000000000000000000000000000000000000000000000000 PUSH1 0x0 MSTORE PUSH1 0x12 PUSH1 0x4 MSTORE PUSH1 0x24 PUSH1 0x0 REVERT JUMPDEST POP DIV SWAP1 JUMP JUMPDEST DUP1 MLOAD PUSH1 0x3 DUP2 SWAP1 SIGNEXTEND DUP2 EQ PUSH2 0x2D70 JUMPI PUSH1 0x0 DUP1 REVERT JUMPDEST PUSH1 0x0 PUSH1 0x80 DUP3 DUP5 SUB SLT ISZERO PUSH2 0x3294 JUMPI PUSH1 0x0 DUP1 REVERT JUMPDEST PUSH1 0x40 MLOAD PUSH1 0x80 DUP2 ADD PUSH8 0xFFFFFFFFFFFFFFFF DUP3 DUP3 LT DUP2 DUP4 GT OR ISZERO PUSH2 0x32B8 JUMPI PUSH2 0x32B8 PUSH2 0x2EAD JUMP JUMPDEST DUP2 PUSH1 0x40 MSTORE DUP5 MLOAD SWAP2 POP DUP2 PUSH1 0x7 SIGNEXTEND DUP3 EQ PUSH2 0x32CF JUMPI PUSH1 0x0 DUP1 REVERT JUMPDEST SWAP1 DUP3 MSTORE PUSH1 0x20 DUP5 ADD MLOAD SWAP1 DUP1 DUP3 AND DUP3 EQ PUSH2 0x32E6 JUMPI PUSH1 0x0 DUP1 REVERT JUMPDEST POP PUSH1 0x20 DUP3 ADD MSTORE PUSH2 0x32F8 PUSH1 0x40 DUP5 ADD PUSH2 0x3270 JUMP JUMPDEST PUSH1 0x40 DUP3 ADD MSTORE PUSH1 0x60 DUP4 ADD MLOAD PUSH1 0x60 DUP3 ADD MSTORE DUP1 SWAP2 POP POP SWAP3 SWAP2 POP POP JUMP JUMPDEST PUSH1 0x1 DUP2 DUP2 JUMPDEST DUP1 DUP6 GT ISZERO PUSH2 0x336A JUMPI DUP2 PUSH32 0xFFFFFFFFFFFFFFFFFFFFFFFFFFFFFFFFFFFFFFFFFFFFFFFFFFFFFFFFFFFFFFFF DIV DUP3 GT ISZERO PUSH2 0x3350 JUMPI PUSH2 0x3350 PUSH2 0x30AE JUMP JUMPDEST DUP1 DUP6 AND ISZERO PUSH2 0x335D JUMPI SWAP2 DUP2 MUL SWAP2 JUMPDEST SWAP4 DUP5 SHR SWAP4 SWAP1 DUP1 MUL SWAP1 PUSH2 0x3316 JUMP JUMPDEST POP SWAP3 POP SWAP3 SWAP1 POP JUMP JUMPDEST PUSH1 0x0 DUP3 PUSH2 0x3381 JUMPI POP PUSH1 0x1 PUSH2 0x2AB0 JUMP JUMPDEST DUP2 PUSH2 0x338E JUMPI POP PUSH1 0x0 PUSH2 0x2AB0 JUMP JUMPDEST DUP2 PUSH1 0x1 DUP2 EQ PUSH2 0x33A4 JUMPI PUSH1 0x2 DUP2 EQ PUSH2 0x33AE JUMPI PUSH2 0x33CA JUMP JUMPDEST PUSH1 0x1 SWAP2 POP POP PUSH2 0x2AB0 JUMP JUMPDEST PUSH1 0xFF DUP5 GT ISZERO PUSH2 0x33BF JUMPI PUSH2 0x33BF PUSH2 0x30AE JUMP JUMPDEST POP POP PUSH1 0x1 DUP3 SHL PUSH2 0x2AB0 JUMP JUMPDEST POP PUSH1 0x20 DUP4 LT PUSH2 0x133 DUP4 LT AND PUSH1 0x4E DUP5 LT PUSH1 0xB DUP5 LT AND OR ISZERO PUSH2 0x33ED JUMPI POP DUP2 DUP2 EXP PUSH2 0x2AB0 JUMP JUMPDEST PUSH2 0x33F7 DUP4 DUP4 PUSH2 0x3311 JUMP JUMPDEST DUP1 PUSH32 0xFFFFFFFFFFFFFFFFFFFFFFFFFFFFFFFFFFFFFFFFFFFFFFFFFFFFFFFFFFFFFFFF DIV DUP3 GT ISZERO PUSH2 0x3429 JUMPI PUSH2 0x3429 PUSH2 0x30AE JUMP JUMPDEST MUL SWAP4 SWAP3 POP POP POP JUMP JUMPDEST PUSH1 0x0 PUSH2 0x2AAD PUSH4 0xFFFFFFFF DUP5 AND DUP4 PUSH2 0x3372 JUMP JUMPDEST PUSH1 0x0 DUP3 PUSH1 0x3 SIGNEXTEND DUP3 PUSH1 0x3 SIGNEXTEND MUL DUP1 PUSH1 0x3 SIGNEXTEND SWAP2 POP DUP1 DUP3 EQ PUSH2 0x3463 JUMPI PUSH2 0x3463 PUSH2 0x30AE JUMP JUMPDEST POP SWAP3 SWAP2 POP POP JUMP JUMPDEST PUSH1 0x20 DUP2 ADD PUSH1 0x4 DUP4 LT PUSH2 0x34A5 JUMPI PUSH32 0x4E487B7100000000000000000000000000000000000000000000000000000000 PUSH1 0x0 MSTORE PUSH1 0x21 PUSH1 0x4 MSTORE PUSH1 0x24 PUSH1 0x0 REVERT JUMPDEST SWAP2 SWAP1 MSTORE SWAP1 JUMP JUMPDEST PUSH1 0x0 DUP1 PUSH1 0x40 DUP4 DUP6 SUB SLT ISZERO PUSH2 0x34BE JUMPI PUSH1 0x0 DUP1 REVERT JUMPDEST DUP3 MLOAD SWAP2 POP PUSH2 0x34CE PUSH1 0x20 DUP5 ADD PUSH2 0x3270 JUMP JUMPDEST SWAP1 POP SWAP3 POP SWAP3 SWAP1 POP JUMP JUMPDEST PUSH1 0x0 PUSH32 0xFFFFFFFFFFFFFFFFFFFFFFFFFFFFFFFFFFFFFFFFFFFFFFFFFFFFFFFFFFFFFFFF DUP3 SUB PUSH2 0x3508 JUMPI PUSH2 0x3508 PUSH2 0x30AE JUMP JUMPDEST POP PUSH1 0x1 ADD SWAP1 JUMP JUMPDEST PUSH1 0x0 PUSH1 0x20 DUP3 DUP5 SUB SLT ISZERO PUSH2 0x3521 JUMPI PUSH1 0x0 DUP1 REVERT JUMPDEST DUP2 MLOAD DUP1 ISZERO ISZERO DUP2 EQ PUSH2 0x3531 JUMPI PUSH1 0x0 DUP1 REVERT JUMPDEST SWAP4 SWAP3 POP POP POP JUMP JUMPDEST PUSH1 0x0 JUMPDEST DUP4 DUP2 LT ISZERO PUSH2 0x3553 JUMPI DUP2 DUP2 ADD MLOAD DUP4 DUP3 ADD MSTORE PUSH1 0x20 ADD PUSH2 0x353B JUMP JUMPDEST POP POP PUSH1 0x0 SWAP2 ADD MSTORE JUMP JUMPDEST PUSH1 0x0 DUP3 MLOAD PUSH2 0x356E DUP2 DUP5 PUSH1 0x20 DUP8 ADD PUSH2 0x3538 JUMP JUMPDEST SWAP2 SWAP1 SWAP2 ADD SWAP3 SWAP2 POP POP JUMP JUMPDEST PUSH1 0x20 DUP2 MSTORE PUSH1 0x0 DUP3 MLOAD DUP1 PUSH1 0x20 DUP5 ADD MSTORE PUSH2 0x3597 DUP2 PUSH1 0x40 DUP6 ADD PUSH1 0x20 DUP8 ADD PUSH2 0x3538 JUMP JUMPDEST PUSH1 0x1F ADD PUSH1 0x1F NOT AND SWAP2 SWAP1 SWAP2 ADD PUSH1 0x40 ADD SWAP3 SWAP2 POP POP JUMP INVALID COINBASE PUSH5 0x6472657373 GASPRICE KECCAK256 PUSH13 0x6F772D6C6576656C2064656C65 PUSH8 0x6174652063616C6C KECCAK256 PUSH7 0x61696C6564A264 PUSH10 0x70667358221220B4D32A DUP10 0x28 PUSH12 0xD10AF17E318696F9E0887F8 JUMPDEST 0xDE JUMPI 0xD5 DIFFICULTY ORIGIN PUSH1 0x1E BYTE SWAP11 PUSH18 0xA2706A64736F6C6343000811003300000000 "},"methodIdentifiers":{"addAssetLiquidity(uint8,uint256)":"9410cf56","addHbarLiquidity()":"114120e6","btcToken()":"074bc101","btcUsdPriceId()":"b2a84502","calculateSwapOutput(uint8,uint8,uint256)":"6f927710","ethToken()":"7bf1a627","ethUsdPriceId()":"6a18ec49","getAllPriceIds()":"74ffa693","getAllReserves()":"6aa701bf","getAssetPrice(uint8)":"820fd7db","getAssetPriceUnsafe(uint8)":"a8e63671","getReserve(uint8)":"e5fca396","getSwapParameters()":"7ec76708","getTokenAddresses()":"ee8c24b8","hbarUsdPriceId()":"4a9138c6","initialize(address,bytes32,bytes32,bytes32,bytes32,address,address,address)":"4c52f156","maxPriceAge()":"1584410a","owner()":"8da5cb5b","proxiableUUID()":"52d1902d","pyth()":"f98d06f0","removeLiquidity(uint8,uint256)":"3950a311","renounceOwnership()":"715018a6","reserves(uint8)":"b41275ed","slippageTolerance()":"d03153aa","solToken()":"f241524e","solUsdPriceId()":"12526d0c","swapAssetForHbar(uint8,uint256,uint256)":"d36bf645","swapFee()":"54cf2aeb","swapHbarForAsset(uint8)":"f5114e15","transferOwnership(address)":"f2fde38b","updateAndSwapHbarForAsset(bytes[],uint8)":"197e426c","updateMaxPriceAge(uint256)":"b40f43f7","updatePriceFeeds(bytes[])":"ef9e5e28","updatePriceId(uint8,bytes32)":"9ff0e2f3","updateSlippageTolerance(uint256)":"0f9da743","updateSwapFee(uint256)":"bf16f65a","upgradeTo(address)":"3659cfe6","upgradeToAndCall(address,bytes)":"4f1ef286","withdraw()":"3ccfd60b"}},"storageLayout":{"storage":[{"astId":505,"contract":"contracts/HbarPythSwap.sol:HbarPythSwap","label":"_initialized","offset":0,"slot":"0","type":"t_uint8"},{"astId":508,"contract":"contracts/HbarPythSwap.sol:HbarPythSwap","label":"_initializing","offset":1,"slot":"0","type":"t_bool"},{"astId":819,"contract":"contracts/HbarPythSwap.sol:HbarPythSwap","label":"_status","offset":0,"slot":"1","type":"t_uint256"},{"astId":888,"contract":"contracts/HbarPythSwap.sol:HbarPythSwap","label":"__gap","offset":0,"slot":"2","type":"t_array(t_uint256)49_storage"},{"astId":1759,"contract":"contracts/HbarPythSwap.sol:HbarPythSwap","label":"__gap","offset":0,"slot":"51","type":"t_array(t_uint256)50_storage"},{"astId":11,"contract":"contracts/HbarPythSwap.sol:HbarPythSwap","label":"_owner","offset":0,"slot":"101","type":"t_address"},{"astId":131,"contract":"contracts/HbarPythSwap.sol:HbarPythSwap","label":"__gap","offset":0,"slot":"102","type":"t_array(t_uint256)49_storage"},{"astId":487,"contract":"contracts/HbarPythSwap.sol:HbarPythSwap","label":"__gap","offset":0,"slot":"151","type":"t_array(t_uint256)50_storage"},{"astId":803,"contract":"contracts/HbarPythSwap.sol:HbarPythSwap","label":"__gap","offset":0,"slot":"201","type":"t_array(t_uint256)50_storage"},{"astId":2075,"contract":"contracts/HbarPythSwap.sol:HbarPythSwap","label":"pyth","offset":0,"slot":"251","type":"t_contract(IPyth)2007"},{"astId":2077,"contract":"contracts/HbarPythSwap.sol:HbarPythSwap","label":"ethUsdPriceId","offset":0,"slot":"252","type":"t_bytes32"},{"astId":2079,"contract":"contracts/HbarPythSwap.sol:HbarPythSwap","label":"solUsdPriceId","offset":0,"slot":"253","type":"t_bytes32"},{"astId":2081,"contract":"contracts/HbarPythSwap.sol:HbarPythSwap","label":"btcUsdPriceId","offset":0,"slot":"254","type":"t_bytes32"},{"astId":2083,"contract":"contracts/HbarPythSwap.sol:HbarPythSwap","label":"hbarUsdPriceId","offset":0,"slot":"255","type":"t_bytes32"},{"astId":2086,"contract":"contracts/HbarPythSwap.sol:HbarPythSwap","label":"ethToken","offset":0,"slot":"256","type":"t_contract(IERC20Upgradeable)967"},{"astId":2089,"contract":"contracts/HbarPythSwap.sol:HbarPythSwap","label":"solToken","offset":0,"slot":"257","type":"t_contract(IERC20Upgradeable)967"},{"astId":2092,"contract":"contracts/HbarPythSwap.sol:HbarPythSwap","label":"btcToken","offset":0,"slot":"258","type":"t_contract(IERC20Upgradeable)967"},{"astId":2097,"contract":"contracts/HbarPythSwap.sol:HbarPythSwap","label":"reserves","offset":0,"slot":"259","type":"t_mapping(t_enum(Asset)2102,t_uint256)"},{"astId":2104,"contract":"contracts/HbarPythSwap.sol:HbarPythSwap","label":"maxPriceAge","offset":0,"slot":"260","type":"t_uint256"},{"astId":2106,"contract":"contracts/HbarPythSwap.sol:HbarPythSwap","label":"slippageTolerance","offset":0,"slot":"261","type":"t_uint256"},{"astId":2108,"contract":"contracts/HbarPythSwap.sol:HbarPythSwap","label":"swapFee","offset":0,"slot":"262","type":"t_uint256"}],"types":{"t_address":{"encoding":"inplace","label":"address","numberOfBytes":"20"},"t_array(t_uint256)49_storage":{"base":"t_uint256","encoding":"inplace","label":"uint256[49]","numberOfBytes":"1568"},"t_array(t_uint256)50_storage":{"base":"t_uint256","encoding":"inplace","label":"uint256[50]","numberOfBytes":"1600"},"t_bool":{"encoding":"inplace","label":"bool","numberOfBytes":"1"},"t_bytes32":{"encoding":"inplace","label":"bytes32","numberOfBytes":"32"},"t_contract(IERC20Upgradeable)967":{"encoding":"inplace","label":"contract IERC20Upgradeable","numberOfBytes":"20"},"t_contract(IPyth)2007":{"encoding":"inplace","label":"contract IPyth","numberOfBytes":"20"},"t_enum(Asset)2102":{"encoding":"inplace","label":"enum HbarPythSwap.Asset","numberOfBytes":"1"},"t_mapping(t_enum(Asset)2102,t_uint256)":{"encoding":"mapping","key":"t_enum(Asset)2102","label":"mapping(enum HbarPythSwap.Asset => uint256)","numberOfBytes":"32","value":"t_uint256"},"t_uint256":{"encoding":"inplace","label":"uint256","numberOfBytes":"32"},"t_uint8":{"encoding":"inplace","label":"uint8","numberOfBytes":"1"}}}}}}