{"contracts/HbarPythSwap.sol":{"HbarPythSwap":{"abi":[{"inputs":[],"name":"InsufficientBalance","type":"error"},{"inputs":[],"name":"InvalidAmount","type":"error"},{"inputs":[],"name":"InvalidPriceData","type":"error"},{"inputs":[],"name":"PriceDataTooOld","type":"error"},{"inputs":[],"name":"SlippageExceeded","type":"error"},{"inputs":[],"name":"UnsupportedAsset","type":"error"},{"anonymous":false,"inputs":[{"indexed":false,"internalType":"uint8","name":"version","type":"uint8"}],"name":"Initialized","type":"event"},{"anonymous":false,"inputs":[{"indexed":true,"internalType":"address","name":"previousOwner","type":"address"},{"indexed":true,"internalType":"address","name":"newOwner","type":"address"}],"name":"OwnershipTransferred","type":"event"},{"anonymous":false,"inputs":[{"indexed":true,"internalType":"enum HbarPythSwap.Asset","name":"asset","type":"uint8"},{"indexed":false,"internalType":"uint256","name":"price","type":"uint256"},{"indexed":false,"internalType":"uint256","name":"timestamp","type":"uint256"}],"name":"PriceUpdated","type":"event"},{"anonymous":false,"inputs":[{"indexed":true,"internalType":"address","name":"user","type":"address"},{"indexed":true,"internalType":"enum HbarPythSwap.Asset","name":"fromAsset","type":"uint8"},{"indexed":true,"internalType":"enum HbarPythSwap.Asset","name":"toAsset","type":"uint8"},{"indexed":false,"internalType":"uint256","name":"amountIn","type":"uint256"},{"indexed":false,"internalType":"uint256","name":"amountOut","type":"uint256"},{"indexed":false,"internalType":"uint256","name":"price","type":"uint256"},{"indexed":false,"internalType":"uint256","name":"timestamp","type":"uint256"}],"name":"SwapExecuted","type":"event"},{"inputs":[],"name":"btcUsdPriceId","outputs":[{"internalType":"bytes32","name":"","type":"bytes32"}],"stateMutability":"view","type":"function"},{"inputs":[{"internalType":"enum HbarPythSwap.Asset","name":"fromAsset","type":"uint8"},{"internalType":"enum HbarPythSwap.Asset","name":"toAsset","type":"uint8"},{"internalType":"uint256","name":"amountIn","type":"uint256"}],"name":"calculateSwapOutput","outputs":[{"internalType":"uint256","name":"amountOut","type":"uint256"},{"internalType":"uint256","name":"fromPrice","type":"uint256"},{"internalType":"uint256","name":"toPrice","type":"uint256"}],"stateMutability":"view","type":"function"},{"inputs":[],"name":"ethUsdPriceId","outputs":[{"internalType":"bytes32","name":"","type":"bytes32"}],"stateMutability":"view","type":"function"},{"inputs":[],"name":"getAllPriceIds","outputs":[{"internalType":"bytes32","name":"","type":"bytes32"},{"internalType":"bytes32","name":"","type":"bytes32"},{"internalType":"bytes32","name":"","type":"bytes32"},{"internalType":"bytes32","name":"","type":"bytes32"}],"stateMutability":"view","type":"function"},{"inputs":[{"internalType":"enum HbarPythSwap.Asset","name":"asset","type":"uint8"}],"name":"getAssetPrice","outputs":[{"internalType":"uint256","name":"","type":"uint256"},{"internalType":"int32","name":"","type":"int32"}],"stateMutability":"view","type":"function"},{"inputs":[{"internalType":"enum HbarPythSwap.Asset","name":"asset","type":"uint8"}],"name":"getAssetPriceUnsafe","outputs":[{"internalType":"uint256","name":"","type":"uint256"},{"internalType":"int32","name":"","type":"int32"}],"stateMutability":"view","type":"function"},{"inputs":[],"name":"getSwapParameters","outputs":[{"internalType":"uint256","name":"","type":"uint256"},{"internalType":"uint256","name":"","type":"uint256"},{"internalType":"uint256","name":"","type":"uint256"}],"stateMutability":"view","type":"function"},{"inputs":[],"name":"hbarUsdPriceId","outputs":[{"internalType":"bytes32","name":"","type":"bytes32"}],"stateMutability":"view","type":"function"},{"inputs":[{"internalType":"address","name":"_pyth","type":"address"},{"internalType":"bytes32","name":"_ethUsdPriceId","type":"bytes32"},{"internalType":"bytes32","name":"_solUsdPriceId","type":"bytes32"},{"internalType":"bytes32","name":"_btcUsdPriceId","type":"bytes32"},{"internalType":"bytes32","name":"_hbarUsdPriceId","type":"bytes32"}],"name":"initialize","outputs":[],"stateMutability":"nonpayable","type":"function"},{"inputs":[],"name":"maxPriceAge","outputs":[{"internalType":"uint256","name":"","type":"uint256"}],"stateMutability":"view","type":"function"},{"inputs":[],"name":"owner","outputs":[{"internalType":"address","name":"","type":"address"}],"stateMutability":"view","type":"function"},{"inputs":[],"name":"pyth","outputs":[{"internalType":"contract IPyth","name":"","type":"address"}],"stateMutability":"view","type":"function"},{"inputs":[],"name":"renounceOwnership","outputs":[],"stateMutability":"nonpayable","type":"function"},{"inputs":[],"name":"slippageTolerance","outputs":[{"internalType":"uint256","name":"","type":"uint256"}],"stateMutability":"view","type":"function"},{"inputs":[],"name":"solUsdPriceId","outputs":[{"internalType":"bytes32","name":"","type":"bytes32"}],"stateMutability":"view","type":"function"},{"inputs":[{"internalType":"enum HbarPythSwap.Asset","name":"fromAsset","type":"uint8"},{"internalType":"uint256","name":"amountIn","type":"uint256"},{"internalType":"uint256","name":"minHbarOut","type":"uint256"}],"name":"swapAssetForHbar","outputs":[],"stateMutability":"nonpayable","type":"function"},{"inputs":[],"name":"swapFee","outputs":[{"internalType":"uint256","name":"","type":"uint256"}],"stateMutability":"view","type":"function"},{"inputs":[{"internalType":"enum HbarPythSwap.Asset","name":"toAsset","type":"uint8"}],"name":"swapHbarForAsset","outputs":[],"stateMutability":"payable","type":"function"},{"inputs":[{"internalType":"address","name":"newOwner","type":"address"}],"name":"transferOwnership","outputs":[],"stateMutability":"nonpayable","type":"function"},{"inputs":[{"internalType":"bytes[]","name":"priceUpdateData","type":"bytes[]"},{"internalType":"enum HbarPythSwap.Asset","name":"toAsset","type":"uint8"}],"name":"updateAndSwapHbarForAsset","outputs":[],"stateMutability":"payable","type":"function"},{"inputs":[{"internalType":"uint256","name":"_maxPriceAge","type":"uint256"}],"name":"updateMaxPriceAge","outputs":[],"stateMutability":"nonpayable","type":"function"},{"inputs":[{"internalType":"bytes[]","name":"priceUpdateData","type":"bytes[]"}],"name":"updatePriceFeeds","outputs":[],"stateMutability":"payable","type":"function"},{"inputs":[{"internalType":"enum HbarPythSwap.Asset","name":"asset","type":"uint8"},{"internalType":"bytes32","name":"newPriceId","type":"bytes32"}],"name":"updatePriceId","outputs":[],"stateMutability":"nonpayable","type":"function"},{"inputs":[{"internalType":"uint256","name":"_slippageTolerance","type":"uint256"}],"name":"updateSlippageTolerance","outputs":[],"stateMutability":"nonpayable","type":"function"},{"inputs":[{"internalType":"uint256","name":"_swapFee","type":"uint256"}],"name":"updateSwapFee","outputs":[],"stateMutability":"nonpayable","type":"function"},{"inputs":[],"name":"withdraw","outputs":[],"stateMutability":"nonpayable","type":"function"},{"stateMutability":"payable","type":"receive"}],"evm":{"bytecode":{"linkReferences":{},"object":"608060405234801561001057600080fd5b50611ec8806100206000396000f3fe6080604052600436106101a55760003560e01c80638da5cb5b116100e1578063c5ad603d1161008a578063ef9e5e2811610064578063ef9e5e2814610490578063f2fde38b146104a3578063f5114e15146104c3578063f98d06f0146104d657600080fd5b8063c5ad603d1461043a578063d03153aa1461045a578063d36bf6451461047057600080fd5b8063b2a84502116100bb578063b2a84502146103e4578063b40f43f7146103fa578063bf16f65a1461041a57600080fd5b80638da5cb5b146103585780639ff0e2f3146103a4578063a8e63671146103c457600080fd5b806354cf2aeb1161014e578063715018a611610128578063715018a6146102b757806374ffa693146102cc5780637ec7670814610305578063820fd7db1461032057600080fd5b806354cf2aeb146102505780636a18ec49146102665780636f9277101461027c57600080fd5b8063197e426c1161017f578063197e426c146102125780633ccfd60b146102255780634a9138c61461023a57600080fd5b80630f9da743146101b157806312526d0c146101d35780631584410a146101fc57600080fd5b366101ac57005b600080fd5b3480156101bd57600080fd5b506101d16101cc366004611774565b610503565b005b3480156101df57600080fd5b506101e960995481565b6040519081526020015b60405180910390f35b34801561020857600080fd5b506101e9609c5481565b6101d16102203660046117ed565b610510565b34801561023157600080fd5b506101d1610710565b34801561024657600080fd5b506101e9609b5481565b34801561025c57600080fd5b506101e9609e5481565b34801561027257600080fd5b506101e960985481565b34801561028857600080fd5b5061029c610297366004611841565b610761565b604080519384526020840192909252908201526060016101f3565b3480156102c357600080fd5b506101d161082e565b3480156102d857600080fd5b50609854609954609a54609b546040805194855260208501939093529183015260608201526080016101f3565b34801561031157600080fd5b50609c54609d54609e5461029c565b34801561032c57600080fd5b5061034061033b36600461187d565b610842565b6040805192835260039190910b6020830152016101f3565b34801561036457600080fd5b5060655473ffffffffffffffffffffffffffffffffffffffff165b60405173ffffffffffffffffffffffffffffffffffffffff90911681526020016101f3565b3480156103b057600080fd5b506101d16103bf36600461189f565b6109fd565b3480156103d057600080fd5b506103406103df36600461187d565b610ab3565b3480156103f057600080fd5b506101e9609a5481565b34801561040657600080fd5b506101d1610415366004611774565b610b1e565b34801561042657600080fd5b506101d1610435366004611774565b610b2b565b34801561044657600080fd5b506101d16104553660046118ed565b610b38565b34801561046657600080fd5b506101e9609d5481565b34801561047c57600080fd5b506101d161048b36600461192f565b610d40565b6101d161049e366004611962565b610e87565b3480156104af57600080fd5b506101d16104be3660046119a4565b611148565b6101d16104d136600461187d565b6111fc565b3480156104e257600080fd5b5060975461037f9073ffffffffffffffffffffffffffffffffffffffff1681565b61050b611309565b609d55565b61051861138a565b6097546040517fd47eed4500000000000000000000000000000000000000000000000000000000815260009173ffffffffffffffffffffffffffffffffffffffff169063d47eed45906105719087908790600401611a08565b602060405180830381865afa15801561058e573d6000803e3d6000fd5b505050506040513d601f19601f820116820180604052508101906105b29190611adf565b90508034116105ed576040517ff4d678b800000000000000000000000000000000000000000000000000000000815260040160405180910390fd5b6097546040517fef9e5e2800000000000000000000000000000000000000000000000000000000815273ffffffffffffffffffffffffffffffffffffffff9091169063ef9e5e289083906106479088908890600401611a08565b6000604051808303818588803b15801561066057600080fd5b505af1158015610674573d6000803e3d6000fd5b5050505050600081346106879190611b27565b9050600080600061069a60038786610761565b9250925092508560038111156106b2576106b2611b40565b6003604080518781526020810187905290810184905242606082015233907ff28daec9f1864f569f0cf46bdd560d184b5b2447ebcc195bf3f131802d38abb29060800160405180910390a4505050505061070b60018055565b505050565b610718611309565b60655460405173ffffffffffffffffffffffffffffffffffffffff909116904780156108fc02916000818181858888f1935050505015801561075e573d6000803e3d6000fd5b50565b6000806000836000036107a0576040517f2c5211c600000000000000000000000000000000000000000000000000000000815260040160405180910390fd5b6107a986610842565b5091506107b585610842565b5090506000670de0b6b3a76400006107cd8487611b6f565b6107d79190611b86565b9050816107ec82670de0b6b3a7640000611b6f565b6107f69190611b86565b93506000612710609e548661080b9190611b6f565b6108159190611b86565b90506108218186611b27565b9450505093509350939050565b610836611309565b6108406000611403565b565b60008060006108508461147a565b609754609c546040517fa4ae35e000000000000000000000000000000000000000000000000000000000815260048101849052602481019190915291925060009173ffffffffffffffffffffffffffffffffffffffff9091169063a4ae35e0906044015b608060405180830381865afa1580156108d1573d6000803e3d6000fd5b505050506040513d601f19601f820116820180604052508101906108f59190611beb565b90506000816000015160070b13610938576040517ff45e167b00000000000000000000000000000000000000000000000000000000815260040160405180910390fd5b600080826040015160030b1261098757604082015161095890600a611db4565b825161096e919067ffffffffffffffff16611b6f565b61098090670de0b6b3a7640000611b6f565b90506109ec565b60408201516109b6907fffffffffffffffffffffffffffffffffffffffffffffffffffffffffffffffff611dc6565b6109c190600a611db4565b82516109df9067ffffffffffffffff16670de0b6b3a7640000611b6f565b6109e99190611b86565b90505b604090910151909590945092505050565b610a05611309565b6000826003811115610a1957610a19611b40565b03610a245760985550565b6001826003811115610a3857610a38611b40565b03610a435760995550565b6002826003811115610a5757610a57611b40565b03610a6257609a5550565b6003826003811115610a7657610a76611b40565b03610a8157609b5550565b6040517f24a0114400000000000000000000000000000000000000000000000000000000815260040160405180910390fd5b6000806000610ac18461147a565b6097546040517f31d98b3f0000000000000000000000000000000000000000000000000000000081526004810183905291925060009173ffffffffffffffffffffffffffffffffffffffff909116906331d98b3f906024016108b4565b610b26611309565b609c55565b610b33611309565b609e55565b600054610100900460ff1615808015610b585750600054600160ff909116105b80610b725750303b158015610b72575060005460ff166001145b610c03576040517f08c379a000000000000000000000000000000000000000000000000000000000815260206004820152602e60248201527f496e697469616c697a61626c653a20636f6e747261637420697320616c72656160448201527f647920696e697469616c697a656400000000000000000000000000000000000060648201526084015b60405180910390fd5b600080547fffffffffffffffffffffffffffffffffffffffffffffffffffffffffffffff001660011790558015610c6157600080547fffffffffffffffffffffffffffffffffffffffffffffffffffffffffffff00ff166101001790555b610c696114ff565b610c7161159e565b609780547fffffffffffffffffffffffff00000000000000000000000000000000000000001673ffffffffffffffffffffffffffffffffffffffff881617905560988590556099849055609a839055609b829055603c609c5561012c609d55601e609e558015610d3857600080547fffffffffffffffffffffffffffffffffffffffffffffffffffffffffffff00ff169055604051600181527f7f26b83ff96e1f2b6a682f133852f6798a09c465da95921460cefb38474024989060200160405180910390a15b505050505050565b610d4861138a565b81600003610d82576040517f2c5211c600000000000000000000000000000000000000000000000000000000815260040160405180910390fd5b6003836003811115610d9657610d96611b40565b03610dcd576040517f24a0114400000000000000000000000000000000000000000000000000000000815260040160405180910390fd5b6000806000610dde86600387610761565b92509250925083831015610e1e576040517f8199f5f300000000000000000000000000000000000000000000000000000000815260040160405180910390fd5b6003866003811115610e3257610e32611b40565b604080518881526020810187905290810184905242606082015233907ff28daec9f1864f569f0cf46bdd560d184b5b2447ebcc195bf3f131802d38abb29060800160405180910390a450505061070b60018055565b6097546040517fd47eed4500000000000000000000000000000000000000000000000000000000815260009173ffffffffffffffffffffffffffffffffffffffff169063d47eed4590610ee09086908690600401611a08565b602060405180830381865afa158015610efd573d6000803e3d6000fd5b505050506040513d601f19601f82011682018060405250810190610f219190611adf565b905080341015610f5d576040517ff4d678b800000000000000000000000000000000000000000000000000000000815260040160405180910390fd5b6097546040517fef9e5e2800000000000000000000000000000000000000000000000000000000815273ffffffffffffffffffffffffffffffffffffffff9091169063ef9e5e28908390610fb79087908790600401611a08565b6000604051808303818588803b158015610fd057600080fd5b505af1158015610fe4573d6000803e3d6000fd5b505050505060005b600481101561110357600081600381111561100957611009611b40565b6040517fa8e63671000000000000000000000000000000000000000000000000000000008152909150309063a8e6367190611048908490600401611ded565b6040805180830381865afa92505050801561109e575060408051601f3d9081017fffffffffffffffffffffffffffffffffffffffffffffffffffffffffffffffe016820190925261109b91810190611e2e565b60015b156110f0578260038111156110b5576110b5611b40565b604080518481524260208201527f0632454824820b4b1fd6f29fdc288d3b437e7ae937523b584eed6967b39e7595910160405180910390a250505b50806110fb81611e5a565b915050610fec565b508034111561070b57336108fc61111a8334611b27565b6040518115909202916000818181858888f19350505050158015611142573d6000803e3d6000fd5b50505050565b611150611309565b73ffffffffffffffffffffffffffffffffffffffff81166111f3576040517f08c379a000000000000000000000000000000000000000000000000000000000815260206004820152602660248201527f4f776e61626c653a206e6577206f776e657220697320746865207a65726f206160448201527f64647265737300000000000000000000000000000000000000000000000000006064820152608401610bfa565b61075e81611403565b61120461138a565b3460000361123e576040517f2c5211c600000000000000000000000000000000000000000000000000000000815260040160405180910390fd5b600381600381111561125257611252611b40565b03611289576040517f24a0114400000000000000000000000000000000000000000000000000000000815260040160405180910390fd5b600080600061129a60038534610761565b9250925092508360038111156112b2576112b2611b40565b6003604080513481526020810187905290810184905242606082015233907ff28daec9f1864f569f0cf46bdd560d184b5b2447ebcc195bf3f131802d38abb29060800160405180910390a450505061075e60018055565b60655473ffffffffffffffffffffffffffffffffffffffff163314610840576040517f08c379a000000000000000000000000000000000000000000000000000000000815260206004820181905260248201527f4f776e61626c653a2063616c6c6572206973206e6f7420746865206f776e65726044820152606401610bfa565b6002600154036113f6576040517f08c379a000000000000000000000000000000000000000000000000000000000815260206004820152601f60248201527f5265656e7472616e637947756172643a207265656e7472616e742063616c6c006044820152606401610bfa565b6002600155565b60018055565b6065805473ffffffffffffffffffffffffffffffffffffffff8381167fffffffffffffffffffffffff0000000000000000000000000000000000000000831681179093556040519116919082907f8be0079c531659141344cd1fd0a4f28419497f9722a3daafe3b4186f6b6457e090600090a35050565b60008082600381111561148f5761148f611b40565b0361149c57505060985490565b60018260038111156114b0576114b0611b40565b036114bd57505060995490565b60028260038111156114d1576114d1611b40565b036114de575050609a5490565b60038260038111156114f2576114f2611b40565b03610a81575050609b5490565b600054610100900460ff16611596576040517f08c379a000000000000000000000000000000000000000000000000000000000815260206004820152602b60248201527f496e697469616c697a61626c653a20636f6e7472616374206973206e6f74206960448201527f6e697469616c697a696e670000000000000000000000000000000000000000006064820152608401610bfa565b61084061163d565b600054610100900460ff16611635576040517f08c379a000000000000000000000000000000000000000000000000000000000815260206004820152602b60248201527f496e697469616c697a61626c653a20636f6e7472616374206973206e6f74206960448201527f6e697469616c697a696e670000000000000000000000000000000000000000006064820152608401610bfa565b6108406116d4565b600054610100900460ff166113fd576040517f08c379a000000000000000000000000000000000000000000000000000000000815260206004820152602b60248201527f496e697469616c697a61626c653a20636f6e7472616374206973206e6f74206960448201527f6e697469616c697a696e670000000000000000000000000000000000000000006064820152608401610bfa565b600054610100900460ff1661176b576040517f08c379a000000000000000000000000000000000000000000000000000000000815260206004820152602b60248201527f496e697469616c697a61626c653a20636f6e7472616374206973206e6f74206960448201527f6e697469616c697a696e670000000000000000000000000000000000000000006064820152608401610bfa565b61084033611403565b60006020828403121561178657600080fd5b5035919050565b60008083601f84011261179f57600080fd5b50813567ffffffffffffffff8111156117b757600080fd5b6020830191508360208260051b85010111156117d257600080fd5b9250929050565b8035600481106117e857600080fd5b919050565b60008060006040848603121561180257600080fd5b833567ffffffffffffffff81111561181957600080fd5b6118258682870161178d565b90945092506118389050602085016117d9565b90509250925092565b60008060006060848603121561185657600080fd5b61185f846117d9565b925061186d602085016117d9565b9150604084013590509250925092565b60006020828403121561188f57600080fd5b611898826117d9565b9392505050565b600080604083850312156118b257600080fd5b6118bb836117d9565b946020939093013593505050565b803573ffffffffffffffffffffffffffffffffffffffff811681146117e857600080fd5b600080600080600060a0868803121561190557600080fd5b61190e866118c9565b97602087013597506040870135966060810135965060800135945092505050565b60008060006060848603121561194457600080fd5b61194d846117d9565b95602085013595506040909401359392505050565b6000806020838503121561197557600080fd5b823567ffffffffffffffff81111561198c57600080fd5b6119988582860161178d565b90969095509350505050565b6000602082840312156119b657600080fd5b611898826118c9565b8183528181602085013750600060208284010152600060207fffffffffffffffffffffffffffffffffffffffffffffffffffffffffffffffe0601f840116840101905092915050565b60208082528181018390526000906040600585901b8401810190840186845b87811015611ad2577fffffffffffffffffffffffffffffffffffffffffffffffffffffffffffffffc087850301835281357fffffffffffffffffffffffffffffffffffffffffffffffffffffffffffffffe18a3603018112611a8857600080fd5b8901858101903567ffffffffffffffff811115611aa457600080fd5b803603821315611ab357600080fd5b611abe8682846119bf565b955050509184019190840190600101611a27565b5091979650505050505050565b600060208284031215611af157600080fd5b5051919050565b7f4e487b7100000000000000000000000000000000000000000000000000000000600052601160045260246000fd5b81810381811115611b3a57611b3a611af8565b92915050565b7f4e487b7100000000000000000000000000000000000000000000000000000000600052602160045260246000fd5b8082028115828204841417611b3a57611b3a611af8565b600082611bbc577f4e487b7100000000000000000000000000000000000000000000000000000000600052601260045260246000fd5b500490565b805167ffffffffffffffff811681146117e857600080fd5b8051600381900b81146117e857600080fd5b600060808284031215611bfd57600080fd5b6040516080810181811067ffffffffffffffff82111715611c47577f4e487b7100000000000000000000000000000000000000000000000000000000600052604160045260246000fd5b6040528251600781900b8114611c5c57600080fd5b8152611c6a60208401611bc1565b6020820152611c7b60408401611bd9565b6040820152606083015160608201528091505092915050565b600181815b80851115611ced57817fffffffffffffffffffffffffffffffffffffffffffffffffffffffffffffffff04821115611cd357611cd3611af8565b80851615611ce057918102915b93841c9390800290611c99565b509250929050565b600082611d0457506001611b3a565b81611d1157506000611b3a565b8160018114611d275760028114611d3157611d4d565b6001915050611b3a565b60ff841115611d4257611d42611af8565b50506001821b611b3a565b5060208310610133831016604e8410600b8410161715611d70575081810a611b3a565b611d7a8383611c94565b807fffffffffffffffffffffffffffffffffffffffffffffffffffffffffffffffff04821115611dac57611dac611af8565b029392505050565b600061189863ffffffff841683611cf5565b60008260030b8260030b028060030b9150808214611de657611de6611af8565b5092915050565b6020810160048310611e28577f4e487b7100000000000000000000000000000000000000000000000000000000600052602160045260246000fd5b91905290565b60008060408385031215611e4157600080fd5b82519150611e5160208401611bd9565b90509250929050565b60007fffffffffffffffffffffffffffffffffffffffffffffffffffffffffffffffff8203611e8b57611e8b611af8565b506001019056fea2646970667358221220c69289563bcdeeb6ba3077c0057d911de44865cd07e1680ac1b8006c07381ace64736f6c63430008110033","opcodes":"PUSH1 0x80 PUSH1 0x40 MSTORE CALLVALUE DUP1 ISZERO PUSH2 0x10 JUMPI PUSH1 0x0 DUP1 REVERT JUMPDEST POP PUSH2 0x1EC8 DUP1 PUSH2 0x20 PUSH1 0x0 CODECOPY PUSH1 0x0 RETURN INVALID PUSH1 0x80 PUSH1 0x40 MSTORE PUSH1 0x4 CALLDATASIZE LT PUSH2 0x1A5 JUMPI PUSH1 0x0 CALLDATALOAD PUSH1 0xE0 SHR DUP1 PUSH4 0x8DA5CB5B GT PUSH2 0xE1 JUMPI DUP1 PUSH4 0xC5AD603D GT PUSH2 0x8A JUMPI DUP1 PUSH4 0xEF9E5E28 GT PUSH2 0x64 JUMPI DUP1 PUSH4 0xEF9E5E28 EQ PUSH2 0x490 JUMPI DUP1 PUSH4 0xF2FDE38B EQ PUSH2 0x4A3 JUMPI DUP1 PUSH4 0xF5114E15 EQ PUSH2 0x4C3 JUMPI DUP1 PUSH4 0xF98D06F0 EQ PUSH2 0x4D6 JUMPI PUSH1 0x0 DUP1 REVERT JUMPDEST DUP1 PUSH4 0xC5AD603D EQ PUSH2 0x43A JUMPI DUP1 PUSH4 0xD03153AA EQ PUSH2 0x45A JUMPI DUP1 PUSH4 0xD36BF645 EQ PUSH2 0x470 JUMPI PUSH1 0x0 DUP1 REVERT JUMPDEST DUP1 PUSH4 0xB2A84502 GT PUSH2 0xBB JUMPI DUP1 PUSH4 0xB2A84502 EQ PUSH2 0x3E4 JUMPI DUP1 PUSH4 0xB40F43F7 EQ PUSH2 0x3FA JUMPI DUP1 PUSH4 0xBF16F65A EQ PUSH2 0x41A JUMPI PUSH1 0x0 DUP1 REVERT JUMPDEST DUP1 PUSH4 0x8DA5CB5B EQ PUSH2 0x358 JUMPI DUP1 PUSH4 0x9FF0E2F3 EQ PUSH2 0x3A4 JUMPI DUP1 PUSH4 0xA8E63671 EQ PUSH2 0x3C4 JUMPI PUSH1 0x0 DUP1 REVERT JUMPDEST DUP1 PUSH4 0x54CF2AEB GT PUSH2 0x14E JUMPI DUP1 PUSH4 0x715018A6 GT PUSH2 0x128 JUMPI DUP1 PUSH4 0x715018A6 EQ PUSH2 0x2B7 JUMPI DUP1 PUSH4 0x74FFA693 EQ PUSH2 0x2CC JUMPI DUP1 PUSH4 0x7EC76708 EQ PUSH2 0x305 JUMPI DUP1 PUSH4 0x820FD7DB EQ PUSH2 0x320 JUMPI PUSH1 0x0 DUP1 REVERT JUMPDEST DUP1 PUSH4 0x54CF2AEB EQ PUSH2 0x250 JUMPI DUP1 PUSH4 0x6A18EC49 EQ PUSH2 0x266 JUMPI DUP1 PUSH4 0x6F927710 EQ PUSH2 0x27C JUMPI PUSH1 0x0 DUP1 REVERT JUMPDEST DUP1 PUSH4 0x197E426C GT PUSH2 0x17F JUMPI DUP1 PUSH4 0x197E426C EQ PUSH2 0x212 JUMPI DUP1 PUSH4 0x3CCFD60B EQ PUSH2 0x225 JUMPI DUP1 PUSH4 0x4A9138C6 EQ PUSH2 0x23A JUMPI PUSH1 0x0 DUP1 REVERT JUMPDEST DUP1 PUSH4 0xF9DA743 EQ PUSH2 0x1B1 JUMPI DUP1 PUSH4 0x12526D0C EQ PUSH2 0x1D3 JUMPI DUP1 PUSH4 0x1584410A EQ PUSH2 0x1FC JUMPI PUSH1 0x0 DUP1 REVERT JUMPDEST CALLDATASIZE PUSH2 0x1AC JUMPI STOP JUMPDEST PUSH1 0x0 DUP1 REVERT JUMPDEST CALLVALUE DUP1 ISZERO PUSH2 0x1BD JUMPI PUSH1 0x0 DUP1 REVERT JUMPDEST POP PUSH2 0x1D1 PUSH2 0x1CC CALLDATASIZE PUSH1 0x4 PUSH2 0x1774 JUMP JUMPDEST PUSH2 0x503 JUMP JUMPDEST STOP JUMPDEST CALLVALUE DUP1 ISZERO PUSH2 0x1DF JUMPI PUSH1 0x0 DUP1 REVERT JUMPDEST POP PUSH2 0x1E9 PUSH1 0x99 SLOAD DUP2 JUMP JUMPDEST PUSH1 0x40 MLOAD SWAP1 DUP2 MSTORE PUSH1 0x20 ADD JUMPDEST PUSH1 0x40 MLOAD DUP1 SWAP2 SUB SWAP1 RETURN JUMPDEST CALLVALUE DUP1 ISZERO PUSH2 0x208 JUMPI PUSH1 0x0 DUP1 REVERT JUMPDEST POP PUSH2 0x1E9 PUSH1 0x9C SLOAD DUP2 JUMP JUMPDEST PUSH2 0x1D1 PUSH2 0x220 CALLDATASIZE PUSH1 0x4 PUSH2 0x17ED JUMP JUMPDEST PUSH2 0x510 JUMP JUMPDEST CALLVALUE DUP1 ISZERO PUSH2 0x231 JUMPI PUSH1 0x0 DUP1 REVERT JUMPDEST POP PUSH2 0x1D1 PUSH2 0x710 JUMP JUMPDEST CALLVALUE DUP1 ISZERO PUSH2 0x246 JUMPI PUSH1 0x0 DUP1 REVERT JUMPDEST POP PUSH2 0x1E9 PUSH1 0x9B SLOAD DUP2 JUMP JUMPDEST CALLVALUE DUP1 ISZERO PUSH2 0x25C JUMPI PUSH1 0x0 DUP1 REVERT JUMPDEST POP PUSH2 0x1E9 PUSH1 0x9E SLOAD DUP2 JUMP JUMPDEST CALLVALUE DUP1 ISZERO PUSH2 0x272 JUMPI PUSH1 0x0 DUP1 REVERT JUMPDEST POP PUSH2 0x1E9 PUSH1 0x98 SLOAD DUP2 JUMP JUMPDEST CALLVALUE DUP1 ISZERO PUSH2 0x288 JUMPI PUSH1 0x0 DUP1 REVERT JUMPDEST POP PUSH2 0x29C PUSH2 0x297 CALLDATASIZE PUSH1 0x4 PUSH2 0x1841 JUMP JUMPDEST PUSH2 0x761 JUMP JUMPDEST PUSH1 0x40 DUP1 MLOAD SWAP4 DUP5 MSTORE PUSH1 0x20 DUP5 ADD SWAP3 SWAP1 SWAP3 MSTORE SWAP1 DUP3 ADD MSTORE PUSH1 0x60 ADD PUSH2 0x1F3 JUMP JUMPDEST CALLVALUE DUP1 ISZERO PUSH2 0x2C3 JUMPI PUSH1 0x0 DUP1 REVERT JUMPDEST POP PUSH2 0x1D1 PUSH2 0x82E JUMP JUMPDEST CALLVALUE DUP1 ISZERO PUSH2 0x2D8 JUMPI PUSH1 0x0 DUP1 REVERT JUMPDEST POP PUSH1 0x98 SLOAD PUSH1 0x99 SLOAD PUSH1 0x9A SLOAD PUSH1 0x9B SLOAD PUSH1 0x40 DUP1 MLOAD SWAP5 DUP6 MSTORE PUSH1 0x20 DUP6 ADD SWAP4 SWAP1 SWAP4 MSTORE SWAP2 DUP4 ADD MSTORE PUSH1 0x60 DUP3 ADD MSTORE PUSH1 0x80 ADD PUSH2 0x1F3 JUMP JUMPDEST CALLVALUE DUP1 ISZERO PUSH2 0x311 JUMPI PUSH1 0x0 DUP1 REVERT JUMPDEST POP PUSH1 0x9C SLOAD PUSH1 0x9D SLOAD PUSH1 0x9E SLOAD PUSH2 0x29C JUMP JUMPDEST CALLVALUE DUP1 ISZERO PUSH2 0x32C JUMPI PUSH1 0x0 DUP1 REVERT JUMPDEST POP PUSH2 0x340 PUSH2 0x33B CALLDATASIZE PUSH1 0x4 PUSH2 0x187D JUMP JUMPDEST PUSH2 0x842 JUMP JUMPDEST PUSH1 0x40 DUP1 MLOAD SWAP3 DUP4 MSTORE PUSH1 0x3 SWAP2 SWAP1 SWAP2 SIGNEXTEND PUSH1 0x20 DUP4 ADD MSTORE ADD PUSH2 0x1F3 JUMP JUMPDEST CALLVALUE DUP1 ISZERO PUSH2 0x364 JUMPI PUSH1 0x0 DUP1 REVERT JUMPDEST POP PUSH1 0x65 SLOAD PUSH20 0xFFFFFFFFFFFFFFFFFFFFFFFFFFFFFFFFFFFFFFFF AND JUMPDEST PUSH1 0x40 MLOAD PUSH20 0xFFFFFFFFFFFFFFFFFFFFFFFFFFFFFFFFFFFFFFFF SWAP1 SWAP2 AND DUP2 MSTORE PUSH1 0x20 ADD PUSH2 0x1F3 JUMP JUMPDEST CALLVALUE DUP1 ISZERO PUSH2 0x3B0 JUMPI PUSH1 0x0 DUP1 REVERT JUMPDEST POP PUSH2 0x1D1 PUSH2 0x3BF CALLDATASIZE PUSH1 0x4 PUSH2 0x189F JUMP JUMPDEST PUSH2 0x9FD JUMP JUMPDEST CALLVALUE DUP1 ISZERO PUSH2 0x3D0 JUMPI PUSH1 0x0 DUP1 REVERT JUMPDEST POP PUSH2 0x340 PUSH2 0x3DF CALLDATASIZE PUSH1 0x4 PUSH2 0x187D JUMP JUMPDEST PUSH2 0xAB3 JUMP JUMPDEST CALLVALUE DUP1 ISZERO PUSH2 0x3F0 JUMPI PUSH1 0x0 DUP1 REVERT JUMPDEST POP PUSH2 0x1E9 PUSH1 0x9A SLOAD DUP2 JUMP JUMPDEST CALLVALUE DUP1 ISZERO PUSH2 0x406 JUMPI PUSH1 0x0 DUP1 REVERT JUMPDEST POP PUSH2 0x1D1 PUSH2 0x415 CALLDATASIZE PUSH1 0x4 PUSH2 0x1774 JUMP JUMPDEST PUSH2 0xB1E JUMP JUMPDEST CALLVALUE DUP1 ISZERO PUSH2 0x426 JUMPI PUSH1 0x0 DUP1 REVERT JUMPDEST POP PUSH2 0x1D1 PUSH2 0x435 CALLDATASIZE PUSH1 0x4 PUSH2 0x1774 JUMP JUMPDEST PUSH2 0xB2B JUMP JUMPDEST CALLVALUE DUP1 ISZERO PUSH2 0x446 JUMPI PUSH1 0x0 DUP1 REVERT JUMPDEST POP PUSH2 0x1D1 PUSH2 0x455 CALLDATASIZE PUSH1 0x4 PUSH2 0x18ED JUMP JUMPDEST PUSH2 0xB38 JUMP JUMPDEST CALLVALUE DUP1 ISZERO PUSH2 0x466 JUMPI PUSH1 0x0 DUP1 REVERT JUMPDEST POP PUSH2 0x1E9 PUSH1 0x9D SLOAD DUP2 JUMP JUMPDEST CALLVALUE DUP1 ISZERO PUSH2 0x47C JUMPI PUSH1 0x0 DUP1 REVERT JUMPDEST POP PUSH2 0x1D1 PUSH2 0x48B CALLDATASIZE PUSH1 0x4 PUSH2 0x192F JUMP JUMPDEST PUSH2 0xD40 JUMP JUMPDEST PUSH2 0x1D1 PUSH2 0x49E CALLDATASIZE PUSH1 0x4 PUSH2 0x1962 JUMP JUMPDEST PUSH2 0xE87 JUMP JUMPDEST CALLVALUE DUP1 ISZERO PUSH2 0x4AF JUMPI PUSH1 0x0 DUP1 REVERT JUMPDEST POP PUSH2 0x1D1 PUSH2 0x4BE CALLDATASIZE PUSH1 0x4 PUSH2 0x19A4 JUMP JUMPDEST PUSH2 0x1148 JUMP JUMPDEST PUSH2 0x1D1 PUSH2 0x4D1 CALLDATASIZE PUSH1 0x4 PUSH2 0x187D JUMP JUMPDEST PUSH2 0x11FC JUMP JUMPDEST CALLVALUE DUP1 ISZERO PUSH2 0x4E2 JUMPI PUSH1 0x0 DUP1 REVERT JUMPDEST POP PUSH1 0x97 SLOAD PUSH2 0x37F SWAP1 PUSH20 0xFFFFFFFFFFFFFFFFFFFFFFFFFFFFFFFFFFFFFFFF AND DUP2 JUMP JUMPDEST PUSH2 0x50B PUSH2 0x1309 JUMP JUMPDEST PUSH1 0x9D SSTORE JUMP JUMPDEST PUSH2 0x518 PUSH2 0x138A JUMP JUMPDEST PUSH1 0x97 SLOAD PUSH1 0x40 MLOAD PUSH32 0xD47EED4500000000000000000000000000000000000000000000000000000000 DUP2 MSTORE PUSH1 0x0 SWAP2 PUSH20 0xFFFFFFFFFFFFFFFFFFFFFFFFFFFFFFFFFFFFFFFF AND SWAP1 PUSH4 0xD47EED45 SWAP1 PUSH2 0x571 SWAP1 DUP8 SWAP1 DUP8 SWAP1 PUSH1 0x4 ADD PUSH2 0x1A08 JUMP JUMPDEST PUSH1 0x20 PUSH1 0x40 MLOAD DUP1 DUP4 SUB DUP2 DUP7 GAS STATICCALL ISZERO DUP1 ISZERO PUSH2 0x58E JUMPI RETURNDATASIZE PUSH1 0x0 DUP1 RETURNDATACOPY RETURNDATASIZE PUSH1 0x0 REVERT JUMPDEST POP POP POP POP PUSH1 0x40 MLOAD RETURNDATASIZE PUSH1 0x1F NOT PUSH1 0x1F DUP3 ADD AND DUP3 ADD DUP1 PUSH1 0x40 MSTORE POP DUP2 ADD SWAP1 PUSH2 0x5B2 SWAP2 SWAP1 PUSH2 0x1ADF JUMP JUMPDEST SWAP1 POP DUP1 CALLVALUE GT PUSH2 0x5ED JUMPI PUSH1 0x40 MLOAD PUSH32 0xF4D678B800000000000000000000000000000000000000000000000000000000 DUP2 MSTORE PUSH1 0x4 ADD PUSH1 0x40 MLOAD DUP1 SWAP2 SUB SWAP1 REVERT JUMPDEST PUSH1 0x97 SLOAD PUSH1 0x40 MLOAD PUSH32 0xEF9E5E2800000000000000000000000000000000000000000000000000000000 DUP2 MSTORE PUSH20 0xFFFFFFFFFFFFFFFFFFFFFFFFFFFFFFFFFFFFFFFF SWAP1 SWAP2 AND SWAP1 PUSH4 0xEF9E5E28 SWAP1 DUP4 SWAP1 PUSH2 0x647 SWAP1 DUP9 SWAP1 DUP9 SWAP1 PUSH1 0x4 ADD PUSH2 0x1A08 JUMP JUMPDEST PUSH1 0x0 PUSH1 0x40 MLOAD DUP1 DUP4 SUB DUP2 DUP6 DUP9 DUP1 EXTCODESIZE ISZERO DUP1 ISZERO PUSH2 0x660 JUMPI PUSH1 0x0 DUP1 REVERT JUMPDEST POP GAS CALL ISZERO DUP1 ISZERO PUSH2 0x674 JUMPI RETURNDATASIZE PUSH1 0x0 DUP1 RETURNDATACOPY RETURNDATASIZE PUSH1 0x0 REVERT JUMPDEST POP POP POP POP POP PUSH1 0x0 DUP2 CALLVALUE PUSH2 0x687 SWAP2 SWAP1 PUSH2 0x1B27 JUMP JUMPDEST SWAP1 POP PUSH1 0x0 DUP1 PUSH1 0x0 PUSH2 0x69A PUSH1 0x3 DUP8 DUP7 PUSH2 0x761 JUMP JUMPDEST SWAP3 POP SWAP3 POP SWAP3 POP DUP6 PUSH1 0x3 DUP2 GT ISZERO PUSH2 0x6B2 JUMPI PUSH2 0x6B2 PUSH2 0x1B40 JUMP JUMPDEST PUSH1 0x3 PUSH1 0x40 DUP1 MLOAD DUP8 DUP2 MSTORE PUSH1 0x20 DUP2 ADD DUP8 SWAP1 MSTORE SWAP1 DUP2 ADD DUP5 SWAP1 MSTORE TIMESTAMP PUSH1 0x60 DUP3 ADD MSTORE CALLER SWAP1 PUSH32 0xF28DAEC9F1864F569F0CF46BDD560D184B5B2447EBCC195BF3F131802D38ABB2 SWAP1 PUSH1 0x80 ADD PUSH1 0x40 MLOAD DUP1 SWAP2 SUB SWAP1 LOG4 POP POP POP POP POP PUSH2 0x70B PUSH1 0x1 DUP1 SSTORE JUMP JUMPDEST POP POP POP JUMP JUMPDEST PUSH2 0x718 PUSH2 0x1309 JUMP JUMPDEST PUSH1 0x65 SLOAD PUSH1 0x40 MLOAD PUSH20 0xFFFFFFFFFFFFFFFFFFFFFFFFFFFFFFFFFFFFFFFF SWAP1 SWAP2 AND SWAP1 SELFBALANCE DUP1 ISZERO PUSH2 0x8FC MUL SWAP2 PUSH1 0x0 DUP2 DUP2 DUP2 DUP6 DUP9 DUP9 CALL SWAP4 POP POP POP POP ISZERO DUP1 ISZERO PUSH2 0x75E JUMPI RETURNDATASIZE PUSH1 0x0 DUP1 RETURNDATACOPY RETURNDATASIZE PUSH1 0x0 REVERT JUMPDEST POP JUMP JUMPDEST PUSH1 0x0 DUP1 PUSH1 0x0 DUP4 PUSH1 0x0 SUB PUSH2 0x7A0 JUMPI PUSH1 0x40 MLOAD PUSH32 0x2C5211C600000000000000000000000000000000000000000000000000000000 DUP2 MSTORE PUSH1 0x4 ADD PUSH1 0x40 MLOAD DUP1 SWAP2 SUB SWAP1 REVERT JUMPDEST PUSH2 0x7A9 DUP7 PUSH2 0x842 JUMP JUMPDEST POP SWAP2 POP PUSH2 0x7B5 DUP6 PUSH2 0x842 JUMP JUMPDEST POP SWAP1 POP PUSH1 0x0 PUSH8 0xDE0B6B3A7640000 PUSH2 0x7CD DUP5 DUP8 PUSH2 0x1B6F JUMP JUMPDEST PUSH2 0x7D7 SWAP2 SWAP1 PUSH2 0x1B86 JUMP JUMPDEST SWAP1 POP DUP2 PUSH2 0x7EC DUP3 PUSH8 0xDE0B6B3A7640000 PUSH2 0x1B6F JUMP JUMPDEST PUSH2 0x7F6 SWAP2 SWAP1 PUSH2 0x1B86 JUMP JUMPDEST SWAP4 POP PUSH1 0x0 PUSH2 0x2710 PUSH1 0x9E SLOAD DUP7 PUSH2 0x80B SWAP2 SWAP1 PUSH2 0x1B6F JUMP JUMPDEST PUSH2 0x815 SWAP2 SWAP1 PUSH2 0x1B86 JUMP JUMPDEST SWAP1 POP PUSH2 0x821 DUP2 DUP7 PUSH2 0x1B27 JUMP JUMPDEST SWAP5 POP POP POP SWAP4 POP SWAP4 POP SWAP4 SWAP1 POP JUMP JUMPDEST PUSH2 0x836 PUSH2 0x1309 JUMP JUMPDEST PUSH2 0x840 PUSH1 0x0 PUSH2 0x1403 JUMP JUMPDEST JUMP JUMPDEST PUSH1 0x0 DUP1 PUSH1 0x0 PUSH2 0x850 DUP5 PUSH2 0x147A JUMP JUMPDEST PUSH1 0x97 SLOAD PUSH1 0x9C SLOAD PUSH1 0x40 MLOAD PUSH32 0xA4AE35E000000000000000000000000000000000000000000000000000000000 DUP2 MSTORE PUSH1 0x4 DUP2 ADD DUP5 SWAP1 MSTORE PUSH1 0x24 DUP2 ADD SWAP2 SWAP1 SWAP2 MSTORE SWAP2 SWAP3 POP PUSH1 0x0 SWAP2 PUSH20 0xFFFFFFFFFFFFFFFFFFFFFFFFFFFFFFFFFFFFFFFF SWAP1 SWAP2 AND SWAP1 PUSH4 0xA4AE35E0 SWAP1 PUSH1 0x44 ADD JUMPDEST PUSH1 0x80 PUSH1 0x40 MLOAD DUP1 DUP4 SUB DUP2 DUP7 GAS STATICCALL ISZERO DUP1 ISZERO PUSH2 0x8D1 JUMPI RETURNDATASIZE PUSH1 0x0 DUP1 RETURNDATACOPY RETURNDATASIZE PUSH1 0x0 REVERT JUMPDEST POP POP POP POP PUSH1 0x40 MLOAD RETURNDATASIZE PUSH1 0x1F NOT PUSH1 0x1F DUP3 ADD AND DUP3 ADD DUP1 PUSH1 0x40 MSTORE POP DUP2 ADD SWAP1 PUSH2 0x8F5 SWAP2 SWAP1 PUSH2 0x1BEB JUMP JUMPDEST SWAP1 POP PUSH1 0x0 DUP2 PUSH1 0x0 ADD MLOAD PUSH1 0x7 SIGNEXTEND SGT PUSH2 0x938 JUMPI PUSH1 0x40 MLOAD PUSH32 0xF45E167B00000000000000000000000000000000000000000000000000000000 DUP2 MSTORE PUSH1 0x4 ADD PUSH1 0x40 MLOAD DUP1 SWAP2 SUB SWAP1 REVERT JUMPDEST PUSH1 0x0 DUP1 DUP3 PUSH1 0x40 ADD MLOAD PUSH1 0x3 SIGNEXTEND SLT PUSH2 0x987 JUMPI PUSH1 0x40 DUP3 ADD MLOAD PUSH2 0x958 SWAP1 PUSH1 0xA PUSH2 0x1DB4 JUMP JUMPDEST DUP3 MLOAD PUSH2 0x96E SWAP2 SWAP1 PUSH8 0xFFFFFFFFFFFFFFFF AND PUSH2 0x1B6F JUMP JUMPDEST PUSH2 0x980 SWAP1 PUSH8 0xDE0B6B3A7640000 PUSH2 0x1B6F JUMP JUMPDEST SWAP1 POP PUSH2 0x9EC JUMP JUMPDEST PUSH1 0x40 DUP3 ADD MLOAD PUSH2 0x9B6 SWAP1 PUSH32 0xFFFFFFFFFFFFFFFFFFFFFFFFFFFFFFFFFFFFFFFFFFFFFFFFFFFFFFFFFFFFFFFF PUSH2 0x1DC6 JUMP JUMPDEST PUSH2 0x9C1 SWAP1 PUSH1 0xA PUSH2 0x1DB4 JUMP JUMPDEST DUP3 MLOAD PUSH2 0x9DF SWAP1 PUSH8 0xFFFFFFFFFFFFFFFF AND PUSH8 0xDE0B6B3A7640000 PUSH2 0x1B6F JUMP JUMPDEST PUSH2 0x9E9 SWAP2 SWAP1 PUSH2 0x1B86 JUMP JUMPDEST SWAP1 POP JUMPDEST PUSH1 0x40 SWAP1 SWAP2 ADD MLOAD SWAP1 SWAP6 SWAP1 SWAP5 POP SWAP3 POP POP POP JUMP JUMPDEST PUSH2 0xA05 PUSH2 0x1309 JUMP JUMPDEST PUSH1 0x0 DUP3 PUSH1 0x3 DUP2 GT ISZERO PUSH2 0xA19 JUMPI PUSH2 0xA19 PUSH2 0x1B40 JUMP JUMPDEST SUB PUSH2 0xA24 JUMPI PUSH1 0x98 SSTORE POP JUMP JUMPDEST PUSH1 0x1 DUP3 PUSH1 0x3 DUP2 GT ISZERO PUSH2 0xA38 JUMPI PUSH2 0xA38 PUSH2 0x1B40 JUMP JUMPDEST SUB PUSH2 0xA43 JUMPI PUSH1 0x99 SSTORE POP JUMP JUMPDEST PUSH1 0x2 DUP3 PUSH1 0x3 DUP2 GT ISZERO PUSH2 0xA57 JUMPI PUSH2 0xA57 PUSH2 0x1B40 JUMP JUMPDEST SUB PUSH2 0xA62 JUMPI PUSH1 0x9A SSTORE POP JUMP JUMPDEST PUSH1 0x3 DUP3 PUSH1 0x3 DUP2 GT ISZERO PUSH2 0xA76 JUMPI PUSH2 0xA76 PUSH2 0x1B40 JUMP JUMPDEST SUB PUSH2 0xA81 JUMPI PUSH1 0x9B SSTORE POP JUMP JUMPDEST PUSH1 0x40 MLOAD PUSH32 0x24A0114400000000000000000000000000000000000000000000000000000000 DUP2 MSTORE PUSH1 0x4 ADD PUSH1 0x40 MLOAD DUP1 SWAP2 SUB SWAP1 REVERT JUMPDEST PUSH1 0x0 DUP1 PUSH1 0x0 PUSH2 0xAC1 DUP5 PUSH2 0x147A JUMP JUMPDEST PUSH1 0x97 SLOAD PUSH1 0x40 MLOAD PUSH32 0x31D98B3F00000000000000000000000000000000000000000000000000000000 DUP2 MSTORE PUSH1 0x4 DUP2 ADD DUP4 SWAP1 MSTORE SWAP2 SWAP3 POP PUSH1 0x0 SWAP2 PUSH20 0xFFFFFFFFFFFFFFFFFFFFFFFFFFFFFFFFFFFFFFFF SWAP1 SWAP2 AND SWAP1 PUSH4 0x31D98B3F SWAP1 PUSH1 0x24 ADD PUSH2 0x8B4 JUMP JUMPDEST PUSH2 0xB26 PUSH2 0x1309 JUMP JUMPDEST PUSH1 0x9C SSTORE JUMP JUMPDEST PUSH2 0xB33 PUSH2 0x1309 JUMP JUMPDEST PUSH1 0x9E SSTORE JUMP JUMPDEST PUSH1 0x0 SLOAD PUSH2 0x100 SWAP1 DIV PUSH1 0xFF AND ISZERO DUP1 DUP1 ISZERO PUSH2 0xB58 JUMPI POP PUSH1 0x0 SLOAD PUSH1 0x1 PUSH1 0xFF SWAP1 SWAP2 AND LT JUMPDEST DUP1 PUSH2 0xB72 JUMPI POP ADDRESS EXTCODESIZE ISZERO DUP1 ISZERO PUSH2 0xB72 JUMPI POP PUSH1 0x0 SLOAD PUSH1 0xFF AND PUSH1 0x1 EQ JUMPDEST PUSH2 0xC03 JUMPI PUSH1 0x40 MLOAD PUSH32 0x8C379A000000000000000000000000000000000000000000000000000000000 DUP2 MSTORE PUSH1 0x20 PUSH1 0x4 DUP3 ADD MSTORE PUSH1 0x2E PUSH1 0x24 DUP3 ADD MSTORE PUSH32 0x496E697469616C697A61626C653A20636F6E747261637420697320616C726561 PUSH1 0x44 DUP3 ADD MSTORE PUSH32 0x647920696E697469616C697A6564000000000000000000000000000000000000 PUSH1 0x64 DUP3 ADD MSTORE PUSH1 0x84 ADD JUMPDEST PUSH1 0x40 MLOAD DUP1 SWAP2 SUB SWAP1 REVERT JUMPDEST PUSH1 0x0 DUP1 SLOAD PUSH32 0xFFFFFFFFFFFFFFFFFFFFFFFFFFFFFFFFFFFFFFFFFFFFFFFFFFFFFFFFFFFFFF00 AND PUSH1 0x1 OR SWAP1 SSTORE DUP1 ISZERO PUSH2 0xC61 JUMPI PUSH1 0x0 DUP1 SLOAD PUSH32 0xFFFFFFFFFFFFFFFFFFFFFFFFFFFFFFFFFFFFFFFFFFFFFFFFFFFFFFFFFFFF00FF AND PUSH2 0x100 OR SWAP1 SSTORE JUMPDEST PUSH2 0xC69 PUSH2 0x14FF JUMP JUMPDEST PUSH2 0xC71 PUSH2 0x159E JUMP JUMPDEST PUSH1 0x97 DUP1 SLOAD PUSH32 0xFFFFFFFFFFFFFFFFFFFFFFFF0000000000000000000000000000000000000000 AND PUSH20 0xFFFFFFFFFFFFFFFFFFFFFFFFFFFFFFFFFFFFFFFF DUP9 AND OR SWAP1 SSTORE PUSH1 0x98 DUP6 SWAP1 SSTORE PUSH1 0x99 DUP5 SWAP1 SSTORE PUSH1 0x9A DUP4 SWAP1 SSTORE PUSH1 0x9B DUP3 SWAP1 SSTORE PUSH1 0x3C PUSH1 0x9C SSTORE PUSH2 0x12C PUSH1 0x9D SSTORE PUSH1 0x1E PUSH1 0x9E SSTORE DUP1 ISZERO PUSH2 0xD38 JUMPI PUSH1 0x0 DUP1 SLOAD PUSH32 0xFFFFFFFFFFFFFFFFFFFFFFFFFFFFFFFFFFFFFFFFFFFFFFFFFFFFFFFFFFFF00FF AND SWAP1 SSTORE PUSH1 0x40 MLOAD PUSH1 0x1 DUP2 MSTORE PUSH32 0x7F26B83FF96E1F2B6A682F133852F6798A09C465DA95921460CEFB3847402498 SWAP1 PUSH1 0x20 ADD PUSH1 0x40 MLOAD DUP1 SWAP2 SUB SWAP1 LOG1 JUMPDEST POP POP POP POP POP POP JUMP JUMPDEST PUSH2 0xD48 PUSH2 0x138A JUMP JUMPDEST DUP2 PUSH1 0x0 SUB PUSH2 0xD82 JUMPI PUSH1 0x40 MLOAD PUSH32 0x2C5211C600000000000000000000000000000000000000000000000000000000 DUP2 MSTORE PUSH1 0x4 ADD PUSH1 0x40 MLOAD DUP1 SWAP2 SUB SWAP1 REVERT JUMPDEST PUSH1 0x3 DUP4 PUSH1 0x3 DUP2 GT ISZERO PUSH2 0xD96 JUMPI PUSH2 0xD96 PUSH2 0x1B40 JUMP JUMPDEST SUB PUSH2 0xDCD JUMPI PUSH1 0x40 MLOAD PUSH32 0x24A0114400000000000000000000000000000000000000000000000000000000 DUP2 MSTORE PUSH1 0x4 ADD PUSH1 0x40 MLOAD DUP1 SWAP2 SUB SWAP1 REVERT JUMPDEST PUSH1 0x0 DUP1 PUSH1 0x0 PUSH2 0xDDE DUP7 PUSH1 0x3 DUP8 PUSH2 0x761 JUMP JUMPDEST SWAP3 POP SWAP3 POP SWAP3 POP DUP4 DUP4 LT ISZERO PUSH2 0xE1E JUMPI PUSH1 0x40 MLOAD PUSH32 0x8199F5F300000000000000000000000000000000000000000000000000000000 DUP2 MSTORE PUSH1 0x4 ADD PUSH1 0x40 MLOAD DUP1 SWAP2 SUB SWAP1 REVERT JUMPDEST PUSH1 0x3 DUP7 PUSH1 0x3 DUP2 GT ISZERO PUSH2 0xE32 JUMPI PUSH2 0xE32 PUSH2 0x1B40 JUMP JUMPDEST PUSH1 0x40 DUP1 MLOAD DUP9 DUP2 MSTORE PUSH1 0x20 DUP2 ADD DUP8 SWAP1 MSTORE SWAP1 DUP2 ADD DUP5 SWAP1 MSTORE TIMESTAMP PUSH1 0x60 DUP3 ADD MSTORE CALLER SWAP1 PUSH32 0xF28DAEC9F1864F569F0CF46BDD560D184B5B2447EBCC195BF3F131802D38ABB2 SWAP1 PUSH1 0x80 ADD PUSH1 0x40 MLOAD DUP1 SWAP2 SUB SWAP1 LOG4 POP POP POP PUSH2 0x70B PUSH1 0x1 DUP1 SSTORE JUMP JUMPDEST PUSH1 0x97 SLOAD PUSH1 0x40 MLOAD PUSH32 0xD47EED4500000000000000000000000000000000000000000000000000000000 DUP2 MSTORE PUSH1 0x0 SWAP2 PUSH20 0xFFFFFFFFFFFFFFFFFFFFFFFFFFFFFFFFFFFFFFFF AND SWAP1 PUSH4 0xD47EED45 SWAP1 PUSH2 0xEE0 SWAP1 DUP7 SWAP1 DUP7 SWAP1 PUSH1 0x4 ADD PUSH2 0x1A08 JUMP JUMPDEST PUSH1 0x20 PUSH1 0x40 MLOAD DUP1 DUP4 SUB DUP2 DUP7 GAS STATICCALL ISZERO DUP1 ISZERO PUSH2 0xEFD JUMPI RETURNDATASIZE PUSH1 0x0 DUP1 RETURNDATACOPY RETURNDATASIZE PUSH1 0x0 REVERT JUMPDEST POP POP POP POP PUSH1 0x40 MLOAD RETURNDATASIZE PUSH1 0x1F NOT PUSH1 0x1F DUP3 ADD AND DUP3 ADD DUP1 PUSH1 0x40 MSTORE POP DUP2 ADD SWAP1 PUSH2 0xF21 SWAP2 SWAP1 PUSH2 0x1ADF JUMP JUMPDEST SWAP1 POP DUP1 CALLVALUE LT ISZERO PUSH2 0xF5D JUMPI PUSH1 0x40 MLOAD PUSH32 0xF4D678B800000000000000000000000000000000000000000000000000000000 DUP2 MSTORE PUSH1 0x4 ADD PUSH1 0x40 MLOAD DUP1 SWAP2 SUB SWAP1 REVERT JUMPDEST PUSH1 0x97 SLOAD PUSH1 0x40 MLOAD PUSH32 0xEF9E5E2800000000000000000000000000000000000000000000000000000000 DUP2 MSTORE PUSH20 0xFFFFFFFFFFFFFFFFFFFFFFFFFFFFFFFFFFFFFFFF SWAP1 SWAP2 AND SWAP1 PUSH4 0xEF9E5E28 SWAP1 DUP4 SWAP1 PUSH2 0xFB7 SWAP1 DUP8 SWAP1 DUP8 SWAP1 PUSH1 0x4 ADD PUSH2 0x1A08 JUMP JUMPDEST PUSH1 0x0 PUSH1 0x40 MLOAD DUP1 DUP4 SUB DUP2 DUP6 DUP9 DUP1 EXTCODESIZE ISZERO DUP1 ISZERO PUSH2 0xFD0 JUMPI PUSH1 0x0 DUP1 REVERT JUMPDEST POP GAS CALL ISZERO DUP1 ISZERO PUSH2 0xFE4 JUMPI RETURNDATASIZE PUSH1 0x0 DUP1 RETURNDATACOPY RETURNDATASIZE PUSH1 0x0 REVERT JUMPDEST POP POP POP POP POP PUSH1 0x0 JUMPDEST PUSH1 0x4 DUP2 LT ISZERO PUSH2 0x1103 JUMPI PUSH1 0x0 DUP2 PUSH1 0x3 DUP2 GT ISZERO PUSH2 0x1009 JUMPI PUSH2 0x1009 PUSH2 0x1B40 JUMP JUMPDEST PUSH1 0x40 MLOAD PUSH32 0xA8E6367100000000000000000000000000000000000000000000000000000000 DUP2 MSTORE SWAP1 SWAP2 POP ADDRESS SWAP1 PUSH4 0xA8E63671 SWAP1 PUSH2 0x1048 SWAP1 DUP5 SWAP1 PUSH1 0x4 ADD PUSH2 0x1DED JUMP JUMPDEST PUSH1 0x40 DUP1 MLOAD DUP1 DUP4 SUB DUP2 DUP7 GAS STATICCALL SWAP3 POP POP POP DUP1 ISZERO PUSH2 0x109E JUMPI POP PUSH1 0x40 DUP1 MLOAD PUSH1 0x1F RETURNDATASIZE SWAP1 DUP2 ADD PUSH32 0xFFFFFFFFFFFFFFFFFFFFFFFFFFFFFFFFFFFFFFFFFFFFFFFFFFFFFFFFFFFFFFE0 AND DUP3 ADD SWAP1 SWAP3 MSTORE PUSH2 0x109B SWAP2 DUP2 ADD SWAP1 PUSH2 0x1E2E JUMP JUMPDEST PUSH1 0x1 JUMPDEST ISZERO PUSH2 0x10F0 JUMPI DUP3 PUSH1 0x3 DUP2 GT ISZERO PUSH2 0x10B5 JUMPI PUSH2 0x10B5 PUSH2 0x1B40 JUMP JUMPDEST PUSH1 0x40 DUP1 MLOAD DUP5 DUP2 MSTORE TIMESTAMP PUSH1 0x20 DUP3 ADD MSTORE PUSH32 0x632454824820B4B1FD6F29FDC288D3B437E7AE937523B584EED6967B39E7595 SWAP2 ADD PUSH1 0x40 MLOAD DUP1 SWAP2 SUB SWAP1 LOG2 POP POP JUMPDEST POP DUP1 PUSH2 0x10FB DUP2 PUSH2 0x1E5A JUMP JUMPDEST SWAP2 POP POP PUSH2 0xFEC JUMP JUMPDEST POP DUP1 CALLVALUE GT ISZERO PUSH2 0x70B JUMPI CALLER PUSH2 0x8FC PUSH2 0x111A DUP4 CALLVALUE PUSH2 0x1B27 JUMP JUMPDEST PUSH1 0x40 MLOAD DUP2 ISZERO SWAP1 SWAP3 MUL SWAP2 PUSH1 0x0 DUP2 DUP2 DUP2 DUP6 DUP9 DUP9 CALL SWAP4 POP POP POP POP ISZERO DUP1 ISZERO PUSH2 0x1142 JUMPI RETURNDATASIZE PUSH1 0x0 DUP1 RETURNDATACOPY RETURNDATASIZE PUSH1 0x0 REVERT JUMPDEST POP POP POP POP JUMP JUMPDEST PUSH2 0x1150 PUSH2 0x1309 JUMP JUMPDEST PUSH20 0xFFFFFFFFFFFFFFFFFFFFFFFFFFFFFFFFFFFFFFFF DUP2 AND PUSH2 0x11F3 JUMPI PUSH1 0x40 MLOAD PUSH32 0x8C379A000000000000000000000000000000000000000000000000000000000 DUP2 MSTORE PUSH1 0x20 PUSH1 0x4 DUP3 ADD MSTORE PUSH1 0x26 PUSH1 0x24 DUP3 ADD MSTORE PUSH32 0x4F776E61626C653A206E6577206F776E657220697320746865207A65726F2061 PUSH1 0x44 DUP3 ADD MSTORE PUSH32 0x6464726573730000000000000000000000000000000000000000000000000000 PUSH1 0x64 DUP3 ADD MSTORE PUSH1 0x84 ADD PUSH2 0xBFA JUMP JUMPDEST PUSH2 0x75E DUP2 PUSH2 0x1403 JUMP JUMPDEST PUSH2 0x1204 PUSH2 0x138A JUMP JUMPDEST CALLVALUE PUSH1 0x0 SUB PUSH2 0x123E JUMPI PUSH1 0x40 MLOAD PUSH32 0x2C5211C600000000000000000000000000000000000000000000000000000000 DUP2 MSTORE PUSH1 0x4 ADD PUSH1 0x40 MLOAD DUP1 SWAP2 SUB SWAP1 REVERT JUMPDEST PUSH1 0x3 DUP2 PUSH1 0x3 DUP2 GT ISZERO PUSH2 0x1252 JUMPI PUSH2 0x1252 PUSH2 0x1B40 JUMP JUMPDEST SUB PUSH2 0x1289 JUMPI PUSH1 0x40 MLOAD PUSH32 0x24A0114400000000000000000000000000000000000000000000000000000000 DUP2 MSTORE PUSH1 0x4 ADD PUSH1 0x40 MLOAD DUP1 SWAP2 SUB SWAP1 REVERT JUMPDEST PUSH1 0x0 DUP1 PUSH1 0x0 PUSH2 0x129A PUSH1 0x3 DUP6 CALLVALUE PUSH2 0x761 JUMP JUMPDEST SWAP3 POP SWAP3 POP SWAP3 POP DUP4 PUSH1 0x3 DUP2 GT ISZERO PUSH2 0x12B2 JUMPI PUSH2 0x12B2 PUSH2 0x1B40 JUMP JUMPDEST PUSH1 0x3 PUSH1 0x40 DUP1 MLOAD CALLVALUE DUP2 MSTORE PUSH1 0x20 DUP2 ADD DUP8 SWAP1 MSTORE SWAP1 DUP2 ADD DUP5 SWAP1 MSTORE TIMESTAMP PUSH1 0x60 DUP3 ADD MSTORE CALLER SWAP1 PUSH32 0xF28DAEC9F1864F569F0CF46BDD560D184B5B2447EBCC195BF3F131802D38ABB2 SWAP1 PUSH1 0x80 ADD PUSH1 0x40 MLOAD DUP1 SWAP2 SUB SWAP1 LOG4 POP POP POP PUSH2 0x75E PUSH1 0x1 DUP1 SSTORE JUMP JUMPDEST PUSH1 0x65 SLOAD PUSH20 0xFFFFFFFFFFFFFFFFFFFFFFFFFFFFFFFFFFFFFFFF AND CALLER EQ PUSH2 0x840 JUMPI PUSH1 0x40 MLOAD PUSH32 0x8C379A000000000000000000000000000000000000000000000000000000000 DUP2 MSTORE PUSH1 0x20 PUSH1 0x4 DUP3 ADD DUP2 SWAP1 MSTORE PUSH1 0x24 DUP3 ADD MSTORE PUSH32 0x4F776E61626C653A2063616C6C6572206973206E6F7420746865206F776E6572 PUSH1 0x44 DUP3 ADD MSTORE PUSH1 0x64 ADD PUSH2 0xBFA JUMP JUMPDEST PUSH1 0x2 PUSH1 0x1 SLOAD SUB PUSH2 0x13F6 JUMPI PUSH1 0x40 MLOAD PUSH32 0x8C379A000000000000000000000000000000000000000000000000000000000 DUP2 MSTORE PUSH1 0x20 PUSH1 0x4 DUP3 ADD MSTORE PUSH1 0x1F PUSH1 0x24 DUP3 ADD MSTORE PUSH32 0x5265656E7472616E637947756172643A207265656E7472616E742063616C6C00 PUSH1 0x44 DUP3 ADD MSTORE PUSH1 0x64 ADD PUSH2 0xBFA JUMP JUMPDEST PUSH1 0x2 PUSH1 0x1 SSTORE JUMP JUMPDEST PUSH1 0x1 DUP1 SSTORE JUMP JUMPDEST PUSH1 0x65 DUP1 SLOAD PUSH20 0xFFFFFFFFFFFFFFFFFFFFFFFFFFFFFFFFFFFFFFFF DUP4 DUP2 AND PUSH32 0xFFFFFFFFFFFFFFFFFFFFFFFF0000000000000000000000000000000000000000 DUP4 AND DUP2 OR SWAP1 SWAP4 SSTORE PUSH1 0x40 MLOAD SWAP2 AND SWAP2 SWAP1 DUP3 SWAP1 PUSH32 0x8BE0079C531659141344CD1FD0A4F28419497F9722A3DAAFE3B4186F6B6457E0 SWAP1 PUSH1 0x0 SWAP1 LOG3 POP POP JUMP JUMPDEST PUSH1 0x0 DUP1 DUP3 PUSH1 0x3 DUP2 GT ISZERO PUSH2 0x148F JUMPI PUSH2 0x148F PUSH2 0x1B40 JUMP JUMPDEST SUB PUSH2 0x149C JUMPI POP POP PUSH1 0x98 SLOAD SWAP1 JUMP JUMPDEST PUSH1 0x1 DUP3 PUSH1 0x3 DUP2 GT ISZERO PUSH2 0x14B0 JUMPI PUSH2 0x14B0 PUSH2 0x1B40 JUMP JUMPDEST SUB PUSH2 0x14BD JUMPI POP POP PUSH1 0x99 SLOAD SWAP1 JUMP JUMPDEST PUSH1 0x2 DUP3 PUSH1 0x3 DUP2 GT ISZERO PUSH2 0x14D1 JUMPI PUSH2 0x14D1 PUSH2 0x1B40 JUMP JUMPDEST SUB PUSH2 0x14DE JUMPI POP POP PUSH1 0x9A SLOAD SWAP1 JUMP JUMPDEST PUSH1 0x3 DUP3 PUSH1 0x3 DUP2 GT ISZERO PUSH2 0x14F2 JUMPI PUSH2 0x14F2 PUSH2 0x1B40 JUMP JUMPDEST SUB PUSH2 0xA81 JUMPI POP POP PUSH1 0x9B SLOAD SWAP1 JUMP JUMPDEST PUSH1 0x0 SLOAD PUSH2 0x100 SWAP1 DIV PUSH1 0xFF AND PUSH2 0x1596 JUMPI PUSH1 0x40 MLOAD PUSH32 0x8C379A000000000000000000000000000000000000000000000000000000000 DUP2 MSTORE PUSH1 0x20 PUSH1 0x4 DUP3 ADD MSTORE PUSH1 0x2B PUSH1 0x24 DUP3 ADD MSTORE PUSH32 0x496E697469616C697A61626C653A20636F6E7472616374206973206E6F742069 PUSH1 0x44 DUP3 ADD MSTORE PUSH32 0x6E697469616C697A696E67000000000000000000000000000000000000000000 PUSH1 0x64 DUP3 ADD MSTORE PUSH1 0x84 ADD PUSH2 0xBFA JUMP JUMPDEST PUSH2 0x840 PUSH2 0x163D JUMP JUMPDEST PUSH1 0x0 SLOAD PUSH2 0x100 SWAP1 DIV PUSH1 0xFF AND PUSH2 0x1635 JUMPI PUSH1 0x40 MLOAD PUSH32 0x8C379A000000000000000000000000000000000000000000000000000000000 DUP2 MSTORE PUSH1 0x20 PUSH1 0x4 DUP3 ADD MSTORE PUSH1 0x2B PUSH1 0x24 DUP3 ADD MSTORE PUSH32 0x496E697469616C697A61626C653A20636F6E7472616374206973206E6F742069 PUSH1 0x44 DUP3 ADD MSTORE PUSH32 0x6E697469616C697A696E67000000000000000000000000000000000000000000 PUSH1 0x64 DUP3 ADD MSTORE PUSH1 0x84 ADD PUSH2 0xBFA JUMP JUMPDEST PUSH2 0x840 PUSH2 0x16D4 JUMP JUMPDEST PUSH1 0x0 SLOAD PUSH2 0x100 SWAP1 DIV PUSH1 0xFF AND PUSH2 0x13FD JUMPI PUSH1 0x40 MLOAD PUSH32 0x8C379A000000000000000000000000000000000000000000000000000000000 DUP2 MSTORE PUSH1 0x20 PUSH1 0x4 DUP3 ADD MSTORE PUSH1 0x2B PUSH1 0x24 DUP3 ADD MSTORE PUSH32 0x496E697469616C697A61626C653A20636F6E7472616374206973206E6F742069 PUSH1 0x44 DUP3 ADD MSTORE PUSH32 0x6E697469616C697A696E67000000000000000000000000000000000000000000 PUSH1 0x64 DUP3 ADD MSTORE PUSH1 0x84 ADD PUSH2 0xBFA JUMP JUMPDEST PUSH1 0x0 SLOAD PUSH2 0x100 SWAP1 DIV PUSH1 0xFF AND PUSH2 0x176B JUMPI PUSH1 0x40 MLOAD PUSH32 0x8C379A000000000000000000000000000000000000000000000000000000000 DUP2 MSTORE PUSH1 0x20 PUSH1 0x4 DUP3 ADD MSTORE PUSH1 0x2B PUSH1 0x24 DUP3 ADD MSTORE PUSH32 0x496E697469616C697A61626C653A20636F6E7472616374206973206E6F742069 PUSH1 0x44 DUP3 ADD MSTORE PUSH32 0x6E697469616C697A696E67000000000000000000000000000000000000000000 PUSH1 0x64 DUP3 ADD MSTORE PUSH1 0x84 ADD PUSH2 0xBFA JUMP JUMPDEST PUSH2 0x840 CALLER PUSH2 0x1403 JUMP JUMPDEST PUSH1 0x0 PUSH1 0x20 DUP3 DUP5 SUB SLT ISZERO PUSH2 0x1786 JUMPI PUSH1 0x0 DUP1 REVERT JUMPDEST POP CALLDATALOAD SWAP2 SWAP1 POP JUMP JUMPDEST PUSH1 0x0 DUP1 DUP4 PUSH1 0x1F DUP5 ADD SLT PUSH2 0x179F JUMPI PUSH1 0x0 DUP1 REVERT JUMPDEST POP DUP2 CALLDATALOAD PUSH8 0xFFFFFFFFFFFFFFFF DUP2 GT ISZERO PUSH2 0x17B7 JUMPI PUSH1 0x0 DUP1 REVERT JUMPDEST PUSH1 0x20 DUP4 ADD SWAP2 POP DUP4 PUSH1 0x20 DUP3 PUSH1 0x5 SHL DUP6 ADD ADD GT ISZERO PUSH2 0x17D2 JUMPI PUSH1 0x0 DUP1 REVERT JUMPDEST SWAP3 POP SWAP3 SWAP1 POP JUMP JUMPDEST DUP1 CALLDATALOAD PUSH1 0x4 DUP2 LT PUSH2 0x17E8 JUMPI PUSH1 0x0 DUP1 REVERT JUMPDEST SWAP2 SWAP1 POP JUMP JUMPDEST PUSH1 0x0 DUP1 PUSH1 0x0 PUSH1 0x40 DUP5 DUP7 SUB SLT ISZERO PUSH2 0x1802 JUMPI PUSH1 0x0 DUP1 REVERT JUMPDEST DUP4 CALLDATALOAD PUSH8 0xFFFFFFFFFFFFFFFF DUP2 GT ISZERO PUSH2 0x1819 JUMPI PUSH1 0x0 DUP1 REVERT JUMPDEST PUSH2 0x1825 DUP7 DUP3 DUP8 ADD PUSH2 0x178D JUMP JUMPDEST SWAP1 SWAP5 POP SWAP3 POP PUSH2 0x1838 SWAP1 POP PUSH1 0x20 DUP6 ADD PUSH2 0x17D9 JUMP JUMPDEST SWAP1 POP SWAP3 POP SWAP3 POP SWAP3 JUMP JUMPDEST PUSH1 0x0 DUP1 PUSH1 0x0 PUSH1 0x60 DUP5 DUP7 SUB SLT ISZERO PUSH2 0x1856 JUMPI PUSH1 0x0 DUP1 REVERT JUMPDEST PUSH2 0x185F DUP5 PUSH2 0x17D9 JUMP JUMPDEST SWAP3 POP PUSH2 0x186D PUSH1 0x20 DUP6 ADD PUSH2 0x17D9 JUMP JUMPDEST SWAP2 POP PUSH1 0x40 DUP5 ADD CALLDATALOAD SWAP1 POP SWAP3 POP SWAP3 POP SWAP3 JUMP JUMPDEST PUSH1 0x0 PUSH1 0x20 DUP3 DUP5 SUB SLT ISZERO PUSH2 0x188F JUMPI PUSH1 0x0 DUP1 REVERT JUMPDEST PUSH2 0x1898 DUP3 PUSH2 0x17D9 JUMP JUMPDEST SWAP4 SWAP3 POP POP POP JUMP JUMPDEST PUSH1 0x0 DUP1 PUSH1 0x40 DUP4 DUP6 SUB SLT ISZERO PUSH2 0x18B2 JUMPI PUSH1 0x0 DUP1 REVERT JUMPDEST PUSH2 0x18BB DUP4 PUSH2 0x17D9 JUMP JUMPDEST SWAP5 PUSH1 0x20 SWAP4 SWAP1 SWAP4 ADD CALLDATALOAD SWAP4 POP POP POP JUMP JUMPDEST DUP1 CALLDATALOAD PUSH20 0xFFFFFFFFFFFFFFFFFFFFFFFFFFFFFFFFFFFFFFFF DUP2 AND DUP2 EQ PUSH2 0x17E8 JUMPI PUSH1 0x0 DUP1 REVERT JUMPDEST PUSH1 0x0 DUP1 PUSH1 0x0 DUP1 PUSH1 0x0 PUSH1 0xA0 DUP7 DUP9 SUB SLT ISZERO PUSH2 0x1905 JUMPI PUSH1 0x0 DUP1 REVERT JUMPDEST PUSH2 0x190E DUP7 PUSH2 0x18C9 JUMP JUMPDEST SWAP8 PUSH1 0x20 DUP8 ADD CALLDATALOAD SWAP8 POP PUSH1 0x40 DUP8 ADD CALLDATALOAD SWAP7 PUSH1 0x60 DUP2 ADD CALLDATALOAD SWAP7 POP PUSH1 0x80 ADD CALLDATALOAD SWAP5 POP SWAP3 POP POP POP JUMP JUMPDEST PUSH1 0x0 DUP1 PUSH1 0x0 PUSH1 0x60 DUP5 DUP7 SUB SLT ISZERO PUSH2 0x1944 JUMPI PUSH1 0x0 DUP1 REVERT JUMPDEST PUSH2 0x194D DUP5 PUSH2 0x17D9 JUMP JUMPDEST SWAP6 PUSH1 0x20 DUP6 ADD CALLDATALOAD SWAP6 POP PUSH1 0x40 SWAP1 SWAP5 ADD CALLDATALOAD SWAP4 SWAP3 POP POP POP JUMP JUMPDEST PUSH1 0x0 DUP1 PUSH1 0x20 DUP4 DUP6 SUB SLT ISZERO PUSH2 0x1975 JUMPI PUSH1 0x0 DUP1 REVERT JUMPDEST DUP3 CALLDATALOAD PUSH8 0xFFFFFFFFFFFFFFFF DUP2 GT ISZERO PUSH2 0x198C JUMPI PUSH1 0x0 DUP1 REVERT JUMPDEST PUSH2 0x1998 DUP6 DUP3 DUP7 ADD PUSH2 0x178D JUMP JUMPDEST SWAP1 SWAP7 SWAP1 SWAP6 POP SWAP4 POP POP POP POP JUMP JUMPDEST PUSH1 0x0 PUSH1 0x20 DUP3 DUP5 SUB SLT ISZERO PUSH2 0x19B6 JUMPI PUSH1 0x0 DUP1 REVERT JUMPDEST PUSH2 0x1898 DUP3 PUSH2 0x18C9 JUMP JUMPDEST DUP2 DUP4 MSTORE DUP2 DUP2 PUSH1 0x20 DUP6 ADD CALLDATACOPY POP PUSH1 0x0 PUSH1 0x20 DUP3 DUP5 ADD ADD MSTORE PUSH1 0x0 PUSH1 0x20 PUSH32 0xFFFFFFFFFFFFFFFFFFFFFFFFFFFFFFFFFFFFFFFFFFFFFFFFFFFFFFFFFFFFFFE0 PUSH1 0x1F DUP5 ADD AND DUP5 ADD ADD SWAP1 POP SWAP3 SWAP2 POP POP JUMP JUMPDEST PUSH1 0x20 DUP1 DUP3 MSTORE DUP2 DUP2 ADD DUP4 SWAP1 MSTORE PUSH1 0x0 SWAP1 PUSH1 0x40 PUSH1 0x5 DUP6 SWAP1 SHL DUP5 ADD DUP2 ADD SWAP1 DUP5 ADD DUP7 DUP5 JUMPDEST DUP8 DUP2 LT ISZERO PUSH2 0x1AD2 JUMPI PUSH32 0xFFFFFFFFFFFFFFFFFFFFFFFFFFFFFFFFFFFFFFFFFFFFFFFFFFFFFFFFFFFFFFC0 DUP8 DUP6 SUB ADD DUP4 MSTORE DUP2 CALLDATALOAD PUSH32 0xFFFFFFFFFFFFFFFFFFFFFFFFFFFFFFFFFFFFFFFFFFFFFFFFFFFFFFFFFFFFFFE1 DUP11 CALLDATASIZE SUB ADD DUP2 SLT PUSH2 0x1A88 JUMPI PUSH1 0x0 DUP1 REVERT JUMPDEST DUP10 ADD DUP6 DUP2 ADD SWAP1 CALLDATALOAD PUSH8 0xFFFFFFFFFFFFFFFF DUP2 GT ISZERO PUSH2 0x1AA4 JUMPI PUSH1 0x0 DUP1 REVERT JUMPDEST DUP1 CALLDATASIZE SUB DUP3 SGT ISZERO PUSH2 0x1AB3 JUMPI PUSH1 0x0 DUP1 REVERT JUMPDEST PUSH2 0x1ABE DUP7 DUP3 DUP5 PUSH2 0x19BF JUMP JUMPDEST SWAP6 POP POP POP SWAP2 DUP5 ADD SWAP2 SWAP1 DUP5 ADD SWAP1 PUSH1 0x1 ADD PUSH2 0x1A27 JUMP JUMPDEST POP SWAP2 SWAP8 SWAP7 POP POP POP POP POP POP POP JUMP JUMPDEST PUSH1 0x0 PUSH1 0x20 DUP3 DUP5 SUB SLT ISZERO PUSH2 0x1AF1 JUMPI PUSH1 0x0 DUP1 REVERT JUMPDEST POP MLOAD SWAP2 SWAP1 POP JUMP JUMPDEST PUSH32 0x4E487B7100000000000000000000000000000000000000000000000000000000 PUSH1 0x0 MSTORE PUSH1 0x11 PUSH1 0x4 MSTORE PUSH1 0x24 PUSH1 0x0 REVERT JUMPDEST DUP2 DUP2 SUB DUP2 DUP2 GT ISZERO PUSH2 0x1B3A JUMPI PUSH2 0x1B3A PUSH2 0x1AF8 JUMP JUMPDEST SWAP3 SWAP2 POP POP JUMP JUMPDEST PUSH32 0x4E487B7100000000000000000000000000000000000000000000000000000000 PUSH1 0x0 MSTORE PUSH1 0x21 PUSH1 0x4 MSTORE PUSH1 0x24 PUSH1 0x0 REVERT JUMPDEST DUP1 DUP3 MUL DUP2 ISZERO DUP3 DUP3 DIV DUP5 EQ OR PUSH2 0x1B3A JUMPI PUSH2 0x1B3A PUSH2 0x1AF8 JUMP JUMPDEST PUSH1 0x0 DUP3 PUSH2 0x1BBC JUMPI PUSH32 0x4E487B7100000000000000000000000000000000000000000000000000000000 PUSH1 0x0 MSTORE PUSH1 0x12 PUSH1 0x4 MSTORE PUSH1 0x24 PUSH1 0x0 REVERT JUMPDEST POP DIV SWAP1 JUMP JUMPDEST DUP1 MLOAD PUSH8 0xFFFFFFFFFFFFFFFF DUP2 AND DUP2 EQ PUSH2 0x17E8 JUMPI PUSH1 0x0 DUP1 REVERT JUMPDEST DUP1 MLOAD PUSH1 0x3 DUP2 SWAP1 SIGNEXTEND DUP2 EQ PUSH2 0x17E8 JUMPI PUSH1 0x0 DUP1 REVERT JUMPDEST PUSH1 0x0 PUSH1 0x80 DUP3 DUP5 SUB SLT ISZERO PUSH2 0x1BFD JUMPI PUSH1 0x0 DUP1 REVERT JUMPDEST PUSH1 0x40 MLOAD PUSH1 0x80 DUP2 ADD DUP2 DUP2 LT PUSH8 0xFFFFFFFFFFFFFFFF DUP3 GT OR ISZERO PUSH2 0x1C47 JUMPI PUSH32 0x4E487B7100000000000000000000000000000000000000000000000000000000 PUSH1 0x0 MSTORE PUSH1 0x41 PUSH1 0x4 MSTORE PUSH1 0x24 PUSH1 0x0 REVERT JUMPDEST PUSH1 0x40 MSTORE DUP3 MLOAD PUSH1 0x7 DUP2 SWAP1 SIGNEXTEND DUP2 EQ PUSH2 0x1C5C JUMPI PUSH1 0x0 DUP1 REVERT JUMPDEST DUP2 MSTORE PUSH2 0x1C6A PUSH1 0x20 DUP5 ADD PUSH2 0x1BC1 JUMP JUMPDEST PUSH1 0x20 DUP3 ADD MSTORE PUSH2 0x1C7B PUSH1 0x40 DUP5 ADD PUSH2 0x1BD9 JUMP JUMPDEST PUSH1 0x40 DUP3 ADD MSTORE PUSH1 0x60 DUP4 ADD MLOAD PUSH1 0x60 DUP3 ADD MSTORE DUP1 SWAP2 POP POP SWAP3 SWAP2 POP POP JUMP JUMPDEST PUSH1 0x1 DUP2 DUP2 JUMPDEST DUP1 DUP6 GT ISZERO PUSH2 0x1CED JUMPI DUP2 PUSH32 0xFFFFFFFFFFFFFFFFFFFFFFFFFFFFFFFFFFFFFFFFFFFFFFFFFFFFFFFFFFFFFFFF DIV DUP3 GT ISZERO PUSH2 0x1CD3 JUMPI PUSH2 0x1CD3 PUSH2 0x1AF8 JUMP JUMPDEST DUP1 DUP6 AND ISZERO PUSH2 0x1CE0 JUMPI SWAP2 DUP2 MUL SWAP2 JUMPDEST SWAP4 DUP5 SHR SWAP4 SWAP1 DUP1 MUL SWAP1 PUSH2 0x1C99 JUMP JUMPDEST POP SWAP3 POP SWAP3 SWAP1 POP JUMP JUMPDEST PUSH1 0x0 DUP3 PUSH2 0x1D04 JUMPI POP PUSH1 0x1 PUSH2 0x1B3A JUMP JUMPDEST DUP2 PUSH2 0x1D11 JUMPI POP PUSH1 0x0 PUSH2 0x1B3A JUMP JUMPDEST DUP2 PUSH1 0x1 DUP2 EQ PUSH2 0x1D27 JUMPI PUSH1 0x2 DUP2 EQ PUSH2 0x1D31 JUMPI PUSH2 0x1D4D JUMP JUMPDEST PUSH1 0x1 SWAP2 POP POP PUSH2 0x1B3A JUMP JUMPDEST PUSH1 0xFF DUP5 GT ISZERO PUSH2 0x1D42 JUMPI PUSH2 0x1D42 PUSH2 0x1AF8 JUMP JUMPDEST POP POP PUSH1 0x1 DUP3 SHL PUSH2 0x1B3A JUMP JUMPDEST POP PUSH1 0x20 DUP4 LT PUSH2 0x133 DUP4 LT AND PUSH1 0x4E DUP5 LT PUSH1 0xB DUP5 LT AND OR ISZERO PUSH2 0x1D70 JUMPI POP DUP2 DUP2 EXP PUSH2 0x1B3A JUMP JUMPDEST PUSH2 0x1D7A DUP4 DUP4 PUSH2 0x1C94 JUMP JUMPDEST DUP1 PUSH32 0xFFFFFFFFFFFFFFFFFFFFFFFFFFFFFFFFFFFFFFFFFFFFFFFFFFFFFFFFFFFFFFFF DIV DUP3 GT ISZERO PUSH2 0x1DAC JUMPI PUSH2 0x1DAC PUSH2 0x1AF8 JUMP JUMPDEST MUL SWAP4 SWAP3 POP POP POP JUMP JUMPDEST PUSH1 0x0 PUSH2 0x1898 PUSH4 0xFFFFFFFF DUP5 AND DUP4 PUSH2 0x1CF5 JUMP JUMPDEST PUSH1 0x0 DUP3 PUSH1 0x3 SIGNEXTEND DUP3 PUSH1 0x3 SIGNEXTEND MUL DUP1 PUSH1 0x3 SIGNEXTEND SWAP2 POP DUP1 DUP3 EQ PUSH2 0x1DE6 JUMPI PUSH2 0x1DE6 PUSH2 0x1AF8 JUMP JUMPDEST POP SWAP3 SWAP2 POP POP JUMP JUMPDEST PUSH1 0x20 DUP2 ADD PUSH1 0x4 DUP4 LT PUSH2 0x1E28 JUMPI PUSH32 0x4E487B7100000000000000000000000000000000000000000000000000000000 PUSH1 0x0 MSTORE PUSH1 0x21 PUSH1 0x4 MSTORE PUSH1 0x24 PUSH1 0x0 REVERT JUMPDEST SWAP2 SWAP1 MSTORE SWAP1 JUMP JUMPDEST PUSH1 0x0 DUP1 PUSH1 0x40 DUP4 DUP6 SUB SLT ISZERO PUSH2 0x1E41 JUMPI PUSH1 0x0 DUP1 REVERT JUMPDEST DUP3 MLOAD SWAP2 POP PUSH2 0x1E51 PUSH1 0x20 DUP5 ADD PUSH2 0x1BD9 JUMP JUMPDEST SWAP1 POP SWAP3 POP SWAP3 SWAP1 POP JUMP JUMPDEST PUSH1 0x0 PUSH32 0xFFFFFFFFFFFFFFFFFFFFFFFFFFFFFFFFFFFFFFFFFFFFFFFFFFFFFFFFFFFFFFFF DUP3 SUB PUSH2 0x1E8B JUMPI PUSH2 0x1E8B PUSH2 0x1AF8 JUMP JUMPDEST POP PUSH1 0x1 ADD SWAP1 JUMP INVALID LOG2 PUSH5 0x6970667358 0x22 SLT KECCAK256 0xC6 SWAP3 DUP10 JUMP EXTCODESIZE 0xCD 0xEE 0xB6 0xBA ADDRESS PUSH24 0xC0057D911DE44865CD07E1680AC1B8006C07381ACE64736F PUSH13 0x63430008110033000000000000 "},"methodIdentifiers":{"btcUsdPriceId()":"b2a84502","calculateSwapOutput(uint8,uint8,uint256)":"6f927710","ethUsdPriceId()":"6a18ec49","getAllPriceIds()":"74ffa693","getAssetPrice(uint8)":"820fd7db","getAssetPriceUnsafe(uint8)":"a8e63671","getSwapParameters()":"7ec76708","hbarUsdPriceId()":"4a9138c6","initialize(address,bytes32,bytes32,bytes32,bytes32)":"c5ad603d","maxPriceAge()":"1584410a","owner()":"8da5cb5b","pyth()":"f98d06f0","renounceOwnership()":"715018a6","slippageTolerance()":"d03153aa","solUsdPriceId()":"12526d0c","swapAssetForHbar(uint8,uint256,uint256)":"d36bf645","swapFee()":"54cf2aeb","swapHbarForAsset(uint8)":"f5114e15","transferOwnership(address)":"f2fde38b","updateAndSwapHbarForAsset(bytes[],uint8)":"197e426c","updateMaxPriceAge(uint256)":"b40f43f7","updatePriceFeeds(bytes[])":"ef9e5e28","updatePriceId(uint8,bytes32)":"9ff0e2f3","updateSlippageTolerance(uint256)":"0f9da743","updateSwapFee(uint256)":"bf16f65a","withdraw()":"3ccfd60b"}},"storageLayout":{"storage":[{"astId":139,"contract":"contracts/HbarPythSwap.sol:HbarPythSwap","label":"_initialized","offset":0,"slot":"0","type":"t_uint8"},{"astId":142,"contract":"contracts/HbarPythSwap.sol:HbarPythSwap","label":"_initializing","offset":1,"slot":"0","type":"t_bool"},{"astId":316,"contract":"contracts/HbarPythSwap.sol:HbarPythSwap","label":"_status","offset":0,"slot":"1","type":"t_uint256"},{"astId":385,"contract":"contracts/HbarPythSwap.sol:HbarPythSwap","label":"__gap","offset":0,"slot":"2","type":"t_array(t_uint256)49_storage"},{"astId":766,"contract":"contracts/HbarPythSwap.sol:HbarPythSwap","label":"__gap","offset":0,"slot":"51","type":"t_array(t_uint256)50_storage"},{"astId":11,"contract":"contracts/HbarPythSwap.sol:HbarPythSwap","label":"_owner","offset":0,"slot":"101","type":"t_address"},{"astId":131,"contract":"contracts/HbarPythSwap.sol:HbarPythSwap","label":"__gap","offset":0,"slot":"102","type":"t_array(t_uint256)49_storage"},{"astId":963,"contract":"contracts/HbarPythSwap.sol:HbarPythSwap","label":"pyth","offset":0,"slot":"151","type":"t_contract(IPyth)904"},{"astId":965,"contract":"contracts/HbarPythSwap.sol:HbarPythSwap","label":"ethUsdPriceId","offset":0,"slot":"152","type":"t_bytes32"},{"astId":967,"contract":"contracts/HbarPythSwap.sol:HbarPythSwap","label":"solUsdPriceId","offset":0,"slot":"153","type":"t_bytes32"},{"astId":969,"contract":"contracts/HbarPythSwap.sol:HbarPythSwap","label":"btcUsdPriceId","offset":0,"slot":"154","type":"t_bytes32"},{"astId":971,"contract":"contracts/HbarPythSwap.sol:HbarPythSwap","label":"hbarUsdPriceId","offset":0,"slot":"155","type":"t_bytes32"},{"astId":978,"contract":"contracts/HbarPythSwap.sol:HbarPythSwap","label":"maxPriceAge","offset":0,"slot":"156","type":"t_uint256"},{"astId":980,"contract":"contracts/HbarPythSwap.sol:HbarPythSwap","label":"slippageTolerance","offset":0,"slot":"157","type":"t_uint256"},{"astId":982,"contract":"contracts/HbarPythSwap.sol:HbarPythSwap","label":"swapFee","offset":0,"slot":"158","type":"t_uint256"}],"types":{"t_address":{"encoding":"inplace","label":"address","numberOfBytes":"20"},"t_array(t_uint256)49_storage":{"base":"t_uint256","encoding":"inplace","label":"uint256[49]","numberOfBytes":"1568"},"t_array(t_uint256)50_storage":{"base":"t_uint256","encoding":"inplace","label":"uint256[50]","numberOfBytes":"1600"},"t_bool":{"encoding":"inplace","label":"bool","numberOfBytes":"1"},"t_bytes32":{"encoding":"inplace","label":"bytes32","numberOfBytes":"32"},"t_contract(IPyth)904":{"encoding":"inplace","label":"contract IPyth","numberOfBytes":"20"},"t_uint256":{"encoding":"inplace","label":"uint256","numberOfBytes":"32"},"t_uint8":{"encoding":"inplace","label":"uint8","numberOfBytes":"1"}}}}}}