{"contracts/SwapLottery.sol":{"SwapLottery":{"abi":[{"inputs":[{"internalType":"address","name":"_entropy","type":"address"},{"internalType":"address","name":"_entropyProvider","type":"address"},{"internalType":"uint256","name":"_lotteryDuration","type":"uint256"},{"internalType":"uint256","name":"_minParticipants","type":"uint256"}],"stateMutability":"nonpayable","type":"constructor"},{"inputs":[],"name":"InsufficientFunds","type":"error"},{"inputs":[],"name":"InvalidLotteryDuration","type":"error"},{"inputs":[],"name":"InvalidWinnerNumber","type":"error"},{"inputs":[],"name":"LotteryAlreadyEnded","type":"error"},{"inputs":[],"name":"LotteryInProgress","type":"error"},{"inputs":[],"name":"LotteryNotActive","type":"error"},{"inputs":[],"name":"NoParticipants","type":"error"},{"inputs":[],"name":"NotAuthorizedContract","type":"error"},{"inputs":[],"name":"NotOwner","type":"error"},{"anonymous":false,"inputs":[{"indexed":true,"internalType":"uint256","name":"lotteryId","type":"uint256"},{"indexed":false,"internalType":"uint256","name":"totalPrize","type":"uint256"},{"indexed":false,"internalType":"uint256","name":"totalParticipants","type":"uint256"}],"name":"LotteryEnded","type":"event"},{"anonymous":false,"inputs":[{"indexed":true,"internalType":"uint256","name":"lotteryId","type":"uint256"},{"indexed":false,"internalType":"uint256","name":"duration","type":"uint256"},{"indexed":false,"internalType":"uint256","name":"timestamp","type":"uint256"}],"name":"LotteryStarted","type":"event"},{"anonymous":false,"inputs":[{"indexed":true,"internalType":"uint256","name":"lotteryId","type":"uint256"},{"indexed":true,"internalType":"address","name":"winner","type":"address"},{"indexed":false,"internalType":"uint256","name":"amount","type":"uint256"}],"name":"PrizeClaimed","type":"event"},{"anonymous":false,"inputs":[{"indexed":true,"internalType":"uint256","name":"lotteryId","type":"uint256"},{"indexed":false,"internalType":"uint64","name":"sequenceNumber","type":"uint64"}],"name":"RandomNumberRequested","type":"event"},{"anonymous":false,"inputs":[{"indexed":true,"internalType":"uint256","name":"lotteryId","type":"uint256"},{"indexed":true,"internalType":"address","name":"user","type":"address"},{"indexed":false,"internalType":"uint256","name":"ticketNumber","type":"uint256"},{"indexed":false,"internalType":"uint256","name":"swapProfit","type":"uint256"}],"name":"UserEntered","type":"event"},{"anonymous":false,"inputs":[{"indexed":true,"internalType":"uint256","name":"lotteryId","type":"uint256"},{"indexed":true,"internalType":"address","name":"winner","type":"address"},{"indexed":false,"internalType":"uint256","name":"winningNumber","type":"uint256"},{"indexed":false,"internalType":"uint256","name":"prizeAmount","type":"uint256"}],"name":"WinnerSelected","type":"event"},{"inputs":[{"internalType":"uint64","name":"sequence","type":"uint64"},{"internalType":"address","name":"provider","type":"address"},{"internalType":"bytes32","name":"randomNumber","type":"bytes32"}],"name":"_entropyCallback","outputs":[],"stateMutability":"nonpayable","type":"function"},{"inputs":[],"name":"addToPrizePool","outputs":[],"stateMutability":"payable","type":"function"},{"inputs":[{"internalType":"uint256","name":"_lotteryId","type":"uint256"}],"name":"claimPrize","outputs":[],"stateMutability":"nonpayable","type":"function"},{"inputs":[],"name":"currentLotteryId","outputs":[{"internalType":"uint256","name":"","type":"uint256"}],"stateMutability":"view","type":"function"},{"inputs":[],"name":"emergencyWithdraw","outputs":[],"stateMutability":"nonpayable","type":"function"},{"inputs":[],"name":"endCurrentLottery","outputs":[],"stateMutability":"nonpayable","type":"function"},{"inputs":[{"internalType":"address","name":"user","type":"address"},{"internalType":"uint256","name":"swapProfit","type":"uint256"}],"name":"enterUser","outputs":[],"stateMutability":"nonpayable","type":"function"},{"inputs":[],"name":"getContractStats","outputs":[{"internalType":"uint256","name":"totalLotteries_","type":"uint256"},{"internalType":"uint256","name":"totalPrizesDistributed_","type":"uint256"},{"internalType":"uint256","name":"currentLotteryId_","type":"uint256"},{"internalType":"uint256","name":"currentPrizePool","type":"uint256"},{"internalType":"uint256","name":"lotteryDuration_","type":"uint256"},{"internalType":"uint256","name":"minParticipants_","type":"uint256"}],"stateMutability":"view","type":"function"},{"inputs":[],"name":"getEntropyFee","outputs":[{"internalType":"uint256","name":"","type":"uint256"}],"stateMutability":"view","type":"function"},{"inputs":[{"internalType":"uint256","name":"_lotteryId","type":"uint256"}],"name":"getLottery","outputs":[{"internalType":"uint256","name":"lotteryId","type":"uint256"},{"internalType":"uint256","name":"startTime","type":"uint256"},{"internalType":"uint256","name":"endTime","type":"uint256"},{"internalType":"uint256","name":"prizePool","type":"uint256"},{"internalType":"uint256","name":"participantCount","type":"uint256"},{"internalType":"address","name":"winner","type":"address"},{"internalType":"uint256","name":"winningNumber","type":"uint256"},{"internalType":"bool","name":"isActive","type":"bool"},{"internalType":"bool","name":"isEnded","type":"bool"},{"internalType":"bool","name":"randomNumberReceived","type":"bool"},{"internalType":"uint64","name":"sequenceNumber","type":"uint64"}],"stateMutability":"view","type":"function"},{"inputs":[{"internalType":"uint256","name":"_lotteryId","type":"uint256"}],"name":"getLotteryParticipants","outputs":[{"internalType":"address[]","name":"","type":"address[]"}],"stateMutability":"view","type":"function"},{"inputs":[{"internalType":"address","name":"_user","type":"address"}],"name":"getUserStats","outputs":[{"internalType":"uint256","name":"totalWinnings","type":"uint256"},{"internalType":"uint256","name":"participationCount","type":"uint256"}],"stateMutability":"view","type":"function"},{"inputs":[{"internalType":"uint256","name":"_lotteryId","type":"uint256"},{"internalType":"address","name":"user","type":"address"}],"name":"getUserTickets","outputs":[{"internalType":"uint256[]","name":"","type":"uint256[]"}],"stateMutability":"view","type":"function"},{"inputs":[{"internalType":"uint256","name":"","type":"uint256"}],"name":"lotteries","outputs":[{"internalType":"uint256","name":"lotteryId","type":"uint256"},{"internalType":"uint256","name":"startTime","type":"uint256"},{"internalType":"uint256","name":"endTime","type":"uint256"},{"internalType":"uint256","name":"prizePool","type":"uint256"},{"internalType":"address","name":"winner","type":"address"},{"internalType":"uint256","name":"winningNumber","type":"uint256"},{"internalType":"bool","name":"isActive","type":"bool"},{"internalType":"bool","name":"isEnded","type":"bool"},{"internalType":"uint64","name":"sequenceNumber","type":"uint64"},{"internalType":"bool","name":"randomNumberReceived","type":"bool"},{"internalType":"bool","name":"prizeClaimed","type":"bool"}],"stateMutability":"view","type":"function"},{"inputs":[],"name":"lotteryDuration","outputs":[{"internalType":"uint256","name":"","type":"uint256"}],"stateMutability":"view","type":"function"},{"inputs":[],"name":"minParticipants","outputs":[{"internalType":"uint256","name":"","type":"uint256"}],"stateMutability":"view","type":"function"},{"inputs":[],"name":"owner","outputs":[{"internalType":"address","name":"","type":"address"}],"stateMutability":"view","type":"function"},{"inputs":[{"internalType":"uint256","name":"_lotteryId","type":"uint256"},{"internalType":"uint256","name":"_winningNumber","type":"uint256"}],"name":"selectWinner","outputs":[],"stateMutability":"nonpayable","type":"function"},{"inputs":[{"internalType":"address","name":"_newProvider","type":"address"}],"name":"setEntropyProvider","outputs":[],"stateMutability":"nonpayable","type":"function"},{"inputs":[{"internalType":"address","name":"_swapContract","type":"address"}],"name":"setSwapContract","outputs":[],"stateMutability":"nonpayable","type":"function"},{"inputs":[],"name":"swapContract","outputs":[{"internalType":"address","name":"","type":"address"}],"stateMutability":"view","type":"function"},{"inputs":[],"name":"totalLotteries","outputs":[{"internalType":"uint256","name":"","type":"uint256"}],"stateMutability":"view","type":"function"},{"inputs":[],"name":"totalPrizesDistributed","outputs":[{"internalType":"uint256","name":"","type":"uint256"}],"stateMutability":"view","type":"function"},{"inputs":[{"internalType":"address","name":"newOwner","type":"address"}],"name":"transferOwnership","outputs":[],"stateMutability":"nonpayable","type":"function"},{"inputs":[{"internalType":"uint256","name":"_lotteryDuration","type":"uint256"},{"internalType":"uint256","name":"_minParticipants","type":"uint256"}],"name":"updateLotterySettings","outputs":[],"stateMutability":"nonpayable","type":"function"},{"inputs":[{"internalType":"address","name":"","type":"address"}],"name":"userParticipationCount","outputs":[{"internalType":"uint256","name":"","type":"uint256"}],"stateMutability":"view","type":"function"},{"inputs":[{"internalType":"address","name":"","type":"address"}],"name":"userTotalWinnings","outputs":[{"internalType":"uint256","name":"","type":"uint256"}],"stateMutability":"view","type":"function"},{"stateMutability":"payable","type":"receive"}],"evm":{"bytecode":{"linkReferences":{},"object":"60806040523480156200001157600080fd5b50604051620023e4380380620023e483398101604081905262000034916200015f565b600080546001600160a01b038087166001600160a01b0319928316179092556001805492861692821692909217909155600280549091163317905560068290556007819055620000836200008d565b50505050620001f5565b600480549060006200009f83620001bd565b909155505060088054906000620000b683620001bd565b909155505060045460008181526005602052604090209081554260018201819055600654620000e591620001d9565b600282015560098101805461ffff61ffff60501b0119166001179055600454600654604080519182524260208301527ffcdeb3394eefba8891818e18ed3c4d1aa8872705afa5819133971caea073dc1d910160405180910390a250565b80516001600160a01b03811681146200015a57600080fd5b919050565b600080600080608085870312156200017657600080fd5b620001818562000142565b9350620001916020860162000142565b6040860151606090960151949790965092505050565b634e487b7160e01b600052601160045260246000fd5b600060018201620001d257620001d2620001a7565b5060010190565b80820180821115620001ef57620001ef620001a7565b92915050565b6121df80620002056000396000f3fe6080604052600436106101b05760003560e01c8063a13cf386116100ec578063dfe6b5d61161008a578063e936a92411610064578063e936a9241461070b578063f2fde38b14610720578063f530bcab14610740578063f69e6ab01461075657600080fd5b8063dfe6b5d614610663578063e6fa0209146106be578063e7a7f65c146106de57600080fd5b8063d259ab42116100c6578063d259ab42146105ee578063d70981541461060e578063db2e21bc1461062e578063db60dae11461064357600080fd5b8063a13cf386146105b0578063a54cd4f7146105d0578063b3ede13f146105e657600080fd5b806352a5f1f8116101595780638da5cb5b116101335780638da5cb5b146104795780638ea83031146104cb57806392e845f6146104f85780639abc1d661461059057600080fd5b806352a5f1f81461041657806368fb2eba146104365780636be4097c1461046357600080fd5b80632d97902f1161018a5780632d97902f1461036e5780632f9e9062146103845780634e43603a146103b157600080fd5b806308857442146101ef5780631398e0761461022f5780632d971e631461035957600080fd5b366101ea5734156101e8576004546000908152600560205260408120600381018054919234926101e1908490611ed0565b9091555050505b005b600080fd5b3480156101fb57600080fd5b5061021c61020a366004611f0c565b600a6020526000908152604090205481565b6040519081526020015b60405180910390f35b34801561023b57600080fd5b506102df61024a366004611f2e565b6005602052600090815260409020805460018201546002830154600384015460078501546008860154600990960154949593949293919273ffffffffffffffffffffffffffffffffffffffff909116919060ff80821691610100810482169167ffffffffffffffff62010000830416916a010000000000000000000081048216916b010000000000000000000000909104168b565b604080519b8c5260208c019a909a52988a0197909752606089019590955273ffffffffffffffffffffffffffffffffffffffff909316608088015260a0870191909152151560c0860152151560e085015267ffffffffffffffff166101008401521515610120830152151561014082015261016001610226565b34801561036557600080fd5b5061021c61076c565b34801561037a57600080fd5b5061021c60065481565b34801561039057600080fd5b5061021c61039f366004611f0c565b600b6020526000908152604090205481565b3480156103bd57600080fd5b506104016103cc366004611f0c565b73ffffffffffffffffffffffffffffffffffffffff166000908152600a6020908152604080832054600b909252909120549091565b60408051928352602083019190915201610226565b34801561042257600080fd5b506101e8610431366004611f5d565b610815565b34801561044257600080fd5b50610456610451366004611f2e565b610950565b6040516102269190611f9b565b34801561046f57600080fd5b5061021c60045481565b34801561048557600080fd5b506002546104a69073ffffffffffffffffffffffffffffffffffffffff1681565b60405173ffffffffffffffffffffffffffffffffffffffff9091168152602001610226565b3480156104d757600080fd5b506003546104a69073ffffffffffffffffffffffffffffffffffffffff1681565b34801561050457600080fd5b50610518610513366004611f2e565b610a0a565b604080519b8c5260208c019a909a52988a01979097526060890195909552608088019390935273ffffffffffffffffffffffffffffffffffffffff90911660a087015260c0860152151560e08501521515610100840152151561012083015267ffffffffffffffff1661014082015261016001610226565b34801561059c57600080fd5b506101e86105ab366004611ff5565b610aed565b3480156105bc57600080fd5b506101e86105cb366004611f0c565b610d23565b3480156105dc57600080fd5b5061021c60075481565b6101e8610dbb565b3480156105fa57600080fd5b506101e8610609366004611f0c565b610df0565b34801561061a57600080fd5b506101e8610629366004611f2e565b610e88565b34801561063a57600080fd5b506101e8611129565b34801561064f57600080fd5b506101e861065e36600461201f565b6111c3565b34801561066f57600080fd5b50600854600954600454600081815260056020526040902060030154600654600754604080519687526020870195909552938501929092526060840152608083015260a082015260c001610226565b3480156106ca57600080fd5b506101e86106d936600461201f565b611268565b3480156106ea57600080fd5b506106fe6106f9366004612041565b611386565b604051610226919061206d565b34801561071757600080fd5b506101e861144b565b34801561072c57600080fd5b506101e861073b366004611f0c565b6114e0565b34801561074c57600080fd5b5061021c60085481565b34801561076257600080fd5b5061021c60095481565b60008060009054906101000a900473ffffffffffffffffffffffffffffffffffffffff1673ffffffffffffffffffffffffffffffffffffffff16638204b67a6040518163ffffffff1660e01b8152600401602060405180830381865afa1580156107da573d6000803e3d6000fd5b505050506040513d601f19601f820116820180604052508101906107fe91906120a5565b6fffffffffffffffffffffffffffffffff16905090565b60005473ffffffffffffffffffffffffffffffffffffffff168061089a576040517f08c379a000000000000000000000000000000000000000000000000000000000815260206004820152601760248201527f456e74726f70792061646472657373206e6f742073657400000000000000000060448201526064015b60405180910390fd5b3373ffffffffffffffffffffffffffffffffffffffff82161461093f576040517f08c379a000000000000000000000000000000000000000000000000000000000815260206004820152602360248201527f4f6e6c7920456e74726f70792063616e2063616c6c20746869732066756e637460448201527f696f6e00000000000000000000000000000000000000000000000000000000006064820152608401610891565b61094a8484846115f5565b50505050565b60608160045481111561098f576040517f582cb8e700000000000000000000000000000000000000000000000000000000815260040160405180910390fd5b600083815260056020908152604091829020600401805483518184028101840190945280845290918301828280156109fd57602002820191906000526020600020905b815473ffffffffffffffffffffffffffffffffffffffff1681526001909101906020018083116109d2575b5050505050915050919050565b60008060008060008060008060008060008b600454811115610a58576040517f582cb8e700000000000000000000000000000000000000000000000000000000815260040160405180910390fd5b5050506000998a5250506005602052505060409095208054600182015460028301546003840154600485015460078601546008870154600990970154959c949b50929950909750955073ffffffffffffffffffffffffffffffffffffffff16935060ff8083169261010081048216926a01000000000000000000008204909216916201000090910467ffffffffffffffff1690565b60035473ffffffffffffffffffffffffffffffffffffffff163314610b3e576040517faee5079200000000000000000000000000000000000000000000000000000000815260040160405180910390fd5b6004546000908152600560205260409020600981015460ff16610b8d576040517fed8627a200000000000000000000000000000000000000000000000000000000815260040160405180910390fd5b80600201544210610bbb57610ba06116c4565b610ba86119d0565b5060045460009081526005602052604090205b6000610bc78484611a8f565b73ffffffffffffffffffffffffffffffffffffffff8516600090815260068401602052604090205490915060ff16610ca457600482018054600180820183556000928352602080842090920180547fffffffffffffffffffffffff00000000000000000000000000000000000000001673ffffffffffffffffffffffffffffffffffffffff89169081179091558352600685018252604080842080547fffffffffffffffffffffffffffffffffffffffffffffffffffffffffffffff0016909217909155600b9091528120805491610c9e836120d7565b91905055505b73ffffffffffffffffffffffffffffffffffffffff8416600081815260058401602090815260408083208054600181018255908452928290209092018490556004548251858152918201879052917f4f0c14ab90ddd0332627bed5fc57cbc7e882aebc7170aa77071d717a77fc92c6910160405180910390a350505050565b60025473ffffffffffffffffffffffffffffffffffffffff163314610d74576040517f30cd747100000000000000000000000000000000000000000000000000000000815260040160405180910390fd5b600180547fffffffffffffffffffffffff00000000000000000000000000000000000000001673ffffffffffffffffffffffffffffffffffffffff92909216919091179055565b3415610dee57600454600090815260056020526040812060038101805491923492610de7908490611ed0565b9091555050505b565b60025473ffffffffffffffffffffffffffffffffffffffff163314610e41576040517f30cd747100000000000000000000000000000000000000000000000000000000815260040160405180910390fd5b600380547fffffffffffffffffffffffff00000000000000000000000000000000000000001673ffffffffffffffffffffffffffffffffffffffff92909216919091179055565b80600454811115610ec5576040517f582cb8e700000000000000000000000000000000000000000000000000000000815260040160405180910390fd5b60008281526005602052604090206009810154610100900460ff16610f16576040517f2217a82000000000000000000000000000000000000000000000000000000000815260040160405180910390fd5b600781015473ffffffffffffffffffffffffffffffffffffffff163314610f69576040517f30cd747100000000000000000000000000000000000000000000000000000000815260040160405180910390fd5b60098101546b010000000000000000000000900460ff1615610fb7576040517f582cb8e700000000000000000000000000000000000000000000000000000000815260040160405180910390fd5b8060030154600003610ff5576040517f356680b700000000000000000000000000000000000000000000000000000000815260040160405180910390fd5b6003810180546000918290556009830180547fffffffffffffffffffffffffffffffffffffffff00ffffffffffffffffffffff166b010000000000000000000000179055604051909190339083908381818185875af1925050503d806000811461107b576040519150601f19603f3d011682016040523d82523d6000602084013e611080565b606091505b50509050806110eb576040517f08c379a000000000000000000000000000000000000000000000000000000000815260206004820152600f60248201527f5472616e73666572206661696c656400000000000000000000000000000000006044820152606401610891565b604051828152339086907f4aa95f981a8337cb337de335b965507da0879c3b49f799d20058e913f5ad2c269060200160405180910390a35050505050565b60025473ffffffffffffffffffffffffffffffffffffffff16331461117a576040517f30cd747100000000000000000000000000000000000000000000000000000000815260040160405180910390fd5b60025460405173ffffffffffffffffffffffffffffffffffffffff909116904780156108fc02916000818181858888f193505050501580156111c0573d6000803e3d6000fd5b50565b60025473ffffffffffffffffffffffffffffffffffffffff163314611214576040517f30cd747100000000000000000000000000000000000000000000000000000000815260040160405180910390fd5b610e10821080611226575062278d0082115b1561125d576040517f4a78b84a00000000000000000000000000000000000000000000000000000000815260040160405180910390fd5b600691909155600755565b816004548111156112a5576040517f582cb8e700000000000000000000000000000000000000000000000000000000815260040160405180910390fd5b60008381526005602052604090206009810154610100900460ff16156112f7576040517f8c373e5e00000000000000000000000000000000000000000000000000000000815260040160405180910390fd5b600981015460ff1615611336576040517f2217a82000000000000000000000000000000000000000000000000000000000815260040160405180910390fd5b8215806113455750620f424083115b1561137c576040517f582cb8e700000000000000000000000000000000000000000000000000000000815260040160405180910390fd5b61094a8484611b64565b6060826004548111156113c5576040517f582cb8e700000000000000000000000000000000000000000000000000000000815260040160405180910390fd5b600084815260056020818152604080842073ffffffffffffffffffffffffffffffffffffffff881685529092018152918190208054825181850281018501909352808352919290919083018282801561143d57602002820191906000526020600020905b815481526020019060010190808311611429575b505050505091505092915050565b6004546000908152600560205260409020600981015460ff1661149a576040517fed8627a200000000000000000000000000000000000000000000000000000000815260040160405180910390fd5b80600201544210156114d8576040517f2217a82000000000000000000000000000000000000000000000000000000000815260040160405180910390fd5b6111c06116c4565b60025473ffffffffffffffffffffffffffffffffffffffff163314611531576040517f30cd747100000000000000000000000000000000000000000000000000000000815260040160405180910390fd5b73ffffffffffffffffffffffffffffffffffffffff81166115ae576040517f08c379a000000000000000000000000000000000000000000000000000000000815260206004820152601160248201527f496e76616c6964206e6577206f776e65720000000000000000000000000000006044820152606401610891565b600280547fffffffffffffffffffffffff00000000000000000000000000000000000000001673ffffffffffffffffffffffffffffffffffffffff92909216919091179055565b60015b600454811161094a576000818152600560205260409020600981015467ffffffffffffffff8681166201000090920416148015611648575060098101546a0100000000000000000000900460ff16155b156116b1576009810180547fffffffffffffffffffffffffffffffffffffffffff00ffffffffffffffffffff166a01000000000000000000001790556000611693620f42408561210f565b61169e906001611ed0565b90506116aa8382611b64565b505061094a565b50806116bc816120d7565b9150506115f8565b600480546000908152600560205260408120918201549003611753576009810180547fffffffffffffffffffffffffffffffffffffffffffffffffffffffffffff000016610100179055600454600382015460408051918252600060208301527f271b411abb4daed7ece41f9d2c3f7013afac0027ce9b19f519635015130eacc391015b60405180910390a250565b6009810180547fffffffffffffffffffffffffffffffffffffffffffffffffffffffffffffff0016905560075460048201541015611800576009810180547fffffffffffffffffffffffffffffffffffffffffffffffffffffffffffff00ff166101001790556004805460038301549183015460405191927f271b411abb4daed7ece41f9d2c3f7013afac0027ce9b19f519635015130eacc3926117489290918252602082015260400190565b60008060009054906101000a900473ffffffffffffffffffffffffffffffffffffffff1673ffffffffffffffffffffffffffffffffffffffff16638204b67a6040518163ffffffff1660e01b8152600401602060405180830381865afa15801561186e573d6000803e3d6000fd5b505050506040513d601f19601f8201168201806040525081019061189291906120a5565b6fffffffffffffffffffffffffffffffff1690508047106119c15760008060009054906101000a900473ffffffffffffffffffffffffffffffffffffffff1673ffffffffffffffffffffffffffffffffffffffff16637b43155d836040518263ffffffff1660e01b815260040160206040518083038185885af115801561191d573d6000803e3d6000fd5b50505050506040513d601f19601f82011682018060405250810190611942919061214a565b6009840180547fffffffffffffffffffffffffffffffffffffffffffff0000000000000000ffff166201000067ffffffffffffffff8416908102919091179091556004546040519182529192507f04b211700ecf92b8ce477de62320459e015235561cadb1ff1d4c0643dcbc00e19060200160405180910390a2505050565b6119cc600454611e44565b5050565b600480549060006119e0836120d7565b9091555050600880549060006119f5836120d7565b909155505060045460008181526005602052604090209081554260018201819055600654611a2291611ed0565b60028201556009810180547fffffffffffffffffffffffffffffffffffffffff0000ffffffffffffffff0000166001179055600454600654604080519182524260208301527ffcdeb3394eefba8891818e18ed3c4d1aa8872705afa5819133971caea073dc1d9101611748565b60048054600081815260056020908152604080832090940154935191938493611b0a93429344938a938a93909201958652602086019490945260609290921b7fffffffffffffffffffffffffffffffffffffffff00000000000000000000000016604085015260548401526074830152609482015260b40190565b604080517fffffffffffffffffffffffffffffffffffffffffffffffffffffffffffffffe081840301815291905280516020909101209050611b4f620f42408261210f565b611b5a906001611ed0565b9150505b92915050565b60008281526005602052604081206004810154909103611bb0576040517f8b6a473000000000000000000000000000000000000000000000000000000000815260040160405180910390fd5b60007fffffffffffffffffffffffffffffffffffffffffffffffffffffffffffffffff815b6004840154811015611cb7576000846004018281548110611bf857611bf8612167565b600091825260208083209091015473ffffffffffffffffffffffffffffffffffffffff168083526005880190915260408220909250905b8154811015611ca1576000828281548110611c4c57611c4c612167565b906000526020600020015490506000898211611c7157611c6c828b612196565b611c7b565b611c7b8a83612196565b905086811015611c8c578096508497505b50508080611c99906120d7565b915050611c2f565b5050508080611caf906120d7565b915050611bd5565b5060078301805473ffffffffffffffffffffffffffffffffffffffff84167fffffffffffffffffffffffff00000000000000000000000000000000000000009091168117909155600884018590556009840180547fffffffffffffffffffffffffffffffffffffffffffffffffffffffffffff00ff1661010017905515611d9457600383015473ffffffffffffffffffffffffffffffffffffffff83166000908152600a602052604081208054909190611d72908490611ed0565b9091555050600383015460098054600090611d8e908490611ed0565b90915550505b8173ffffffffffffffffffffffffffffffffffffffff16857f3d210d5ae36955ded2bdf69bd956eb075b7fd07362288c7df1797cd8eb1199bf868660030154604051611dea929190918252602082015260400190565b60405180910390a36003830154600484015460405187927f271b411abb4daed7ece41f9d2c3f7013afac0027ce9b19f519635015130eacc392611e3592918252602082015260400190565b60405180910390a25050505050565b60408051426020808301919091524482840152606080830185905283518084039091018152608090920190925280519101206000611e85620f42408361210f565b611e90906001611ed0565b9050611e9c8382611b64565b505050565b7f4e487b7100000000000000000000000000000000000000000000000000000000600052601160045260246000fd5b80820180821115611b5e57611b5e611ea1565b803573ffffffffffffffffffffffffffffffffffffffff81168114611f0757600080fd5b919050565b600060208284031215611f1e57600080fd5b611f2782611ee3565b9392505050565b600060208284031215611f4057600080fd5b5035919050565b67ffffffffffffffff811681146111c057600080fd5b600080600060608486031215611f7257600080fd5b8335611f7d81611f47565b9250611f8b60208501611ee3565b9150604084013590509250925092565b6020808252825182820181905260009190848201906040850190845b81811015611fe957835173ffffffffffffffffffffffffffffffffffffffff1683529284019291840191600101611fb7565b50909695505050505050565b6000806040838503121561200857600080fd5b61201183611ee3565b946020939093013593505050565b6000806040838503121561203257600080fd5b50508035926020909101359150565b6000806040838503121561205457600080fd5b8235915061206460208401611ee3565b90509250929050565b6020808252825182820181905260009190848201906040850190845b81811015611fe957835183529284019291840191600101612089565b6000602082840312156120b757600080fd5b81516fffffffffffffffffffffffffffffffff81168114611f2757600080fd5b60007fffffffffffffffffffffffffffffffffffffffffffffffffffffffffffffffff820361210857612108611ea1565b5060010190565b600082612145577f4e487b7100000000000000000000000000000000000000000000000000000000600052601260045260246000fd5b500690565b60006020828403121561215c57600080fd5b8151611f2781611f47565b7f4e487b7100000000000000000000000000000000000000000000000000000000600052603260045260246000fd5b81810381811115611b5e57611b5e611ea156fea2646970667358221220d4031ecdc499e4d23ae8d97fd2ac9513c3370c73f0ad86146d3ee8c01b9c64f264736f6c63430008110033","opcodes":"PUSH1 0x80 PUSH1 0x40 MSTORE CALLVALUE DUP1 ISZERO PUSH3 0x11 JUMPI PUSH1 0x0 DUP1 REVERT JUMPDEST POP PUSH1 0x40 MLOAD PUSH3 0x23E4 CODESIZE SUB DUP1 PUSH3 0x23E4 DUP4 CODECOPY DUP2 ADD PUSH1 0x40 DUP2 SWAP1 MSTORE PUSH3 0x34 SWAP2 PUSH3 0x15F JUMP JUMPDEST PUSH1 0x0 DUP1 SLOAD PUSH1 0x1 PUSH1 0x1 PUSH1 0xA0 SHL SUB DUP1 DUP8 AND PUSH1 0x1 PUSH1 0x1 PUSH1 0xA0 SHL SUB NOT SWAP3 DUP4 AND OR SWAP1 SWAP3 SSTORE PUSH1 0x1 DUP1 SLOAD SWAP3 DUP7 AND SWAP3 DUP3 AND SWAP3 SWAP1 SWAP3 OR SWAP1 SWAP2 SSTORE PUSH1 0x2 DUP1 SLOAD SWAP1 SWAP2 AND CALLER OR SWAP1 SSTORE PUSH1 0x6 DUP3 SWAP1 SSTORE PUSH1 0x7 DUP2 SWAP1 SSTORE PUSH3 0x83 PUSH3 0x8D JUMP JUMPDEST POP POP POP POP PUSH3 0x1F5 JUMP JUMPDEST PUSH1 0x4 DUP1 SLOAD SWAP1 PUSH1 0x0 PUSH3 0x9F DUP4 PUSH3 0x1BD JUMP JUMPDEST SWAP1 SWAP2 SSTORE POP POP PUSH1 0x8 DUP1 SLOAD SWAP1 PUSH1 0x0 PUSH3 0xB6 DUP4 PUSH3 0x1BD JUMP JUMPDEST SWAP1 SWAP2 SSTORE POP POP PUSH1 0x4 SLOAD PUSH1 0x0 DUP2 DUP2 MSTORE PUSH1 0x5 PUSH1 0x20 MSTORE PUSH1 0x40 SWAP1 KECCAK256 SWAP1 DUP2 SSTORE TIMESTAMP PUSH1 0x1 DUP3 ADD DUP2 SWAP1 SSTORE PUSH1 0x6 SLOAD PUSH3 0xE5 SWAP2 PUSH3 0x1D9 JUMP JUMPDEST PUSH1 0x2 DUP3 ADD SSTORE PUSH1 0x9 DUP2 ADD DUP1 SLOAD PUSH2 0xFFFF PUSH2 0xFFFF PUSH1 0x50 SHL ADD NOT AND PUSH1 0x1 OR SWAP1 SSTORE PUSH1 0x4 SLOAD PUSH1 0x6 SLOAD PUSH1 0x40 DUP1 MLOAD SWAP2 DUP3 MSTORE TIMESTAMP PUSH1 0x20 DUP4 ADD MSTORE PUSH32 0xFCDEB3394EEFBA8891818E18ED3C4D1AA8872705AFA5819133971CAEA073DC1D SWAP2 ADD PUSH1 0x40 MLOAD DUP1 SWAP2 SUB SWAP1 LOG2 POP JUMP JUMPDEST DUP1 MLOAD PUSH1 0x1 PUSH1 0x1 PUSH1 0xA0 SHL SUB DUP2 AND DUP2 EQ PUSH3 0x15A JUMPI PUSH1 0x0 DUP1 REVERT JUMPDEST SWAP2 SWAP1 POP JUMP JUMPDEST PUSH1 0x0 DUP1 PUSH1 0x0 DUP1 PUSH1 0x80 DUP6 DUP8 SUB SLT ISZERO PUSH3 0x176 JUMPI PUSH1 0x0 DUP1 REVERT JUMPDEST PUSH3 0x181 DUP6 PUSH3 0x142 JUMP JUMPDEST SWAP4 POP PUSH3 0x191 PUSH1 0x20 DUP7 ADD PUSH3 0x142 JUMP JUMPDEST PUSH1 0x40 DUP7 ADD MLOAD PUSH1 0x60 SWAP1 SWAP7 ADD MLOAD SWAP5 SWAP8 SWAP1 SWAP7 POP SWAP3 POP POP POP JUMP JUMPDEST PUSH4 0x4E487B71 PUSH1 0xE0 SHL PUSH1 0x0 MSTORE PUSH1 0x11 PUSH1 0x4 MSTORE PUSH1 0x24 PUSH1 0x0 REVERT JUMPDEST PUSH1 0x0 PUSH1 0x1 DUP3 ADD PUSH3 0x1D2 JUMPI PUSH3 0x1D2 PUSH3 0x1A7 JUMP JUMPDEST POP PUSH1 0x1 ADD SWAP1 JUMP JUMPDEST DUP1 DUP3 ADD DUP1 DUP3 GT ISZERO PUSH3 0x1EF JUMPI PUSH3 0x1EF PUSH3 0x1A7 JUMP JUMPDEST SWAP3 SWAP2 POP POP JUMP JUMPDEST PUSH2 0x21DF DUP1 PUSH3 0x205 PUSH1 0x0 CODECOPY PUSH1 0x0 RETURN INVALID PUSH1 0x80 PUSH1 0x40 MSTORE PUSH1 0x4 CALLDATASIZE LT PUSH2 0x1B0 JUMPI PUSH1 0x0 CALLDATALOAD PUSH1 0xE0 SHR DUP1 PUSH4 0xA13CF386 GT PUSH2 0xEC JUMPI DUP1 PUSH4 0xDFE6B5D6 GT PUSH2 0x8A JUMPI DUP1 PUSH4 0xE936A924 GT PUSH2 0x64 JUMPI DUP1 PUSH4 0xE936A924 EQ PUSH2 0x70B JUMPI DUP1 PUSH4 0xF2FDE38B EQ PUSH2 0x720 JUMPI DUP1 PUSH4 0xF530BCAB EQ PUSH2 0x740 JUMPI DUP1 PUSH4 0xF69E6AB0 EQ PUSH2 0x756 JUMPI PUSH1 0x0 DUP1 REVERT JUMPDEST DUP1 PUSH4 0xDFE6B5D6 EQ PUSH2 0x663 JUMPI DUP1 PUSH4 0xE6FA0209 EQ PUSH2 0x6BE JUMPI DUP1 PUSH4 0xE7A7F65C EQ PUSH2 0x6DE JUMPI PUSH1 0x0 DUP1 REVERT JUMPDEST DUP1 PUSH4 0xD259AB42 GT PUSH2 0xC6 JUMPI DUP1 PUSH4 0xD259AB42 EQ PUSH2 0x5EE JUMPI DUP1 PUSH4 0xD7098154 EQ PUSH2 0x60E JUMPI DUP1 PUSH4 0xDB2E21BC EQ PUSH2 0x62E JUMPI DUP1 PUSH4 0xDB60DAE1 EQ PUSH2 0x643 JUMPI PUSH1 0x0 DUP1 REVERT JUMPDEST DUP1 PUSH4 0xA13CF386 EQ PUSH2 0x5B0 JUMPI DUP1 PUSH4 0xA54CD4F7 EQ PUSH2 0x5D0 JUMPI DUP1 PUSH4 0xB3EDE13F EQ PUSH2 0x5E6 JUMPI PUSH1 0x0 DUP1 REVERT JUMPDEST DUP1 PUSH4 0x52A5F1F8 GT PUSH2 0x159 JUMPI DUP1 PUSH4 0x8DA5CB5B GT PUSH2 0x133 JUMPI DUP1 PUSH4 0x8DA5CB5B EQ PUSH2 0x479 JUMPI DUP1 PUSH4 0x8EA83031 EQ PUSH2 0x4CB JUMPI DUP1 PUSH4 0x92E845F6 EQ PUSH2 0x4F8 JUMPI DUP1 PUSH4 0x9ABC1D66 EQ PUSH2 0x590 JUMPI PUSH1 0x0 DUP1 REVERT JUMPDEST DUP1 PUSH4 0x52A5F1F8 EQ PUSH2 0x416 JUMPI DUP1 PUSH4 0x68FB2EBA EQ PUSH2 0x436 JUMPI DUP1 PUSH4 0x6BE4097C EQ PUSH2 0x463 JUMPI PUSH1 0x0 DUP1 REVERT JUMPDEST DUP1 PUSH4 0x2D97902F GT PUSH2 0x18A JUMPI DUP1 PUSH4 0x2D97902F EQ PUSH2 0x36E JUMPI DUP1 PUSH4 0x2F9E9062 EQ PUSH2 0x384 JUMPI DUP1 PUSH4 0x4E43603A EQ PUSH2 0x3B1 JUMPI PUSH1 0x0 DUP1 REVERT JUMPDEST DUP1 PUSH4 0x8857442 EQ PUSH2 0x1EF JUMPI DUP1 PUSH4 0x1398E076 EQ PUSH2 0x22F JUMPI DUP1 PUSH4 0x2D971E63 EQ PUSH2 0x359 JUMPI PUSH1 0x0 DUP1 REVERT JUMPDEST CALLDATASIZE PUSH2 0x1EA JUMPI CALLVALUE ISZERO PUSH2 0x1E8 JUMPI PUSH1 0x4 SLOAD PUSH1 0x0 SWAP1 DUP2 MSTORE PUSH1 0x5 PUSH1 0x20 MSTORE PUSH1 0x40 DUP2 KECCAK256 PUSH1 0x3 DUP2 ADD DUP1 SLOAD SWAP2 SWAP3 CALLVALUE SWAP3 PUSH2 0x1E1 SWAP1 DUP5 SWAP1 PUSH2 0x1ED0 JUMP JUMPDEST SWAP1 SWAP2 SSTORE POP POP POP JUMPDEST STOP JUMPDEST PUSH1 0x0 DUP1 REVERT JUMPDEST CALLVALUE DUP1 ISZERO PUSH2 0x1FB JUMPI PUSH1 0x0 DUP1 REVERT JUMPDEST POP PUSH2 0x21C PUSH2 0x20A CALLDATASIZE PUSH1 0x4 PUSH2 0x1F0C JUMP JUMPDEST PUSH1 0xA PUSH1 0x20 MSTORE PUSH1 0x0 SWAP1 DUP2 MSTORE PUSH1 0x40 SWAP1 KECCAK256 SLOAD DUP2 JUMP JUMPDEST PUSH1 0x40 MLOAD SWAP1 DUP2 MSTORE PUSH1 0x20 ADD JUMPDEST PUSH1 0x40 MLOAD DUP1 SWAP2 SUB SWAP1 RETURN JUMPDEST CALLVALUE DUP1 ISZERO PUSH2 0x23B JUMPI PUSH1 0x0 DUP1 REVERT JUMPDEST POP PUSH2 0x2DF PUSH2 0x24A CALLDATASIZE PUSH1 0x4 PUSH2 0x1F2E JUMP JUMPDEST PUSH1 0x5 PUSH1 0x20 MSTORE PUSH1 0x0 SWAP1 DUP2 MSTORE PUSH1 0x40 SWAP1 KECCAK256 DUP1 SLOAD PUSH1 0x1 DUP3 ADD SLOAD PUSH1 0x2 DUP4 ADD SLOAD PUSH1 0x3 DUP5 ADD SLOAD PUSH1 0x7 DUP6 ADD SLOAD PUSH1 0x8 DUP7 ADD SLOAD PUSH1 0x9 SWAP1 SWAP7 ADD SLOAD SWAP5 SWAP6 SWAP4 SWAP5 SWAP3 SWAP4 SWAP2 SWAP3 PUSH20 0xFFFFFFFFFFFFFFFFFFFFFFFFFFFFFFFFFFFFFFFF SWAP1 SWAP2 AND SWAP2 SWAP1 PUSH1 0xFF DUP1 DUP3 AND SWAP2 PUSH2 0x100 DUP2 DIV DUP3 AND SWAP2 PUSH8 0xFFFFFFFFFFFFFFFF PUSH3 0x10000 DUP4 DIV AND SWAP2 PUSH11 0x100000000000000000000 DUP2 DIV DUP3 AND SWAP2 PUSH12 0x10000000000000000000000 SWAP1 SWAP2 DIV AND DUP12 JUMP JUMPDEST PUSH1 0x40 DUP1 MLOAD SWAP12 DUP13 MSTORE PUSH1 0x20 DUP13 ADD SWAP11 SWAP1 SWAP11 MSTORE SWAP9 DUP11 ADD SWAP8 SWAP1 SWAP8 MSTORE PUSH1 0x60 DUP10 ADD SWAP6 SWAP1 SWAP6 MSTORE PUSH20 0xFFFFFFFFFFFFFFFFFFFFFFFFFFFFFFFFFFFFFFFF SWAP1 SWAP4 AND PUSH1 0x80 DUP9 ADD MSTORE PUSH1 0xA0 DUP8 ADD SWAP2 SWAP1 SWAP2 MSTORE ISZERO ISZERO PUSH1 0xC0 DUP7 ADD MSTORE ISZERO ISZERO PUSH1 0xE0 DUP6 ADD MSTORE PUSH8 0xFFFFFFFFFFFFFFFF AND PUSH2 0x100 DUP5 ADD MSTORE ISZERO ISZERO PUSH2 0x120 DUP4 ADD MSTORE ISZERO ISZERO PUSH2 0x140 DUP3 ADD MSTORE PUSH2 0x160 ADD PUSH2 0x226 JUMP JUMPDEST CALLVALUE DUP1 ISZERO PUSH2 0x365 JUMPI PUSH1 0x0 DUP1 REVERT JUMPDEST POP PUSH2 0x21C PUSH2 0x76C JUMP JUMPDEST CALLVALUE DUP1 ISZERO PUSH2 0x37A JUMPI PUSH1 0x0 DUP1 REVERT JUMPDEST POP PUSH2 0x21C PUSH1 0x6 SLOAD DUP2 JUMP JUMPDEST CALLVALUE DUP1 ISZERO PUSH2 0x390 JUMPI PUSH1 0x0 DUP1 REVERT JUMPDEST POP PUSH2 0x21C PUSH2 0x39F CALLDATASIZE PUSH1 0x4 PUSH2 0x1F0C JUMP JUMPDEST PUSH1 0xB PUSH1 0x20 MSTORE PUSH1 0x0 SWAP1 DUP2 MSTORE PUSH1 0x40 SWAP1 KECCAK256 SLOAD DUP2 JUMP JUMPDEST CALLVALUE DUP1 ISZERO PUSH2 0x3BD JUMPI PUSH1 0x0 DUP1 REVERT JUMPDEST POP PUSH2 0x401 PUSH2 0x3CC CALLDATASIZE PUSH1 0x4 PUSH2 0x1F0C JUMP JUMPDEST PUSH20 0xFFFFFFFFFFFFFFFFFFFFFFFFFFFFFFFFFFFFFFFF AND PUSH1 0x0 SWAP1 DUP2 MSTORE PUSH1 0xA PUSH1 0x20 SWAP1 DUP2 MSTORE PUSH1 0x40 DUP1 DUP4 KECCAK256 SLOAD PUSH1 0xB SWAP1 SWAP3 MSTORE SWAP1 SWAP2 KECCAK256 SLOAD SWAP1 SWAP2 JUMP JUMPDEST PUSH1 0x40 DUP1 MLOAD SWAP3 DUP4 MSTORE PUSH1 0x20 DUP4 ADD SWAP2 SWAP1 SWAP2 MSTORE ADD PUSH2 0x226 JUMP JUMPDEST CALLVALUE DUP1 ISZERO PUSH2 0x422 JUMPI PUSH1 0x0 DUP1 REVERT JUMPDEST POP PUSH2 0x1E8 PUSH2 0x431 CALLDATASIZE PUSH1 0x4 PUSH2 0x1F5D JUMP JUMPDEST PUSH2 0x815 JUMP JUMPDEST CALLVALUE DUP1 ISZERO PUSH2 0x442 JUMPI PUSH1 0x0 DUP1 REVERT JUMPDEST POP PUSH2 0x456 PUSH2 0x451 CALLDATASIZE PUSH1 0x4 PUSH2 0x1F2E JUMP JUMPDEST PUSH2 0x950 JUMP JUMPDEST PUSH1 0x40 MLOAD PUSH2 0x226 SWAP2 SWAP1 PUSH2 0x1F9B JUMP JUMPDEST CALLVALUE DUP1 ISZERO PUSH2 0x46F JUMPI PUSH1 0x0 DUP1 REVERT JUMPDEST POP PUSH2 0x21C PUSH1 0x4 SLOAD DUP2 JUMP JUMPDEST CALLVALUE DUP1 ISZERO PUSH2 0x485 JUMPI PUSH1 0x0 DUP1 REVERT JUMPDEST POP PUSH1 0x2 SLOAD PUSH2 0x4A6 SWAP1 PUSH20 0xFFFFFFFFFFFFFFFFFFFFFFFFFFFFFFFFFFFFFFFF AND DUP2 JUMP JUMPDEST PUSH1 0x40 MLOAD PUSH20 0xFFFFFFFFFFFFFFFFFFFFFFFFFFFFFFFFFFFFFFFF SWAP1 SWAP2 AND DUP2 MSTORE PUSH1 0x20 ADD PUSH2 0x226 JUMP JUMPDEST CALLVALUE DUP1 ISZERO PUSH2 0x4D7 JUMPI PUSH1 0x0 DUP1 REVERT JUMPDEST POP PUSH1 0x3 SLOAD PUSH2 0x4A6 SWAP1 PUSH20 0xFFFFFFFFFFFFFFFFFFFFFFFFFFFFFFFFFFFFFFFF AND DUP2 JUMP JUMPDEST CALLVALUE DUP1 ISZERO PUSH2 0x504 JUMPI PUSH1 0x0 DUP1 REVERT JUMPDEST POP PUSH2 0x518 PUSH2 0x513 CALLDATASIZE PUSH1 0x4 PUSH2 0x1F2E JUMP JUMPDEST PUSH2 0xA0A JUMP JUMPDEST PUSH1 0x40 DUP1 MLOAD SWAP12 DUP13 MSTORE PUSH1 0x20 DUP13 ADD SWAP11 SWAP1 SWAP11 MSTORE SWAP9 DUP11 ADD SWAP8 SWAP1 SWAP8 MSTORE PUSH1 0x60 DUP10 ADD SWAP6 SWAP1 SWAP6 MSTORE PUSH1 0x80 DUP9 ADD SWAP4 SWAP1 SWAP4 MSTORE PUSH20 0xFFFFFFFFFFFFFFFFFFFFFFFFFFFFFFFFFFFFFFFF SWAP1 SWAP2 AND PUSH1 0xA0 DUP8 ADD MSTORE PUSH1 0xC0 DUP7 ADD MSTORE ISZERO ISZERO PUSH1 0xE0 DUP6 ADD MSTORE ISZERO ISZERO PUSH2 0x100 DUP5 ADD MSTORE ISZERO ISZERO PUSH2 0x120 DUP4 ADD MSTORE PUSH8 0xFFFFFFFFFFFFFFFF AND PUSH2 0x140 DUP3 ADD MSTORE PUSH2 0x160 ADD PUSH2 0x226 JUMP JUMPDEST CALLVALUE DUP1 ISZERO PUSH2 0x59C JUMPI PUSH1 0x0 DUP1 REVERT JUMPDEST POP PUSH2 0x1E8 PUSH2 0x5AB CALLDATASIZE PUSH1 0x4 PUSH2 0x1FF5 JUMP JUMPDEST PUSH2 0xAED JUMP JUMPDEST CALLVALUE DUP1 ISZERO PUSH2 0x5BC JUMPI PUSH1 0x0 DUP1 REVERT JUMPDEST POP PUSH2 0x1E8 PUSH2 0x5CB CALLDATASIZE PUSH1 0x4 PUSH2 0x1F0C JUMP JUMPDEST PUSH2 0xD23 JUMP JUMPDEST CALLVALUE DUP1 ISZERO PUSH2 0x5DC JUMPI PUSH1 0x0 DUP1 REVERT JUMPDEST POP PUSH2 0x21C PUSH1 0x7 SLOAD DUP2 JUMP JUMPDEST PUSH2 0x1E8 PUSH2 0xDBB JUMP JUMPDEST CALLVALUE DUP1 ISZERO PUSH2 0x5FA JUMPI PUSH1 0x0 DUP1 REVERT JUMPDEST POP PUSH2 0x1E8 PUSH2 0x609 CALLDATASIZE PUSH1 0x4 PUSH2 0x1F0C JUMP JUMPDEST PUSH2 0xDF0 JUMP JUMPDEST CALLVALUE DUP1 ISZERO PUSH2 0x61A JUMPI PUSH1 0x0 DUP1 REVERT JUMPDEST POP PUSH2 0x1E8 PUSH2 0x629 CALLDATASIZE PUSH1 0x4 PUSH2 0x1F2E JUMP JUMPDEST PUSH2 0xE88 JUMP JUMPDEST CALLVALUE DUP1 ISZERO PUSH2 0x63A JUMPI PUSH1 0x0 DUP1 REVERT JUMPDEST POP PUSH2 0x1E8 PUSH2 0x1129 JUMP JUMPDEST CALLVALUE DUP1 ISZERO PUSH2 0x64F JUMPI PUSH1 0x0 DUP1 REVERT JUMPDEST POP PUSH2 0x1E8 PUSH2 0x65E CALLDATASIZE PUSH1 0x4 PUSH2 0x201F JUMP JUMPDEST PUSH2 0x11C3 JUMP JUMPDEST CALLVALUE DUP1 ISZERO PUSH2 0x66F JUMPI PUSH1 0x0 DUP1 REVERT JUMPDEST POP PUSH1 0x8 SLOAD PUSH1 0x9 SLOAD PUSH1 0x4 SLOAD PUSH1 0x0 DUP2 DUP2 MSTORE PUSH1 0x5 PUSH1 0x20 MSTORE PUSH1 0x40 SWAP1 KECCAK256 PUSH1 0x3 ADD SLOAD PUSH1 0x6 SLOAD PUSH1 0x7 SLOAD PUSH1 0x40 DUP1 MLOAD SWAP7 DUP8 MSTORE PUSH1 0x20 DUP8 ADD SWAP6 SWAP1 SWAP6 MSTORE SWAP4 DUP6 ADD SWAP3 SWAP1 SWAP3 MSTORE PUSH1 0x60 DUP5 ADD MSTORE PUSH1 0x80 DUP4 ADD MSTORE PUSH1 0xA0 DUP3 ADD MSTORE PUSH1 0xC0 ADD PUSH2 0x226 JUMP JUMPDEST CALLVALUE DUP1 ISZERO PUSH2 0x6CA JUMPI PUSH1 0x0 DUP1 REVERT JUMPDEST POP PUSH2 0x1E8 PUSH2 0x6D9 CALLDATASIZE PUSH1 0x4 PUSH2 0x201F JUMP JUMPDEST PUSH2 0x1268 JUMP JUMPDEST CALLVALUE DUP1 ISZERO PUSH2 0x6EA JUMPI PUSH1 0x0 DUP1 REVERT JUMPDEST POP PUSH2 0x6FE PUSH2 0x6F9 CALLDATASIZE PUSH1 0x4 PUSH2 0x2041 JUMP JUMPDEST PUSH2 0x1386 JUMP JUMPDEST PUSH1 0x40 MLOAD PUSH2 0x226 SWAP2 SWAP1 PUSH2 0x206D JUMP JUMPDEST CALLVALUE DUP1 ISZERO PUSH2 0x717 JUMPI PUSH1 0x0 DUP1 REVERT JUMPDEST POP PUSH2 0x1E8 PUSH2 0x144B JUMP JUMPDEST CALLVALUE DUP1 ISZERO PUSH2 0x72C JUMPI PUSH1 0x0 DUP1 REVERT JUMPDEST POP PUSH2 0x1E8 PUSH2 0x73B CALLDATASIZE PUSH1 0x4 PUSH2 0x1F0C JUMP JUMPDEST PUSH2 0x14E0 JUMP JUMPDEST CALLVALUE DUP1 ISZERO PUSH2 0x74C JUMPI PUSH1 0x0 DUP1 REVERT JUMPDEST POP PUSH2 0x21C PUSH1 0x8 SLOAD DUP2 JUMP JUMPDEST CALLVALUE DUP1 ISZERO PUSH2 0x762 JUMPI PUSH1 0x0 DUP1 REVERT JUMPDEST POP PUSH2 0x21C PUSH1 0x9 SLOAD DUP2 JUMP JUMPDEST PUSH1 0x0 DUP1 PUSH1 0x0 SWAP1 SLOAD SWAP1 PUSH2 0x100 EXP SWAP1 DIV PUSH20 0xFFFFFFFFFFFFFFFFFFFFFFFFFFFFFFFFFFFFFFFF AND PUSH20 0xFFFFFFFFFFFFFFFFFFFFFFFFFFFFFFFFFFFFFFFF AND PUSH4 0x8204B67A PUSH1 0x40 MLOAD DUP2 PUSH4 0xFFFFFFFF AND PUSH1 0xE0 SHL DUP2 MSTORE PUSH1 0x4 ADD PUSH1 0x20 PUSH1 0x40 MLOAD DUP1 DUP4 SUB DUP2 DUP7 GAS STATICCALL ISZERO DUP1 ISZERO PUSH2 0x7DA JUMPI RETURNDATASIZE PUSH1 0x0 DUP1 RETURNDATACOPY RETURNDATASIZE PUSH1 0x0 REVERT JUMPDEST POP POP POP POP PUSH1 0x40 MLOAD RETURNDATASIZE PUSH1 0x1F NOT PUSH1 0x1F DUP3 ADD AND DUP3 ADD DUP1 PUSH1 0x40 MSTORE POP DUP2 ADD SWAP1 PUSH2 0x7FE SWAP2 SWAP1 PUSH2 0x20A5 JUMP JUMPDEST PUSH16 0xFFFFFFFFFFFFFFFFFFFFFFFFFFFFFFFF AND SWAP1 POP SWAP1 JUMP JUMPDEST PUSH1 0x0 SLOAD PUSH20 0xFFFFFFFFFFFFFFFFFFFFFFFFFFFFFFFFFFFFFFFF AND DUP1 PUSH2 0x89A JUMPI PUSH1 0x40 MLOAD PUSH32 0x8C379A000000000000000000000000000000000000000000000000000000000 DUP2 MSTORE PUSH1 0x20 PUSH1 0x4 DUP3 ADD MSTORE PUSH1 0x17 PUSH1 0x24 DUP3 ADD MSTORE PUSH32 0x456E74726F70792061646472657373206E6F7420736574000000000000000000 PUSH1 0x44 DUP3 ADD MSTORE PUSH1 0x64 ADD JUMPDEST PUSH1 0x40 MLOAD DUP1 SWAP2 SUB SWAP1 REVERT JUMPDEST CALLER PUSH20 0xFFFFFFFFFFFFFFFFFFFFFFFFFFFFFFFFFFFFFFFF DUP3 AND EQ PUSH2 0x93F JUMPI PUSH1 0x40 MLOAD PUSH32 0x8C379A000000000000000000000000000000000000000000000000000000000 DUP2 MSTORE PUSH1 0x20 PUSH1 0x4 DUP3 ADD MSTORE PUSH1 0x23 PUSH1 0x24 DUP3 ADD MSTORE PUSH32 0x4F6E6C7920456E74726F70792063616E2063616C6C20746869732066756E6374 PUSH1 0x44 DUP3 ADD MSTORE PUSH32 0x696F6E0000000000000000000000000000000000000000000000000000000000 PUSH1 0x64 DUP3 ADD MSTORE PUSH1 0x84 ADD PUSH2 0x891 JUMP JUMPDEST PUSH2 0x94A DUP5 DUP5 DUP5 PUSH2 0x15F5 JUMP JUMPDEST POP POP POP POP JUMP JUMPDEST PUSH1 0x60 DUP2 PUSH1 0x4 SLOAD DUP2 GT ISZERO PUSH2 0x98F JUMPI PUSH1 0x40 MLOAD PUSH32 0x582CB8E700000000000000000000000000000000000000000000000000000000 DUP2 MSTORE PUSH1 0x4 ADD PUSH1 0x40 MLOAD DUP1 SWAP2 SUB SWAP1 REVERT JUMPDEST PUSH1 0x0 DUP4 DUP2 MSTORE PUSH1 0x5 PUSH1 0x20 SWAP1 DUP2 MSTORE PUSH1 0x40 SWAP2 DUP3 SWAP1 KECCAK256 PUSH1 0x4 ADD DUP1 SLOAD DUP4 MLOAD DUP2 DUP5 MUL DUP2 ADD DUP5 ADD SWAP1 SWAP5 MSTORE DUP1 DUP5 MSTORE SWAP1 SWAP2 DUP4 ADD DUP3 DUP3 DUP1 ISZERO PUSH2 0x9FD JUMPI PUSH1 0x20 MUL DUP3 ADD SWAP2 SWAP1 PUSH1 0x0 MSTORE PUSH1 0x20 PUSH1 0x0 KECCAK256 SWAP1 JUMPDEST DUP2 SLOAD PUSH20 0xFFFFFFFFFFFFFFFFFFFFFFFFFFFFFFFFFFFFFFFF AND DUP2 MSTORE PUSH1 0x1 SWAP1 SWAP2 ADD SWAP1 PUSH1 0x20 ADD DUP1 DUP4 GT PUSH2 0x9D2 JUMPI JUMPDEST POP POP POP POP POP SWAP2 POP POP SWAP2 SWAP1 POP JUMP JUMPDEST PUSH1 0x0 DUP1 PUSH1 0x0 DUP1 PUSH1 0x0 DUP1 PUSH1 0x0 DUP1 PUSH1 0x0 DUP1 PUSH1 0x0 DUP12 PUSH1 0x4 SLOAD DUP2 GT ISZERO PUSH2 0xA58 JUMPI PUSH1 0x40 MLOAD PUSH32 0x582CB8E700000000000000000000000000000000000000000000000000000000 DUP2 MSTORE PUSH1 0x4 ADD PUSH1 0x40 MLOAD DUP1 SWAP2 SUB SWAP1 REVERT JUMPDEST POP POP POP PUSH1 0x0 SWAP10 DUP11 MSTORE POP POP PUSH1 0x5 PUSH1 0x20 MSTORE POP POP PUSH1 0x40 SWAP1 SWAP6 KECCAK256 DUP1 SLOAD PUSH1 0x1 DUP3 ADD SLOAD PUSH1 0x2 DUP4 ADD SLOAD PUSH1 0x3 DUP5 ADD SLOAD PUSH1 0x4 DUP6 ADD SLOAD PUSH1 0x7 DUP7 ADD SLOAD PUSH1 0x8 DUP8 ADD SLOAD PUSH1 0x9 SWAP1 SWAP8 ADD SLOAD SWAP6 SWAP13 SWAP5 SWAP12 POP SWAP3 SWAP10 POP SWAP1 SWAP8 POP SWAP6 POP PUSH20 0xFFFFFFFFFFFFFFFFFFFFFFFFFFFFFFFFFFFFFFFF AND SWAP4 POP PUSH1 0xFF DUP1 DUP4 AND SWAP3 PUSH2 0x100 DUP2 DIV DUP3 AND SWAP3 PUSH11 0x100000000000000000000 DUP3 DIV SWAP1 SWAP3 AND SWAP2 PUSH3 0x10000 SWAP1 SWAP2 DIV PUSH8 0xFFFFFFFFFFFFFFFF AND SWAP1 JUMP JUMPDEST PUSH1 0x3 SLOAD PUSH20 0xFFFFFFFFFFFFFFFFFFFFFFFFFFFFFFFFFFFFFFFF AND CALLER EQ PUSH2 0xB3E JUMPI PUSH1 0x40 MLOAD PUSH32 0xAEE5079200000000000000000000000000000000000000000000000000000000 DUP2 MSTORE PUSH1 0x4 ADD PUSH1 0x40 MLOAD DUP1 SWAP2 SUB SWAP1 REVERT JUMPDEST PUSH1 0x4 SLOAD PUSH1 0x0 SWAP1 DUP2 MSTORE PUSH1 0x5 PUSH1 0x20 MSTORE PUSH1 0x40 SWAP1 KECCAK256 PUSH1 0x9 DUP2 ADD SLOAD PUSH1 0xFF AND PUSH2 0xB8D JUMPI PUSH1 0x40 MLOAD PUSH32 0xED8627A200000000000000000000000000000000000000000000000000000000 DUP2 MSTORE PUSH1 0x4 ADD PUSH1 0x40 MLOAD DUP1 SWAP2 SUB SWAP1 REVERT JUMPDEST DUP1 PUSH1 0x2 ADD SLOAD TIMESTAMP LT PUSH2 0xBBB JUMPI PUSH2 0xBA0 PUSH2 0x16C4 JUMP JUMPDEST PUSH2 0xBA8 PUSH2 0x19D0 JUMP JUMPDEST POP PUSH1 0x4 SLOAD PUSH1 0x0 SWAP1 DUP2 MSTORE PUSH1 0x5 PUSH1 0x20 MSTORE PUSH1 0x40 SWAP1 KECCAK256 JUMPDEST PUSH1 0x0 PUSH2 0xBC7 DUP5 DUP5 PUSH2 0x1A8F JUMP JUMPDEST PUSH20 0xFFFFFFFFFFFFFFFFFFFFFFFFFFFFFFFFFFFFFFFF DUP6 AND PUSH1 0x0 SWAP1 DUP2 MSTORE PUSH1 0x6 DUP5 ADD PUSH1 0x20 MSTORE PUSH1 0x40 SWAP1 KECCAK256 SLOAD SWAP1 SWAP2 POP PUSH1 0xFF AND PUSH2 0xCA4 JUMPI PUSH1 0x4 DUP3 ADD DUP1 SLOAD PUSH1 0x1 DUP1 DUP3 ADD DUP4 SSTORE PUSH1 0x0 SWAP3 DUP4 MSTORE PUSH1 0x20 DUP1 DUP5 KECCAK256 SWAP1 SWAP3 ADD DUP1 SLOAD PUSH32 0xFFFFFFFFFFFFFFFFFFFFFFFF0000000000000000000000000000000000000000 AND PUSH20 0xFFFFFFFFFFFFFFFFFFFFFFFFFFFFFFFFFFFFFFFF DUP10 AND SWAP1 DUP2 OR SWAP1 SWAP2 SSTORE DUP4 MSTORE PUSH1 0x6 DUP6 ADD DUP3 MSTORE PUSH1 0x40 DUP1 DUP5 KECCAK256 DUP1 SLOAD PUSH32 0xFFFFFFFFFFFFFFFFFFFFFFFFFFFFFFFFFFFFFFFFFFFFFFFFFFFFFFFFFFFFFF00 AND SWAP1 SWAP3 OR SWAP1 SWAP2 SSTORE PUSH1 0xB SWAP1 SWAP2 MSTORE DUP2 KECCAK256 DUP1 SLOAD SWAP2 PUSH2 0xC9E DUP4 PUSH2 0x20D7 JUMP JUMPDEST SWAP2 SWAP1 POP SSTORE POP JUMPDEST PUSH20 0xFFFFFFFFFFFFFFFFFFFFFFFFFFFFFFFFFFFFFFFF DUP5 AND PUSH1 0x0 DUP2 DUP2 MSTORE PUSH1 0x5 DUP5 ADD PUSH1 0x20 SWAP1 DUP2 MSTORE PUSH1 0x40 DUP1 DUP4 KECCAK256 DUP1 SLOAD PUSH1 0x1 DUP2 ADD DUP3 SSTORE SWAP1 DUP5 MSTORE SWAP3 DUP3 SWAP1 KECCAK256 SWAP1 SWAP3 ADD DUP5 SWAP1 SSTORE PUSH1 0x4 SLOAD DUP3 MLOAD DUP6 DUP2 MSTORE SWAP2 DUP3 ADD DUP8 SWAP1 MSTORE SWAP2 PUSH32 0x4F0C14AB90DDD0332627BED5FC57CBC7E882AEBC7170AA77071D717A77FC92C6 SWAP2 ADD PUSH1 0x40 MLOAD DUP1 SWAP2 SUB SWAP1 LOG3 POP POP POP POP JUMP JUMPDEST PUSH1 0x2 SLOAD PUSH20 0xFFFFFFFFFFFFFFFFFFFFFFFFFFFFFFFFFFFFFFFF AND CALLER EQ PUSH2 0xD74 JUMPI PUSH1 0x40 MLOAD PUSH32 0x30CD747100000000000000000000000000000000000000000000000000000000 DUP2 MSTORE PUSH1 0x4 ADD PUSH1 0x40 MLOAD DUP1 SWAP2 SUB SWAP1 REVERT JUMPDEST PUSH1 0x1 DUP1 SLOAD PUSH32 0xFFFFFFFFFFFFFFFFFFFFFFFF0000000000000000000000000000000000000000 AND PUSH20 0xFFFFFFFFFFFFFFFFFFFFFFFFFFFFFFFFFFFFFFFF SWAP3 SWAP1 SWAP3 AND SWAP2 SWAP1 SWAP2 OR SWAP1 SSTORE JUMP JUMPDEST CALLVALUE ISZERO PUSH2 0xDEE JUMPI PUSH1 0x4 SLOAD PUSH1 0x0 SWAP1 DUP2 MSTORE PUSH1 0x5 PUSH1 0x20 MSTORE PUSH1 0x40 DUP2 KECCAK256 PUSH1 0x3 DUP2 ADD DUP1 SLOAD SWAP2 SWAP3 CALLVALUE SWAP3 PUSH2 0xDE7 SWAP1 DUP5 SWAP1 PUSH2 0x1ED0 JUMP JUMPDEST SWAP1 SWAP2 SSTORE POP POP POP JUMPDEST JUMP JUMPDEST PUSH1 0x2 SLOAD PUSH20 0xFFFFFFFFFFFFFFFFFFFFFFFFFFFFFFFFFFFFFFFF AND CALLER EQ PUSH2 0xE41 JUMPI PUSH1 0x40 MLOAD PUSH32 0x30CD747100000000000000000000000000000000000000000000000000000000 DUP2 MSTORE PUSH1 0x4 ADD PUSH1 0x40 MLOAD DUP1 SWAP2 SUB SWAP1 REVERT JUMPDEST PUSH1 0x3 DUP1 SLOAD PUSH32 0xFFFFFFFFFFFFFFFFFFFFFFFF0000000000000000000000000000000000000000 AND PUSH20 0xFFFFFFFFFFFFFFFFFFFFFFFFFFFFFFFFFFFFFFFF SWAP3 SWAP1 SWAP3 AND SWAP2 SWAP1 SWAP2 OR SWAP1 SSTORE JUMP JUMPDEST DUP1 PUSH1 0x4 SLOAD DUP2 GT ISZERO PUSH2 0xEC5 JUMPI PUSH1 0x40 MLOAD PUSH32 0x582CB8E700000000000000000000000000000000000000000000000000000000 DUP2 MSTORE PUSH1 0x4 ADD PUSH1 0x40 MLOAD DUP1 SWAP2 SUB SWAP1 REVERT JUMPDEST PUSH1 0x0 DUP3 DUP2 MSTORE PUSH1 0x5 PUSH1 0x20 MSTORE PUSH1 0x40 SWAP1 KECCAK256 PUSH1 0x9 DUP2 ADD SLOAD PUSH2 0x100 SWAP1 DIV PUSH1 0xFF AND PUSH2 0xF16 JUMPI PUSH1 0x40 MLOAD PUSH32 0x2217A82000000000000000000000000000000000000000000000000000000000 DUP2 MSTORE PUSH1 0x4 ADD PUSH1 0x40 MLOAD DUP1 SWAP2 SUB SWAP1 REVERT JUMPDEST PUSH1 0x7 DUP2 ADD SLOAD PUSH20 0xFFFFFFFFFFFFFFFFFFFFFFFFFFFFFFFFFFFFFFFF AND CALLER EQ PUSH2 0xF69 JUMPI PUSH1 0x40 MLOAD PUSH32 0x30CD747100000000000000000000000000000000000000000000000000000000 DUP2 MSTORE PUSH1 0x4 ADD PUSH1 0x40 MLOAD DUP1 SWAP2 SUB SWAP1 REVERT JUMPDEST PUSH1 0x9 DUP2 ADD SLOAD PUSH12 0x10000000000000000000000 SWAP1 DIV PUSH1 0xFF AND ISZERO PUSH2 0xFB7 JUMPI PUSH1 0x40 MLOAD PUSH32 0x582CB8E700000000000000000000000000000000000000000000000000000000 DUP2 MSTORE PUSH1 0x4 ADD PUSH1 0x40 MLOAD DUP1 SWAP2 SUB SWAP1 REVERT JUMPDEST DUP1 PUSH1 0x3 ADD SLOAD PUSH1 0x0 SUB PUSH2 0xFF5 JUMPI PUSH1 0x40 MLOAD PUSH32 0x356680B700000000000000000000000000000000000000000000000000000000 DUP2 MSTORE PUSH1 0x4 ADD PUSH1 0x40 MLOAD DUP1 SWAP2 SUB SWAP1 REVERT JUMPDEST PUSH1 0x3 DUP2 ADD DUP1 SLOAD PUSH1 0x0 SWAP2 DUP3 SWAP1 SSTORE PUSH1 0x9 DUP4 ADD DUP1 SLOAD PUSH32 0xFFFFFFFFFFFFFFFFFFFFFFFFFFFFFFFFFFFFFFFF00FFFFFFFFFFFFFFFFFFFFFF AND PUSH12 0x10000000000000000000000 OR SWAP1 SSTORE PUSH1 0x40 MLOAD SWAP1 SWAP2 SWAP1 CALLER SWAP1 DUP4 SWAP1 DUP4 DUP2 DUP2 DUP2 DUP6 DUP8 GAS CALL SWAP3 POP POP POP RETURNDATASIZE DUP1 PUSH1 0x0 DUP2 EQ PUSH2 0x107B JUMPI PUSH1 0x40 MLOAD SWAP2 POP PUSH1 0x1F NOT PUSH1 0x3F RETURNDATASIZE ADD AND DUP3 ADD PUSH1 0x40 MSTORE RETURNDATASIZE DUP3 MSTORE RETURNDATASIZE PUSH1 0x0 PUSH1 0x20 DUP5 ADD RETURNDATACOPY PUSH2 0x1080 JUMP JUMPDEST PUSH1 0x60 SWAP2 POP JUMPDEST POP POP SWAP1 POP DUP1 PUSH2 0x10EB JUMPI PUSH1 0x40 MLOAD PUSH32 0x8C379A000000000000000000000000000000000000000000000000000000000 DUP2 MSTORE PUSH1 0x20 PUSH1 0x4 DUP3 ADD MSTORE PUSH1 0xF PUSH1 0x24 DUP3 ADD MSTORE PUSH32 0x5472616E73666572206661696C65640000000000000000000000000000000000 PUSH1 0x44 DUP3 ADD MSTORE PUSH1 0x64 ADD PUSH2 0x891 JUMP JUMPDEST PUSH1 0x40 MLOAD DUP3 DUP2 MSTORE CALLER SWAP1 DUP7 SWAP1 PUSH32 0x4AA95F981A8337CB337DE335B965507DA0879C3B49F799D20058E913F5AD2C26 SWAP1 PUSH1 0x20 ADD PUSH1 0x40 MLOAD DUP1 SWAP2 SUB SWAP1 LOG3 POP POP POP POP POP JUMP JUMPDEST PUSH1 0x2 SLOAD PUSH20 0xFFFFFFFFFFFFFFFFFFFFFFFFFFFFFFFFFFFFFFFF AND CALLER EQ PUSH2 0x117A JUMPI PUSH1 0x40 MLOAD PUSH32 0x30CD747100000000000000000000000000000000000000000000000000000000 DUP2 MSTORE PUSH1 0x4 ADD PUSH1 0x40 MLOAD DUP1 SWAP2 SUB SWAP1 REVERT JUMPDEST PUSH1 0x2 SLOAD PUSH1 0x40 MLOAD PUSH20 0xFFFFFFFFFFFFFFFFFFFFFFFFFFFFFFFFFFFFFFFF SWAP1 SWAP2 AND SWAP1 SELFBALANCE DUP1 ISZERO PUSH2 0x8FC MUL SWAP2 PUSH1 0x0 DUP2 DUP2 DUP2 DUP6 DUP9 DUP9 CALL SWAP4 POP POP POP POP ISZERO DUP1 ISZERO PUSH2 0x11C0 JUMPI RETURNDATASIZE PUSH1 0x0 DUP1 RETURNDATACOPY RETURNDATASIZE PUSH1 0x0 REVERT JUMPDEST POP JUMP JUMPDEST PUSH1 0x2 SLOAD PUSH20 0xFFFFFFFFFFFFFFFFFFFFFFFFFFFFFFFFFFFFFFFF AND CALLER EQ PUSH2 0x1214 JUMPI PUSH1 0x40 MLOAD PUSH32 0x30CD747100000000000000000000000000000000000000000000000000000000 DUP2 MSTORE PUSH1 0x4 ADD PUSH1 0x40 MLOAD DUP1 SWAP2 SUB SWAP1 REVERT JUMPDEST PUSH2 0xE10 DUP3 LT DUP1 PUSH2 0x1226 JUMPI POP PUSH3 0x278D00 DUP3 GT JUMPDEST ISZERO PUSH2 0x125D JUMPI PUSH1 0x40 MLOAD PUSH32 0x4A78B84A00000000000000000000000000000000000000000000000000000000 DUP2 MSTORE PUSH1 0x4 ADD PUSH1 0x40 MLOAD DUP1 SWAP2 SUB SWAP1 REVERT JUMPDEST PUSH1 0x6 SWAP2 SWAP1 SWAP2 SSTORE PUSH1 0x7 SSTORE JUMP JUMPDEST DUP2 PUSH1 0x4 SLOAD DUP2 GT ISZERO PUSH2 0x12A5 JUMPI PUSH1 0x40 MLOAD PUSH32 0x582CB8E700000000000000000000000000000000000000000000000000000000 DUP2 MSTORE PUSH1 0x4 ADD PUSH1 0x40 MLOAD DUP1 SWAP2 SUB SWAP1 REVERT JUMPDEST PUSH1 0x0 DUP4 DUP2 MSTORE PUSH1 0x5 PUSH1 0x20 MSTORE PUSH1 0x40 SWAP1 KECCAK256 PUSH1 0x9 DUP2 ADD SLOAD PUSH2 0x100 SWAP1 DIV PUSH1 0xFF AND ISZERO PUSH2 0x12F7 JUMPI PUSH1 0x40 MLOAD PUSH32 0x8C373E5E00000000000000000000000000000000000000000000000000000000 DUP2 MSTORE PUSH1 0x4 ADD PUSH1 0x40 MLOAD DUP1 SWAP2 SUB SWAP1 REVERT JUMPDEST PUSH1 0x9 DUP2 ADD SLOAD PUSH1 0xFF AND ISZERO PUSH2 0x1336 JUMPI PUSH1 0x40 MLOAD PUSH32 0x2217A82000000000000000000000000000000000000000000000000000000000 DUP2 MSTORE PUSH1 0x4 ADD PUSH1 0x40 MLOAD DUP1 SWAP2 SUB SWAP1 REVERT JUMPDEST DUP3 ISZERO DUP1 PUSH2 0x1345 JUMPI POP PUSH3 0xF4240 DUP4 GT JUMPDEST ISZERO PUSH2 0x137C JUMPI PUSH1 0x40 MLOAD PUSH32 0x582CB8E700000000000000000000000000000000000000000000000000000000 DUP2 MSTORE PUSH1 0x4 ADD PUSH1 0x40 MLOAD DUP1 SWAP2 SUB SWAP1 REVERT JUMPDEST PUSH2 0x94A DUP5 DUP5 PUSH2 0x1B64 JUMP JUMPDEST PUSH1 0x60 DUP3 PUSH1 0x4 SLOAD DUP2 GT ISZERO PUSH2 0x13C5 JUMPI PUSH1 0x40 MLOAD PUSH32 0x582CB8E700000000000000000000000000000000000000000000000000000000 DUP2 MSTORE PUSH1 0x4 ADD PUSH1 0x40 MLOAD DUP1 SWAP2 SUB SWAP1 REVERT JUMPDEST PUSH1 0x0 DUP5 DUP2 MSTORE PUSH1 0x5 PUSH1 0x20 DUP2 DUP2 MSTORE PUSH1 0x40 DUP1 DUP5 KECCAK256 PUSH20 0xFFFFFFFFFFFFFFFFFFFFFFFFFFFFFFFFFFFFFFFF DUP9 AND DUP6 MSTORE SWAP1 SWAP3 ADD DUP2 MSTORE SWAP2 DUP2 SWAP1 KECCAK256 DUP1 SLOAD DUP3 MLOAD DUP2 DUP6 MUL DUP2 ADD DUP6 ADD SWAP1 SWAP4 MSTORE DUP1 DUP4 MSTORE SWAP2 SWAP3 SWAP1 SWAP2 SWAP1 DUP4 ADD DUP3 DUP3 DUP1 ISZERO PUSH2 0x143D JUMPI PUSH1 0x20 MUL DUP3 ADD SWAP2 SWAP1 PUSH1 0x0 MSTORE PUSH1 0x20 PUSH1 0x0 KECCAK256 SWAP1 JUMPDEST DUP2 SLOAD DUP2 MSTORE PUSH1 0x20 ADD SWAP1 PUSH1 0x1 ADD SWAP1 DUP1 DUP4 GT PUSH2 0x1429 JUMPI JUMPDEST POP POP POP POP POP SWAP2 POP POP SWAP3 SWAP2 POP POP JUMP JUMPDEST PUSH1 0x4 SLOAD PUSH1 0x0 SWAP1 DUP2 MSTORE PUSH1 0x5 PUSH1 0x20 MSTORE PUSH1 0x40 SWAP1 KECCAK256 PUSH1 0x9 DUP2 ADD SLOAD PUSH1 0xFF AND PUSH2 0x149A JUMPI PUSH1 0x40 MLOAD PUSH32 0xED8627A200000000000000000000000000000000000000000000000000000000 DUP2 MSTORE PUSH1 0x4 ADD PUSH1 0x40 MLOAD DUP1 SWAP2 SUB SWAP1 REVERT JUMPDEST DUP1 PUSH1 0x2 ADD SLOAD TIMESTAMP LT ISZERO PUSH2 0x14D8 JUMPI PUSH1 0x40 MLOAD PUSH32 0x2217A82000000000000000000000000000000000000000000000000000000000 DUP2 MSTORE PUSH1 0x4 ADD PUSH1 0x40 MLOAD DUP1 SWAP2 SUB SWAP1 REVERT JUMPDEST PUSH2 0x11C0 PUSH2 0x16C4 JUMP JUMPDEST PUSH1 0x2 SLOAD PUSH20 0xFFFFFFFFFFFFFFFFFFFFFFFFFFFFFFFFFFFFFFFF AND CALLER EQ PUSH2 0x1531 JUMPI PUSH1 0x40 MLOAD PUSH32 0x30CD747100000000000000000000000000000000000000000000000000000000 DUP2 MSTORE PUSH1 0x4 ADD PUSH1 0x40 MLOAD DUP1 SWAP2 SUB SWAP1 REVERT JUMPDEST PUSH20 0xFFFFFFFFFFFFFFFFFFFFFFFFFFFFFFFFFFFFFFFF DUP2 AND PUSH2 0x15AE JUMPI PUSH1 0x40 MLOAD PUSH32 0x8C379A000000000000000000000000000000000000000000000000000000000 DUP2 MSTORE PUSH1 0x20 PUSH1 0x4 DUP3 ADD MSTORE PUSH1 0x11 PUSH1 0x24 DUP3 ADD MSTORE PUSH32 0x496E76616C6964206E6577206F776E6572000000000000000000000000000000 PUSH1 0x44 DUP3 ADD MSTORE PUSH1 0x64 ADD PUSH2 0x891 JUMP JUMPDEST PUSH1 0x2 DUP1 SLOAD PUSH32 0xFFFFFFFFFFFFFFFFFFFFFFFF0000000000000000000000000000000000000000 AND PUSH20 0xFFFFFFFFFFFFFFFFFFFFFFFFFFFFFFFFFFFFFFFF SWAP3 SWAP1 SWAP3 AND SWAP2 SWAP1 SWAP2 OR SWAP1 SSTORE JUMP JUMPDEST PUSH1 0x1 JUMPDEST PUSH1 0x4 SLOAD DUP2 GT PUSH2 0x94A JUMPI PUSH1 0x0 DUP2 DUP2 MSTORE PUSH1 0x5 PUSH1 0x20 MSTORE PUSH1 0x40 SWAP1 KECCAK256 PUSH1 0x9 DUP2 ADD SLOAD PUSH8 0xFFFFFFFFFFFFFFFF DUP7 DUP2 AND PUSH3 0x10000 SWAP1 SWAP3 DIV AND EQ DUP1 ISZERO PUSH2 0x1648 JUMPI POP PUSH1 0x9 DUP2 ADD SLOAD PUSH11 0x100000000000000000000 SWAP1 DIV PUSH1 0xFF AND ISZERO JUMPDEST ISZERO PUSH2 0x16B1 JUMPI PUSH1 0x9 DUP2 ADD DUP1 SLOAD PUSH32 0xFFFFFFFFFFFFFFFFFFFFFFFFFFFFFFFFFFFFFFFFFF00FFFFFFFFFFFFFFFFFFFF AND PUSH11 0x100000000000000000000 OR SWAP1 SSTORE PUSH1 0x0 PUSH2 0x1693 PUSH3 0xF4240 DUP6 PUSH2 0x210F JUMP JUMPDEST PUSH2 0x169E SWAP1 PUSH1 0x1 PUSH2 0x1ED0 JUMP JUMPDEST SWAP1 POP PUSH2 0x16AA DUP4 DUP3 PUSH2 0x1B64 JUMP JUMPDEST POP POP PUSH2 0x94A JUMP JUMPDEST POP DUP1 PUSH2 0x16BC DUP2 PUSH2 0x20D7 JUMP JUMPDEST SWAP2 POP POP PUSH2 0x15F8 JUMP JUMPDEST PUSH1 0x4 DUP1 SLOAD PUSH1 0x0 SWAP1 DUP2 MSTORE PUSH1 0x5 PUSH1 0x20 MSTORE PUSH1 0x40 DUP2 KECCAK256 SWAP2 DUP3 ADD SLOAD SWAP1 SUB PUSH2 0x1753 JUMPI PUSH1 0x9 DUP2 ADD DUP1 SLOAD PUSH32 0xFFFFFFFFFFFFFFFFFFFFFFFFFFFFFFFFFFFFFFFFFFFFFFFFFFFFFFFFFFFF0000 AND PUSH2 0x100 OR SWAP1 SSTORE PUSH1 0x4 SLOAD PUSH1 0x3 DUP3 ADD SLOAD PUSH1 0x40 DUP1 MLOAD SWAP2 DUP3 MSTORE PUSH1 0x0 PUSH1 0x20 DUP4 ADD MSTORE PUSH32 0x271B411ABB4DAED7ECE41F9D2C3F7013AFAC0027CE9B19F519635015130EACC3 SWAP2 ADD JUMPDEST PUSH1 0x40 MLOAD DUP1 SWAP2 SUB SWAP1 LOG2 POP JUMP JUMPDEST PUSH1 0x9 DUP2 ADD DUP1 SLOAD PUSH32 0xFFFFFFFFFFFFFFFFFFFFFFFFFFFFFFFFFFFFFFFFFFFFFFFFFFFFFFFFFFFFFF00 AND SWAP1 SSTORE PUSH1 0x7 SLOAD PUSH1 0x4 DUP3 ADD SLOAD LT ISZERO PUSH2 0x1800 JUMPI PUSH1 0x9 DUP2 ADD DUP1 SLOAD PUSH32 0xFFFFFFFFFFFFFFFFFFFFFFFFFFFFFFFFFFFFFFFFFFFFFFFFFFFFFFFFFFFF00FF AND PUSH2 0x100 OR SWAP1 SSTORE PUSH1 0x4 DUP1 SLOAD PUSH1 0x3 DUP4 ADD SLOAD SWAP2 DUP4 ADD SLOAD PUSH1 0x40 MLOAD SWAP2 SWAP3 PUSH32 0x271B411ABB4DAED7ECE41F9D2C3F7013AFAC0027CE9B19F519635015130EACC3 SWAP3 PUSH2 0x1748 SWAP3 SWAP1 SWAP2 DUP3 MSTORE PUSH1 0x20 DUP3 ADD MSTORE PUSH1 0x40 ADD SWAP1 JUMP JUMPDEST PUSH1 0x0 DUP1 PUSH1 0x0 SWAP1 SLOAD SWAP1 PUSH2 0x100 EXP SWAP1 DIV PUSH20 0xFFFFFFFFFFFFFFFFFFFFFFFFFFFFFFFFFFFFFFFF AND PUSH20 0xFFFFFFFFFFFFFFFFFFFFFFFFFFFFFFFFFFFFFFFF AND PUSH4 0x8204B67A PUSH1 0x40 MLOAD DUP2 PUSH4 0xFFFFFFFF AND PUSH1 0xE0 SHL DUP2 MSTORE PUSH1 0x4 ADD PUSH1 0x20 PUSH1 0x40 MLOAD DUP1 DUP4 SUB DUP2 DUP7 GAS STATICCALL ISZERO DUP1 ISZERO PUSH2 0x186E JUMPI RETURNDATASIZE PUSH1 0x0 DUP1 RETURNDATACOPY RETURNDATASIZE PUSH1 0x0 REVERT JUMPDEST POP POP POP POP PUSH1 0x40 MLOAD RETURNDATASIZE PUSH1 0x1F NOT PUSH1 0x1F DUP3 ADD AND DUP3 ADD DUP1 PUSH1 0x40 MSTORE POP DUP2 ADD SWAP1 PUSH2 0x1892 SWAP2 SWAP1 PUSH2 0x20A5 JUMP JUMPDEST PUSH16 0xFFFFFFFFFFFFFFFFFFFFFFFFFFFFFFFF AND SWAP1 POP DUP1 SELFBALANCE LT PUSH2 0x19C1 JUMPI PUSH1 0x0 DUP1 PUSH1 0x0 SWAP1 SLOAD SWAP1 PUSH2 0x100 EXP SWAP1 DIV PUSH20 0xFFFFFFFFFFFFFFFFFFFFFFFFFFFFFFFFFFFFFFFF AND PUSH20 0xFFFFFFFFFFFFFFFFFFFFFFFFFFFFFFFFFFFFFFFF AND PUSH4 0x7B43155D DUP4 PUSH1 0x40 MLOAD DUP3 PUSH4 0xFFFFFFFF AND PUSH1 0xE0 SHL DUP2 MSTORE PUSH1 0x4 ADD PUSH1 0x20 PUSH1 0x40 MLOAD DUP1 DUP4 SUB DUP2 DUP6 DUP9 GAS CALL ISZERO DUP1 ISZERO PUSH2 0x191D JUMPI RETURNDATASIZE PUSH1 0x0 DUP1 RETURNDATACOPY RETURNDATASIZE PUSH1 0x0 REVERT JUMPDEST POP POP POP POP POP PUSH1 0x40 MLOAD RETURNDATASIZE PUSH1 0x1F NOT PUSH1 0x1F DUP3 ADD AND DUP3 ADD DUP1 PUSH1 0x40 MSTORE POP DUP2 ADD SWAP1 PUSH2 0x1942 SWAP2 SWAP1 PUSH2 0x214A JUMP JUMPDEST PUSH1 0x9 DUP5 ADD DUP1 SLOAD PUSH32 0xFFFFFFFFFFFFFFFFFFFFFFFFFFFFFFFFFFFFFFFFFFFF0000000000000000FFFF AND PUSH3 0x10000 PUSH8 0xFFFFFFFFFFFFFFFF DUP5 AND SWAP1 DUP2 MUL SWAP2 SWAP1 SWAP2 OR SWAP1 SWAP2 SSTORE PUSH1 0x4 SLOAD PUSH1 0x40 MLOAD SWAP2 DUP3 MSTORE SWAP2 SWAP3 POP PUSH32 0x4B211700ECF92B8CE477DE62320459E015235561CADB1FF1D4C0643DCBC00E1 SWAP1 PUSH1 0x20 ADD PUSH1 0x40 MLOAD DUP1 SWAP2 SUB SWAP1 LOG2 POP POP POP JUMP JUMPDEST PUSH2 0x19CC PUSH1 0x4 SLOAD PUSH2 0x1E44 JUMP JUMPDEST POP POP JUMP JUMPDEST PUSH1 0x4 DUP1 SLOAD SWAP1 PUSH1 0x0 PUSH2 0x19E0 DUP4 PUSH2 0x20D7 JUMP JUMPDEST SWAP1 SWAP2 SSTORE POP POP PUSH1 0x8 DUP1 SLOAD SWAP1 PUSH1 0x0 PUSH2 0x19F5 DUP4 PUSH2 0x20D7 JUMP JUMPDEST SWAP1 SWAP2 SSTORE POP POP PUSH1 0x4 SLOAD PUSH1 0x0 DUP2 DUP2 MSTORE PUSH1 0x5 PUSH1 0x20 MSTORE PUSH1 0x40 SWAP1 KECCAK256 SWAP1 DUP2 SSTORE TIMESTAMP PUSH1 0x1 DUP3 ADD DUP2 SWAP1 SSTORE PUSH1 0x6 SLOAD PUSH2 0x1A22 SWAP2 PUSH2 0x1ED0 JUMP JUMPDEST PUSH1 0x2 DUP3 ADD SSTORE PUSH1 0x9 DUP2 ADD DUP1 SLOAD PUSH32 0xFFFFFFFFFFFFFFFFFFFFFFFFFFFFFFFFFFFFFFFF0000FFFFFFFFFFFFFFFF0000 AND PUSH1 0x1 OR SWAP1 SSTORE PUSH1 0x4 SLOAD PUSH1 0x6 SLOAD PUSH1 0x40 DUP1 MLOAD SWAP2 DUP3 MSTORE TIMESTAMP PUSH1 0x20 DUP4 ADD MSTORE PUSH32 0xFCDEB3394EEFBA8891818E18ED3C4D1AA8872705AFA5819133971CAEA073DC1D SWAP2 ADD PUSH2 0x1748 JUMP JUMPDEST PUSH1 0x4 DUP1 SLOAD PUSH1 0x0 DUP2 DUP2 MSTORE PUSH1 0x5 PUSH1 0x20 SWAP1 DUP2 MSTORE PUSH1 0x40 DUP1 DUP4 KECCAK256 SWAP1 SWAP5 ADD SLOAD SWAP4 MLOAD SWAP2 SWAP4 DUP5 SWAP4 PUSH2 0x1B0A SWAP4 TIMESTAMP SWAP4 DIFFICULTY SWAP4 DUP11 SWAP4 DUP11 SWAP4 SWAP1 SWAP3 ADD SWAP6 DUP7 MSTORE PUSH1 0x20 DUP7 ADD SWAP5 SWAP1 SWAP5 MSTORE PUSH1 0x60 SWAP3 SWAP1 SWAP3 SHL PUSH32 0xFFFFFFFFFFFFFFFFFFFFFFFFFFFFFFFFFFFFFFFF000000000000000000000000 AND PUSH1 0x40 DUP6 ADD MSTORE PUSH1 0x54 DUP5 ADD MSTORE PUSH1 0x74 DUP4 ADD MSTORE PUSH1 0x94 DUP3 ADD MSTORE PUSH1 0xB4 ADD SWAP1 JUMP JUMPDEST PUSH1 0x40 DUP1 MLOAD PUSH32 0xFFFFFFFFFFFFFFFFFFFFFFFFFFFFFFFFFFFFFFFFFFFFFFFFFFFFFFFFFFFFFFE0 DUP2 DUP5 SUB ADD DUP2 MSTORE SWAP2 SWAP1 MSTORE DUP1 MLOAD PUSH1 0x20 SWAP1 SWAP2 ADD KECCAK256 SWAP1 POP PUSH2 0x1B4F PUSH3 0xF4240 DUP3 PUSH2 0x210F JUMP JUMPDEST PUSH2 0x1B5A SWAP1 PUSH1 0x1 PUSH2 0x1ED0 JUMP JUMPDEST SWAP2 POP POP JUMPDEST SWAP3 SWAP2 POP POP JUMP JUMPDEST PUSH1 0x0 DUP3 DUP2 MSTORE PUSH1 0x5 PUSH1 0x20 MSTORE PUSH1 0x40 DUP2 KECCAK256 PUSH1 0x4 DUP2 ADD SLOAD SWAP1 SWAP2 SUB PUSH2 0x1BB0 JUMPI PUSH1 0x40 MLOAD PUSH32 0x8B6A473000000000000000000000000000000000000000000000000000000000 DUP2 MSTORE PUSH1 0x4 ADD PUSH1 0x40 MLOAD DUP1 SWAP2 SUB SWAP1 REVERT JUMPDEST PUSH1 0x0 PUSH32 0xFFFFFFFFFFFFFFFFFFFFFFFFFFFFFFFFFFFFFFFFFFFFFFFFFFFFFFFFFFFFFFFF DUP2 JUMPDEST PUSH1 0x4 DUP5 ADD SLOAD DUP2 LT ISZERO PUSH2 0x1CB7 JUMPI PUSH1 0x0 DUP5 PUSH1 0x4 ADD DUP3 DUP2 SLOAD DUP2 LT PUSH2 0x1BF8 JUMPI PUSH2 0x1BF8 PUSH2 0x2167 JUMP JUMPDEST PUSH1 0x0 SWAP2 DUP3 MSTORE PUSH1 0x20 DUP1 DUP4 KECCAK256 SWAP1 SWAP2 ADD SLOAD PUSH20 0xFFFFFFFFFFFFFFFFFFFFFFFFFFFFFFFFFFFFFFFF AND DUP1 DUP4 MSTORE PUSH1 0x5 DUP9 ADD SWAP1 SWAP2 MSTORE PUSH1 0x40 DUP3 KECCAK256 SWAP1 SWAP3 POP SWAP1 JUMPDEST DUP2 SLOAD DUP2 LT ISZERO PUSH2 0x1CA1 JUMPI PUSH1 0x0 DUP3 DUP3 DUP2 SLOAD DUP2 LT PUSH2 0x1C4C JUMPI PUSH2 0x1C4C PUSH2 0x2167 JUMP JUMPDEST SWAP1 PUSH1 0x0 MSTORE PUSH1 0x20 PUSH1 0x0 KECCAK256 ADD SLOAD SWAP1 POP PUSH1 0x0 DUP10 DUP3 GT PUSH2 0x1C71 JUMPI PUSH2 0x1C6C DUP3 DUP12 PUSH2 0x2196 JUMP JUMPDEST PUSH2 0x1C7B JUMP JUMPDEST PUSH2 0x1C7B DUP11 DUP4 PUSH2 0x2196 JUMP JUMPDEST SWAP1 POP DUP7 DUP2 LT ISZERO PUSH2 0x1C8C JUMPI DUP1 SWAP7 POP DUP5 SWAP8 POP JUMPDEST POP POP DUP1 DUP1 PUSH2 0x1C99 SWAP1 PUSH2 0x20D7 JUMP JUMPDEST SWAP2 POP POP PUSH2 0x1C2F JUMP JUMPDEST POP POP POP DUP1 DUP1 PUSH2 0x1CAF SWAP1 PUSH2 0x20D7 JUMP JUMPDEST SWAP2 POP POP PUSH2 0x1BD5 JUMP JUMPDEST POP PUSH1 0x7 DUP4 ADD DUP1 SLOAD PUSH20 0xFFFFFFFFFFFFFFFFFFFFFFFFFFFFFFFFFFFFFFFF DUP5 AND PUSH32 0xFFFFFFFFFFFFFFFFFFFFFFFF0000000000000000000000000000000000000000 SWAP1 SWAP2 AND DUP2 OR SWAP1 SWAP2 SSTORE PUSH1 0x8 DUP5 ADD DUP6 SWAP1 SSTORE PUSH1 0x9 DUP5 ADD DUP1 SLOAD PUSH32 0xFFFFFFFFFFFFFFFFFFFFFFFFFFFFFFFFFFFFFFFFFFFFFFFFFFFFFFFFFFFF00FF AND PUSH2 0x100 OR SWAP1 SSTORE ISZERO PUSH2 0x1D94 JUMPI PUSH1 0x3 DUP4 ADD SLOAD PUSH20 0xFFFFFFFFFFFFFFFFFFFFFFFFFFFFFFFFFFFFFFFF DUP4 AND PUSH1 0x0 SWAP1 DUP2 MSTORE PUSH1 0xA PUSH1 0x20 MSTORE PUSH1 0x40 DUP2 KECCAK256 DUP1 SLOAD SWAP1 SWAP2 SWAP1 PUSH2 0x1D72 SWAP1 DUP5 SWAP1 PUSH2 0x1ED0 JUMP JUMPDEST SWAP1 SWAP2 SSTORE POP POP PUSH1 0x3 DUP4 ADD SLOAD PUSH1 0x9 DUP1 SLOAD PUSH1 0x0 SWAP1 PUSH2 0x1D8E SWAP1 DUP5 SWAP1 PUSH2 0x1ED0 JUMP JUMPDEST SWAP1 SWAP2 SSTORE POP POP JUMPDEST DUP2 PUSH20 0xFFFFFFFFFFFFFFFFFFFFFFFFFFFFFFFFFFFFFFFF AND DUP6 PUSH32 0x3D210D5AE36955DED2BDF69BD956EB075B7FD07362288C7DF1797CD8EB1199BF DUP7 DUP7 PUSH1 0x3 ADD SLOAD PUSH1 0x40 MLOAD PUSH2 0x1DEA SWAP3 SWAP2 SWAP1 SWAP2 DUP3 MSTORE PUSH1 0x20 DUP3 ADD MSTORE PUSH1 0x40 ADD SWAP1 JUMP JUMPDEST PUSH1 0x40 MLOAD DUP1 SWAP2 SUB SWAP1 LOG3 PUSH1 0x3 DUP4 ADD SLOAD PUSH1 0x4 DUP5 ADD SLOAD PUSH1 0x40 MLOAD DUP8 SWAP3 PUSH32 0x271B411ABB4DAED7ECE41F9D2C3F7013AFAC0027CE9B19F519635015130EACC3 SWAP3 PUSH2 0x1E35 SWAP3 SWAP2 DUP3 MSTORE PUSH1 0x20 DUP3 ADD MSTORE PUSH1 0x40 ADD SWAP1 JUMP JUMPDEST PUSH1 0x40 MLOAD DUP1 SWAP2 SUB SWAP1 LOG2 POP POP POP POP POP JUMP JUMPDEST PUSH1 0x40 DUP1 MLOAD TIMESTAMP PUSH1 0x20 DUP1 DUP4 ADD SWAP2 SWAP1 SWAP2 MSTORE DIFFICULTY DUP3 DUP5 ADD MSTORE PUSH1 0x60 DUP1 DUP4 ADD DUP6 SWAP1 MSTORE DUP4 MLOAD DUP1 DUP5 SUB SWAP1 SWAP2 ADD DUP2 MSTORE PUSH1 0x80 SWAP1 SWAP3 ADD SWAP1 SWAP3 MSTORE DUP1 MLOAD SWAP2 ADD KECCAK256 PUSH1 0x0 PUSH2 0x1E85 PUSH3 0xF4240 DUP4 PUSH2 0x210F JUMP JUMPDEST PUSH2 0x1E90 SWAP1 PUSH1 0x1 PUSH2 0x1ED0 JUMP JUMPDEST SWAP1 POP PUSH2 0x1E9C DUP4 DUP3 PUSH2 0x1B64 JUMP JUMPDEST POP POP POP JUMP JUMPDEST PUSH32 0x4E487B7100000000000000000000000000000000000000000000000000000000 PUSH1 0x0 MSTORE PUSH1 0x11 PUSH1 0x4 MSTORE PUSH1 0x24 PUSH1 0x0 REVERT JUMPDEST DUP1 DUP3 ADD DUP1 DUP3 GT ISZERO PUSH2 0x1B5E JUMPI PUSH2 0x1B5E PUSH2 0x1EA1 JUMP JUMPDEST DUP1 CALLDATALOAD PUSH20 0xFFFFFFFFFFFFFFFFFFFFFFFFFFFFFFFFFFFFFFFF DUP2 AND DUP2 EQ PUSH2 0x1F07 JUMPI PUSH1 0x0 DUP1 REVERT JUMPDEST SWAP2 SWAP1 POP JUMP JUMPDEST PUSH1 0x0 PUSH1 0x20 DUP3 DUP5 SUB SLT ISZERO PUSH2 0x1F1E JUMPI PUSH1 0x0 DUP1 REVERT JUMPDEST PUSH2 0x1F27 DUP3 PUSH2 0x1EE3 JUMP JUMPDEST SWAP4 SWAP3 POP POP POP JUMP JUMPDEST PUSH1 0x0 PUSH1 0x20 DUP3 DUP5 SUB SLT ISZERO PUSH2 0x1F40 JUMPI PUSH1 0x0 DUP1 REVERT JUMPDEST POP CALLDATALOAD SWAP2 SWAP1 POP JUMP JUMPDEST PUSH8 0xFFFFFFFFFFFFFFFF DUP2 AND DUP2 EQ PUSH2 0x11C0 JUMPI PUSH1 0x0 DUP1 REVERT JUMPDEST PUSH1 0x0 DUP1 PUSH1 0x0 PUSH1 0x60 DUP5 DUP7 SUB SLT ISZERO PUSH2 0x1F72 JUMPI PUSH1 0x0 DUP1 REVERT JUMPDEST DUP4 CALLDATALOAD PUSH2 0x1F7D DUP2 PUSH2 0x1F47 JUMP JUMPDEST SWAP3 POP PUSH2 0x1F8B PUSH1 0x20 DUP6 ADD PUSH2 0x1EE3 JUMP JUMPDEST SWAP2 POP PUSH1 0x40 DUP5 ADD CALLDATALOAD SWAP1 POP SWAP3 POP SWAP3 POP SWAP3 JUMP JUMPDEST PUSH1 0x20 DUP1 DUP3 MSTORE DUP3 MLOAD DUP3 DUP3 ADD DUP2 SWAP1 MSTORE PUSH1 0x0 SWAP2 SWAP1 DUP5 DUP3 ADD SWAP1 PUSH1 0x40 DUP6 ADD SWAP1 DUP5 JUMPDEST DUP2 DUP2 LT ISZERO PUSH2 0x1FE9 JUMPI DUP4 MLOAD PUSH20 0xFFFFFFFFFFFFFFFFFFFFFFFFFFFFFFFFFFFFFFFF AND DUP4 MSTORE SWAP3 DUP5 ADD SWAP3 SWAP2 DUP5 ADD SWAP2 PUSH1 0x1 ADD PUSH2 0x1FB7 JUMP JUMPDEST POP SWAP1 SWAP7 SWAP6 POP POP POP POP POP POP JUMP JUMPDEST PUSH1 0x0 DUP1 PUSH1 0x40 DUP4 DUP6 SUB SLT ISZERO PUSH2 0x2008 JUMPI PUSH1 0x0 DUP1 REVERT JUMPDEST PUSH2 0x2011 DUP4 PUSH2 0x1EE3 JUMP JUMPDEST SWAP5 PUSH1 0x20 SWAP4 SWAP1 SWAP4 ADD CALLDATALOAD SWAP4 POP POP POP JUMP JUMPDEST PUSH1 0x0 DUP1 PUSH1 0x40 DUP4 DUP6 SUB SLT ISZERO PUSH2 0x2032 JUMPI PUSH1 0x0 DUP1 REVERT JUMPDEST POP POP DUP1 CALLDATALOAD SWAP3 PUSH1 0x20 SWAP1 SWAP2 ADD CALLDATALOAD SWAP2 POP JUMP JUMPDEST PUSH1 0x0 DUP1 PUSH1 0x40 DUP4 DUP6 SUB SLT ISZERO PUSH2 0x2054 JUMPI PUSH1 0x0 DUP1 REVERT JUMPDEST DUP3 CALLDATALOAD SWAP2 POP PUSH2 0x2064 PUSH1 0x20 DUP5 ADD PUSH2 0x1EE3 JUMP JUMPDEST SWAP1 POP SWAP3 POP SWAP3 SWAP1 POP JUMP JUMPDEST PUSH1 0x20 DUP1 DUP3 MSTORE DUP3 MLOAD DUP3 DUP3 ADD DUP2 SWAP1 MSTORE PUSH1 0x0 SWAP2 SWAP1 DUP5 DUP3 ADD SWAP1 PUSH1 0x40 DUP6 ADD SWAP1 DUP5 JUMPDEST DUP2 DUP2 LT ISZERO PUSH2 0x1FE9 JUMPI DUP4 MLOAD DUP4 MSTORE SWAP3 DUP5 ADD SWAP3 SWAP2 DUP5 ADD SWAP2 PUSH1 0x1 ADD PUSH2 0x2089 JUMP JUMPDEST PUSH1 0x0 PUSH1 0x20 DUP3 DUP5 SUB SLT ISZERO PUSH2 0x20B7 JUMPI PUSH1 0x0 DUP1 REVERT JUMPDEST DUP2 MLOAD PUSH16 0xFFFFFFFFFFFFFFFFFFFFFFFFFFFFFFFF DUP2 AND DUP2 EQ PUSH2 0x1F27 JUMPI PUSH1 0x0 DUP1 REVERT JUMPDEST PUSH1 0x0 PUSH32 0xFFFFFFFFFFFFFFFFFFFFFFFFFFFFFFFFFFFFFFFFFFFFFFFFFFFFFFFFFFFFFFFF DUP3 SUB PUSH2 0x2108 JUMPI PUSH2 0x2108 PUSH2 0x1EA1 JUMP JUMPDEST POP PUSH1 0x1 ADD SWAP1 JUMP JUMPDEST PUSH1 0x0 DUP3 PUSH2 0x2145 JUMPI PUSH32 0x4E487B7100000000000000000000000000000000000000000000000000000000 PUSH1 0x0 MSTORE PUSH1 0x12 PUSH1 0x4 MSTORE PUSH1 0x24 PUSH1 0x0 REVERT JUMPDEST POP MOD SWAP1 JUMP JUMPDEST PUSH1 0x0 PUSH1 0x20 DUP3 DUP5 SUB SLT ISZERO PUSH2 0x215C JUMPI PUSH1 0x0 DUP1 REVERT JUMPDEST DUP2 MLOAD PUSH2 0x1F27 DUP2 PUSH2 0x1F47 JUMP JUMPDEST PUSH32 0x4E487B7100000000000000000000000000000000000000000000000000000000 PUSH1 0x0 MSTORE PUSH1 0x32 PUSH1 0x4 MSTORE PUSH1 0x24 PUSH1 0x0 REVERT JUMPDEST DUP2 DUP2 SUB DUP2 DUP2 GT ISZERO PUSH2 0x1B5E JUMPI PUSH2 0x1B5E PUSH2 0x1EA1 JUMP INVALID LOG2 PUSH5 0x6970667358 0x22 SLT KECCAK256 0xD4 SUB 0x1E 0xCD 0xC4 SWAP10 0xE4 0xD2 GASPRICE 0xE8 0xD9 PUSH32 0xD2AC9513C3370C73F0AD86146D3EE8C01B9C64F264736F6C6343000811003300 "},"methodIdentifiers":{"_entropyCallback(uint64,address,bytes32)":"52a5f1f8","addToPrizePool()":"b3ede13f","claimPrize(uint256)":"d7098154","currentLotteryId()":"6be4097c","emergencyWithdraw()":"db2e21bc","endCurrentLottery()":"e936a924","enterUser(address,uint256)":"9abc1d66","getContractStats()":"dfe6b5d6","getEntropyFee()":"2d971e63","getLottery(uint256)":"92e845f6","getLotteryParticipants(uint256)":"68fb2eba","getUserStats(address)":"4e43603a","getUserTickets(uint256,address)":"e7a7f65c","lotteries(uint256)":"1398e076","lotteryDuration()":"2d97902f","minParticipants()":"a54cd4f7","owner()":"8da5cb5b","selectWinner(uint256,uint256)":"e6fa0209","setEntropyProvider(address)":"a13cf386","setSwapContract(address)":"d259ab42","swapContract()":"8ea83031","totalLotteries()":"f530bcab","totalPrizesDistributed()":"f69e6ab0","transferOwnership(address)":"f2fde38b","updateLotterySettings(uint256,uint256)":"db60dae1","userParticipationCount(address)":"2f9e9062","userTotalWinnings(address)":"08857442"}},"storageLayout":{"storage":[{"astId":2908,"contract":"contracts/SwapLottery.sol:SwapLottery","label":"entropy","offset":0,"slot":"0","type":"t_contract(IEntropyV2)474"},{"astId":2910,"contract":"contracts/SwapLottery.sol:SwapLottery","label":"entropyProvider","offset":0,"slot":"1","type":"t_address"},{"astId":2912,"contract":"contracts/SwapLottery.sol:SwapLottery","label":"owner","offset":0,"slot":"2","type":"t_address"},{"astId":2914,"contract":"contracts/SwapLottery.sol:SwapLottery","label":"swapContract","offset":0,"slot":"3","type":"t_address"},{"astId":2916,"contract":"contracts/SwapLottery.sol:SwapLottery","label":"currentLotteryId","offset":0,"slot":"4","type":"t_uint256"},{"astId":2921,"contract":"contracts/SwapLottery.sol:SwapLottery","label":"lotteries","offset":0,"slot":"5","type":"t_mapping(t_uint256,t_struct(Lottery)2905_storage)"},{"astId":2923,"contract":"contracts/SwapLottery.sol:SwapLottery","label":"lotteryDuration","offset":0,"slot":"6","type":"t_uint256"},{"astId":2925,"contract":"contracts/SwapLottery.sol:SwapLottery","label":"minParticipants","offset":0,"slot":"7","type":"t_uint256"},{"astId":2927,"contract":"contracts/SwapLottery.sol:SwapLottery","label":"totalLotteries","offset":0,"slot":"8","type":"t_uint256"},{"astId":2929,"contract":"contracts/SwapLottery.sol:SwapLottery","label":"totalPrizesDistributed","offset":0,"slot":"9","type":"t_uint256"},{"astId":2933,"contract":"contracts/SwapLottery.sol:SwapLottery","label":"userTotalWinnings","offset":0,"slot":"10","type":"t_mapping(t_address,t_uint256)"},{"astId":2937,"contract":"contracts/SwapLottery.sol:SwapLottery","label":"userParticipationCount","offset":0,"slot":"11","type":"t_mapping(t_address,t_uint256)"}],"types":{"t_address":{"encoding":"inplace","label":"address","numberOfBytes":"20"},"t_array(t_address)dyn_storage":{"base":"t_address","encoding":"dynamic_array","label":"address[]","numberOfBytes":"32"},"t_array(t_uint256)dyn_storage":{"base":"t_uint256","encoding":"dynamic_array","label":"uint256[]","numberOfBytes":"32"},"t_bool":{"encoding":"inplace","label":"bool","numberOfBytes":"1"},"t_contract(IEntropyV2)474":{"encoding":"inplace","label":"contract IEntropyV2","numberOfBytes":"20"},"t_mapping(t_address,t_array(t_uint256)dyn_storage)":{"encoding":"mapping","key":"t_address","label":"mapping(address => uint256[])","numberOfBytes":"32","value":"t_array(t_uint256)dyn_storage"},"t_mapping(t_address,t_bool)":{"encoding":"mapping","key":"t_address","label":"mapping(address => bool)","numberOfBytes":"32","value":"t_bool"},"t_mapping(t_address,t_uint256)":{"encoding":"mapping","key":"t_address","label":"mapping(address => uint256)","numberOfBytes":"32","value":"t_uint256"},"t_mapping(t_uint256,t_struct(Lottery)2905_storage)":{"encoding":"mapping","key":"t_uint256","label":"mapping(uint256 => struct SwapLottery.Lottery)","numberOfBytes":"32","value":"t_struct(Lottery)2905_storage"},"t_struct(Lottery)2905_storage":{"encoding":"inplace","label":"struct SwapLottery.Lottery","members":[{"astId":2872,"contract":"contracts/SwapLottery.sol:SwapLottery","label":"lotteryId","offset":0,"slot":"0","type":"t_uint256"},{"astId":2874,"contract":"contracts/SwapLottery.sol:SwapLottery","label":"startTime","offset":0,"slot":"1","type":"t_uint256"},{"astId":2876,"contract":"contracts/SwapLottery.sol:SwapLottery","label":"endTime","offset":0,"slot":"2","type":"t_uint256"},{"astId":2878,"contract":"contracts/SwapLottery.sol:SwapLottery","label":"prizePool","offset":0,"slot":"3","type":"t_uint256"},{"astId":2881,"contract":"contracts/SwapLottery.sol:SwapLottery","label":"participants","offset":0,"slot":"4","type":"t_array(t_address)dyn_storage"},{"astId":2886,"contract":"contracts/SwapLottery.sol:SwapLottery","label":"userTickets","offset":0,"slot":"5","type":"t_mapping(t_address,t_array(t_uint256)dyn_storage)"},{"astId":2890,"contract":"contracts/SwapLottery.sol:SwapLottery","label":"hasParticipated","offset":0,"slot":"6","type":"t_mapping(t_address,t_bool)"},{"astId":2892,"contract":"contracts/SwapLottery.sol:SwapLottery","label":"winner","offset":0,"slot":"7","type":"t_address"},{"astId":2894,"contract":"contracts/SwapLottery.sol:SwapLottery","label":"winningNumber","offset":0,"slot":"8","type":"t_uint256"},{"astId":2896,"contract":"contracts/SwapLottery.sol:SwapLottery","label":"isActive","offset":0,"slot":"9","type":"t_bool"},{"astId":2898,"contract":"contracts/SwapLottery.sol:SwapLottery","label":"isEnded","offset":1,"slot":"9","type":"t_bool"},{"astId":2900,"contract":"contracts/SwapLottery.sol:SwapLottery","label":"sequenceNumber","offset":2,"slot":"9","type":"t_uint64"},{"astId":2902,"contract":"contracts/SwapLottery.sol:SwapLottery","label":"randomNumberReceived","offset":10,"slot":"9","type":"t_bool"},{"astId":2904,"contract":"contracts/SwapLottery.sol:SwapLottery","label":"prizeClaimed","offset":11,"slot":"9","type":"t_bool"}],"numberOfBytes":"320"},"t_uint256":{"encoding":"inplace","label":"uint256","numberOfBytes":"32"},"t_uint64":{"encoding":"inplace","label":"uint64","numberOfBytes":"8"}}}}}}