{"contracts/COPYCATLottery.sol":{"COPYCATLottery":{"abi":[{"inputs":[{"internalType":"address","name":"_entropy","type":"address"},{"internalType":"address","name":"_entropyProvider","type":"address"}],"stateMutability":"nonpayable","type":"constructor"},{"inputs":[],"name":"AlreadyParticipated","type":"error"},{"inputs":[],"name":"InsufficientFee","type":"error"},{"inputs":[],"name":"InvalidLotteryId","type":"error"},{"inputs":[],"name":"LotteryAlreadyEnded","type":"error"},{"inputs":[],"name":"LotteryInProgress","type":"error"},{"inputs":[],"name":"LotteryNotActive","type":"error"},{"inputs":[],"name":"NoParticipants","type":"error"},{"inputs":[],"name":"NotOwner","type":"error"},{"anonymous":false,"inputs":[{"indexed":true,"internalType":"uint256","name":"lotteryId","type":"uint256"},{"indexed":false,"internalType":"uint256","name":"entryFee","type":"uint256"},{"indexed":false,"internalType":"uint256","name":"maxParticipants","type":"uint256"},{"indexed":false,"internalType":"uint256","name":"duration","type":"uint256"}],"name":"LotteryCreated","type":"event"},{"anonymous":false,"inputs":[{"indexed":true,"internalType":"uint256","name":"lotteryId","type":"uint256"},{"indexed":true,"internalType":"address","name":"winner","type":"address"},{"indexed":false,"internalType":"uint256","name":"prizeAmount","type":"uint256"},{"indexed":false,"internalType":"uint256","name":"sequenceNumber","type":"uint256"}],"name":"LotteryEnded","type":"event"},{"anonymous":false,"inputs":[{"indexed":true,"internalType":"uint256","name":"lotteryId","type":"uint256"},{"indexed":true,"internalType":"address","name":"participant","type":"address"},{"indexed":false,"internalType":"uint256","name":"participantCount","type":"uint256"}],"name":"LotteryJoined","type":"event"},{"anonymous":false,"inputs":[{"indexed":true,"internalType":"uint256","name":"lotteryId","type":"uint256"},{"indexed":true,"internalType":"address","name":"winner","type":"address"},{"indexed":false,"internalType":"uint256","name":"amount","type":"uint256"}],"name":"PrizeClaimed","type":"event"},{"anonymous":false,"inputs":[{"indexed":true,"internalType":"uint256","name":"lotteryId","type":"uint256"},{"indexed":false,"internalType":"uint64","name":"sequenceNumber","type":"uint64"}],"name":"RandomNumberRequested","type":"event"},{"inputs":[],"name":"MAX_DURATION","outputs":[{"internalType":"uint256","name":"","type":"uint256"}],"stateMutability":"view","type":"function"},{"inputs":[],"name":"MAX_ENTRY_FEE","outputs":[{"internalType":"uint256","name":"","type":"uint256"}],"stateMutability":"view","type":"function"},{"inputs":[],"name":"MAX_PARTICIPANTS","outputs":[{"internalType":"uint256","name":"","type":"uint256"}],"stateMutability":"view","type":"function"},{"inputs":[],"name":"MIN_DURATION","outputs":[{"internalType":"uint256","name":"","type":"uint256"}],"stateMutability":"view","type":"function"},{"inputs":[],"name":"MIN_ENTRY_FEE","outputs":[{"internalType":"uint256","name":"","type":"uint256"}],"stateMutability":"view","type":"function"},{"inputs":[],"name":"MIN_PARTICIPANTS","outputs":[{"internalType":"uint256","name":"","type":"uint256"}],"stateMutability":"view","type":"function"},{"inputs":[{"internalType":"uint64","name":"sequence","type":"uint64"},{"internalType":"address","name":"provider","type":"address"},{"internalType":"bytes32","name":"randomNumber","type":"bytes32"}],"name":"_entropyCallback","outputs":[],"stateMutability":"nonpayable","type":"function"},{"inputs":[{"internalType":"uint256","name":"_lotteryId","type":"uint256"}],"name":"claimPrize","outputs":[],"stateMutability":"nonpayable","type":"function"},{"inputs":[{"internalType":"uint256","name":"_entryFee","type":"uint256"},{"internalType":"uint256","name":"_maxParticipants","type":"uint256"},{"internalType":"uint256","name":"_duration","type":"uint256"}],"name":"createLottery","outputs":[{"internalType":"uint256","name":"","type":"uint256"}],"stateMutability":"nonpayable","type":"function"},{"inputs":[],"name":"emergencyWithdraw","outputs":[],"stateMutability":"nonpayable","type":"function"},{"inputs":[{"internalType":"uint256","name":"_lotteryId","type":"uint256"}],"name":"endLottery","outputs":[],"stateMutability":"nonpayable","type":"function"},{"inputs":[],"name":"getContractStats","outputs":[{"internalType":"uint256","name":"totalLotteries_","type":"uint256"},{"internalType":"uint256","name":"totalPrizesDistributed_","type":"uint256"},{"internalType":"uint256","name":"currentLotteryId","type":"uint256"}],"stateMutability":"view","type":"function"},{"inputs":[],"name":"getEntropyFee","outputs":[{"internalType":"uint256","name":"","type":"uint256"}],"stateMutability":"view","type":"function"},{"inputs":[{"internalType":"uint256","name":"_lotteryId","type":"uint256"}],"name":"getLottery","outputs":[{"internalType":"uint256","name":"lotteryId","type":"uint256"},{"internalType":"uint256","name":"entryFee","type":"uint256"},{"internalType":"uint256","name":"maxParticipants","type":"uint256"},{"internalType":"uint256","name":"startTime","type":"uint256"},{"internalType":"uint256","name":"endTime","type":"uint256"},{"internalType":"uint256","name":"prizePool","type":"uint256"},{"internalType":"uint256","name":"participantCount","type":"uint256"},{"internalType":"address","name":"winner","type":"address"},{"internalType":"bool","name":"isActive","type":"bool"},{"internalType":"bool","name":"isEnded","type":"bool"},{"internalType":"uint64","name":"sequenceNumber","type":"uint64"}],"stateMutability":"view","type":"function"},{"inputs":[{"internalType":"uint256","name":"_lotteryId","type":"uint256"}],"name":"getLotteryParticipants","outputs":[{"internalType":"address[]","name":"","type":"address[]"}],"stateMutability":"view","type":"function"},{"inputs":[{"internalType":"address","name":"_user","type":"address"}],"name":"getUserStats","outputs":[{"internalType":"uint256","name":"winnings","type":"uint256"},{"internalType":"uint256","name":"participations","type":"uint256"}],"stateMutability":"view","type":"function"},{"inputs":[{"internalType":"uint256","name":"","type":"uint256"},{"internalType":"address","name":"","type":"address"}],"name":"hasParticipated","outputs":[{"internalType":"bool","name":"","type":"bool"}],"stateMutability":"view","type":"function"},{"inputs":[{"internalType":"uint256","name":"_lotteryId","type":"uint256"}],"name":"joinLottery","outputs":[],"stateMutability":"payable","type":"function"},{"inputs":[{"internalType":"uint256","name":"","type":"uint256"}],"name":"lotteries","outputs":[{"internalType":"uint256","name":"lotteryId","type":"uint256"},{"internalType":"uint256","name":"entryFee","type":"uint256"},{"internalType":"uint256","name":"maxParticipants","type":"uint256"},{"internalType":"uint256","name":"startTime","type":"uint256"},{"internalType":"uint256","name":"endTime","type":"uint256"},{"internalType":"uint256","name":"prizePool","type":"uint256"},{"internalType":"address","name":"winner","type":"address"},{"internalType":"bool","name":"isActive","type":"bool"},{"internalType":"bool","name":"isEnded","type":"bool"},{"internalType":"uint64","name":"sequenceNumber","type":"uint64"},{"internalType":"bool","name":"randomNumberReceived","type":"bool"}],"stateMutability":"view","type":"function"},{"inputs":[],"name":"nextLotteryId","outputs":[{"internalType":"uint256","name":"","type":"uint256"}],"stateMutability":"view","type":"function"},{"inputs":[],"name":"owner","outputs":[{"internalType":"address","name":"","type":"address"}],"stateMutability":"view","type":"function"},{"inputs":[{"internalType":"address","name":"_newProvider","type":"address"}],"name":"setEntropyProvider","outputs":[],"stateMutability":"nonpayable","type":"function"},{"inputs":[],"name":"totalLotteries","outputs":[{"internalType":"uint256","name":"","type":"uint256"}],"stateMutability":"view","type":"function"},{"inputs":[],"name":"totalPrizesDistributed","outputs":[{"internalType":"uint256","name":"","type":"uint256"}],"stateMutability":"view","type":"function"},{"inputs":[{"internalType":"address","name":"","type":"address"}],"name":"userParticipations","outputs":[{"internalType":"uint256","name":"","type":"uint256"}],"stateMutability":"view","type":"function"},{"inputs":[{"internalType":"address","name":"","type":"address"}],"name":"userWinnings","outputs":[{"internalType":"uint256","name":"","type":"uint256"}],"stateMutability":"view","type":"function"},{"stateMutability":"payable","type":"receive"}],"evm":{"bytecode":{"linkReferences":{},"object":"60806040523480156200001157600080fd5b5060405162001da438038062001da4833981016040819052620000349162000093565b600080546001600160a01b039384166001600160a01b0319918216179091556001805492909316918116919091179091556002805490911633179055620000cb565b80516001600160a01b03811681146200008e57600080fd5b919050565b60008060408385031215620000a757600080fd5b620000b28362000076565b9150620000c26020840162000076565b90509250929050565b611cc980620000db6000396000f3fe6080604052600436106101a55760003560e01c8063a13cf386116100e1578063d70981541161008a578063f3baf07011610064578063f3baf070146106d1578063f50ab0de146106e7578063f530bcab14610703578063f69e6ab01461071957600080fd5b8063d70981541461066b578063db2e21bc1461068b578063dfe6b5d6146106a057600080fd5b8063b1724b46116100bb578063b1724b4614610611578063b6a6d17714610628578063d05598821461063e57600080fd5b8063a13cf38614610579578063a34398a214610599578063a815a4d4146105e457600080fd5b806352a5f1f81161014e5780638009df68116101285780638009df681461045f57806381883759146104755780638da5cb5b1461049057806392e845f6146104e257600080fd5b806352a5f1f8146103ff57806368fb2eba1461041f5780637eee9fc11461044c57600080fd5b80633739e7691161017f5780633739e769146103635780633a984bc5146103855780634e43603a1461039a57600080fd5b80631398e076146101b15780632cffaa60146103205780632d971e631461034e57600080fd5b366101ac57005b600080fd5b3480156101bd57600080fd5b506102a26101cc3660046119f0565b6006602052600090815260409020805460018201546002830154600384015460048501546005860154600790960154949593949293919290919073ffffffffffffffffffffffffffffffffffffffff81169060ff7401000000000000000000000000000000000000000082048116917501000000000000000000000000000000000000000000810482169167ffffffffffffffff760100000000000000000000000000000000000000000000830416917e010000000000000000000000000000000000000000000000000000000000009004168b565b604080519b8c5260208c019a909a52988a01979097526060890195909552608088019390935260a087019190915273ffffffffffffffffffffffffffffffffffffffff1660c0860152151560e0850152151561010084015267ffffffffffffffff166101208301521515610140820152610160015b60405180910390f35b34801561032c57600080fd5b5061034061033b366004611a09565b61072f565b604051908152602001610317565b34801561035a57600080fd5b50610340610956565b34801561036f57600080fd5b5061038361037e3660046119f0565b6109ff565b005b34801561039157600080fd5b50610340600281565b3480156103a657600080fd5b506103ea6103b5366004611a5e565b73ffffffffffffffffffffffffffffffffffffffff166000908152600860209081526040808320546009909252909120549091565b60408051928352602083019190915201610317565b34801561040b57600080fd5b5061038361041a366004611a96565b610afe565b34801561042b57600080fd5b5061043f61043a3660046119f0565b610c39565b6040516103179190611ad4565b61038361045a3660046119f0565b610cf2565b34801561046b57600080fd5b5061034060035481565b34801561048157600080fd5b5061034066038d7ea4c6800081565b34801561049c57600080fd5b506002546104bd9073ffffffffffffffffffffffffffffffffffffffff1681565b60405173ffffffffffffffffffffffffffffffffffffffff9091168152602001610317565b3480156104ee57600080fd5b506105026104fd3660046119f0565b610fa6565b604080519b8c5260208c019a909a52988a01979097526060890195909552608088019390935260a087019190915260c086015273ffffffffffffffffffffffffffffffffffffffff1660e08501521515610100840152151561012083015267ffffffffffffffff1661014082015261016001610317565b34801561058557600080fd5b50610383610594366004611a5e565b6110ba565b3480156105a557600080fd5b506105d46105b4366004611b2e565b600760209081526000928352604080842090915290825290205460ff1681565b6040519015158152602001610317565b3480156105f057600080fd5b506103406105ff366004611a5e565b60086020526000908152604090205481565b34801561061d57600080fd5b5061034062093a8081565b34801561063457600080fd5b50610340610e1081565b34801561064a57600080fd5b50610340610659366004611a5e565b60096020526000908152604090205481565b34801561067757600080fd5b506103836106863660046119f0565b611152565b34801561069757600080fd5b50610383611380565b3480156106ac57600080fd5b5060045460055460035460408051938452602084019290925290820152606001610317565b3480156106dd57600080fd5b506103406103e881565b3480156106f357600080fd5b50610340670de0b6b3a764000081565b34801561070f57600080fd5b5061034060045481565b34801561072557600080fd5b5061034060055481565b60025460009073ffffffffffffffffffffffffffffffffffffffff163314610783576040517f30cd747100000000000000000000000000000000000000000000000000000000815260040160405180910390fd5b66038d7ea4c6800084108061079f5750670de0b6b3a764000084115b156107d6576040517f025dbdd400000000000000000000000000000000000000000000000000000000815260040160405180910390fd5b60028310806107e657506103e883115b1561081d576040517f3323cee400000000000000000000000000000000000000000000000000000000815260040160405180910390fd5b610e1082108061082f575062093a8082115b15610866576040517f3323cee400000000000000000000000000000000000000000000000000000000815260040160405180910390fd5b600380546000918261087783611b89565b9091555060048054919250600061088d83611b89565b90915550506000818152600660205260409020818155600181018690556002810185905542600382018190556108c4908590611bc1565b60048201556007810180547fffffffffffffffffffff0000ffffffffffffffffffffffffffffffffffffffff1674010000000000000000000000000000000000000000179055604080518781526020810187905290810185905282907f68b3cc7239912b7f66b9e2f9d93955382d1082297c9e6347beb37217f081650e9060600160405180910390a250949350505050565b60008060009054906101000a900473ffffffffffffffffffffffffffffffffffffffff1673ffffffffffffffffffffffffffffffffffffffff16638204b67a6040518163ffffffff1660e01b8152600401602060405180830381865afa1580156109c4573d6000803e3d6000fd5b505050506040513d601f19601f820116820180604052508101906109e89190611bda565b6fffffffffffffffffffffffffffffffff16905090565b806003548110610a3b576040517f3323cee400000000000000000000000000000000000000000000000000000000815260040160405180910390fd5b6000828152600660205260409020600781015474010000000000000000000000000000000000000000900460ff16610a9f576040517fed8627a200000000000000000000000000000000000000000000000000000000815260040160405180910390fd5b806004015442108015610ab9575060028101546006820154105b15610af0576040517f2217a82000000000000000000000000000000000000000000000000000000000815260040160405180910390fd5b610af98361141a565b505050565b60005473ffffffffffffffffffffffffffffffffffffffff1680610b83576040517f08c379a000000000000000000000000000000000000000000000000000000000815260206004820152601760248201527f456e74726f70792061646472657373206e6f742073657400000000000000000060448201526064015b60405180910390fd5b3373ffffffffffffffffffffffffffffffffffffffff821614610c28576040517f08c379a000000000000000000000000000000000000000000000000000000000815260206004820152602360248201527f4f6e6c7920456e74726f70792063616e2063616c6c20746869732066756e637460448201527f696f6e00000000000000000000000000000000000000000000000000000000006064820152608401610b7a565b610c33848484611793565b50505050565b6060816003548110610c77576040517f3323cee400000000000000000000000000000000000000000000000000000000815260040160405180910390fd5b60008381526006602081815260409283902090910180548351818402810184019094528084529091830182828015610ce557602002820191906000526020600020905b815473ffffffffffffffffffffffffffffffffffffffff168152600190910190602001808311610cba575b5050505050915050919050565b806003548110610d2e576040517f3323cee400000000000000000000000000000000000000000000000000000000815260040160405180910390fd5b6000828152600660205260409020600781015474010000000000000000000000000000000000000000900460ff16610d92576040517fed8627a200000000000000000000000000000000000000000000000000000000815260040160405180910390fd5b80600401544210610dcf576040517f8c373e5e00000000000000000000000000000000000000000000000000000000815260040160405180910390fd5b600083815260076020908152604080832033845290915290205460ff1615610e23576040517f22ce1a0700000000000000000000000000000000000000000000000000000000815260040160405180910390fd5b6002810154600682015410610e64576040517f2217a82000000000000000000000000000000000000000000000000000000000815260040160405180910390fd5b80600101543414610ea1576040517f025dbdd400000000000000000000000000000000000000000000000000000000815260040160405180910390fd5b6006810180546001810182556000918252602082200180547fffffffffffffffffffffffff00000000000000000000000000000000000000001633179055600582018054349290610ef3908490611bc1565b90915550506000838152600760209081526040808320338452825280832080547fffffffffffffffffffffffffffffffffffffffffffffffffffffffffffffff0016600117905560099091528120805491610f4d83611b89565b90915550506006810154604051908152339084907fa404489ae2c5d061785027a1520208040261d67d4f27d7082a0a65c9de4ddaa09060200160405180910390a36002810154600682015410610af957610af98361141a565b60008060008060008060008060008060008b6003548110610ff3576040517f3323cee400000000000000000000000000000000000000000000000000000000815260040160405180910390fd5b5050506000998a5250506006602081905260409098208054600182015460028301546003840154600485015460058601549d860154600790960154949e939d929c50909a509850965091945073ffffffffffffffffffffffffffffffffffffffff8116935074010000000000000000000000000000000000000000810460ff908116935075010000000000000000000000000000000000000000008204169176010000000000000000000000000000000000000000000090910467ffffffffffffffff1690565b60025473ffffffffffffffffffffffffffffffffffffffff16331461110b576040517f30cd747100000000000000000000000000000000000000000000000000000000815260040160405180910390fd5b600180547fffffffffffffffffffffffff00000000000000000000000000000000000000001673ffffffffffffffffffffffffffffffffffffffff92909216919091179055565b80600354811061118e576040517f3323cee400000000000000000000000000000000000000000000000000000000815260040160405180910390fd5b600082815260066020526040902060078101547501000000000000000000000000000000000000000000900460ff166111f3576040517f2217a82000000000000000000000000000000000000000000000000000000000815260040160405180910390fd5b600781015473ffffffffffffffffffffffffffffffffffffffff163314611246576040517f30cd747100000000000000000000000000000000000000000000000000000000815260040160405180910390fd5b8060050154600003611284576040517f025dbdd400000000000000000000000000000000000000000000000000000000815260040160405180910390fd5b600581018054600091829055604051909190339083908381818185875af1925050503d80600081146112d2576040519150601f19603f3d011682016040523d82523d6000602084013e6112d7565b606091505b5050905080611342576040517f08c379a000000000000000000000000000000000000000000000000000000000815260206004820152600f60248201527f5472616e73666572206661696c656400000000000000000000000000000000006044820152606401610b7a565b604051828152339086907f4aa95f981a8337cb337de335b965507da0879c3b49f799d20058e913f5ad2c269060200160405180910390a35050505050565b60025473ffffffffffffffffffffffffffffffffffffffff1633146113d1576040517f30cd747100000000000000000000000000000000000000000000000000000000815260040160405180910390fd5b60025460405173ffffffffffffffffffffffffffffffffffffffff909116904780156108fc02916000818181858888f19350505050158015611417573d6000803e3d6000fd5b50565b6000818152600660208190526040822090810154909103611467576040517f8b6a473000000000000000000000000000000000000000000000000000000000815260040160405180910390fd5b6007810180547fffffffffffffffffffffff00ffffffffffffffffffffffffffffffffffffffff16905560068101546001036115c557806006016000815481106114b3576114b3611c0c565b60009182526020808320909101546007840180547fffffffffffffffffffff00ff00000000000000000000000000000000000000001673ffffffffffffffffffffffffffffffffffffffff9283161775010000000000000000000000000000000000000000001790819055600585015491168352600890915260408220805491929091611541908490611bc1565b9250508190555080600501546005600082825461155e9190611bc1565b909155505060078101546005820154604080519182526000602083015273ffffffffffffffffffffffffffffffffffffffff9092169184917ffe9a7804ab1784a993460de92dad0f00d2f8c9235070e0a4f7708ff5fbf47877910160405180910390a35050565b60008060009054906101000a900473ffffffffffffffffffffffffffffffffffffffff1673ffffffffffffffffffffffffffffffffffffffff16638204b67a6040518163ffffffff1660e01b8152600401602060405180830381865afa158015611633573d6000803e3d6000fd5b505050506040513d601f19601f820116820180604052508101906116579190611bda565b6fffffffffffffffffffffffffffffffff16905060008060009054906101000a900473ffffffffffffffffffffffffffffffffffffffff1673ffffffffffffffffffffffffffffffffffffffff16637b43155d836040518263ffffffff1660e01b815260040160206040518083038185885af11580156116db573d6000803e3d6000fd5b50505050506040513d601f19601f820116820180604052508101906117009190611c3b565b6007840180547fffff0000000000000000ffffffffffffffffffffffffffffffffffffffffffff1676010000000000000000000000000000000000000000000067ffffffffffffffff84169081029190911790915560405190815290915084907f04b211700ecf92b8ce477de62320459e015235561cadb1ff1d4c0643dcbc00e19060200160405180910390a250505050565b60005b600354811015610c33576000818152600660205260409020600781015467ffffffffffffffff8681167601000000000000000000000000000000000000000000009092041614801561180f575060078101547e01000000000000000000000000000000000000000000000000000000000000900460ff16155b1561186f576007810180547fff00ffffffffffffffffffffffffffffffffffffffffffffffffffffffffffff167e010000000000000000000000000000000000000000000000000000000000001790556118698284611882565b50610c33565b508061187a81611b89565b915050611796565b60008281526006602081905260408220908101549091906118a39084611c58565b90508160060181815481106118ba576118ba611c0c565b60009182526020808320909101546007850180547fffffffffffffffffffff00ff00000000000000000000000000000000000000001673ffffffffffffffffffffffffffffffffffffffff9283161775010000000000000000000000000000000000000000001790819055600586015491168352600890915260408220805491929091611948908490611bc1565b925050819055508160050154600560008282546119659190611bc1565b90915550506007820154600583015460408051918252760100000000000000000000000000000000000000000000830467ffffffffffffffff16602083015273ffffffffffffffffffffffffffffffffffffffff9092169186917ffe9a7804ab1784a993460de92dad0f00d2f8c9235070e0a4f7708ff5fbf47877910160405180910390a350505050565b600060208284031215611a0257600080fd5b5035919050565b600080600060608486031215611a1e57600080fd5b505081359360208301359350604090920135919050565b803573ffffffffffffffffffffffffffffffffffffffff81168114611a5957600080fd5b919050565b600060208284031215611a7057600080fd5b611a7982611a35565b9392505050565b67ffffffffffffffff8116811461141757600080fd5b600080600060608486031215611aab57600080fd5b8335611ab681611a80565b9250611ac460208501611a35565b9150604084013590509250925092565b6020808252825182820181905260009190848201906040850190845b81811015611b2257835173ffffffffffffffffffffffffffffffffffffffff1683529284019291840191600101611af0565b50909695505050505050565b60008060408385031215611b4157600080fd5b82359150611b5160208401611a35565b90509250929050565b7f4e487b7100000000000000000000000000000000000000000000000000000000600052601160045260246000fd5b60007fffffffffffffffffffffffffffffffffffffffffffffffffffffffffffffffff8203611bba57611bba611b5a565b5060010190565b80820180821115611bd457611bd4611b5a565b92915050565b600060208284031215611bec57600080fd5b81516fffffffffffffffffffffffffffffffff81168114611a7957600080fd5b7f4e487b7100000000000000000000000000000000000000000000000000000000600052603260045260246000fd5b600060208284031215611c4d57600080fd5b8151611a7981611a80565b600082611c8e577f4e487b7100000000000000000000000000000000000000000000000000000000600052601260045260246000fd5b50069056fea264697066735822122089d1e10f9292737006d8f030b7794a8469b660e64931ea98a5a2ddf26847d35f64736f6c63430008110033","opcodes":"PUSH1 0x80 PUSH1 0x40 MSTORE CALLVALUE DUP1 ISZERO PUSH3 0x11 JUMPI PUSH1 0x0 DUP1 REVERT JUMPDEST POP PUSH1 0x40 MLOAD PUSH3 0x1DA4 CODESIZE SUB DUP1 PUSH3 0x1DA4 DUP4 CODECOPY DUP2 ADD PUSH1 0x40 DUP2 SWAP1 MSTORE PUSH3 0x34 SWAP2 PUSH3 0x93 JUMP JUMPDEST PUSH1 0x0 DUP1 SLOAD PUSH1 0x1 PUSH1 0x1 PUSH1 0xA0 SHL SUB SWAP4 DUP5 AND PUSH1 0x1 PUSH1 0x1 PUSH1 0xA0 SHL SUB NOT SWAP2 DUP3 AND OR SWAP1 SWAP2 SSTORE PUSH1 0x1 DUP1 SLOAD SWAP3 SWAP1 SWAP4 AND SWAP2 DUP2 AND SWAP2 SWAP1 SWAP2 OR SWAP1 SWAP2 SSTORE PUSH1 0x2 DUP1 SLOAD SWAP1 SWAP2 AND CALLER OR SWAP1 SSTORE PUSH3 0xCB JUMP JUMPDEST DUP1 MLOAD PUSH1 0x1 PUSH1 0x1 PUSH1 0xA0 SHL SUB DUP2 AND DUP2 EQ PUSH3 0x8E JUMPI PUSH1 0x0 DUP1 REVERT JUMPDEST SWAP2 SWAP1 POP JUMP JUMPDEST PUSH1 0x0 DUP1 PUSH1 0x40 DUP4 DUP6 SUB SLT ISZERO PUSH3 0xA7 JUMPI PUSH1 0x0 DUP1 REVERT JUMPDEST PUSH3 0xB2 DUP4 PUSH3 0x76 JUMP JUMPDEST SWAP2 POP PUSH3 0xC2 PUSH1 0x20 DUP5 ADD PUSH3 0x76 JUMP JUMPDEST SWAP1 POP SWAP3 POP SWAP3 SWAP1 POP JUMP JUMPDEST PUSH2 0x1CC9 DUP1 PUSH3 0xDB PUSH1 0x0 CODECOPY PUSH1 0x0 RETURN INVALID PUSH1 0x80 PUSH1 0x40 MSTORE PUSH1 0x4 CALLDATASIZE LT PUSH2 0x1A5 JUMPI PUSH1 0x0 CALLDATALOAD PUSH1 0xE0 SHR DUP1 PUSH4 0xA13CF386 GT PUSH2 0xE1 JUMPI DUP1 PUSH4 0xD7098154 GT PUSH2 0x8A JUMPI DUP1 PUSH4 0xF3BAF070 GT PUSH2 0x64 JUMPI DUP1 PUSH4 0xF3BAF070 EQ PUSH2 0x6D1 JUMPI DUP1 PUSH4 0xF50AB0DE EQ PUSH2 0x6E7 JUMPI DUP1 PUSH4 0xF530BCAB EQ PUSH2 0x703 JUMPI DUP1 PUSH4 0xF69E6AB0 EQ PUSH2 0x719 JUMPI PUSH1 0x0 DUP1 REVERT JUMPDEST DUP1 PUSH4 0xD7098154 EQ PUSH2 0x66B JUMPI DUP1 PUSH4 0xDB2E21BC EQ PUSH2 0x68B JUMPI DUP1 PUSH4 0xDFE6B5D6 EQ PUSH2 0x6A0 JUMPI PUSH1 0x0 DUP1 REVERT JUMPDEST DUP1 PUSH4 0xB1724B46 GT PUSH2 0xBB JUMPI DUP1 PUSH4 0xB1724B46 EQ PUSH2 0x611 JUMPI DUP1 PUSH4 0xB6A6D177 EQ PUSH2 0x628 JUMPI DUP1 PUSH4 0xD0559882 EQ PUSH2 0x63E JUMPI PUSH1 0x0 DUP1 REVERT JUMPDEST DUP1 PUSH4 0xA13CF386 EQ PUSH2 0x579 JUMPI DUP1 PUSH4 0xA34398A2 EQ PUSH2 0x599 JUMPI DUP1 PUSH4 0xA815A4D4 EQ PUSH2 0x5E4 JUMPI PUSH1 0x0 DUP1 REVERT JUMPDEST DUP1 PUSH4 0x52A5F1F8 GT PUSH2 0x14E JUMPI DUP1 PUSH4 0x8009DF68 GT PUSH2 0x128 JUMPI DUP1 PUSH4 0x8009DF68 EQ PUSH2 0x45F JUMPI DUP1 PUSH4 0x81883759 EQ PUSH2 0x475 JUMPI DUP1 PUSH4 0x8DA5CB5B EQ PUSH2 0x490 JUMPI DUP1 PUSH4 0x92E845F6 EQ PUSH2 0x4E2 JUMPI PUSH1 0x0 DUP1 REVERT JUMPDEST DUP1 PUSH4 0x52A5F1F8 EQ PUSH2 0x3FF JUMPI DUP1 PUSH4 0x68FB2EBA EQ PUSH2 0x41F JUMPI DUP1 PUSH4 0x7EEE9FC1 EQ PUSH2 0x44C JUMPI PUSH1 0x0 DUP1 REVERT JUMPDEST DUP1 PUSH4 0x3739E769 GT PUSH2 0x17F JUMPI DUP1 PUSH4 0x3739E769 EQ PUSH2 0x363 JUMPI DUP1 PUSH4 0x3A984BC5 EQ PUSH2 0x385 JUMPI DUP1 PUSH4 0x4E43603A EQ PUSH2 0x39A JUMPI PUSH1 0x0 DUP1 REVERT JUMPDEST DUP1 PUSH4 0x1398E076 EQ PUSH2 0x1B1 JUMPI DUP1 PUSH4 0x2CFFAA60 EQ PUSH2 0x320 JUMPI DUP1 PUSH4 0x2D971E63 EQ PUSH2 0x34E JUMPI PUSH1 0x0 DUP1 REVERT JUMPDEST CALLDATASIZE PUSH2 0x1AC JUMPI STOP JUMPDEST PUSH1 0x0 DUP1 REVERT JUMPDEST CALLVALUE DUP1 ISZERO PUSH2 0x1BD JUMPI PUSH1 0x0 DUP1 REVERT JUMPDEST POP PUSH2 0x2A2 PUSH2 0x1CC CALLDATASIZE PUSH1 0x4 PUSH2 0x19F0 JUMP JUMPDEST PUSH1 0x6 PUSH1 0x20 MSTORE PUSH1 0x0 SWAP1 DUP2 MSTORE PUSH1 0x40 SWAP1 KECCAK256 DUP1 SLOAD PUSH1 0x1 DUP3 ADD SLOAD PUSH1 0x2 DUP4 ADD SLOAD PUSH1 0x3 DUP5 ADD SLOAD PUSH1 0x4 DUP6 ADD SLOAD PUSH1 0x5 DUP7 ADD SLOAD PUSH1 0x7 SWAP1 SWAP7 ADD SLOAD SWAP5 SWAP6 SWAP4 SWAP5 SWAP3 SWAP4 SWAP2 SWAP3 SWAP1 SWAP2 SWAP1 PUSH20 0xFFFFFFFFFFFFFFFFFFFFFFFFFFFFFFFFFFFFFFFF DUP2 AND SWAP1 PUSH1 0xFF PUSH21 0x10000000000000000000000000000000000000000 DUP3 DIV DUP2 AND SWAP2 PUSH22 0x1000000000000000000000000000000000000000000 DUP2 DIV DUP3 AND SWAP2 PUSH8 0xFFFFFFFFFFFFFFFF PUSH23 0x100000000000000000000000000000000000000000000 DUP4 DIV AND SWAP2 PUSH31 0x1000000000000000000000000000000000000000000000000000000000000 SWAP1 DIV AND DUP12 JUMP JUMPDEST PUSH1 0x40 DUP1 MLOAD SWAP12 DUP13 MSTORE PUSH1 0x20 DUP13 ADD SWAP11 SWAP1 SWAP11 MSTORE SWAP9 DUP11 ADD SWAP8 SWAP1 SWAP8 MSTORE PUSH1 0x60 DUP10 ADD SWAP6 SWAP1 SWAP6 MSTORE PUSH1 0x80 DUP9 ADD SWAP4 SWAP1 SWAP4 MSTORE PUSH1 0xA0 DUP8 ADD SWAP2 SWAP1 SWAP2 MSTORE PUSH20 0xFFFFFFFFFFFFFFFFFFFFFFFFFFFFFFFFFFFFFFFF AND PUSH1 0xC0 DUP7 ADD MSTORE ISZERO ISZERO PUSH1 0xE0 DUP6 ADD MSTORE ISZERO ISZERO PUSH2 0x100 DUP5 ADD MSTORE PUSH8 0xFFFFFFFFFFFFFFFF AND PUSH2 0x120 DUP4 ADD MSTORE ISZERO ISZERO PUSH2 0x140 DUP3 ADD MSTORE PUSH2 0x160 ADD JUMPDEST PUSH1 0x40 MLOAD DUP1 SWAP2 SUB SWAP1 RETURN JUMPDEST CALLVALUE DUP1 ISZERO PUSH2 0x32C JUMPI PUSH1 0x0 DUP1 REVERT JUMPDEST POP PUSH2 0x340 PUSH2 0x33B CALLDATASIZE PUSH1 0x4 PUSH2 0x1A09 JUMP JUMPDEST PUSH2 0x72F JUMP JUMPDEST PUSH1 0x40 MLOAD SWAP1 DUP2 MSTORE PUSH1 0x20 ADD PUSH2 0x317 JUMP JUMPDEST CALLVALUE DUP1 ISZERO PUSH2 0x35A JUMPI PUSH1 0x0 DUP1 REVERT JUMPDEST POP PUSH2 0x340 PUSH2 0x956 JUMP JUMPDEST CALLVALUE DUP1 ISZERO PUSH2 0x36F JUMPI PUSH1 0x0 DUP1 REVERT JUMPDEST POP PUSH2 0x383 PUSH2 0x37E CALLDATASIZE PUSH1 0x4 PUSH2 0x19F0 JUMP JUMPDEST PUSH2 0x9FF JUMP JUMPDEST STOP JUMPDEST CALLVALUE DUP1 ISZERO PUSH2 0x391 JUMPI PUSH1 0x0 DUP1 REVERT JUMPDEST POP PUSH2 0x340 PUSH1 0x2 DUP2 JUMP JUMPDEST CALLVALUE DUP1 ISZERO PUSH2 0x3A6 JUMPI PUSH1 0x0 DUP1 REVERT JUMPDEST POP PUSH2 0x3EA PUSH2 0x3B5 CALLDATASIZE PUSH1 0x4 PUSH2 0x1A5E JUMP JUMPDEST PUSH20 0xFFFFFFFFFFFFFFFFFFFFFFFFFFFFFFFFFFFFFFFF AND PUSH1 0x0 SWAP1 DUP2 MSTORE PUSH1 0x8 PUSH1 0x20 SWAP1 DUP2 MSTORE PUSH1 0x40 DUP1 DUP4 KECCAK256 SLOAD PUSH1 0x9 SWAP1 SWAP3 MSTORE SWAP1 SWAP2 KECCAK256 SLOAD SWAP1 SWAP2 JUMP JUMPDEST PUSH1 0x40 DUP1 MLOAD SWAP3 DUP4 MSTORE PUSH1 0x20 DUP4 ADD SWAP2 SWAP1 SWAP2 MSTORE ADD PUSH2 0x317 JUMP JUMPDEST CALLVALUE DUP1 ISZERO PUSH2 0x40B JUMPI PUSH1 0x0 DUP1 REVERT JUMPDEST POP PUSH2 0x383 PUSH2 0x41A CALLDATASIZE PUSH1 0x4 PUSH2 0x1A96 JUMP JUMPDEST PUSH2 0xAFE JUMP JUMPDEST CALLVALUE DUP1 ISZERO PUSH2 0x42B JUMPI PUSH1 0x0 DUP1 REVERT JUMPDEST POP PUSH2 0x43F PUSH2 0x43A CALLDATASIZE PUSH1 0x4 PUSH2 0x19F0 JUMP JUMPDEST PUSH2 0xC39 JUMP JUMPDEST PUSH1 0x40 MLOAD PUSH2 0x317 SWAP2 SWAP1 PUSH2 0x1AD4 JUMP JUMPDEST PUSH2 0x383 PUSH2 0x45A CALLDATASIZE PUSH1 0x4 PUSH2 0x19F0 JUMP JUMPDEST PUSH2 0xCF2 JUMP JUMPDEST CALLVALUE DUP1 ISZERO PUSH2 0x46B JUMPI PUSH1 0x0 DUP1 REVERT JUMPDEST POP PUSH2 0x340 PUSH1 0x3 SLOAD DUP2 JUMP JUMPDEST CALLVALUE DUP1 ISZERO PUSH2 0x481 JUMPI PUSH1 0x0 DUP1 REVERT JUMPDEST POP PUSH2 0x340 PUSH7 0x38D7EA4C68000 DUP2 JUMP JUMPDEST CALLVALUE DUP1 ISZERO PUSH2 0x49C JUMPI PUSH1 0x0 DUP1 REVERT JUMPDEST POP PUSH1 0x2 SLOAD PUSH2 0x4BD SWAP1 PUSH20 0xFFFFFFFFFFFFFFFFFFFFFFFFFFFFFFFFFFFFFFFF AND DUP2 JUMP JUMPDEST PUSH1 0x40 MLOAD PUSH20 0xFFFFFFFFFFFFFFFFFFFFFFFFFFFFFFFFFFFFFFFF SWAP1 SWAP2 AND DUP2 MSTORE PUSH1 0x20 ADD PUSH2 0x317 JUMP JUMPDEST CALLVALUE DUP1 ISZERO PUSH2 0x4EE JUMPI PUSH1 0x0 DUP1 REVERT JUMPDEST POP PUSH2 0x502 PUSH2 0x4FD CALLDATASIZE PUSH1 0x4 PUSH2 0x19F0 JUMP JUMPDEST PUSH2 0xFA6 JUMP JUMPDEST PUSH1 0x40 DUP1 MLOAD SWAP12 DUP13 MSTORE PUSH1 0x20 DUP13 ADD SWAP11 SWAP1 SWAP11 MSTORE SWAP9 DUP11 ADD SWAP8 SWAP1 SWAP8 MSTORE PUSH1 0x60 DUP10 ADD SWAP6 SWAP1 SWAP6 MSTORE PUSH1 0x80 DUP9 ADD SWAP4 SWAP1 SWAP4 MSTORE PUSH1 0xA0 DUP8 ADD SWAP2 SWAP1 SWAP2 MSTORE PUSH1 0xC0 DUP7 ADD MSTORE PUSH20 0xFFFFFFFFFFFFFFFFFFFFFFFFFFFFFFFFFFFFFFFF AND PUSH1 0xE0 DUP6 ADD MSTORE ISZERO ISZERO PUSH2 0x100 DUP5 ADD MSTORE ISZERO ISZERO PUSH2 0x120 DUP4 ADD MSTORE PUSH8 0xFFFFFFFFFFFFFFFF AND PUSH2 0x140 DUP3 ADD MSTORE PUSH2 0x160 ADD PUSH2 0x317 JUMP JUMPDEST CALLVALUE DUP1 ISZERO PUSH2 0x585 JUMPI PUSH1 0x0 DUP1 REVERT JUMPDEST POP PUSH2 0x383 PUSH2 0x594 CALLDATASIZE PUSH1 0x4 PUSH2 0x1A5E JUMP JUMPDEST PUSH2 0x10BA JUMP JUMPDEST CALLVALUE DUP1 ISZERO PUSH2 0x5A5 JUMPI PUSH1 0x0 DUP1 REVERT JUMPDEST POP PUSH2 0x5D4 PUSH2 0x5B4 CALLDATASIZE PUSH1 0x4 PUSH2 0x1B2E JUMP JUMPDEST PUSH1 0x7 PUSH1 0x20 SWAP1 DUP2 MSTORE PUSH1 0x0 SWAP3 DUP4 MSTORE PUSH1 0x40 DUP1 DUP5 KECCAK256 SWAP1 SWAP2 MSTORE SWAP1 DUP3 MSTORE SWAP1 KECCAK256 SLOAD PUSH1 0xFF AND DUP2 JUMP JUMPDEST PUSH1 0x40 MLOAD SWAP1 ISZERO ISZERO DUP2 MSTORE PUSH1 0x20 ADD PUSH2 0x317 JUMP JUMPDEST CALLVALUE DUP1 ISZERO PUSH2 0x5F0 JUMPI PUSH1 0x0 DUP1 REVERT JUMPDEST POP PUSH2 0x340 PUSH2 0x5FF CALLDATASIZE PUSH1 0x4 PUSH2 0x1A5E JUMP JUMPDEST PUSH1 0x8 PUSH1 0x20 MSTORE PUSH1 0x0 SWAP1 DUP2 MSTORE PUSH1 0x40 SWAP1 KECCAK256 SLOAD DUP2 JUMP JUMPDEST CALLVALUE DUP1 ISZERO PUSH2 0x61D JUMPI PUSH1 0x0 DUP1 REVERT JUMPDEST POP PUSH2 0x340 PUSH3 0x93A80 DUP2 JUMP JUMPDEST CALLVALUE DUP1 ISZERO PUSH2 0x634 JUMPI PUSH1 0x0 DUP1 REVERT JUMPDEST POP PUSH2 0x340 PUSH2 0xE10 DUP2 JUMP JUMPDEST CALLVALUE DUP1 ISZERO PUSH2 0x64A JUMPI PUSH1 0x0 DUP1 REVERT JUMPDEST POP PUSH2 0x340 PUSH2 0x659 CALLDATASIZE PUSH1 0x4 PUSH2 0x1A5E JUMP JUMPDEST PUSH1 0x9 PUSH1 0x20 MSTORE PUSH1 0x0 SWAP1 DUP2 MSTORE PUSH1 0x40 SWAP1 KECCAK256 SLOAD DUP2 JUMP JUMPDEST CALLVALUE DUP1 ISZERO PUSH2 0x677 JUMPI PUSH1 0x0 DUP1 REVERT JUMPDEST POP PUSH2 0x383 PUSH2 0x686 CALLDATASIZE PUSH1 0x4 PUSH2 0x19F0 JUMP JUMPDEST PUSH2 0x1152 JUMP JUMPDEST CALLVALUE DUP1 ISZERO PUSH2 0x697 JUMPI PUSH1 0x0 DUP1 REVERT JUMPDEST POP PUSH2 0x383 PUSH2 0x1380 JUMP JUMPDEST CALLVALUE DUP1 ISZERO PUSH2 0x6AC JUMPI PUSH1 0x0 DUP1 REVERT JUMPDEST POP PUSH1 0x4 SLOAD PUSH1 0x5 SLOAD PUSH1 0x3 SLOAD PUSH1 0x40 DUP1 MLOAD SWAP4 DUP5 MSTORE PUSH1 0x20 DUP5 ADD SWAP3 SWAP1 SWAP3 MSTORE SWAP1 DUP3 ADD MSTORE PUSH1 0x60 ADD PUSH2 0x317 JUMP JUMPDEST CALLVALUE DUP1 ISZERO PUSH2 0x6DD JUMPI PUSH1 0x0 DUP1 REVERT JUMPDEST POP PUSH2 0x340 PUSH2 0x3E8 DUP2 JUMP JUMPDEST CALLVALUE DUP1 ISZERO PUSH2 0x6F3 JUMPI PUSH1 0x0 DUP1 REVERT JUMPDEST POP PUSH2 0x340 PUSH8 0xDE0B6B3A7640000 DUP2 JUMP JUMPDEST CALLVALUE DUP1 ISZERO PUSH2 0x70F JUMPI PUSH1 0x0 DUP1 REVERT JUMPDEST POP PUSH2 0x340 PUSH1 0x4 SLOAD DUP2 JUMP JUMPDEST CALLVALUE DUP1 ISZERO PUSH2 0x725 JUMPI PUSH1 0x0 DUP1 REVERT JUMPDEST POP PUSH2 0x340 PUSH1 0x5 SLOAD DUP2 JUMP JUMPDEST PUSH1 0x2 SLOAD PUSH1 0x0 SWAP1 PUSH20 0xFFFFFFFFFFFFFFFFFFFFFFFFFFFFFFFFFFFFFFFF AND CALLER EQ PUSH2 0x783 JUMPI PUSH1 0x40 MLOAD PUSH32 0x30CD747100000000000000000000000000000000000000000000000000000000 DUP2 MSTORE PUSH1 0x4 ADD PUSH1 0x40 MLOAD DUP1 SWAP2 SUB SWAP1 REVERT JUMPDEST PUSH7 0x38D7EA4C68000 DUP5 LT DUP1 PUSH2 0x79F JUMPI POP PUSH8 0xDE0B6B3A7640000 DUP5 GT JUMPDEST ISZERO PUSH2 0x7D6 JUMPI PUSH1 0x40 MLOAD PUSH32 0x25DBDD400000000000000000000000000000000000000000000000000000000 DUP2 MSTORE PUSH1 0x4 ADD PUSH1 0x40 MLOAD DUP1 SWAP2 SUB SWAP1 REVERT JUMPDEST PUSH1 0x2 DUP4 LT DUP1 PUSH2 0x7E6 JUMPI POP PUSH2 0x3E8 DUP4 GT JUMPDEST ISZERO PUSH2 0x81D JUMPI PUSH1 0x40 MLOAD PUSH32 0x3323CEE400000000000000000000000000000000000000000000000000000000 DUP2 MSTORE PUSH1 0x4 ADD PUSH1 0x40 MLOAD DUP1 SWAP2 SUB SWAP1 REVERT JUMPDEST PUSH2 0xE10 DUP3 LT DUP1 PUSH2 0x82F JUMPI POP PUSH3 0x93A80 DUP3 GT JUMPDEST ISZERO PUSH2 0x866 JUMPI PUSH1 0x40 MLOAD PUSH32 0x3323CEE400000000000000000000000000000000000000000000000000000000 DUP2 MSTORE PUSH1 0x4 ADD PUSH1 0x40 MLOAD DUP1 SWAP2 SUB SWAP1 REVERT JUMPDEST PUSH1 0x3 DUP1 SLOAD PUSH1 0x0 SWAP2 DUP3 PUSH2 0x877 DUP4 PUSH2 0x1B89 JUMP JUMPDEST SWAP1 SWAP2 SSTORE POP PUSH1 0x4 DUP1 SLOAD SWAP2 SWAP3 POP PUSH1 0x0 PUSH2 0x88D DUP4 PUSH2 0x1B89 JUMP JUMPDEST SWAP1 SWAP2 SSTORE POP POP PUSH1 0x0 DUP2 DUP2 MSTORE PUSH1 0x6 PUSH1 0x20 MSTORE PUSH1 0x40 SWAP1 KECCAK256 DUP2 DUP2 SSTORE PUSH1 0x1 DUP2 ADD DUP7 SWAP1 SSTORE PUSH1 0x2 DUP2 ADD DUP6 SWAP1 SSTORE TIMESTAMP PUSH1 0x3 DUP3 ADD DUP2 SWAP1 SSTORE PUSH2 0x8C4 SWAP1 DUP6 SWAP1 PUSH2 0x1BC1 JUMP JUMPDEST PUSH1 0x4 DUP3 ADD SSTORE PUSH1 0x7 DUP2 ADD DUP1 SLOAD PUSH32 0xFFFFFFFFFFFFFFFFFFFF0000FFFFFFFFFFFFFFFFFFFFFFFFFFFFFFFFFFFFFFFF AND PUSH21 0x10000000000000000000000000000000000000000 OR SWAP1 SSTORE PUSH1 0x40 DUP1 MLOAD DUP8 DUP2 MSTORE PUSH1 0x20 DUP2 ADD DUP8 SWAP1 MSTORE SWAP1 DUP2 ADD DUP6 SWAP1 MSTORE DUP3 SWAP1 PUSH32 0x68B3CC7239912B7F66B9E2F9D93955382D1082297C9E6347BEB37217F081650E SWAP1 PUSH1 0x60 ADD PUSH1 0x40 MLOAD DUP1 SWAP2 SUB SWAP1 LOG2 POP SWAP5 SWAP4 POP POP POP POP JUMP JUMPDEST PUSH1 0x0 DUP1 PUSH1 0x0 SWAP1 SLOAD SWAP1 PUSH2 0x100 EXP SWAP1 DIV PUSH20 0xFFFFFFFFFFFFFFFFFFFFFFFFFFFFFFFFFFFFFFFF AND PUSH20 0xFFFFFFFFFFFFFFFFFFFFFFFFFFFFFFFFFFFFFFFF AND PUSH4 0x8204B67A PUSH1 0x40 MLOAD DUP2 PUSH4 0xFFFFFFFF AND PUSH1 0xE0 SHL DUP2 MSTORE PUSH1 0x4 ADD PUSH1 0x20 PUSH1 0x40 MLOAD DUP1 DUP4 SUB DUP2 DUP7 GAS STATICCALL ISZERO DUP1 ISZERO PUSH2 0x9C4 JUMPI RETURNDATASIZE PUSH1 0x0 DUP1 RETURNDATACOPY RETURNDATASIZE PUSH1 0x0 REVERT JUMPDEST POP POP POP POP PUSH1 0x40 MLOAD RETURNDATASIZE PUSH1 0x1F NOT PUSH1 0x1F DUP3 ADD AND DUP3 ADD DUP1 PUSH1 0x40 MSTORE POP DUP2 ADD SWAP1 PUSH2 0x9E8 SWAP2 SWAP1 PUSH2 0x1BDA JUMP JUMPDEST PUSH16 0xFFFFFFFFFFFFFFFFFFFFFFFFFFFFFFFF AND SWAP1 POP SWAP1 JUMP JUMPDEST DUP1 PUSH1 0x3 SLOAD DUP2 LT PUSH2 0xA3B JUMPI PUSH1 0x40 MLOAD PUSH32 0x3323CEE400000000000000000000000000000000000000000000000000000000 DUP2 MSTORE PUSH1 0x4 ADD PUSH1 0x40 MLOAD DUP1 SWAP2 SUB SWAP1 REVERT JUMPDEST PUSH1 0x0 DUP3 DUP2 MSTORE PUSH1 0x6 PUSH1 0x20 MSTORE PUSH1 0x40 SWAP1 KECCAK256 PUSH1 0x7 DUP2 ADD SLOAD PUSH21 0x10000000000000000000000000000000000000000 SWAP1 DIV PUSH1 0xFF AND PUSH2 0xA9F JUMPI PUSH1 0x40 MLOAD PUSH32 0xED8627A200000000000000000000000000000000000000000000000000000000 DUP2 MSTORE PUSH1 0x4 ADD PUSH1 0x40 MLOAD DUP1 SWAP2 SUB SWAP1 REVERT JUMPDEST DUP1 PUSH1 0x4 ADD SLOAD TIMESTAMP LT DUP1 ISZERO PUSH2 0xAB9 JUMPI POP PUSH1 0x2 DUP2 ADD SLOAD PUSH1 0x6 DUP3 ADD SLOAD LT JUMPDEST ISZERO PUSH2 0xAF0 JUMPI PUSH1 0x40 MLOAD PUSH32 0x2217A82000000000000000000000000000000000000000000000000000000000 DUP2 MSTORE PUSH1 0x4 ADD PUSH1 0x40 MLOAD DUP1 SWAP2 SUB SWAP1 REVERT JUMPDEST PUSH2 0xAF9 DUP4 PUSH2 0x141A JUMP JUMPDEST POP POP POP JUMP JUMPDEST PUSH1 0x0 SLOAD PUSH20 0xFFFFFFFFFFFFFFFFFFFFFFFFFFFFFFFFFFFFFFFF AND DUP1 PUSH2 0xB83 JUMPI PUSH1 0x40 MLOAD PUSH32 0x8C379A000000000000000000000000000000000000000000000000000000000 DUP2 MSTORE PUSH1 0x20 PUSH1 0x4 DUP3 ADD MSTORE PUSH1 0x17 PUSH1 0x24 DUP3 ADD MSTORE PUSH32 0x456E74726F70792061646472657373206E6F7420736574000000000000000000 PUSH1 0x44 DUP3 ADD MSTORE PUSH1 0x64 ADD JUMPDEST PUSH1 0x40 MLOAD DUP1 SWAP2 SUB SWAP1 REVERT JUMPDEST CALLER PUSH20 0xFFFFFFFFFFFFFFFFFFFFFFFFFFFFFFFFFFFFFFFF DUP3 AND EQ PUSH2 0xC28 JUMPI PUSH1 0x40 MLOAD PUSH32 0x8C379A000000000000000000000000000000000000000000000000000000000 DUP2 MSTORE PUSH1 0x20 PUSH1 0x4 DUP3 ADD MSTORE PUSH1 0x23 PUSH1 0x24 DUP3 ADD MSTORE PUSH32 0x4F6E6C7920456E74726F70792063616E2063616C6C20746869732066756E6374 PUSH1 0x44 DUP3 ADD MSTORE PUSH32 0x696F6E0000000000000000000000000000000000000000000000000000000000 PUSH1 0x64 DUP3 ADD MSTORE PUSH1 0x84 ADD PUSH2 0xB7A JUMP JUMPDEST PUSH2 0xC33 DUP5 DUP5 DUP5 PUSH2 0x1793 JUMP JUMPDEST POP POP POP POP JUMP JUMPDEST PUSH1 0x60 DUP2 PUSH1 0x3 SLOAD DUP2 LT PUSH2 0xC77 JUMPI PUSH1 0x40 MLOAD PUSH32 0x3323CEE400000000000000000000000000000000000000000000000000000000 DUP2 MSTORE PUSH1 0x4 ADD PUSH1 0x40 MLOAD DUP1 SWAP2 SUB SWAP1 REVERT JUMPDEST PUSH1 0x0 DUP4 DUP2 MSTORE PUSH1 0x6 PUSH1 0x20 DUP2 DUP2 MSTORE PUSH1 0x40 SWAP3 DUP4 SWAP1 KECCAK256 SWAP1 SWAP2 ADD DUP1 SLOAD DUP4 MLOAD DUP2 DUP5 MUL DUP2 ADD DUP5 ADD SWAP1 SWAP5 MSTORE DUP1 DUP5 MSTORE SWAP1 SWAP2 DUP4 ADD DUP3 DUP3 DUP1 ISZERO PUSH2 0xCE5 JUMPI PUSH1 0x20 MUL DUP3 ADD SWAP2 SWAP1 PUSH1 0x0 MSTORE PUSH1 0x20 PUSH1 0x0 KECCAK256 SWAP1 JUMPDEST DUP2 SLOAD PUSH20 0xFFFFFFFFFFFFFFFFFFFFFFFFFFFFFFFFFFFFFFFF AND DUP2 MSTORE PUSH1 0x1 SWAP1 SWAP2 ADD SWAP1 PUSH1 0x20 ADD DUP1 DUP4 GT PUSH2 0xCBA JUMPI JUMPDEST POP POP POP POP POP SWAP2 POP POP SWAP2 SWAP1 POP JUMP JUMPDEST DUP1 PUSH1 0x3 SLOAD DUP2 LT PUSH2 0xD2E JUMPI PUSH1 0x40 MLOAD PUSH32 0x3323CEE400000000000000000000000000000000000000000000000000000000 DUP2 MSTORE PUSH1 0x4 ADD PUSH1 0x40 MLOAD DUP1 SWAP2 SUB SWAP1 REVERT JUMPDEST PUSH1 0x0 DUP3 DUP2 MSTORE PUSH1 0x6 PUSH1 0x20 MSTORE PUSH1 0x40 SWAP1 KECCAK256 PUSH1 0x7 DUP2 ADD SLOAD PUSH21 0x10000000000000000000000000000000000000000 SWAP1 DIV PUSH1 0xFF AND PUSH2 0xD92 JUMPI PUSH1 0x40 MLOAD PUSH32 0xED8627A200000000000000000000000000000000000000000000000000000000 DUP2 MSTORE PUSH1 0x4 ADD PUSH1 0x40 MLOAD DUP1 SWAP2 SUB SWAP1 REVERT JUMPDEST DUP1 PUSH1 0x4 ADD SLOAD TIMESTAMP LT PUSH2 0xDCF JUMPI PUSH1 0x40 MLOAD PUSH32 0x8C373E5E00000000000000000000000000000000000000000000000000000000 DUP2 MSTORE PUSH1 0x4 ADD PUSH1 0x40 MLOAD DUP1 SWAP2 SUB SWAP1 REVERT JUMPDEST PUSH1 0x0 DUP4 DUP2 MSTORE PUSH1 0x7 PUSH1 0x20 SWAP1 DUP2 MSTORE PUSH1 0x40 DUP1 DUP4 KECCAK256 CALLER DUP5 MSTORE SWAP1 SWAP2 MSTORE SWAP1 KECCAK256 SLOAD PUSH1 0xFF AND ISZERO PUSH2 0xE23 JUMPI PUSH1 0x40 MLOAD PUSH32 0x22CE1A0700000000000000000000000000000000000000000000000000000000 DUP2 MSTORE PUSH1 0x4 ADD PUSH1 0x40 MLOAD DUP1 SWAP2 SUB SWAP1 REVERT JUMPDEST PUSH1 0x2 DUP2 ADD SLOAD PUSH1 0x6 DUP3 ADD SLOAD LT PUSH2 0xE64 JUMPI PUSH1 0x40 MLOAD PUSH32 0x2217A82000000000000000000000000000000000000000000000000000000000 DUP2 MSTORE PUSH1 0x4 ADD PUSH1 0x40 MLOAD DUP1 SWAP2 SUB SWAP1 REVERT JUMPDEST DUP1 PUSH1 0x1 ADD SLOAD CALLVALUE EQ PUSH2 0xEA1 JUMPI PUSH1 0x40 MLOAD PUSH32 0x25DBDD400000000000000000000000000000000000000000000000000000000 DUP2 MSTORE PUSH1 0x4 ADD PUSH1 0x40 MLOAD DUP1 SWAP2 SUB SWAP1 REVERT JUMPDEST PUSH1 0x6 DUP2 ADD DUP1 SLOAD PUSH1 0x1 DUP2 ADD DUP3 SSTORE PUSH1 0x0 SWAP2 DUP3 MSTORE PUSH1 0x20 DUP3 KECCAK256 ADD DUP1 SLOAD PUSH32 0xFFFFFFFFFFFFFFFFFFFFFFFF0000000000000000000000000000000000000000 AND CALLER OR SWAP1 SSTORE PUSH1 0x5 DUP3 ADD DUP1 SLOAD CALLVALUE SWAP3 SWAP1 PUSH2 0xEF3 SWAP1 DUP5 SWAP1 PUSH2 0x1BC1 JUMP JUMPDEST SWAP1 SWAP2 SSTORE POP POP PUSH1 0x0 DUP4 DUP2 MSTORE PUSH1 0x7 PUSH1 0x20 SWAP1 DUP2 MSTORE PUSH1 0x40 DUP1 DUP4 KECCAK256 CALLER DUP5 MSTORE DUP3 MSTORE DUP1 DUP4 KECCAK256 DUP1 SLOAD PUSH32 0xFFFFFFFFFFFFFFFFFFFFFFFFFFFFFFFFFFFFFFFFFFFFFFFFFFFFFFFFFFFFFF00 AND PUSH1 0x1 OR SWAP1 SSTORE PUSH1 0x9 SWAP1 SWAP2 MSTORE DUP2 KECCAK256 DUP1 SLOAD SWAP2 PUSH2 0xF4D DUP4 PUSH2 0x1B89 JUMP JUMPDEST SWAP1 SWAP2 SSTORE POP POP PUSH1 0x6 DUP2 ADD SLOAD PUSH1 0x40 MLOAD SWAP1 DUP2 MSTORE CALLER SWAP1 DUP5 SWAP1 PUSH32 0xA404489AE2C5D061785027A1520208040261D67D4F27D7082A0A65C9DE4DDAA0 SWAP1 PUSH1 0x20 ADD PUSH1 0x40 MLOAD DUP1 SWAP2 SUB SWAP1 LOG3 PUSH1 0x2 DUP2 ADD SLOAD PUSH1 0x6 DUP3 ADD SLOAD LT PUSH2 0xAF9 JUMPI PUSH2 0xAF9 DUP4 PUSH2 0x141A JUMP JUMPDEST PUSH1 0x0 DUP1 PUSH1 0x0 DUP1 PUSH1 0x0 DUP1 PUSH1 0x0 DUP1 PUSH1 0x0 DUP1 PUSH1 0x0 DUP12 PUSH1 0x3 SLOAD DUP2 LT PUSH2 0xFF3 JUMPI PUSH1 0x40 MLOAD PUSH32 0x3323CEE400000000000000000000000000000000000000000000000000000000 DUP2 MSTORE PUSH1 0x4 ADD PUSH1 0x40 MLOAD DUP1 SWAP2 SUB SWAP1 REVERT JUMPDEST POP POP POP PUSH1 0x0 SWAP10 DUP11 MSTORE POP POP PUSH1 0x6 PUSH1 0x20 DUP2 SWAP1 MSTORE PUSH1 0x40 SWAP1 SWAP9 KECCAK256 DUP1 SLOAD PUSH1 0x1 DUP3 ADD SLOAD PUSH1 0x2 DUP4 ADD SLOAD PUSH1 0x3 DUP5 ADD SLOAD PUSH1 0x4 DUP6 ADD SLOAD PUSH1 0x5 DUP7 ADD SLOAD SWAP14 DUP7 ADD SLOAD PUSH1 0x7 SWAP1 SWAP7 ADD SLOAD SWAP5 SWAP15 SWAP4 SWAP14 SWAP3 SWAP13 POP SWAP1 SWAP11 POP SWAP9 POP SWAP7 POP SWAP2 SWAP5 POP PUSH20 0xFFFFFFFFFFFFFFFFFFFFFFFFFFFFFFFFFFFFFFFF DUP2 AND SWAP4 POP PUSH21 0x10000000000000000000000000000000000000000 DUP2 DIV PUSH1 0xFF SWAP1 DUP2 AND SWAP4 POP PUSH22 0x1000000000000000000000000000000000000000000 DUP3 DIV AND SWAP2 PUSH23 0x100000000000000000000000000000000000000000000 SWAP1 SWAP2 DIV PUSH8 0xFFFFFFFFFFFFFFFF AND SWAP1 JUMP JUMPDEST PUSH1 0x2 SLOAD PUSH20 0xFFFFFFFFFFFFFFFFFFFFFFFFFFFFFFFFFFFFFFFF AND CALLER EQ PUSH2 0x110B JUMPI PUSH1 0x40 MLOAD PUSH32 0x30CD747100000000000000000000000000000000000000000000000000000000 DUP2 MSTORE PUSH1 0x4 ADD PUSH1 0x40 MLOAD DUP1 SWAP2 SUB SWAP1 REVERT JUMPDEST PUSH1 0x1 DUP1 SLOAD PUSH32 0xFFFFFFFFFFFFFFFFFFFFFFFF0000000000000000000000000000000000000000 AND PUSH20 0xFFFFFFFFFFFFFFFFFFFFFFFFFFFFFFFFFFFFFFFF SWAP3 SWAP1 SWAP3 AND SWAP2 SWAP1 SWAP2 OR SWAP1 SSTORE JUMP JUMPDEST DUP1 PUSH1 0x3 SLOAD DUP2 LT PUSH2 0x118E JUMPI PUSH1 0x40 MLOAD PUSH32 0x3323CEE400000000000000000000000000000000000000000000000000000000 DUP2 MSTORE PUSH1 0x4 ADD PUSH1 0x40 MLOAD DUP1 SWAP2 SUB SWAP1 REVERT JUMPDEST PUSH1 0x0 DUP3 DUP2 MSTORE PUSH1 0x6 PUSH1 0x20 MSTORE PUSH1 0x40 SWAP1 KECCAK256 PUSH1 0x7 DUP2 ADD SLOAD PUSH22 0x1000000000000000000000000000000000000000000 SWAP1 DIV PUSH1 0xFF AND PUSH2 0x11F3 JUMPI PUSH1 0x40 MLOAD PUSH32 0x2217A82000000000000000000000000000000000000000000000000000000000 DUP2 MSTORE PUSH1 0x4 ADD PUSH1 0x40 MLOAD DUP1 SWAP2 SUB SWAP1 REVERT JUMPDEST PUSH1 0x7 DUP2 ADD SLOAD PUSH20 0xFFFFFFFFFFFFFFFFFFFFFFFFFFFFFFFFFFFFFFFF AND CALLER EQ PUSH2 0x1246 JUMPI PUSH1 0x40 MLOAD PUSH32 0x30CD747100000000000000000000000000000000000000000000000000000000 DUP2 MSTORE PUSH1 0x4 ADD PUSH1 0x40 MLOAD DUP1 SWAP2 SUB SWAP1 REVERT JUMPDEST DUP1 PUSH1 0x5 ADD SLOAD PUSH1 0x0 SUB PUSH2 0x1284 JUMPI PUSH1 0x40 MLOAD PUSH32 0x25DBDD400000000000000000000000000000000000000000000000000000000 DUP2 MSTORE PUSH1 0x4 ADD PUSH1 0x40 MLOAD DUP1 SWAP2 SUB SWAP1 REVERT JUMPDEST PUSH1 0x5 DUP2 ADD DUP1 SLOAD PUSH1 0x0 SWAP2 DUP3 SWAP1 SSTORE PUSH1 0x40 MLOAD SWAP1 SWAP2 SWAP1 CALLER SWAP1 DUP4 SWAP1 DUP4 DUP2 DUP2 DUP2 DUP6 DUP8 GAS CALL SWAP3 POP POP POP RETURNDATASIZE DUP1 PUSH1 0x0 DUP2 EQ PUSH2 0x12D2 JUMPI PUSH1 0x40 MLOAD SWAP2 POP PUSH1 0x1F NOT PUSH1 0x3F RETURNDATASIZE ADD AND DUP3 ADD PUSH1 0x40 MSTORE RETURNDATASIZE DUP3 MSTORE RETURNDATASIZE PUSH1 0x0 PUSH1 0x20 DUP5 ADD RETURNDATACOPY PUSH2 0x12D7 JUMP JUMPDEST PUSH1 0x60 SWAP2 POP JUMPDEST POP POP SWAP1 POP DUP1 PUSH2 0x1342 JUMPI PUSH1 0x40 MLOAD PUSH32 0x8C379A000000000000000000000000000000000000000000000000000000000 DUP2 MSTORE PUSH1 0x20 PUSH1 0x4 DUP3 ADD MSTORE PUSH1 0xF PUSH1 0x24 DUP3 ADD MSTORE PUSH32 0x5472616E73666572206661696C65640000000000000000000000000000000000 PUSH1 0x44 DUP3 ADD MSTORE PUSH1 0x64 ADD PUSH2 0xB7A JUMP JUMPDEST PUSH1 0x40 MLOAD DUP3 DUP2 MSTORE CALLER SWAP1 DUP7 SWAP1 PUSH32 0x4AA95F981A8337CB337DE335B965507DA0879C3B49F799D20058E913F5AD2C26 SWAP1 PUSH1 0x20 ADD PUSH1 0x40 MLOAD DUP1 SWAP2 SUB SWAP1 LOG3 POP POP POP POP POP JUMP JUMPDEST PUSH1 0x2 SLOAD PUSH20 0xFFFFFFFFFFFFFFFFFFFFFFFFFFFFFFFFFFFFFFFF AND CALLER EQ PUSH2 0x13D1 JUMPI PUSH1 0x40 MLOAD PUSH32 0x30CD747100000000000000000000000000000000000000000000000000000000 DUP2 MSTORE PUSH1 0x4 ADD PUSH1 0x40 MLOAD DUP1 SWAP2 SUB SWAP1 REVERT JUMPDEST PUSH1 0x2 SLOAD PUSH1 0x40 MLOAD PUSH20 0xFFFFFFFFFFFFFFFFFFFFFFFFFFFFFFFFFFFFFFFF SWAP1 SWAP2 AND SWAP1 SELFBALANCE DUP1 ISZERO PUSH2 0x8FC MUL SWAP2 PUSH1 0x0 DUP2 DUP2 DUP2 DUP6 DUP9 DUP9 CALL SWAP4 POP POP POP POP ISZERO DUP1 ISZERO PUSH2 0x1417 JUMPI RETURNDATASIZE PUSH1 0x0 DUP1 RETURNDATACOPY RETURNDATASIZE PUSH1 0x0 REVERT JUMPDEST POP JUMP JUMPDEST PUSH1 0x0 DUP2 DUP2 MSTORE PUSH1 0x6 PUSH1 0x20 DUP2 SWAP1 MSTORE PUSH1 0x40 DUP3 KECCAK256 SWAP1 DUP2 ADD SLOAD SWAP1 SWAP2 SUB PUSH2 0x1467 JUMPI PUSH1 0x40 MLOAD PUSH32 0x8B6A473000000000000000000000000000000000000000000000000000000000 DUP2 MSTORE PUSH1 0x4 ADD PUSH1 0x40 MLOAD DUP1 SWAP2 SUB SWAP1 REVERT JUMPDEST PUSH1 0x7 DUP2 ADD DUP1 SLOAD PUSH32 0xFFFFFFFFFFFFFFFFFFFFFF00FFFFFFFFFFFFFFFFFFFFFFFFFFFFFFFFFFFFFFFF AND SWAP1 SSTORE PUSH1 0x6 DUP2 ADD SLOAD PUSH1 0x1 SUB PUSH2 0x15C5 JUMPI DUP1 PUSH1 0x6 ADD PUSH1 0x0 DUP2 SLOAD DUP2 LT PUSH2 0x14B3 JUMPI PUSH2 0x14B3 PUSH2 0x1C0C JUMP JUMPDEST PUSH1 0x0 SWAP2 DUP3 MSTORE PUSH1 0x20 DUP1 DUP4 KECCAK256 SWAP1 SWAP2 ADD SLOAD PUSH1 0x7 DUP5 ADD DUP1 SLOAD PUSH32 0xFFFFFFFFFFFFFFFFFFFF00FF0000000000000000000000000000000000000000 AND PUSH20 0xFFFFFFFFFFFFFFFFFFFFFFFFFFFFFFFFFFFFFFFF SWAP3 DUP4 AND OR PUSH22 0x1000000000000000000000000000000000000000000 OR SWAP1 DUP2 SWAP1 SSTORE PUSH1 0x5 DUP6 ADD SLOAD SWAP2 AND DUP4 MSTORE PUSH1 0x8 SWAP1 SWAP2 MSTORE PUSH1 0x40 DUP3 KECCAK256 DUP1 SLOAD SWAP2 SWAP3 SWAP1 SWAP2 PUSH2 0x1541 SWAP1 DUP5 SWAP1 PUSH2 0x1BC1 JUMP JUMPDEST SWAP3 POP POP DUP2 SWAP1 SSTORE POP DUP1 PUSH1 0x5 ADD SLOAD PUSH1 0x5 PUSH1 0x0 DUP3 DUP3 SLOAD PUSH2 0x155E SWAP2 SWAP1 PUSH2 0x1BC1 JUMP JUMPDEST SWAP1 SWAP2 SSTORE POP POP PUSH1 0x7 DUP2 ADD SLOAD PUSH1 0x5 DUP3 ADD SLOAD PUSH1 0x40 DUP1 MLOAD SWAP2 DUP3 MSTORE PUSH1 0x0 PUSH1 0x20 DUP4 ADD MSTORE PUSH20 0xFFFFFFFFFFFFFFFFFFFFFFFFFFFFFFFFFFFFFFFF SWAP1 SWAP3 AND SWAP2 DUP5 SWAP2 PUSH32 0xFE9A7804AB1784A993460DE92DAD0F00D2F8C9235070E0A4F7708FF5FBF47877 SWAP2 ADD PUSH1 0x40 MLOAD DUP1 SWAP2 SUB SWAP1 LOG3 POP POP JUMP JUMPDEST PUSH1 0x0 DUP1 PUSH1 0x0 SWAP1 SLOAD SWAP1 PUSH2 0x100 EXP SWAP1 DIV PUSH20 0xFFFFFFFFFFFFFFFFFFFFFFFFFFFFFFFFFFFFFFFF AND PUSH20 0xFFFFFFFFFFFFFFFFFFFFFFFFFFFFFFFFFFFFFFFF AND PUSH4 0x8204B67A PUSH1 0x40 MLOAD DUP2 PUSH4 0xFFFFFFFF AND PUSH1 0xE0 SHL DUP2 MSTORE PUSH1 0x4 ADD PUSH1 0x20 PUSH1 0x40 MLOAD DUP1 DUP4 SUB DUP2 DUP7 GAS STATICCALL ISZERO DUP1 ISZERO PUSH2 0x1633 JUMPI RETURNDATASIZE PUSH1 0x0 DUP1 RETURNDATACOPY RETURNDATASIZE PUSH1 0x0 REVERT JUMPDEST POP POP POP POP PUSH1 0x40 MLOAD RETURNDATASIZE PUSH1 0x1F NOT PUSH1 0x1F DUP3 ADD AND DUP3 ADD DUP1 PUSH1 0x40 MSTORE POP DUP2 ADD SWAP1 PUSH2 0x1657 SWAP2 SWAP1 PUSH2 0x1BDA JUMP JUMPDEST PUSH16 0xFFFFFFFFFFFFFFFFFFFFFFFFFFFFFFFF AND SWAP1 POP PUSH1 0x0 DUP1 PUSH1 0x0 SWAP1 SLOAD SWAP1 PUSH2 0x100 EXP SWAP1 DIV PUSH20 0xFFFFFFFFFFFFFFFFFFFFFFFFFFFFFFFFFFFFFFFF AND PUSH20 0xFFFFFFFFFFFFFFFFFFFFFFFFFFFFFFFFFFFFFFFF AND PUSH4 0x7B43155D DUP4 PUSH1 0x40 MLOAD DUP3 PUSH4 0xFFFFFFFF AND PUSH1 0xE0 SHL DUP2 MSTORE PUSH1 0x4 ADD PUSH1 0x20 PUSH1 0x40 MLOAD DUP1 DUP4 SUB DUP2 DUP6 DUP9 GAS CALL ISZERO DUP1 ISZERO PUSH2 0x16DB JUMPI RETURNDATASIZE PUSH1 0x0 DUP1 RETURNDATACOPY RETURNDATASIZE PUSH1 0x0 REVERT JUMPDEST POP POP POP POP POP PUSH1 0x40 MLOAD RETURNDATASIZE PUSH1 0x1F NOT PUSH1 0x1F DUP3 ADD AND DUP3 ADD DUP1 PUSH1 0x40 MSTORE POP DUP2 ADD SWAP1 PUSH2 0x1700 SWAP2 SWAP1 PUSH2 0x1C3B JUMP JUMPDEST PUSH1 0x7 DUP5 ADD DUP1 SLOAD PUSH32 0xFFFF0000000000000000FFFFFFFFFFFFFFFFFFFFFFFFFFFFFFFFFFFFFFFFFFFF AND PUSH23 0x100000000000000000000000000000000000000000000 PUSH8 0xFFFFFFFFFFFFFFFF DUP5 AND SWAP1 DUP2 MUL SWAP2 SWAP1 SWAP2 OR SWAP1 SWAP2 SSTORE PUSH1 0x40 MLOAD SWAP1 DUP2 MSTORE SWAP1 SWAP2 POP DUP5 SWAP1 PUSH32 0x4B211700ECF92B8CE477DE62320459E015235561CADB1FF1D4C0643DCBC00E1 SWAP1 PUSH1 0x20 ADD PUSH1 0x40 MLOAD DUP1 SWAP2 SUB SWAP1 LOG2 POP POP POP POP JUMP JUMPDEST PUSH1 0x0 JUMPDEST PUSH1 0x3 SLOAD DUP2 LT ISZERO PUSH2 0xC33 JUMPI PUSH1 0x0 DUP2 DUP2 MSTORE PUSH1 0x6 PUSH1 0x20 MSTORE PUSH1 0x40 SWAP1 KECCAK256 PUSH1 0x7 DUP2 ADD SLOAD PUSH8 0xFFFFFFFFFFFFFFFF DUP7 DUP2 AND PUSH23 0x100000000000000000000000000000000000000000000 SWAP1 SWAP3 DIV AND EQ DUP1 ISZERO PUSH2 0x180F JUMPI POP PUSH1 0x7 DUP2 ADD SLOAD PUSH31 0x1000000000000000000000000000000000000000000000000000000000000 SWAP1 DIV PUSH1 0xFF AND ISZERO JUMPDEST ISZERO PUSH2 0x186F JUMPI PUSH1 0x7 DUP2 ADD DUP1 SLOAD PUSH32 0xFF00FFFFFFFFFFFFFFFFFFFFFFFFFFFFFFFFFFFFFFFFFFFFFFFFFFFFFFFFFFFF AND PUSH31 0x1000000000000000000000000000000000000000000000000000000000000 OR SWAP1 SSTORE PUSH2 0x1869 DUP3 DUP5 PUSH2 0x1882 JUMP JUMPDEST POP PUSH2 0xC33 JUMP JUMPDEST POP DUP1 PUSH2 0x187A DUP2 PUSH2 0x1B89 JUMP JUMPDEST SWAP2 POP POP PUSH2 0x1796 JUMP JUMPDEST PUSH1 0x0 DUP3 DUP2 MSTORE PUSH1 0x6 PUSH1 0x20 DUP2 SWAP1 MSTORE PUSH1 0x40 DUP3 KECCAK256 SWAP1 DUP2 ADD SLOAD SWAP1 SWAP2 SWAP1 PUSH2 0x18A3 SWAP1 DUP5 PUSH2 0x1C58 JUMP JUMPDEST SWAP1 POP DUP2 PUSH1 0x6 ADD DUP2 DUP2 SLOAD DUP2 LT PUSH2 0x18BA JUMPI PUSH2 0x18BA PUSH2 0x1C0C JUMP JUMPDEST PUSH1 0x0 SWAP2 DUP3 MSTORE PUSH1 0x20 DUP1 DUP4 KECCAK256 SWAP1 SWAP2 ADD SLOAD PUSH1 0x7 DUP6 ADD DUP1 SLOAD PUSH32 0xFFFFFFFFFFFFFFFFFFFF00FF0000000000000000000000000000000000000000 AND PUSH20 0xFFFFFFFFFFFFFFFFFFFFFFFFFFFFFFFFFFFFFFFF SWAP3 DUP4 AND OR PUSH22 0x1000000000000000000000000000000000000000000 OR SWAP1 DUP2 SWAP1 SSTORE PUSH1 0x5 DUP7 ADD SLOAD SWAP2 AND DUP4 MSTORE PUSH1 0x8 SWAP1 SWAP2 MSTORE PUSH1 0x40 DUP3 KECCAK256 DUP1 SLOAD SWAP2 SWAP3 SWAP1 SWAP2 PUSH2 0x1948 SWAP1 DUP5 SWAP1 PUSH2 0x1BC1 JUMP JUMPDEST SWAP3 POP POP DUP2 SWAP1 SSTORE POP DUP2 PUSH1 0x5 ADD SLOAD PUSH1 0x5 PUSH1 0x0 DUP3 DUP3 SLOAD PUSH2 0x1965 SWAP2 SWAP1 PUSH2 0x1BC1 JUMP JUMPDEST SWAP1 SWAP2 SSTORE POP POP PUSH1 0x7 DUP3 ADD SLOAD PUSH1 0x5 DUP4 ADD SLOAD PUSH1 0x40 DUP1 MLOAD SWAP2 DUP3 MSTORE PUSH23 0x100000000000000000000000000000000000000000000 DUP4 DIV PUSH8 0xFFFFFFFFFFFFFFFF AND PUSH1 0x20 DUP4 ADD MSTORE PUSH20 0xFFFFFFFFFFFFFFFFFFFFFFFFFFFFFFFFFFFFFFFF SWAP1 SWAP3 AND SWAP2 DUP7 SWAP2 PUSH32 0xFE9A7804AB1784A993460DE92DAD0F00D2F8C9235070E0A4F7708FF5FBF47877 SWAP2 ADD PUSH1 0x40 MLOAD DUP1 SWAP2 SUB SWAP1 LOG3 POP POP POP POP JUMP JUMPDEST PUSH1 0x0 PUSH1 0x20 DUP3 DUP5 SUB SLT ISZERO PUSH2 0x1A02 JUMPI PUSH1 0x0 DUP1 REVERT JUMPDEST POP CALLDATALOAD SWAP2 SWAP1 POP JUMP JUMPDEST PUSH1 0x0 DUP1 PUSH1 0x0 PUSH1 0x60 DUP5 DUP7 SUB SLT ISZERO PUSH2 0x1A1E JUMPI PUSH1 0x0 DUP1 REVERT JUMPDEST POP POP DUP2 CALLDATALOAD SWAP4 PUSH1 0x20 DUP4 ADD CALLDATALOAD SWAP4 POP PUSH1 0x40 SWAP1 SWAP3 ADD CALLDATALOAD SWAP2 SWAP1 POP JUMP JUMPDEST DUP1 CALLDATALOAD PUSH20 0xFFFFFFFFFFFFFFFFFFFFFFFFFFFFFFFFFFFFFFFF DUP2 AND DUP2 EQ PUSH2 0x1A59 JUMPI PUSH1 0x0 DUP1 REVERT JUMPDEST SWAP2 SWAP1 POP JUMP JUMPDEST PUSH1 0x0 PUSH1 0x20 DUP3 DUP5 SUB SLT ISZERO PUSH2 0x1A70 JUMPI PUSH1 0x0 DUP1 REVERT JUMPDEST PUSH2 0x1A79 DUP3 PUSH2 0x1A35 JUMP JUMPDEST SWAP4 SWAP3 POP POP POP JUMP JUMPDEST PUSH8 0xFFFFFFFFFFFFFFFF DUP2 AND DUP2 EQ PUSH2 0x1417 JUMPI PUSH1 0x0 DUP1 REVERT JUMPDEST PUSH1 0x0 DUP1 PUSH1 0x0 PUSH1 0x60 DUP5 DUP7 SUB SLT ISZERO PUSH2 0x1AAB JUMPI PUSH1 0x0 DUP1 REVERT JUMPDEST DUP4 CALLDATALOAD PUSH2 0x1AB6 DUP2 PUSH2 0x1A80 JUMP JUMPDEST SWAP3 POP PUSH2 0x1AC4 PUSH1 0x20 DUP6 ADD PUSH2 0x1A35 JUMP JUMPDEST SWAP2 POP PUSH1 0x40 DUP5 ADD CALLDATALOAD SWAP1 POP SWAP3 POP SWAP3 POP SWAP3 JUMP JUMPDEST PUSH1 0x20 DUP1 DUP3 MSTORE DUP3 MLOAD DUP3 DUP3 ADD DUP2 SWAP1 MSTORE PUSH1 0x0 SWAP2 SWAP1 DUP5 DUP3 ADD SWAP1 PUSH1 0x40 DUP6 ADD SWAP1 DUP5 JUMPDEST DUP2 DUP2 LT ISZERO PUSH2 0x1B22 JUMPI DUP4 MLOAD PUSH20 0xFFFFFFFFFFFFFFFFFFFFFFFFFFFFFFFFFFFFFFFF AND DUP4 MSTORE SWAP3 DUP5 ADD SWAP3 SWAP2 DUP5 ADD SWAP2 PUSH1 0x1 ADD PUSH2 0x1AF0 JUMP JUMPDEST POP SWAP1 SWAP7 SWAP6 POP POP POP POP POP POP JUMP JUMPDEST PUSH1 0x0 DUP1 PUSH1 0x40 DUP4 DUP6 SUB SLT ISZERO PUSH2 0x1B41 JUMPI PUSH1 0x0 DUP1 REVERT JUMPDEST DUP3 CALLDATALOAD SWAP2 POP PUSH2 0x1B51 PUSH1 0x20 DUP5 ADD PUSH2 0x1A35 JUMP JUMPDEST SWAP1 POP SWAP3 POP SWAP3 SWAP1 POP JUMP JUMPDEST PUSH32 0x4E487B7100000000000000000000000000000000000000000000000000000000 PUSH1 0x0 MSTORE PUSH1 0x11 PUSH1 0x4 MSTORE PUSH1 0x24 PUSH1 0x0 REVERT JUMPDEST PUSH1 0x0 PUSH32 0xFFFFFFFFFFFFFFFFFFFFFFFFFFFFFFFFFFFFFFFFFFFFFFFFFFFFFFFFFFFFFFFF DUP3 SUB PUSH2 0x1BBA JUMPI PUSH2 0x1BBA PUSH2 0x1B5A JUMP JUMPDEST POP PUSH1 0x1 ADD SWAP1 JUMP JUMPDEST DUP1 DUP3 ADD DUP1 DUP3 GT ISZERO PUSH2 0x1BD4 JUMPI PUSH2 0x1BD4 PUSH2 0x1B5A JUMP JUMPDEST SWAP3 SWAP2 POP POP JUMP JUMPDEST PUSH1 0x0 PUSH1 0x20 DUP3 DUP5 SUB SLT ISZERO PUSH2 0x1BEC JUMPI PUSH1 0x0 DUP1 REVERT JUMPDEST DUP2 MLOAD PUSH16 0xFFFFFFFFFFFFFFFFFFFFFFFFFFFFFFFF DUP2 AND DUP2 EQ PUSH2 0x1A79 JUMPI PUSH1 0x0 DUP1 REVERT JUMPDEST PUSH32 0x4E487B7100000000000000000000000000000000000000000000000000000000 PUSH1 0x0 MSTORE PUSH1 0x32 PUSH1 0x4 MSTORE PUSH1 0x24 PUSH1 0x0 REVERT JUMPDEST PUSH1 0x0 PUSH1 0x20 DUP3 DUP5 SUB SLT ISZERO PUSH2 0x1C4D JUMPI PUSH1 0x0 DUP1 REVERT JUMPDEST DUP2 MLOAD PUSH2 0x1A79 DUP2 PUSH2 0x1A80 JUMP JUMPDEST PUSH1 0x0 DUP3 PUSH2 0x1C8E JUMPI PUSH32 0x4E487B7100000000000000000000000000000000000000000000000000000000 PUSH1 0x0 MSTORE PUSH1 0x12 PUSH1 0x4 MSTORE PUSH1 0x24 PUSH1 0x0 REVERT JUMPDEST POP MOD SWAP1 JUMP INVALID LOG2 PUSH5 0x6970667358 0x22 SLT KECCAK256 DUP10 0xD1 0xE1 0xF SWAP3 SWAP3 PUSH20 0x7006D8F030B7794A8469B660E64931EA98A5A2DD CALLCODE PUSH9 0x47D35F64736F6C6343 STOP ADDMOD GT STOP CALLER "},"methodIdentifiers":{"MAX_DURATION()":"b1724b46","MAX_ENTRY_FEE()":"f50ab0de","MAX_PARTICIPANTS()":"f3baf070","MIN_DURATION()":"b6a6d177","MIN_ENTRY_FEE()":"81883759","MIN_PARTICIPANTS()":"3a984bc5","_entropyCallback(uint64,address,bytes32)":"52a5f1f8","claimPrize(uint256)":"d7098154","createLottery(uint256,uint256,uint256)":"2cffaa60","emergencyWithdraw()":"db2e21bc","endLottery(uint256)":"3739e769","getContractStats()":"dfe6b5d6","getEntropyFee()":"2d971e63","getLottery(uint256)":"92e845f6","getLotteryParticipants(uint256)":"68fb2eba","getUserStats(address)":"4e43603a","hasParticipated(uint256,address)":"a34398a2","joinLottery(uint256)":"7eee9fc1","lotteries(uint256)":"1398e076","nextLotteryId()":"8009df68","owner()":"8da5cb5b","setEntropyProvider(address)":"a13cf386","totalLotteries()":"f530bcab","totalPrizesDistributed()":"f69e6ab0","userParticipations(address)":"d0559882","userWinnings(address)":"a815a4d4"}},"storageLayout":{"storage":[{"astId":570,"contract":"contracts/COPYCATLottery.sol:COPYCATLottery","label":"entropy","offset":0,"slot":"0","type":"t_contract(IEntropyV2)474"},{"astId":572,"contract":"contracts/COPYCATLottery.sol:COPYCATLottery","label":"entropyProvider","offset":0,"slot":"1","type":"t_address"},{"astId":574,"contract":"contracts/COPYCATLottery.sol:COPYCATLottery","label":"owner","offset":0,"slot":"2","type":"t_address"},{"astId":576,"contract":"contracts/COPYCATLottery.sol:COPYCATLottery","label":"nextLotteryId","offset":0,"slot":"3","type":"t_uint256"},{"astId":578,"contract":"contracts/COPYCATLottery.sol:COPYCATLottery","label":"totalLotteries","offset":0,"slot":"4","type":"t_uint256"},{"astId":580,"contract":"contracts/COPYCATLottery.sol:COPYCATLottery","label":"totalPrizesDistributed","offset":0,"slot":"5","type":"t_uint256"},{"astId":585,"contract":"contracts/COPYCATLottery.sol:COPYCATLottery","label":"lotteries","offset":0,"slot":"6","type":"t_mapping(t_uint256,t_struct(Lottery)567_storage)"},{"astId":591,"contract":"contracts/COPYCATLottery.sol:COPYCATLottery","label":"hasParticipated","offset":0,"slot":"7","type":"t_mapping(t_uint256,t_mapping(t_address,t_bool))"},{"astId":595,"contract":"contracts/COPYCATLottery.sol:COPYCATLottery","label":"userWinnings","offset":0,"slot":"8","type":"t_mapping(t_address,t_uint256)"},{"astId":599,"contract":"contracts/COPYCATLottery.sol:COPYCATLottery","label":"userParticipations","offset":0,"slot":"9","type":"t_mapping(t_address,t_uint256)"}],"types":{"t_address":{"encoding":"inplace","label":"address","numberOfBytes":"20"},"t_array(t_address)dyn_storage":{"base":"t_address","encoding":"dynamic_array","label":"address[]","numberOfBytes":"32"},"t_bool":{"encoding":"inplace","label":"bool","numberOfBytes":"1"},"t_contract(IEntropyV2)474":{"encoding":"inplace","label":"contract IEntropyV2","numberOfBytes":"20"},"t_mapping(t_address,t_bool)":{"encoding":"mapping","key":"t_address","label":"mapping(address => bool)","numberOfBytes":"32","value":"t_bool"},"t_mapping(t_address,t_uint256)":{"encoding":"mapping","key":"t_address","label":"mapping(address => uint256)","numberOfBytes":"32","value":"t_uint256"},"t_mapping(t_uint256,t_mapping(t_address,t_bool))":{"encoding":"mapping","key":"t_uint256","label":"mapping(uint256 => mapping(address => bool))","numberOfBytes":"32","value":"t_mapping(t_address,t_bool)"},"t_mapping(t_uint256,t_struct(Lottery)567_storage)":{"encoding":"mapping","key":"t_uint256","label":"mapping(uint256 => struct COPYCATLottery.Lottery)","numberOfBytes":"32","value":"t_struct(Lottery)567_storage"},"t_struct(Lottery)567_storage":{"encoding":"inplace","label":"struct COPYCATLottery.Lottery","members":[{"astId":543,"contract":"contracts/COPYCATLottery.sol:COPYCATLottery","label":"lotteryId","offset":0,"slot":"0","type":"t_uint256"},{"astId":545,"contract":"contracts/COPYCATLottery.sol:COPYCATLottery","label":"entryFee","offset":0,"slot":"1","type":"t_uint256"},{"astId":547,"contract":"contracts/COPYCATLottery.sol:COPYCATLottery","label":"maxParticipants","offset":0,"slot":"2","type":"t_uint256"},{"astId":549,"contract":"contracts/COPYCATLottery.sol:COPYCATLottery","label":"startTime","offset":0,"slot":"3","type":"t_uint256"},{"astId":551,"contract":"contracts/COPYCATLottery.sol:COPYCATLottery","label":"endTime","offset":0,"slot":"4","type":"t_uint256"},{"astId":553,"contract":"contracts/COPYCATLottery.sol:COPYCATLottery","label":"prizePool","offset":0,"slot":"5","type":"t_uint256"},{"astId":556,"contract":"contracts/COPYCATLottery.sol:COPYCATLottery","label":"participants","offset":0,"slot":"6","type":"t_array(t_address)dyn_storage"},{"astId":558,"contract":"contracts/COPYCATLottery.sol:COPYCATLottery","label":"winner","offset":0,"slot":"7","type":"t_address"},{"astId":560,"contract":"contracts/COPYCATLottery.sol:COPYCATLottery","label":"isActive","offset":20,"slot":"7","type":"t_bool"},{"astId":562,"contract":"contracts/COPYCATLottery.sol:COPYCATLottery","label":"isEnded","offset":21,"slot":"7","type":"t_bool"},{"astId":564,"contract":"contracts/COPYCATLottery.sol:COPYCATLottery","label":"sequenceNumber","offset":22,"slot":"7","type":"t_uint64"},{"astId":566,"contract":"contracts/COPYCATLottery.sol:COPYCATLottery","label":"randomNumberReceived","offset":30,"slot":"7","type":"t_bool"}],"numberOfBytes":"256"},"t_uint256":{"encoding":"inplace","label":"uint256","numberOfBytes":"32"},"t_uint64":{"encoding":"inplace","label":"uint64","numberOfBytes":"8"}}}}}}