{
  "_format": "hh-sol-artifact-1",
  "contractName": "Topic",
  "sourceName": "contracts/Topic.sol",
  "abi": [
    {
      "anonymous": false,
      "inputs": [
        {
          "indexed": false,
          "internalType": "uint8",
          "name": "version",
          "type": "uint8"
        }
      ],
      "name": "Initialized",
      "type": "event"
    },
    {
      "inputs": [],
      "name": "getTopicId",
      "outputs": [
        {
          "internalType": "string",
          "name": "",
          "type": "string"
        }
      ],
      "stateMutability": "view",
      "type": "function"
    },
    {
      "inputs": [
        {
          "internalType": "string",
          "name": "topicId",
          "type": "string"
        }
      ],
      "name": "initialize",
      "outputs": [],
      "stateMutability": "nonpayable",
      "type": "function"
    }
  ],
  "bytecode": "0x608060405234801561001057600080fd5b506105f8806100206000396000f3fe608060405234801561001057600080fd5b50600436106100365760003560e01c806336a1f5691461003b578063f62d188814610059575b600080fd5b61004361006e565b604051610050919061029c565b60405180910390f35b61006c610067366004610337565b610100565b005b60606001805461007d90610406565b80601f01602080910402602001604051908101604052809291908181526020018280546100a990610406565b80156100f65780601f106100cb576101008083540402835291602001916100f6565b820191906000526020600020905b8154815290600101906020018083116100d957829003601f168201915b5050505050905090565b600054610100900460ff16158080156101205750600054600160ff909116105b8061013a5750303b15801561013a575060005460ff166001145b6101ca576040517f08c379a000000000000000000000000000000000000000000000000000000000815260206004820152602e60248201527f496e697469616c697a61626c653a20636f6e747261637420697320616c72656160448201527f647920696e697469616c697a6564000000000000000000000000000000000000606482015260840160405180910390fd5b600080547fffffffffffffffffffffffffffffffffffffffffffffffffffffffffffffff00166001179055801561022857600080547fffffffffffffffffffffffffffffffffffffffffffffffffffffffffffff00ff166101001790555b600161023483826104a8565b50801561029857600080547fffffffffffffffffffffffffffffffffffffffffffffffffffffffffffff00ff169055604051600181527f7f26b83ff96e1f2b6a682f133852f6798a09c465da95921460cefb38474024989060200160405180910390a15b5050565b600060208083528351808285015260005b818110156102c9578581018301518582016040015282016102ad565b5060006040828601015260407fffffffffffffffffffffffffffffffffffffffffffffffffffffffffffffffe0601f8301168501019250505092915050565b7f4e487b7100000000000000000000000000000000000000000000000000000000600052604160045260246000fd5b60006020828403121561034957600080fd5b813567ffffffffffffffff8082111561036157600080fd5b818401915084601f83011261037557600080fd5b81358181111561038757610387610308565b604051601f82017fffffffffffffffffffffffffffffffffffffffffffffffffffffffffffffffe0908116603f011681019083821181831017156103cd576103cd610308565b816040528281528760208487010111156103e657600080fd5b826020860160208301376000928101602001929092525095945050505050565b600181811c9082168061041a57607f821691505b602082108103610453577f4e487b7100000000000000000000000000000000000000000000000000000000600052602260045260246000fd5b50919050565b601f8211156104a357600081815260208120601f850160051c810160208610156104805750805b601f850160051c820191505b8181101561049f5782815560010161048c565b5050505b505050565b815167ffffffffffffffff8111156104c2576104c2610308565b6104d6816104d08454610406565b84610459565b602080601f83116001811461052957600084156104f35750858301515b7fffffffffffffffffffffffffffffffffffffffffffffffffffffffffffffffff600386901b1c1916600185901b17855561049f565b6000858152602081207fffffffffffffffffffffffffffffffffffffffffffffffffffffffffffffffe08616915b8281101561057657888601518255948401946001909101908401610557565b50858210156105b257878501517fffffffffffffffffffffffffffffffffffffffffffffffffffffffffffffffff600388901b60f8161c191681555b5050505050600190811b0190555056fea2646970667358221220e253d63b15a499de14896990156d49f3a22f80964cf04d12c60664188b30528064736f6c63430008110033",
  "linkReferences": {},
  "deployedLinkReferences": {}
}