{
  "_format": "hh-sol-artifact-1",
  "contractName": "COPYCATLottery",
  "sourceName": "contracts/COPYCATLottery.sol",
  "abi": [
    {
      "inputs": [
        {
          "internalType": "address",
          "name": "_entropy",
          "type": "address"
        },
        {
          "internalType": "address",
          "name": "_entropyProvider",
          "type": "address"
        }
      ],
      "stateMutability": "nonpayable",
      "type": "constructor"
    },
    {
      "inputs": [],
      "name": "AlreadyParticipated",
      "type": "error"
    },
    {
      "inputs": [],
      "name": "InsufficientFee",
      "type": "error"
    },
    {
      "inputs": [],
      "name": "InvalidLotteryId",
      "type": "error"
    },
    {
      "inputs": [],
      "name": "LotteryAlreadyEnded",
      "type": "error"
    },
    {
      "inputs": [],
      "name": "LotteryInProgress",
      "type": "error"
    },
    {
      "inputs": [],
      "name": "LotteryNotActive",
      "type": "error"
    },
    {
      "inputs": [],
      "name": "NoParticipants",
      "type": "error"
    },
    {
      "inputs": [],
      "name": "NotOwner",
      "type": "error"
    },
    {
      "anonymous": false,
      "inputs": [
        {
          "indexed": true,
          "internalType": "uint256",
          "name": "lotteryId",
          "type": "uint256"
        },
        {
          "indexed": false,
          "internalType": "uint256",
          "name": "entryFee",
          "type": "uint256"
        },
        {
          "indexed": false,
          "internalType": "uint256",
          "name": "maxParticipants",
          "type": "uint256"
        },
        {
          "indexed": false,
          "internalType": "uint256",
          "name": "duration",
          "type": "uint256"
        }
      ],
      "name": "LotteryCreated",
      "type": "event"
    },
    {
      "anonymous": false,
      "inputs": [
        {
          "indexed": true,
          "internalType": "uint256",
          "name": "lotteryId",
          "type": "uint256"
        },
        {
          "indexed": true,
          "internalType": "address",
          "name": "winner",
          "type": "address"
        },
        {
          "indexed": false,
          "internalType": "uint256",
          "name": "prizeAmount",
          "type": "uint256"
        },
        {
          "indexed": false,
          "internalType": "uint256",
          "name": "sequenceNumber",
          "type": "uint256"
        }
      ],
      "name": "LotteryEnded",
      "type": "event"
    },
    {
      "anonymous": false,
      "inputs": [
        {
          "indexed": true,
          "internalType": "uint256",
          "name": "lotteryId",
          "type": "uint256"
        },
        {
          "indexed": true,
          "internalType": "address",
          "name": "participant",
          "type": "address"
        },
        {
          "indexed": false,
          "internalType": "uint256",
          "name": "participantCount",
          "type": "uint256"
        }
      ],
      "name": "LotteryJoined",
      "type": "event"
    },
    {
      "anonymous": false,
      "inputs": [
        {
          "indexed": true,
          "internalType": "uint256",
          "name": "lotteryId",
          "type": "uint256"
        },
        {
          "indexed": true,
          "internalType": "address",
          "name": "winner",
          "type": "address"
        },
        {
          "indexed": false,
          "internalType": "uint256",
          "name": "amount",
          "type": "uint256"
        }
      ],
      "name": "PrizeClaimed",
      "type": "event"
    },
    {
      "anonymous": false,
      "inputs": [
        {
          "indexed": true,
          "internalType": "uint256",
          "name": "lotteryId",
          "type": "uint256"
        },
        {
          "indexed": false,
          "internalType": "uint64",
          "name": "sequenceNumber",
          "type": "uint64"
        }
      ],
      "name": "RandomNumberRequested",
      "type": "event"
    },
    {
      "inputs": [],
      "name": "MAX_DURATION",
      "outputs": [
        {
          "internalType": "uint256",
          "name": "",
          "type": "uint256"
        }
      ],
      "stateMutability": "view",
      "type": "function"
    },
    {
      "inputs": [],
      "name": "MAX_ENTRY_FEE",
      "outputs": [
        {
          "internalType": "uint256",
          "name": "",
          "type": "uint256"
        }
      ],
      "stateMutability": "view",
      "type": "function"
    },
    {
      "inputs": [],
      "name": "MAX_PARTICIPANTS",
      "outputs": [
        {
          "internalType": "uint256",
          "name": "",
          "type": "uint256"
        }
      ],
      "stateMutability": "view",
      "type": "function"
    },
    {
      "inputs": [],
      "name": "MIN_DURATION",
      "outputs": [
        {
          "internalType": "uint256",
          "name": "",
          "type": "uint256"
        }
      ],
      "stateMutability": "view",
      "type": "function"
    },
    {
      "inputs": [],
      "name": "MIN_ENTRY_FEE",
      "outputs": [
        {
          "internalType": "uint256",
          "name": "",
          "type": "uint256"
        }
      ],
      "stateMutability": "view",
      "type": "function"
    },
    {
      "inputs": [],
      "name": "MIN_PARTICIPANTS",
      "outputs": [
        {
          "internalType": "uint256",
          "name": "",
          "type": "uint256"
        }
      ],
      "stateMutability": "view",
      "type": "function"
    },
    {
      "inputs": [
        {
          "internalType": "uint64",
          "name": "sequence",
          "type": "uint64"
        },
        {
          "internalType": "address",
          "name": "provider",
          "type": "address"
        },
        {
          "internalType": "bytes32",
          "name": "randomNumber",
          "type": "bytes32"
        }
      ],
      "name": "_entropyCallback",
      "outputs": [],
      "stateMutability": "nonpayable",
      "type": "function"
    },
    {
      "inputs": [
        {
          "internalType": "uint256",
          "name": "_lotteryId",
          "type": "uint256"
        }
      ],
      "name": "claimPrize",
      "outputs": [],
      "stateMutability": "nonpayable",
      "type": "function"
    },
    {
      "inputs": [
        {
          "internalType": "uint256",
          "name": "_entryFee",
          "type": "uint256"
        },
        {
          "internalType": "uint256",
          "name": "_maxParticipants",
          "type": "uint256"
        },
        {
          "internalType": "uint256",
          "name": "_duration",
          "type": "uint256"
        }
      ],
      "name": "createLottery",
      "outputs": [
        {
          "internalType": "uint256",
          "name": "",
          "type": "uint256"
        }
      ],
      "stateMutability": "nonpayable",
      "type": "function"
    },
    {
      "inputs": [],
      "name": "emergencyWithdraw",
      "outputs": [],
      "stateMutability": "nonpayable",
      "type": "function"
    },
    {
      "inputs": [
        {
          "internalType": "uint256",
          "name": "_lotteryId",
          "type": "uint256"
        }
      ],
      "name": "endLottery",
      "outputs": [],
      "stateMutability": "nonpayable",
      "type": "function"
    },
    {
      "inputs": [],
      "name": "getContractStats",
      "outputs": [
        {
          "internalType": "uint256",
          "name": "totalLotteries_",
          "type": "uint256"
        },
        {
          "internalType": "uint256",
          "name": "totalPrizesDistributed_",
          "type": "uint256"
        },
        {
          "internalType": "uint256",
          "name": "currentLotteryId",
          "type": "uint256"
        }
      ],
      "stateMutability": "view",
      "type": "function"
    },
    {
      "inputs": [],
      "name": "getEntropyFee",
      "outputs": [
        {
          "internalType": "uint256",
          "name": "",
          "type": "uint256"
        }
      ],
      "stateMutability": "view",
      "type": "function"
    },
    {
      "inputs": [
        {
          "internalType": "uint256",
          "name": "_lotteryId",
          "type": "uint256"
        }
      ],
      "name": "getLottery",
      "outputs": [
        {
          "internalType": "uint256",
          "name": "lotteryId",
          "type": "uint256"
        },
        {
          "internalType": "uint256",
          "name": "entryFee",
          "type": "uint256"
        },
        {
          "internalType": "uint256",
          "name": "maxParticipants",
          "type": "uint256"
        },
        {
          "internalType": "uint256",
          "name": "startTime",
          "type": "uint256"
        },
        {
          "internalType": "uint256",
          "name": "endTime",
          "type": "uint256"
        },
        {
          "internalType": "uint256",
          "name": "prizePool",
          "type": "uint256"
        },
        {
          "internalType": "uint256",
          "name": "participantCount",
          "type": "uint256"
        },
        {
          "internalType": "address",
          "name": "winner",
          "type": "address"
        },
        {
          "internalType": "bool",
          "name": "isActive",
          "type": "bool"
        },
        {
          "internalType": "bool",
          "name": "isEnded",
          "type": "bool"
        },
        {
          "internalType": "uint64",
          "name": "sequenceNumber",
          "type": "uint64"
        }
      ],
      "stateMutability": "view",
      "type": "function"
    },
    {
      "inputs": [
        {
          "internalType": "uint256",
          "name": "_lotteryId",
          "type": "uint256"
        }
      ],
      "name": "getLotteryParticipants",
      "outputs": [
        {
          "internalType": "address[]",
          "name": "",
          "type": "address[]"
        }
      ],
      "stateMutability": "view",
      "type": "function"
    },
    {
      "inputs": [
        {
          "internalType": "address",
          "name": "_user",
          "type": "address"
        }
      ],
      "name": "getUserStats",
      "outputs": [
        {
          "internalType": "uint256",
          "name": "winnings",
          "type": "uint256"
        },
        {
          "internalType": "uint256",
          "name": "participations",
          "type": "uint256"
        }
      ],
      "stateMutability": "view",
      "type": "function"
    },
    {
      "inputs": [
        {
          "internalType": "uint256",
          "name": "",
          "type": "uint256"
        },
        {
          "internalType": "address",
          "name": "",
          "type": "address"
        }
      ],
      "name": "hasParticipated",
      "outputs": [
        {
          "internalType": "bool",
          "name": "",
          "type": "bool"
        }
      ],
      "stateMutability": "view",
      "type": "function"
    },
    {
      "inputs": [
        {
          "internalType": "uint256",
          "name": "_lotteryId",
          "type": "uint256"
        }
      ],
      "name": "joinLottery",
      "outputs": [],
      "stateMutability": "payable",
      "type": "function"
    },
    {
      "inputs": [
        {
          "internalType": "uint256",
          "name": "",
          "type": "uint256"
        }
      ],
      "name": "lotteries",
      "outputs": [
        {
          "internalType": "uint256",
          "name": "lotteryId",
          "type": "uint256"
        },
        {
          "internalType": "uint256",
          "name": "entryFee",
          "type": "uint256"
        },
        {
          "internalType": "uint256",
          "name": "maxParticipants",
          "type": "uint256"
        },
        {
          "internalType": "uint256",
          "name": "startTime",
          "type": "uint256"
        },
        {
          "internalType": "uint256",
          "name": "endTime",
          "type": "uint256"
        },
        {
          "internalType": "uint256",
          "name": "prizePool",
          "type": "uint256"
        },
        {
          "internalType": "address",
          "name": "winner",
          "type": "address"
        },
        {
          "internalType": "bool",
          "name": "isActive",
          "type": "bool"
        },
        {
          "internalType": "bool",
          "name": "isEnded",
          "type": "bool"
        },
        {
          "internalType": "uint64",
          "name": "sequenceNumber",
          "type": "uint64"
        },
        {
          "internalType": "bool",
          "name": "randomNumberReceived",
          "type": "bool"
        }
      ],
      "stateMutability": "view",
      "type": "function"
    },
    {
      "inputs": [],
      "name": "nextLotteryId",
      "outputs": [
        {
          "internalType": "uint256",
          "name": "",
          "type": "uint256"
        }
      ],
      "stateMutability": "view",
      "type": "function"
    },
    {
      "inputs": [],
      "name": "owner",
      "outputs": [
        {
          "internalType": "address",
          "name": "",
          "type": "address"
        }
      ],
      "stateMutability": "view",
      "type": "function"
    },
    {
      "inputs": [
        {
          "internalType": "address",
          "name": "_newProvider",
          "type": "address"
        }
      ],
      "name": "setEntropyProvider",
      "outputs": [],
      "stateMutability": "nonpayable",
      "type": "function"
    },
    {
      "inputs": [],
      "name": "totalLotteries",
      "outputs": [
        {
          "internalType": "uint256",
          "name": "",
          "type": "uint256"
        }
      ],
      "stateMutability": "view",
      "type": "function"
    },
    {
      "inputs": [],
      "name": "totalPrizesDistributed",
      "outputs": [
        {
          "internalType": "uint256",
          "name": "",
          "type": "uint256"
        }
      ],
      "stateMutability": "view",
      "type": "function"
    },
    {
      "inputs": [
        {
          "internalType": "address",
          "name": "",
          "type": "address"
        }
      ],
      "name": "userParticipations",
      "outputs": [
        {
          "internalType": "uint256",
          "name": "",
          "type": "uint256"
        }
      ],
      "stateMutability": "view",
      "type": "function"
    },
    {
      "inputs": [
        {
          "internalType": "address",
          "name": "",
          "type": "address"
        }
      ],
      "name": "userWinnings",
      "outputs": [
        {
          "internalType": "uint256",
          "name": "",
          "type": "uint256"
        }
      ],
      "stateMutability": "view",
      "type": "function"
    },
    {
      "stateMutability": "payable",
      "type": "receive"
    }
  ],
  "bytecode": "0x60806040523480156200001157600080fd5b5060405162001da438038062001da4833981016040819052620000349162000093565b600080546001600160a01b039384166001600160a01b0319918216179091556001805492909316918116919091179091556002805490911633179055620000cb565b80516001600160a01b03811681146200008e57600080fd5b919050565b60008060408385031215620000a757600080fd5b620000b28362000076565b9150620000c26020840162000076565b90509250929050565b611cc980620000db6000396000f3fe6080604052600436106101a55760003560e01c8063a13cf386116100e1578063d70981541161008a578063f3baf07011610064578063f3baf070146106d1578063f50ab0de146106e7578063f530bcab14610703578063f69e6ab01461071957600080fd5b8063d70981541461066b578063db2e21bc1461068b578063dfe6b5d6146106a057600080fd5b8063b1724b46116100bb578063b1724b4614610611578063b6a6d17714610628578063d05598821461063e57600080fd5b8063a13cf38614610579578063a34398a214610599578063a815a4d4146105e457600080fd5b806352a5f1f81161014e5780638009df68116101285780638009df681461045f57806381883759146104755780638da5cb5b1461049057806392e845f6146104e257600080fd5b806352a5f1f8146103ff57806368fb2eba1461041f5780637eee9fc11461044c57600080fd5b80633739e7691161017f5780633739e769146103635780633a984bc5146103855780634e43603a1461039a57600080fd5b80631398e076146101b15780632cffaa60146103205780632d971e631461034e57600080fd5b366101ac57005b600080fd5b3480156101bd57600080fd5b506102a26101cc3660046119f0565b6006602052600090815260409020805460018201546002830154600384015460048501546005860154600790960154949593949293919290919073ffffffffffffffffffffffffffffffffffffffff81169060ff7401000000000000000000000000000000000000000082048116917501000000000000000000000000000000000000000000810482169167ffffffffffffffff760100000000000000000000000000000000000000000000830416917e010000000000000000000000000000000000000000000000000000000000009004168b565b604080519b8c5260208c019a909a52988a01979097526060890195909552608088019390935260a087019190915273ffffffffffffffffffffffffffffffffffffffff1660c0860152151560e0850152151561010084015267ffffffffffffffff166101208301521515610140820152610160015b60405180910390f35b34801561032c57600080fd5b5061034061033b366004611a09565b61072f565b604051908152602001610317565b34801561035a57600080fd5b50610340610956565b34801561036f57600080fd5b5061038361037e3660046119f0565b6109ff565b005b34801561039157600080fd5b50610340600281565b3480156103a657600080fd5b506103ea6103b5366004611a5e565b73ffffffffffffffffffffffffffffffffffffffff166000908152600860209081526040808320546009909252909120549091565b60408051928352602083019190915201610317565b34801561040b57600080fd5b5061038361041a366004611a96565b610afe565b34801561042b57600080fd5b5061043f61043a3660046119f0565b610c39565b6040516103179190611ad4565b61038361045a3660046119f0565b610cf2565b34801561046b57600080fd5b5061034060035481565b34801561048157600080fd5b5061034066038d7ea4c6800081565b34801561049c57600080fd5b506002546104bd9073ffffffffffffffffffffffffffffffffffffffff1681565b60405173ffffffffffffffffffffffffffffffffffffffff9091168152602001610317565b3480156104ee57600080fd5b506105026104fd3660046119f0565b610fa6565b604080519b8c5260208c019a909a52988a01979097526060890195909552608088019390935260a087019190915260c086015273ffffffffffffffffffffffffffffffffffffffff1660e08501521515610100840152151561012083015267ffffffffffffffff1661014082015261016001610317565b34801561058557600080fd5b50610383610594366004611a5e565b6110ba565b3480156105a557600080fd5b506105d46105b4366004611b2e565b600760209081526000928352604080842090915290825290205460ff1681565b6040519015158152602001610317565b3480156105f057600080fd5b506103406105ff366004611a5e565b60086020526000908152604090205481565b34801561061d57600080fd5b5061034062093a8081565b34801561063457600080fd5b50610340610e1081565b34801561064a57600080fd5b50610340610659366004611a5e565b60096020526000908152604090205481565b34801561067757600080fd5b506103836106863660046119f0565b611152565b34801561069757600080fd5b50610383611380565b3480156106ac57600080fd5b5060045460055460035460408051938452602084019290925290820152606001610317565b3480156106dd57600080fd5b506103406103e881565b3480156106f357600080fd5b50610340670de0b6b3a764000081565b34801561070f57600080fd5b5061034060045481565b34801561072557600080fd5b5061034060055481565b60025460009073ffffffffffffffffffffffffffffffffffffffff163314610783576040517f30cd747100000000000000000000000000000000000000000000000000000000815260040160405180910390fd5b66038d7ea4c6800084108061079f5750670de0b6b3a764000084115b156107d6576040517f025dbdd400000000000000000000000000000000000000000000000000000000815260040160405180910390fd5b60028310806107e657506103e883115b1561081d576040517f3323cee400000000000000000000000000000000000000000000000000000000815260040160405180910390fd5b610e1082108061082f575062093a8082115b15610866576040517f3323cee400000000000000000000000000000000000000000000000000000000815260040160405180910390fd5b600380546000918261087783611b89565b9091555060048054919250600061088d83611b89565b90915550506000818152600660205260409020818155600181018690556002810185905542600382018190556108c4908590611bc1565b60048201556007810180547fffffffffffffffffffff0000ffffffffffffffffffffffffffffffffffffffff1674010000000000000000000000000000000000000000179055604080518781526020810187905290810185905282907f68b3cc7239912b7f66b9e2f9d93955382d1082297c9e6347beb37217f081650e9060600160405180910390a250949350505050565b60008060009054906101000a900473ffffffffffffffffffffffffffffffffffffffff1673ffffffffffffffffffffffffffffffffffffffff16638204b67a6040518163ffffffff1660e01b8152600401602060405180830381865afa1580156109c4573d6000803e3d6000fd5b505050506040513d601f19601f820116820180604052508101906109e89190611bda565b6fffffffffffffffffffffffffffffffff16905090565b806003548110610a3b576040517f3323cee400000000000000000000000000000000000000000000000000000000815260040160405180910390fd5b6000828152600660205260409020600781015474010000000000000000000000000000000000000000900460ff16610a9f576040517fed8627a200000000000000000000000000000000000000000000000000000000815260040160405180910390fd5b806004015442108015610ab9575060028101546006820154105b15610af0576040517f2217a82000000000000000000000000000000000000000000000000000000000815260040160405180910390fd5b610af98361141a565b505050565b60005473ffffffffffffffffffffffffffffffffffffffff1680610b83576040517f08c379a000000000000000000000000000000000000000000000000000000000815260206004820152601760248201527f456e74726f70792061646472657373206e6f742073657400000000000000000060448201526064015b60405180910390fd5b3373ffffffffffffffffffffffffffffffffffffffff821614610c28576040517f08c379a000000000000000000000000000000000000000000000000000000000815260206004820152602360248201527f4f6e6c7920456e74726f70792063616e2063616c6c20746869732066756e637460448201527f696f6e00000000000000000000000000000000000000000000000000000000006064820152608401610b7a565b610c33848484611793565b50505050565b6060816003548110610c77576040517f3323cee400000000000000000000000000000000000000000000000000000000815260040160405180910390fd5b60008381526006602081815260409283902090910180548351818402810184019094528084529091830182828015610ce557602002820191906000526020600020905b815473ffffffffffffffffffffffffffffffffffffffff168152600190910190602001808311610cba575b5050505050915050919050565b806003548110610d2e576040517f3323cee400000000000000000000000000000000000000000000000000000000815260040160405180910390fd5b6000828152600660205260409020600781015474010000000000000000000000000000000000000000900460ff16610d92576040517fed8627a200000000000000000000000000000000000000000000000000000000815260040160405180910390fd5b80600401544210610dcf576040517f8c373e5e00000000000000000000000000000000000000000000000000000000815260040160405180910390fd5b600083815260076020908152604080832033845290915290205460ff1615610e23576040517f22ce1a0700000000000000000000000000000000000000000000000000000000815260040160405180910390fd5b6002810154600682015410610e64576040517f2217a82000000000000000000000000000000000000000000000000000000000815260040160405180910390fd5b80600101543414610ea1576040517f025dbdd400000000000000000000000000000000000000000000000000000000815260040160405180910390fd5b6006810180546001810182556000918252602082200180547fffffffffffffffffffffffff00000000000000000000000000000000000000001633179055600582018054349290610ef3908490611bc1565b90915550506000838152600760209081526040808320338452825280832080547fffffffffffffffffffffffffffffffffffffffffffffffffffffffffffffff0016600117905560099091528120805491610f4d83611b89565b90915550506006810154604051908152339084907fa404489ae2c5d061785027a1520208040261d67d4f27d7082a0a65c9de4ddaa09060200160405180910390a36002810154600682015410610af957610af98361141a565b60008060008060008060008060008060008b6003548110610ff3576040517f3323cee400000000000000000000000000000000000000000000000000000000815260040160405180910390fd5b5050506000998a5250506006602081905260409098208054600182015460028301546003840154600485015460058601549d860154600790960154949e939d929c50909a509850965091945073ffffffffffffffffffffffffffffffffffffffff8116935074010000000000000000000000000000000000000000810460ff908116935075010000000000000000000000000000000000000000008204169176010000000000000000000000000000000000000000000090910467ffffffffffffffff1690565b60025473ffffffffffffffffffffffffffffffffffffffff16331461110b576040517f30cd747100000000000000000000000000000000000000000000000000000000815260040160405180910390fd5b600180547fffffffffffffffffffffffff00000000000000000000000000000000000000001673ffffffffffffffffffffffffffffffffffffffff92909216919091179055565b80600354811061118e576040517f3323cee400000000000000000000000000000000000000000000000000000000815260040160405180910390fd5b600082815260066020526040902060078101547501000000000000000000000000000000000000000000900460ff166111f3576040517f2217a82000000000000000000000000000000000000000000000000000000000815260040160405180910390fd5b600781015473ffffffffffffffffffffffffffffffffffffffff163314611246576040517f30cd747100000000000000000000000000000000000000000000000000000000815260040160405180910390fd5b8060050154600003611284576040517f025dbdd400000000000000000000000000000000000000000000000000000000815260040160405180910390fd5b600581018054600091829055604051909190339083908381818185875af1925050503d80600081146112d2576040519150601f19603f3d011682016040523d82523d6000602084013e6112d7565b606091505b5050905080611342576040517f08c379a000000000000000000000000000000000000000000000000000000000815260206004820152600f60248201527f5472616e73666572206661696c656400000000000000000000000000000000006044820152606401610b7a565b604051828152339086907f4aa95f981a8337cb337de335b965507da0879c3b49f799d20058e913f5ad2c269060200160405180910390a35050505050565b60025473ffffffffffffffffffffffffffffffffffffffff1633146113d1576040517f30cd747100000000000000000000000000000000000000000000000000000000815260040160405180910390fd5b60025460405173ffffffffffffffffffffffffffffffffffffffff909116904780156108fc02916000818181858888f19350505050158015611417573d6000803e3d6000fd5b50565b6000818152600660208190526040822090810154909103611467576040517f8b6a473000000000000000000000000000000000000000000000000000000000815260040160405180910390fd5b6007810180547fffffffffffffffffffffff00ffffffffffffffffffffffffffffffffffffffff16905560068101546001036115c557806006016000815481106114b3576114b3611c0c565b60009182526020808320909101546007840180547fffffffffffffffffffff00ff00000000000000000000000000000000000000001673ffffffffffffffffffffffffffffffffffffffff9283161775010000000000000000000000000000000000000000001790819055600585015491168352600890915260408220805491929091611541908490611bc1565b9250508190555080600501546005600082825461155e9190611bc1565b909155505060078101546005820154604080519182526000602083015273ffffffffffffffffffffffffffffffffffffffff9092169184917ffe9a7804ab1784a993460de92dad0f00d2f8c9235070e0a4f7708ff5fbf47877910160405180910390a35050565b60008060009054906101000a900473ffffffffffffffffffffffffffffffffffffffff1673ffffffffffffffffffffffffffffffffffffffff16638204b67a6040518163ffffffff1660e01b8152600401602060405180830381865afa158015611633573d6000803e3d6000fd5b505050506040513d601f19601f820116820180604052508101906116579190611bda565b6fffffffffffffffffffffffffffffffff16905060008060009054906101000a900473ffffffffffffffffffffffffffffffffffffffff1673ffffffffffffffffffffffffffffffffffffffff16637b43155d836040518263ffffffff1660e01b815260040160206040518083038185885af11580156116db573d6000803e3d6000fd5b50505050506040513d601f19601f820116820180604052508101906117009190611c3b565b6007840180547fffff0000000000000000ffffffffffffffffffffffffffffffffffffffffffff1676010000000000000000000000000000000000000000000067ffffffffffffffff84169081029190911790915560405190815290915084907f04b211700ecf92b8ce477de62320459e015235561cadb1ff1d4c0643dcbc00e19060200160405180910390a250505050565b60005b600354811015610c33576000818152600660205260409020600781015467ffffffffffffffff8681167601000000000000000000000000000000000000000000009092041614801561180f575060078101547e01000000000000000000000000000000000000000000000000000000000000900460ff16155b1561186f576007810180547fff00ffffffffffffffffffffffffffffffffffffffffffffffffffffffffffff167e010000000000000000000000000000000000000000000000000000000000001790556118698284611882565b50610c33565b508061187a81611b89565b915050611796565b60008281526006602081905260408220908101549091906118a39084611c58565b90508160060181815481106118ba576118ba611c0c565b60009182526020808320909101546007850180547fffffffffffffffffffff00ff00000000000000000000000000000000000000001673ffffffffffffffffffffffffffffffffffffffff9283161775010000000000000000000000000000000000000000001790819055600586015491168352600890915260408220805491929091611948908490611bc1565b925050819055508160050154600560008282546119659190611bc1565b90915550506007820154600583015460408051918252760100000000000000000000000000000000000000000000830467ffffffffffffffff16602083015273ffffffffffffffffffffffffffffffffffffffff9092169186917ffe9a7804ab1784a993460de92dad0f00d2f8c9235070e0a4f7708ff5fbf47877910160405180910390a350505050565b600060208284031215611a0257600080fd5b5035919050565b600080600060608486031215611a1e57600080fd5b505081359360208301359350604090920135919050565b803573ffffffffffffffffffffffffffffffffffffffff81168114611a5957600080fd5b919050565b600060208284031215611a7057600080fd5b611a7982611a35565b9392505050565b67ffffffffffffffff8116811461141757600080fd5b600080600060608486031215611aab57600080fd5b8335611ab681611a80565b9250611ac460208501611a35565b9150604084013590509250925092565b6020808252825182820181905260009190848201906040850190845b81811015611b2257835173ffffffffffffffffffffffffffffffffffffffff1683529284019291840191600101611af0565b50909695505050505050565b60008060408385031215611b4157600080fd5b82359150611b5160208401611a35565b90509250929050565b7f4e487b7100000000000000000000000000000000000000000000000000000000600052601160045260246000fd5b60007fffffffffffffffffffffffffffffffffffffffffffffffffffffffffffffffff8203611bba57611bba611b5a565b5060010190565b80820180821115611bd457611bd4611b5a565b92915050565b600060208284031215611bec57600080fd5b81516fffffffffffffffffffffffffffffffff81168114611a7957600080fd5b7f4e487b7100000000000000000000000000000000000000000000000000000000600052603260045260246000fd5b600060208284031215611c4d57600080fd5b8151611a7981611a80565b600082611c8e577f4e487b7100000000000000000000000000000000000000000000000000000000600052601260045260246000fd5b50069056fea264697066735822122089d1e10f9292737006d8f030b7794a8469b660e64931ea98a5a2ddf26847d35f64736f6c63430008110033",
  "linkReferences": {},
  "deployedLinkReferences": {}
}