{
  "_format": "hh-sol-artifact-1",
  "contractName": "PythPriceFeed",
  "sourceName": "contracts/PythPriceFeed.sol",
  "abi": [
    {
      "inputs": [],
      "name": "AssetNotSupported",
      "type": "error"
    },
    {
      "inputs": [],
      "name": "InvalidPriceData",
      "type": "error"
    },
    {
      "inputs": [],
      "name": "PriceUpdateFailed",
      "type": "error"
    },
    {
      "anonymous": false,
      "inputs": [
        {
          "indexed": false,
          "internalType": "address",
          "name": "previousAdmin",
          "type": "address"
        },
        {
          "indexed": false,
          "internalType": "address",
          "name": "newAdmin",
          "type": "address"
        }
      ],
      "name": "AdminChanged",
      "type": "event"
    },
    {
      "anonymous": false,
      "inputs": [
        {
          "indexed": false,
          "internalType": "string",
          "name": "asset",
          "type": "string"
        },
        {
          "indexed": false,
          "internalType": "bytes32",
          "name": "priceId",
          "type": "bytes32"
        }
      ],
      "name": "AssetAdded",
      "type": "event"
    },
    {
      "anonymous": false,
      "inputs": [
        {
          "indexed": true,
          "internalType": "address",
          "name": "beacon",
          "type": "address"
        }
      ],
      "name": "BeaconUpgraded",
      "type": "event"
    },
    {
      "anonymous": false,
      "inputs": [
        {
          "indexed": false,
          "internalType": "uint8",
          "name": "version",
          "type": "uint8"
        }
      ],
      "name": "Initialized",
      "type": "event"
    },
    {
      "anonymous": false,
      "inputs": [
        {
          "indexed": false,
          "internalType": "string",
          "name": "asset",
          "type": "string"
        },
        {
          "indexed": false,
          "internalType": "uint256",
          "name": "price",
          "type": "uint256"
        },
        {
          "indexed": false,
          "internalType": "int32",
          "name": "expo",
          "type": "int32"
        },
        {
          "indexed": false,
          "internalType": "uint256",
          "name": "timestamp",
          "type": "uint256"
        }
      ],
      "name": "PriceFetched",
      "type": "event"
    },
    {
      "anonymous": false,
      "inputs": [
        {
          "indexed": true,
          "internalType": "address",
          "name": "implementation",
          "type": "address"
        }
      ],
      "name": "Upgraded",
      "type": "event"
    },
    {
      "inputs": [
        {
          "internalType": "string",
          "name": "asset",
          "type": "string"
        },
        {
          "internalType": "bytes32",
          "name": "priceId",
          "type": "bytes32"
        }
      ],
      "name": "addAsset",
      "outputs": [],
      "stateMutability": "nonpayable",
      "type": "function"
    },
    {
      "inputs": [
        {
          "internalType": "string",
          "name": "asset",
          "type": "string"
        },
        {
          "internalType": "uint256",
          "name": "assetAmount",
          "type": "uint256"
        }
      ],
      "name": "calculateHbarValue",
      "outputs": [
        {
          "internalType": "uint256",
          "name": "hbarValue",
          "type": "uint256"
        }
      ],
      "stateMutability": "view",
      "type": "function"
    },
    {
      "inputs": [
        {
          "internalType": "string",
          "name": "asset",
          "type": "string"
        }
      ],
      "name": "getPrice",
      "outputs": [
        {
          "internalType": "uint256",
          "name": "price",
          "type": "uint256"
        },
        {
          "internalType": "int32",
          "name": "expo",
          "type": "int32"
        },
        {
          "internalType": "uint256",
          "name": "publishTime",
          "type": "uint256"
        }
      ],
      "stateMutability": "view",
      "type": "function"
    },
    {
      "inputs": [
        {
          "internalType": "string",
          "name": "asset",
          "type": "string"
        }
      ],
      "name": "getPriceFormatted",
      "outputs": [
        {
          "internalType": "uint256",
          "name": "formattedPrice",
          "type": "uint256"
        }
      ],
      "stateMutability": "view",
      "type": "function"
    },
    {
      "inputs": [
        {
          "internalType": "string",
          "name": "asset",
          "type": "string"
        }
      ],
      "name": "getPriceId",
      "outputs": [
        {
          "internalType": "bytes32",
          "name": "",
          "type": "bytes32"
        }
      ],
      "stateMutability": "view",
      "type": "function"
    },
    {
      "inputs": [
        {
          "internalType": "string",
          "name": "asset",
          "type": "string"
        },
        {
          "internalType": "uint256",
          "name": "maxAge",
          "type": "uint256"
        }
      ],
      "name": "getPriceNoOlderThan",
      "outputs": [
        {
          "internalType": "uint256",
          "name": "price",
          "type": "uint256"
        },
        {
          "internalType": "int32",
          "name": "expo",
          "type": "int32"
        },
        {
          "internalType": "uint256",
          "name": "publishTime",
          "type": "uint256"
        }
      ],
      "stateMutability": "view",
      "type": "function"
    },
    {
      "inputs": [],
      "name": "getSupportedAssets",
      "outputs": [
        {
          "internalType": "string[]",
          "name": "",
          "type": "string[]"
        }
      ],
      "stateMutability": "view",
      "type": "function"
    },
    {
      "inputs": [],
      "name": "getTopicId",
      "outputs": [
        {
          "internalType": "string",
          "name": "",
          "type": "string"
        }
      ],
      "stateMutability": "view",
      "type": "function"
    },
    {
      "inputs": [
        {
          "internalType": "string",
          "name": "topicId",
          "type": "string"
        }
      ],
      "name": "initialize",
      "outputs": [],
      "stateMutability": "nonpayable",
      "type": "function"
    },
    {
      "inputs": [
        {
          "internalType": "string",
          "name": "topicId",
          "type": "string"
        },
        {
          "internalType": "address",
          "name": "_pyth",
          "type": "address"
        }
      ],
      "name": "initializePythPriceFeed",
      "outputs": [],
      "stateMutability": "nonpayable",
      "type": "function"
    },
    {
      "inputs": [
        {
          "internalType": "string",
          "name": "",
          "type": "string"
        }
      ],
      "name": "priceIds",
      "outputs": [
        {
          "internalType": "bytes32",
          "name": "",
          "type": "bytes32"
        }
      ],
      "stateMutability": "view",
      "type": "function"
    },
    {
      "inputs": [],
      "name": "proxiableUUID",
      "outputs": [
        {
          "internalType": "bytes32",
          "name": "",
          "type": "bytes32"
        }
      ],
      "stateMutability": "view",
      "type": "function"
    },
    {
      "inputs": [],
      "name": "pyth",
      "outputs": [
        {
          "internalType": "contract IPyth",
          "name": "",
          "type": "address"
        }
      ],
      "stateMutability": "view",
      "type": "function"
    },
    {
      "inputs": [
        {
          "internalType": "uint256",
          "name": "",
          "type": "uint256"
        }
      ],
      "name": "supportedAssets",
      "outputs": [
        {
          "internalType": "string",
          "name": "",
          "type": "string"
        }
      ],
      "stateMutability": "view",
      "type": "function"
    },
    {
      "inputs": [
        {
          "internalType": "bytes[]",
          "name": "priceUpdateData",
          "type": "bytes[]"
        }
      ],
      "name": "updatePriceFeeds",
      "outputs": [],
      "stateMutability": "payable",
      "type": "function"
    },
    {
      "inputs": [
        {
          "internalType": "address",
          "name": "newImplementation",
          "type": "address"
        }
      ],
      "name": "upgradeTo",
      "outputs": [],
      "stateMutability": "nonpayable",
      "type": "function"
    },
    {
      "inputs": [
        {
          "internalType": "address",
          "name": "newImplementation",
          "type": "address"
        },
        {
          "internalType": "bytes",
          "name": "data",
          "type": "bytes"
        }
      ],
      "name": "upgradeToAndCall",
      "outputs": [],
      "stateMutability": "payable",
      "type": "function"
    }
  ],
  "bytecode": "0x60a06040523060805234801561001457600080fd5b5060805161296c61004c600039600081816103aa0152818161045f0152818161063d015281816106ed0152610988015261296c6000f3fe60806040526004361061010e5760003560e01c806382b0a2e7116100a5578063e5406dbf11610074578063ef9e5e2811610059578063ef9e5e281461030e578063f62d188814610321578063f98d06f01461034157600080fd5b8063e5406dbf146102cc578063ef099bc6146102ee57600080fd5b806382b0a2e71461024c578063c4bce93d1461026c578063c68dbb371461028c578063e47716b0146102ac57600080fd5b806352d1902d116100e157806352d1902d146101b1578063704d1add146101d4578063705f540c146101f4578063737549221461021457600080fd5b80633659cfe61461011357806336a1f569146101355780634f1ef28614610160578063524f388914610173575b600080fd5b34801561011f57600080fd5b5061013361012e366004611e1c565b610393565b005b34801561014157600080fd5b5061014a610594565b6040516101579190611ea5565b60405180910390f35b61013361016e366004611f7b565b610626565b34801561017f57600080fd5b5061019361018e366004611ffd565b610813565b6040805193845260039290920b602084015290820152606001610157565b3480156101bd57600080fd5b506101c661096e565b604051908152602001610157565b3480156101e057600080fd5b506101c66101ef366004612032565b610a5a565b34801561020057600080fd5b5061019361020f366004612032565b610baa565b34801561022057600080fd5b506101c661022f366004611ffd565b805160208183018101805160678252928201919093012091525481565b34801561025857600080fd5b506101c6610267366004611ffd565b610d0d565b34801561027857600080fd5b50610133610287366004612077565b610d35565b34801561029857600080fd5b5061014a6102a73660046120c5565b611063565b3480156102b857600080fd5b506101c66102c7366004611ffd565b61110f565b3480156102d857600080fd5b506102e16112fc565b60405161015791906120de565b3480156102fa57600080fd5b50610133610309366004612032565b6113d5565b61013361031c36600461215e565b6113df565b34801561032d57600080fd5b5061013361033c366004611ffd565b6116b4565b34801561034d57600080fd5b5060665461036e9073ffffffffffffffffffffffffffffffffffffffff1681565b60405173ffffffffffffffffffffffffffffffffffffffff9091168152602001610157565b73ffffffffffffffffffffffffffffffffffffffff7f000000000000000000000000000000000000000000000000000000000000000016300361045d576040517f08c379a000000000000000000000000000000000000000000000000000000000815260206004820152602c60248201527f46756e6374696f6e206d7573742062652063616c6c6564207468726f7567682060448201527f64656c656761746563616c6c000000000000000000000000000000000000000060648201526084015b60405180910390fd5b7f000000000000000000000000000000000000000000000000000000000000000073ffffffffffffffffffffffffffffffffffffffff166104d27f360894a13ba1a3210667c828492db98dca3e2076cc3735a920a3ca505d382bbc5473ffffffffffffffffffffffffffffffffffffffff1690565b73ffffffffffffffffffffffffffffffffffffffff1614610575576040517f08c379a000000000000000000000000000000000000000000000000000000000815260206004820152602c60248201527f46756e6374696f6e206d7573742062652063616c6c6564207468726f7567682060448201527f6163746976652070726f787900000000000000000000000000000000000000006064820152608401610454565b604080516000808252602082019092526105919183919061184c565b50565b6060600180546105a3906121d3565b80601f01602080910402602001604051908101604052809291908181526020018280546105cf906121d3565b801561061c5780601f106105f15761010080835404028352916020019161061c565b820191906000526020600020905b8154815290600101906020018083116105ff57829003601f168201915b5050505050905090565b73ffffffffffffffffffffffffffffffffffffffff7f00000000000000000000000000000000000000000000000000000000000000001630036106eb576040517f08c379a000000000000000000000000000000000000000000000000000000000815260206004820152602c60248201527f46756e6374696f6e206d7573742062652063616c6c6564207468726f7567682060448201527f64656c656761746563616c6c00000000000000000000000000000000000000006064820152608401610454565b7f000000000000000000000000000000000000000000000000000000000000000073ffffffffffffffffffffffffffffffffffffffff166107607f360894a13ba1a3210667c828492db98dca3e2076cc3735a920a3ca505d382bbc5473ffffffffffffffffffffffffffffffffffffffff1690565b73ffffffffffffffffffffffffffffffffffffffff1614610803576040517f08c379a000000000000000000000000000000000000000000000000000000000815260206004820152602c60248201527f46756e6374696f6e206d7573742062652063616c6c6564207468726f7567682060448201527f6163746976652070726f787900000000000000000000000000000000000000006064820152608401610454565b61080f8282600161184c565b5050565b6000806000806067856040516108299190612226565b90815260405190819003602001902054905080610872576040517f981a2a2b00000000000000000000000000000000000000000000000000000000815260040160405180910390fd5b6066546040517f31d98b3f0000000000000000000000000000000000000000000000000000000081526004810183905260009173ffffffffffffffffffffffffffffffffffffffff16906331d98b3f90602401608060405180830381865afa1580156108e2573d6000803e3d6000fd5b505050506040513d601f19601f820116820180604052508101906109069190612254565b90506000816000015160070b13610949576040517ff45e167b00000000000000000000000000000000000000000000000000000000815260040160405180910390fd5b8051604082015160609092015167ffffffffffffffff90911697919650945092505050565b60003073ffffffffffffffffffffffffffffffffffffffff7f00000000000000000000000000000000000000000000000000000000000000001614610a35576040517f08c379a000000000000000000000000000000000000000000000000000000000815260206004820152603860248201527f555550535570677261646561626c653a206d757374206e6f742062652063616c60448201527f6c6564207468726f7567682064656c656761746563616c6c00000000000000006064820152608401610454565b507f360894a13ba1a3210667c828492db98dca3e2076cc3735a920a3ca505d382bbc90565b6040517fe47716b00000000000000000000000000000000000000000000000000000000081526000908190309063e47716b090610a9b908790600401611ea5565b602060405180830381865afa158015610ab8573d6000803e3d6000fd5b505050506040513d601f19601f82011682018060405250810190610adc91906122e3565b6040517fe47716b000000000000000000000000000000000000000000000000000000000815260206004820152600860248201527f484241522f5553440000000000000000000000000000000000000000000000006044820152909150600090309063e47716b090606401602060405180830381865afa158015610b64573d6000803e3d6000fd5b505050506040513d601f19601f82011682018060405250810190610b8891906122e3565b905080610b95838661232b565b610b9f9190612342565b925050505b92915050565b600080600080606786604051610bc09190612226565b90815260405190819003602001902054905080610c09576040517f981a2a2b00000000000000000000000000000000000000000000000000000000815260040160405180910390fd5b6066546040517fa4ae35e0000000000000000000000000000000000000000000000000000000008152600481018390526024810187905260009173ffffffffffffffffffffffffffffffffffffffff169063a4ae35e090604401608060405180830381865afa158015610c80573d6000803e3d6000fd5b505050506040513d601f19601f82011682018060405250810190610ca49190612254565b90506000816000015160070b13610ce7576040517ff45e167b00000000000000000000000000000000000000000000000000000000815260040160405180910390fd5b8051604082015160609092015167ffffffffffffffff9091169891975095509350505050565b6000606782604051610d1f9190612226565b9081526020016040518091039020549050919050565b600054610100900460ff1615808015610d555750600054600160ff909116105b80610d6f5750303b158015610d6f575060005460ff166001145b610dfb576040517f08c379a000000000000000000000000000000000000000000000000000000000815260206004820152602e60248201527f496e697469616c697a61626c653a20636f6e747261637420697320616c72656160448201527f647920696e697469616c697a65640000000000000000000000000000000000006064820152608401610454565b600080547fffffffffffffffffffffffffffffffffffffffffffffffffffffffffffffff001660011790558015610e5957600080547fffffffffffffffffffffffffffffffffffffffffffffffffffffffffffff00ff166101001790555b610e62836116b4565b606680547fffffffffffffffffffffffff00000000000000000000000000000000000000001673ffffffffffffffffffffffffffffffffffffffff841617905560408051808201909152600781527f4554482f555344000000000000000000000000000000000000000000000000006020820152610f00907fff61491a931112ddf1bd8147cd1b641375f79f5825126d665480874634fd0ace611a4b565b60408051808201909152600781527f534f4c2f555344000000000000000000000000000000000000000000000000006020820152610f5e907fef0d8b6fda2ceba41da15d4095d1da392a0d2f8ed0c6c7bc0f4cfac8c280b56d611a4b565b60408051808201909152600781527f4254432f555344000000000000000000000000000000000000000000000000006020820152610fbc907ff9c0172ba10dfa4d19088d94f5bf61d3b54d5bd7483a322a982e1373ee8ea31b611a4b565b60408051808201909152600881527f484241522f5553440000000000000000000000000000000000000000000000006020820152610ffb906001611a4b565b801561105e57600080547fffffffffffffffffffffffffffffffffffffffffffffffffffffffffffff00ff169055604051600181527f7f26b83ff96e1f2b6a682f133852f6798a09c465da95921460cefb38474024989060200160405180910390a15b505050565b6068818154811061107357600080fd5b90600052602060002001600091509050805461108e906121d3565b80601f01602080910402602001604051908101604052809291908181526020018280546110ba906121d3565b80156111075780601f106110dc57610100808354040283529160200191611107565b820191906000526020600020905b8154815290600101906020018083116110ea57829003601f168201915b505050505081565b6000806067836040516111229190612226565b9081526040519081900360200190205490508061116b576040517f981a2a2b00000000000000000000000000000000000000000000000000000000815260040160405180910390fd5b6066546040517f31d98b3f0000000000000000000000000000000000000000000000000000000081526004810183905260009173ffffffffffffffffffffffffffffffffffffffff16906331d98b3f90602401608060405180830381865afa1580156111db573d6000803e3d6000fd5b505050506040513d601f19601f820116820180604052508101906111ff9190612254565b90506000816000015160070b13611242576040517ff45e167b00000000000000000000000000000000000000000000000000000000815260040160405180910390fd5b6000816040015160030b1261129057604081015161126190600a61249d565b8151611277919067ffffffffffffffff1661232b565b61128990670de0b6b3a764000061232b565b92506112f5565b60408101516112bf907fffffffffffffffffffffffffffffffffffffffffffffffffffffffffffffffff6124af565b6112ca90600a61249d565b81516112e89067ffffffffffffffff16670de0b6b3a764000061232b565b6112f29190612342565b92505b5050919050565b60606068805480602002602001604051908101604052809291908181526020016000905b828210156113cc57838290600052602060002001805461133f906121d3565b80601f016020809104026020016040519081016040528092919081815260200182805461136b906121d3565b80156113b85780601f1061138d576101008083540402835291602001916113b8565b820191906000526020600020905b81548152906001019060200180831161139b57829003601f168201915b505050505081526020019060010190611320565b50505050905090565b61080f8282611a4b565b6066546040517fd47eed4500000000000000000000000000000000000000000000000000000000815260009173ffffffffffffffffffffffffffffffffffffffff169063d47eed4590611438908690869060040161251f565b602060405180830381865afa158015611455573d6000803e3d6000fd5b505050506040513d601f19601f8201168201806040525081019061147991906122e3565b9050803410156114b5576040517f2b5186a400000000000000000000000000000000000000000000000000000000815260040160405180910390fd5b6066546040517fef9e5e2800000000000000000000000000000000000000000000000000000000815273ffffffffffffffffffffffffffffffffffffffff9091169063ef9e5e2890839061150f908790879060040161251f565b6000604051808303818588803b15801561152857600080fd5b505af115801561153c573d6000803e3d6000fd5b50505050508034111561158157336108fc61155783346125f6565b6040518115909202916000818181858888f1935050505015801561157f573d6000803e3d6000fd5b505b60005b6068548110156116ae573073ffffffffffffffffffffffffffffffffffffffff1663524f3889606883815481106115bd576115bd612609565b906000526020600020016040518263ffffffff1660e01b81526004016115e391906126d3565b606060405180830381865afa92505050801561163a575060408051601f3d9081017fffffffffffffffffffffffffffffffffffffffffffffffffffffffffffffffe0168201909252611637918101906126e6565b60015b1561169c577fb0945766771f60d970c2afeee856820169eefed2ecfc2a4d4b2084cb75f103426068858154811061167357611673612609565b90600052602060002001848442604051611690949392919061271b565b60405180910390a15050505b806116a68161274d565b915050611584565b50505050565b600054610100900460ff16158080156116d45750600054600160ff909116105b806116ee5750303b1580156116ee575060005460ff166001145b61177a576040517f08c379a000000000000000000000000000000000000000000000000000000000815260206004820152602e60248201527f496e697469616c697a61626c653a20636f6e747261637420697320616c72656160448201527f647920696e697469616c697a65640000000000000000000000000000000000006064820152608401610454565b600080547fffffffffffffffffffffffffffffffffffffffffffffffffffffffffffffff0016600117905580156117d857600080547fffffffffffffffffffffffffffffffffffffffffffffffffffffffffffff00ff166101001790555b60016117e483826127d3565b50801561080f57600080547fffffffffffffffffffffffffffffffffffffffffffffffffffffffffffff00ff169055604051600181527f7f26b83ff96e1f2b6a682f133852f6798a09c465da95921460cefb3847402498906020015b60405180910390a15050565b7f4910fdfa16fed3260ed0e7147f7cc6da11a60208b5b9406d12a635614ffd91435460ff161561187f5761105e83611ada565b8273ffffffffffffffffffffffffffffffffffffffff166352d1902d6040518163ffffffff1660e01b8152600401602060405180830381865afa925050508015611904575060408051601f3d9081017fffffffffffffffffffffffffffffffffffffffffffffffffffffffffffffffe0168201909252611901918101906122e3565b60015b611990576040517f08c379a000000000000000000000000000000000000000000000000000000000815260206004820152602e60248201527f45524331393637557067726164653a206e657720696d706c656d656e7461746960448201527f6f6e206973206e6f7420555550530000000000000000000000000000000000006064820152608401610454565b7f360894a13ba1a3210667c828492db98dca3e2076cc3735a920a3ca505d382bbc8114611a3f576040517f08c379a000000000000000000000000000000000000000000000000000000000815260206004820152602960248201527f45524331393637557067726164653a20756e737570706f727465642070726f7860448201527f6961626c655555494400000000000000000000000000000000000000000000006064820152608401610454565b5061105e838383611be4565b80606783604051611a5c9190612226565b90815260405190819003602001902055606880546001810182556000919091527fa2153420d844928b4421650203c77babc8b33d7f2e7b450e2966db0c2209775301611aa883826127d3565b507f7e0f48a71f9495e723ee7cf01b0e8add4111a8c92c86a66e53e73b1683ed10af82826040516118409291906128ed565b73ffffffffffffffffffffffffffffffffffffffff81163b611b7e576040517f08c379a000000000000000000000000000000000000000000000000000000000815260206004820152602d60248201527f455243313936373a206e657720696d706c656d656e746174696f6e206973206e60448201527f6f74206120636f6e7472616374000000000000000000000000000000000000006064820152608401610454565b7f360894a13ba1a3210667c828492db98dca3e2076cc3735a920a3ca505d382bbc80547fffffffffffffffffffffffff00000000000000000000000000000000000000001673ffffffffffffffffffffffffffffffffffffffff92909216919091179055565b611bed83611c09565b600082511180611bfa5750805b1561105e576116ae8383611c56565b611c1281611ada565b60405173ffffffffffffffffffffffffffffffffffffffff8216907fbc7cd75a20ee27fd9adebab32041f755214dbc6bffa90cc0225b39da2e5c2d3b90600090a250565b6060611c7b838360405180606001604052806027815260200161291060279139611c82565b9392505050565b60606000808573ffffffffffffffffffffffffffffffffffffffff1685604051611cac9190612226565b600060405180830381855af49150503d8060008114611ce7576040519150601f19603f3d011682016040523d82523d6000602084013e611cec565b606091505b5091509150611cfd86838387611d07565b9695505050505050565b60608315611d9d578251600003611d965773ffffffffffffffffffffffffffffffffffffffff85163b611d96576040517f08c379a000000000000000000000000000000000000000000000000000000000815260206004820152601d60248201527f416464726573733a2063616c6c20746f206e6f6e2d636f6e74726163740000006044820152606401610454565b5081611da7565b611da78383611daf565b949350505050565b815115611dbf5781518083602001fd5b806040517f08c379a00000000000000000000000000000000000000000000000000000000081526004016104549190611ea5565b803573ffffffffffffffffffffffffffffffffffffffff81168114611e1757600080fd5b919050565b600060208284031215611e2e57600080fd5b611c7b82611df3565b60005b83811015611e52578181015183820152602001611e3a565b50506000910152565b60008151808452611e73816020860160208601611e37565b601f017fffffffffffffffffffffffffffffffffffffffffffffffffffffffffffffffe0169290920160200192915050565b602081526000611c7b6020830184611e5b565b7f4e487b7100000000000000000000000000000000000000000000000000000000600052604160045260246000fd5b600067ffffffffffffffff80841115611f0257611f02611eb8565b604051601f85017fffffffffffffffffffffffffffffffffffffffffffffffffffffffffffffffe0908116603f01168101908282118183101715611f4857611f48611eb8565b81604052809350858152868686011115611f6157600080fd5b858560208301376000602087830101525050509392505050565b60008060408385031215611f8e57600080fd5b611f9783611df3565b9150602083013567ffffffffffffffff811115611fb357600080fd5b8301601f81018513611fc457600080fd5b611fd385823560208401611ee7565b9150509250929050565b600082601f830112611fee57600080fd5b611c7b83833560208501611ee7565b60006020828403121561200f57600080fd5b813567ffffffffffffffff81111561202657600080fd5b611da784828501611fdd565b6000806040838503121561204557600080fd5b823567ffffffffffffffff81111561205c57600080fd5b61206885828601611fdd565b95602094909401359450505050565b6000806040838503121561208a57600080fd5b823567ffffffffffffffff8111156120a157600080fd5b6120ad85828601611fdd565b9250506120bc60208401611df3565b90509250929050565b6000602082840312156120d757600080fd5b5035919050565b6000602080830181845280855180835260408601915060408160051b870101925083870160005b82811015612151577fffffffffffffffffffffffffffffffffffffffffffffffffffffffffffffffc088860301845261213f858351611e5b565b94509285019290850190600101612105565b5092979650505050505050565b6000806020838503121561217157600080fd5b823567ffffffffffffffff8082111561218957600080fd5b818501915085601f83011261219d57600080fd5b8135818111156121ac57600080fd5b8660208260051b85010111156121c157600080fd5b60209290920196919550909350505050565b600181811c908216806121e757607f821691505b602082108103612220577f4e487b7100000000000000000000000000000000000000000000000000000000600052602260045260246000fd5b50919050565b60008251612238818460208701611e37565b9190910192915050565b8051600381900b8114611e1757600080fd5b60006080828403121561226657600080fd5b6040516080810167ffffffffffffffff828210818311171561228a5761228a611eb8565b81604052845191508160070b82146122a157600080fd5b90825260208401519080821682146122b857600080fd5b5060208201526122ca60408401612242565b6040820152606083015160608201528091505092915050565b6000602082840312156122f557600080fd5b5051919050565b7f4e487b7100000000000000000000000000000000000000000000000000000000600052601160045260246000fd5b8082028115828204841417610ba457610ba46122fc565b600082612378577f4e487b7100000000000000000000000000000000000000000000000000000000600052601260045260246000fd5b500490565b600181815b808511156123d657817fffffffffffffffffffffffffffffffffffffffffffffffffffffffffffffffff048211156123bc576123bc6122fc565b808516156123c957918102915b93841c9390800290612382565b509250929050565b6000826123ed57506001610ba4565b816123fa57506000610ba4565b8160018114612410576002811461241a57612436565b6001915050610ba4565b60ff84111561242b5761242b6122fc565b50506001821b610ba4565b5060208310610133831016604e8410600b8410161715612459575081810a610ba4565b612463838361237d565b807fffffffffffffffffffffffffffffffffffffffffffffffffffffffffffffffff04821115612495576124956122fc565b029392505050565b6000611c7b63ffffffff8416836123de565b60008260030b8260030b028060030b91508082146124cf576124cf6122fc565b5092915050565b8183528181602085013750600060208284010152600060207fffffffffffffffffffffffffffffffffffffffffffffffffffffffffffffffe0601f840116840101905092915050565b60208082528181018390526000906040600585901b8401810190840186845b878110156125e9577fffffffffffffffffffffffffffffffffffffffffffffffffffffffffffffffc087850301835281357fffffffffffffffffffffffffffffffffffffffffffffffffffffffffffffffe18a360301811261259f57600080fd5b8901858101903567ffffffffffffffff8111156125bb57600080fd5b8036038213156125ca57600080fd5b6125d58682846124d6565b95505050918401919084019060010161253e565b5091979650505050505050565b81810381811115610ba457610ba46122fc565b7f4e487b7100000000000000000000000000000000000000000000000000000000600052603260045260246000fd5b60008154612645816121d3565b808552602060018381168015612662576001811461269a576126c8565b7fffffffffffffffffffffffffffffffffffffffffffffffffffffffffffffff008516838901528284151560051b89010195506126c8565b866000528260002060005b858110156126c05781548a82018601529083019084016126a5565b890184019650505b505050505092915050565b602081526000611c7b6020830184612638565b6000806000606084860312156126fb57600080fd5b8351925061270b60208501612242565b9150604084015190509250925092565b60808152600061272e6080830187612638565b60208301959095525060039290920b6040830152606090910152919050565b60007fffffffffffffffffffffffffffffffffffffffffffffffffffffffffffffffff820361277e5761277e6122fc565b5060010190565b601f82111561105e57600081815260208120601f850160051c810160208610156127ac5750805b601f850160051c820191505b818110156127cb578281556001016127b8565b505050505050565b815167ffffffffffffffff8111156127ed576127ed611eb8565b612801816127fb84546121d3565b84612785565b602080601f831160018114612854576000841561281e5750858301515b7fffffffffffffffffffffffffffffffffffffffffffffffffffffffffffffffff600386901b1c1916600185901b1785556127cb565b6000858152602081207fffffffffffffffffffffffffffffffffffffffffffffffffffffffffffffffe08616915b828110156128a157888601518255948401946001909101908401612882565b50858210156128dd57878501517fffffffffffffffffffffffffffffffffffffffffffffffffffffffffffffffff600388901b60f8161c191681555b5050505050600190811b01905550565b6040815260006129006040830185611e5b565b9050826020830152939250505056fe416464726573733a206c6f772d6c6576656c2064656c65676174652063616c6c206661696c6564a2646970667358221220b3f8bee9f602ed41881399b765707ebaf4d0bff88166f4ad4b33420307e2e3d464736f6c63430008110033",
  "linkReferences": {},
  "deployedLinkReferences": {}
}